{
  "contractName": "Auction",
  "abi": [
    {
      "constant": true,
      "inputs": [],
      "name": "izx",
      "outputs": [
        {
          "name": "",
          "type": "address"
        }
      ],
      "payable": false,
      "stateMutability": "view",
      "type": "function"
    },
    {
      "constant": false,
      "inputs": [
        {
          "name": "_tokenId",
          "type": "uint256"
        }
      ],
      "name": "withdraw",
      "outputs": [],
      "payable": false,
      "stateMutability": "nonpayable",
      "type": "function"
    },
    {
      "constant": false,
      "inputs": [
        {
          "name": "_tokenId",
          "type": "uint256"
        },
        {
          "name": "_start_price",
          "type": "uint256"
        },
        {
          "name": "_sale_price",
          "type": "uint256"
        },
        {
          "name": "_duration",
          "type": "uint256"
        }
      ],
      "name": "sell",
      "outputs": [],
      "payable": false,
      "stateMutability": "nonpayable",
      "type": "function"
    },
    {
      "constant": true,
      "inputs": [],
      "name": "host_share",
      "outputs": [
        {
          "name": "",
          "type": "uint256"
        }
      ],
      "payable": false,
      "stateMutability": "view",
      "type": "function"
    },
    {
      "constant": false,
      "inputs": [
        {
          "name": "_tokenId",
          "type": "uint256"
        },
        {
          "name": "_amount",
          "type": "uint256"
        }
      ],
      "name": "bid",
      "outputs": [],
      "payable": false,
      "stateMutability": "nonpayable",
      "type": "function"
    },
    {
      "constant": true,
      "inputs": [],
      "name": "driver",
      "outputs": [
        {
          "name": "",
          "type": "address"
        }
      ],
      "payable": false,
      "stateMutability": "view",
      "type": "function"
    },
    {
      "constant": true,
      "inputs": [
        {
          "name": "",
          "type": "uint256"
        }
      ],
      "name": "items",
      "outputs": [
        {
          "name": "owner",
          "type": "address"
        },
        {
          "name": "winner",
          "type": "address"
        },
        {
          "name": "finish_at",
          "type": "uint256"
        },
        {
          "name": "start_price",
          "type": "uint256"
        },
        {
          "name": "sale_price",
          "type": "uint256"
        },
        {
          "name": "amount",
          "type": "uint256"
        }
      ],
      "payable": false,
      "stateMutability": "view",
      "type": "function"
    },
    {
      "constant": true,
      "inputs": [],
      "name": "erc721token",
      "outputs": [
        {
          "name": "",
          "type": "address"
        }
      ],
      "payable": false,
      "stateMutability": "view",
      "type": "function"
    },
    {
      "constant": true,
      "inputs": [],
      "name": "host",
      "outputs": [
        {
          "name": "",
          "type": "address"
        }
      ],
      "payable": false,
      "stateMutability": "view",
      "type": "function"
    },
    {
      "inputs": [
        {
          "name": "_host",
          "type": "address"
        },
        {
          "name": "_token",
          "type": "address"
        },
        {
          "name": "_host_share",
          "type": "uint256"
        }
      ],
      "payable": false,
      "stateMutability": "nonpayable",
      "type": "constructor"
    },
    {
      "anonymous": false,
      "inputs": [
        {
          "indexed": true,
          "name": "token",
          "type": "address"
        },
        {
          "indexed": true,
          "name": "owner",
          "type": "address"
        },
        {
          "indexed": false,
          "name": "tokenId",
          "type": "uint256"
        }
      ],
      "name": "Sale",
      "type": "event"
    },
    {
      "anonymous": false,
      "inputs": [
        {
          "indexed": true,
          "name": "token",
          "type": "address"
        },
        {
          "indexed": true,
          "name": "bidder",
          "type": "address"
        },
        {
          "indexed": false,
          "name": "tokenId",
          "type": "uint256"
        },
        {
          "indexed": false,
          "name": "amount",
          "type": "uint256"
        }
      ],
      "name": "Bid",
      "type": "event"
    },
    {
      "anonymous": false,
      "inputs": [
        {
          "indexed": true,
          "name": "token",
          "type": "address"
        },
        {
          "indexed": true,
          "name": "winner",
          "type": "address"
        },
        {
          "indexed": false,
          "name": "tokenId",
          "type": "uint256"
        },
        {
          "indexed": false,
          "name": "amount",
          "type": "uint256"
        }
      ],
      "name": "Sold",
      "type": "event"
    }
  ],
  "bytecode": "0x6060604052341561000f57600080fd5b604051606080610bc3833981016040528080519190602001805191906020018051915050600160a060020a038216151561004857600080fd5b606481111561005657600080fd5b60008054600160a060020a03191633600160a060020a0390811691909117808355169063fc0c546a90604051602001526040518163ffffffff167c0100000000000000000000000000000000000000000000000000000000028152600401602060405180830381600087803b15156100cd57600080fd5b6102c65a03f115156100de57600080fd5b505050604051805160028054600160a060020a0319908116600160a060020a0393841617909155600180548216958316959095179094556003805490941694169390931790915560045550610a8b806101386000396000f30060606040526004361061007f5763ffffffff60e060020a600035041663284084f981146100845780632e1a7d4d146100b35780633620875e146100cb57806358d3ceab146100ea578063598647f81461010f5780636ecc5d6214610128578063bfb231d21461013b578063e5ebccf414610193578063f437bc59146101a6575b600080fd5b341561008f57600080fd5b6100976101b9565b604051600160a060020a03909116815260200160405180910390f35b34156100be57600080fd5b6100c96004356101c8565b005b34156100d657600080fd5b6100c9600435602435604435606435610222565b34156100f557600080fd5b6100fd610412565b60405190815260200160405180910390f35b341561011a57600080fd5b6100c9600435602435610418565b341561013357600080fd5b61009761073f565b341561014657600080fd5b61015160043561074e565b604051600160a060020a0396871681529490951660208501526040808501939093526060840191909152608083015260a082019290925260c001905180910390f35b341561019e57600080fd5b610097610790565b34156101b157600080fd5b61009761079f565b600254600160a060020a031681565b6000818152600560205260409020600281015442116101e657600080fd5b6005810154600090116101f857600080fd5b80546001820154600583015461021e928592600160a060020a03918216929116906107ae565b5050565b600154600160a060020a0316636352211e8560006040516020015260405160e060020a63ffffffff84160281526004810191909152602401602060405180830381600087803b151561027357600080fd5b6102c65a03f1151561028457600080fd5b50505060405180519050600160a060020a031633600160a060020a03161415156102ad57600080fd5b828210156102ba57600080fd5b600081116102c757600080fd5b600084815260056020526040902054600160a060020a0316156102e957600080fd5b60c06040519081016040908152600160a060020a033316825260006020830152810161031b428463ffffffff610a0816565b81526020808201869052604080830186905260006060909301839052878352600590915290208151815473ffffffffffffffffffffffffffffffffffffffff1916600160a060020a0391909116178155602082015160018201805473ffffffffffffffffffffffffffffffffffffffff1916600160a060020a039290921691909117905560408201518160020155606082015181600301556080820151816004015560a082015160059091015550600154600160a060020a0333811691167f3f3483d0995db4c081e0101ef6753bef457833c20605cd871de61dcb48085a9a8660405190815260200160405180910390a350505050565b60045481565b6000828152600560205260409020600281015442901161043757600080fd5b6005810154821161044757600080fd5b600381015482101561045857600080fd5b6001810154600160a060020a031615156104cd57600154600160a060020a031663b2e6ceeb8460405160e060020a63ffffffff84160281526004810191909152602401600060405180830381600087803b15156104b457600080fd5b6102c65a03f115156104c557600080fd5b505050610560565b60025460018201546005830154600160a060020a039283169263a9059cbb92169060006040516020015260405160e060020a63ffffffff8516028152600160a060020a0390921660048301526024820152604401602060405180830381600087803b151561053a57600080fd5b6102c65a03f1151561054b57600080fd5b50505060405180519050151561056057600080fd5b6004810154821061062c576002546004820154600160a060020a03909116906323b872dd903390309060006040516020015260405160e060020a63ffffffff8616028152600160a060020a0393841660048201529190921660248201526044810191909152606401602060405180830381600087803b15156105e157600080fd5b6102c65a03f115156105f257600080fd5b50505060405180519050151561060757600080fd5b80546004820154610627918591600160a060020a039091169033906107ae565b6106f0565b600254600160a060020a03166323b872dd33308560006040516020015260405160e060020a63ffffffff8616028152600160a060020a0393841660048201529190921660248201526044810191909152606401602060405180830381600087803b151561069857600080fd5b6102c65a03f115156106a957600080fd5b5050506040518051905015156106be57600080fd5b60018101805473ffffffffffffffffffffffffffffffffffffffff191633600160a060020a0316179055600581018290555b600154600160a060020a0333811691167fd21fbaad97462831ad0c216f300fefb33a10b03bb18bb70ed668562e88d15d53858560405191825260208201526040908101905180910390a3505050565b600054600160a060020a031681565b6005602081905260009182526040909120805460018201546002830154600384015460048501549490950154600160a060020a03938416959290931693909286565b600154600160a060020a031681565b600354600160a060020a031681565b60008060646107c860045485610a2290919063ffffffff16565b8115156107d157fe5b049150600082111561085f57600254600354600160a060020a039182169163a9059cbb91168460006040516020015260405160e060020a63ffffffff8516028152600160a060020a0390921660048301526024820152604401602060405180830381600087803b151561084357600080fd5b6102c65a03f1151561085457600080fd5b505050604051805150505b61086f838363ffffffff610a4d16565b905060008111156108f557600254600160a060020a031663a9059cbb868360006040516020015260405160e060020a63ffffffff8516028152600160a060020a0390921660048301526024820152604401602060405180830381600087803b15156108d957600080fd5b6102c65a03f115156108ea57600080fd5b505050604051805150505b600154600160a060020a031663a9059cbb858860405160e060020a63ffffffff8516028152600160a060020a0390921660048301526024820152604401600060405180830381600087803b151561094b57600080fd5b6102c65a03f1151561095c57600080fd5b5050506000868152600560208190526040808320805473ffffffffffffffffffffffffffffffffffffffff1990811682556001808301805490921690915560028201859055600382018590556004820185905592019290925554600160a060020a03868116929116907f16dd16959a056953a63cf14bf427881e762e54f03d86b864efea8238dd3b822f90899087905191825260208201526040908101905180910390a3505050505050565b600082820183811015610a1757fe5b8091505b5092915050565b600080831515610a355760009150610a1b565b50828202828482811515610a4557fe5b0414610a1757fe5b600082821115610a5957fe5b509003905600a165627a7a72305820ece3c9e40a3f42afa7ea170db683c4733c8bbf75bc14f5faf36c44617404c2750029",
  "source": "pragma solidity ^0.4.18;\n\nimport 'zeppelin-solidity/contracts/token/ERC721/ERC721.sol';\nimport 'zeppelin-solidity/contracts/math/SafeMath.sol';\n\nimport '../token/ERC20.sol';\nimport './TokenDriver.sol';\n\n/**\n * @title Auction contract\n *\n * @dev Auction is a contract between ERC721 token seller, host (which typically is the game owner) and\n * token buyers. Intended to buys/sell ERC721 tokens (intangible, non-tradeable)\n * for IZX tokens (tangible, tradeable) .\n *\n *  Rules of the auction is:\n *\n *  Seller approves ERC721 token with tokenId to be sold on the auction. He or she specifies tokenId to be sold,\n *  and the auction paramteres:\n *    - the start_price in IZX, the minimum bid amount;\n *    - sale_price in IZX , immediate sale bid amount;\n *    - finish_at, when auction finishes\n *\n *  Buyer approves some amount of IZX tokens to auction, and then can make bids in limit of the approved amount.\n *  Buyer makes bids in auction:\n *    - bid amount must not be less than start_price, specified by the seller\n *    - bid amount must not be larger, than the amount of the previous bidder if any\n *    - bid can only be made before finish_at time\n *    - if bid amount is equal or larger than the sale_price, the bid is closed and tokens are transfered as specified below.\n *    - after the finish_at time the unclosed bids can be withdrawn using withdraw method. It can be caled by the winner,\n *    or anybody else after the finish_at time.\n *\n *   On the auction closing ( on finish_time or sale_price ):\n *    - ERC721 token is transfered to the winner of auction. ERC721 token is transfered to the auction contract at time of the\n *    first successfull bid. It is then transfered to the winner on auction close.\n *    - IZX token is trabsfered to the seller and the host of the auction in the proportions, defined by the host at time of\n *    the auction creation. host_share is the percentage (0 to 100) share of the payout for\n *    every completed conversion in the new contract. If equal to 0, all token price is payed\n *    to the winner of the prize. If set to 100, all bid amount is payed to host, nothing left to the winner.\n *\n *\n * The basic sequence of auction consists of steps:\n *  1) The game manager creates the auction in TokenDriver contract to allow players to sell\n *  game ERC721 token for IZX. The address of the new contract is promoted to players (potential sellers and buyers ).\n *  2) Seller, owing ERC721 token, approves it to this auction using ERC721 method approve\n *  3) Seller calls sell method of this contract, specifying desired auction parameters.\n *  4) Buyer allows an amount of IZX to be transfered of this contract\n *  5) Buyer calls bid method of the contract to make a bid on particular token ID\n *  6) Buyer can win immedeately, if the amount of bid is equal or larger, than the sale price,\n *  specified in the auction. If it happens, he gets ERC721 token, and an amount of IZX is withdrawn from\n *  his account.\n *  7) Otherwise, the winner is determined by the last bid before auction finish time. After that, calling\n *  withdraw method will transfer tokens.\n *\n * @notice Auction is created using TokenDriver to allow IZX token to be approved and transfered to this contract.\n * The campaign can work with any ERC721-compliant token.\n *\n * @author Aleksey Studnev <studnev@izx.io>\n */\ncontract Auction  {\n\n    struct Item {\n        address owner;\n        address winner;\n        uint    finish_at;\n        uint    start_price;\n        uint    sale_price;\n        uint    amount;\n    }\n\n    TokenDriver public  driver;\n    ERC721      public  erc721token;\n    ERC20       public  izx;\n    address     public  host;\n    uint        public  host_share;\n\n    mapping(uint256 => Item) public items;\n\n    event Sale( address indexed token, address indexed owner, uint256 tokenId);\n    event Bid( address indexed token, address indexed bidder, uint256 tokenId, uint256 amount);\n    event Sold( address indexed token, address indexed winner, uint256 tokenId, uint256 amount);\n\n    using SafeMath for uint256;\n\n    /**\n    * @dev creates a new auction contract for ERC721 token\n    * @param _host The initiator of the auction creation. Typically it is a game owner or promoter\n    * @param _token The address of ERC721 token, traded in new auction\n    * @param _host_share Percentage (0 to 100) share of the payout for\n    * every completed auction sale in the new contract. If equal to 0, all bid is payed\n    * to the winner of the auction. If set to 100, all bid is payed to host, nothing left to bidder.\n    */\n    function Auction( address _host, ERC721 _token, uint _host_share ) public {\n        require(address(_token) != address(0));\n        require(_host_share <= 100);\n\n        driver = TokenDriver(msg.sender);\n        izx = driver.token();\n        erc721token = _token;\n        host = _host;\n        host_share = _host_share;\n    }\n\n    /**\n    * @dev start a new round fo auction to sell ERC721 token for IZX\n    * @param _tokenId ERC721 token ID to be sold in auction.\n    * @param _start_price Minimum bid amount in IZX. Note, that IZX has 18 decimals.\n    * @param _sale_price Bid amount for immedeate sale close. Note, that IZX has 18 decimals.\n    * @param _duration duration in seconds, after which auction round is finished. After this, call withdraw method\n    * to get tokens.\n    *\n    * @notice Caller must be an owner of the ERC721 token ID and Caller must approve the token to this contract.\n    */\n    function sell( uint _tokenId, uint _start_price, uint _sale_price, uint _duration) public {\n        require( msg.sender == erc721token.ownerOf(_tokenId) );\n        require( _sale_price >= _start_price );\n        require( _duration > 0 );\n        require( items[_tokenId].owner == address(0) );\n\n        items[_tokenId] = Item(msg.sender, address(0), now.add(_duration), _start_price, _sale_price, 0);\n\n        Sale( erc721token, msg.sender, _tokenId);\n    }\n\n    /**\n    * @dev make a bid to buy ERC721 token for IZX for specified amount of IZX\n    * @param _tokenId ERC721 token ID to be bought\n    * @param _amount IZX amount which in maximum caller wishes to pay.\n    *\n    * @notice Caller must own IZX tokens in this amount and must approve the spending to this contract.\n    * If _amount is larger than sale_price, then only sale_price is withdrawn from caller.\n    */\n    function bid( uint _tokenId, uint _amount ) public {\n        Item storage item = items[_tokenId];\n        require( item.finish_at > now );\n        require( _amount > item.amount );\n        require( _amount >= item.start_price );\n\n        if( item.winner == address(0)){\n            erc721token.takeOwnership(_tokenId);\n        }else{\n            require(izx.transfer(item.winner, item.amount));\n        }\n\n        if( _amount >= item.sale_price ){\n            require(izx.transferFrom(msg.sender, this, item.sale_price));\n            close(_tokenId, item.owner, msg.sender, item.sale_price);\n        }else{\n            require(izx.transferFrom(msg.sender, this, _amount));\n            item.winner = msg.sender;\n            item.amount = _amount;\n        }\n\n        Bid( erc721token, msg.sender, _tokenId, _amount);\n    }\n\n    /**\n    * @dev withdraw ERC721 and IZX tokens after finish_at time of the auction\n    * @param _tokenId ERC721 token ID to be transfered\n    */\n    function withdraw(uint _tokenId) public {\n        Item storage item = items[_tokenId];\n        require( now > item.finish_at );\n        require( item.amount > 0);\n\n        close(_tokenId, item.owner, item.winner, item.amount);\n    }\n\n    // --- INTERNAL METHODS ----\n\n    /**\n    * @dev closes the auction, transfers IZX and ERC721 token.\n    *\n    * @param _tokenId ERC721 token ID to be transfered to auction winner\n    * @param _owner is the seller address\n    * @param _winner is the buyer address\n    * @param _amount is the bid amount\n    *\n    * @notice this method called in 2 cases: after the finish_at by manual withdraw or by\n    * bid method, when amount is larger or equal to tsbid price.\n    */\n    function close(uint _tokenId, address _owner, address _winner, uint _amount) internal {\n\n        uint host_amount = _amount.mul(host_share) / 100;\n        if(host_amount>0){\n            izx.transfer(host, host_amount);\n        }\n\n        uint owner_amount = _amount.sub(host_amount);\n        if(owner_amount>0){\n            izx.transfer(_owner, owner_amount);\n        }\n\n        erc721token.transfer(_winner, _tokenId);\n\n        delete items[_tokenId];\n        Sold( erc721token, _winner, _tokenId, _amount);\n\n    }\n\n}",
  "sourcePath": "/Users/studnev/dev4bc/contracts/contracts/drive/Auction.sol",
  "compiler": {
    "name": "solc",
    "version": "0.4.18+commit.9cf6e910.Emscripten.clang"
  },
  "schemaVersion": "1.0.1",
  "updatedAt": "2018-04-03T10:55:18.245Z"
}