{
  "contractName": "Campaign",
  "abi": [
    {
      "constant": true,
      "inputs": [],
      "name": "izx",
      "outputs": [
        {
          "name": "",
          "type": "address"
        }
      ],
      "payable": false,
      "stateMutability": "view",
      "type": "function"
    },
    {
      "constant": false,
      "inputs": [
        {
          "name": "_tokenId",
          "type": "uint256"
        }
      ],
      "name": "reclaim",
      "outputs": [],
      "payable": false,
      "stateMutability": "nonpayable",
      "type": "function"
    },
    {
      "constant": true,
      "inputs": [],
      "name": "host_payout",
      "outputs": [
        {
          "name": "",
          "type": "uint256"
        }
      ],
      "payable": false,
      "stateMutability": "view",
      "type": "function"
    },
    {
      "constant": true,
      "inputs": [],
      "name": "lifetime",
      "outputs": [
        {
          "name": "",
          "type": "uint256"
        }
      ],
      "payable": false,
      "stateMutability": "view",
      "type": "function"
    },
    {
      "constant": true,
      "inputs": [],
      "name": "driver",
      "outputs": [
        {
          "name": "",
          "type": "address"
        }
      ],
      "payable": false,
      "stateMutability": "view",
      "type": "function"
    },
    {
      "constant": true,
      "inputs": [],
      "name": "token_price",
      "outputs": [
        {
          "name": "",
          "type": "uint256"
        }
      ],
      "payable": false,
      "stateMutability": "view",
      "type": "function"
    },
    {
      "constant": false,
      "inputs": [
        {
          "name": "_tokenId",
          "type": "uint256"
        }
      ],
      "name": "convert",
      "outputs": [],
      "payable": false,
      "stateMutability": "nonpayable",
      "type": "function"
    },
    {
      "constant": false,
      "inputs": [
        {
          "name": "_tokenId",
          "type": "uint256"
        },
        {
          "name": "_advertiser",
          "type": "address"
        }
      ],
      "name": "claim",
      "outputs": [],
      "payable": false,
      "stateMutability": "nonpayable",
      "type": "function"
    },
    {
      "constant": true,
      "inputs": [],
      "name": "erc721token",
      "outputs": [
        {
          "name": "",
          "type": "address"
        }
      ],
      "payable": false,
      "stateMutability": "view",
      "type": "function"
    },
    {
      "constant": true,
      "inputs": [
        {
          "name": "",
          "type": "uint256"
        }
      ],
      "name": "prizes",
      "outputs": [
        {
          "name": "advertiser",
          "type": "address"
        },
        {
          "name": "winner",
          "type": "address"
        },
        {
          "name": "expires_at",
          "type": "uint256"
        }
      ],
      "payable": false,
      "stateMutability": "view",
      "type": "function"
    },
    {
      "constant": true,
      "inputs": [],
      "name": "host",
      "outputs": [
        {
          "name": "",
          "type": "address"
        }
      ],
      "payable": false,
      "stateMutability": "view",
      "type": "function"
    },
    {
      "constant": true,
      "inputs": [],
      "name": "winner_payout",
      "outputs": [
        {
          "name": "",
          "type": "uint256"
        }
      ],
      "payable": false,
      "stateMutability": "view",
      "type": "function"
    },
    {
      "inputs": [
        {
          "name": "_host",
          "type": "address"
        },
        {
          "name": "_token",
          "type": "address"
        },
        {
          "name": "_lifetime",
          "type": "uint256"
        },
        {
          "name": "_token_price",
          "type": "uint256"
        },
        {
          "name": "_host_share",
          "type": "uint256"
        }
      ],
      "payable": false,
      "stateMutability": "nonpayable",
      "type": "constructor"
    },
    {
      "anonymous": false,
      "inputs": [
        {
          "indexed": true,
          "name": "token",
          "type": "address"
        },
        {
          "indexed": true,
          "name": "winner",
          "type": "address"
        },
        {
          "indexed": true,
          "name": "advertiser",
          "type": "address"
        },
        {
          "indexed": false,
          "name": "tokenId",
          "type": "uint256"
        }
      ],
      "name": "Claimed",
      "type": "event"
    },
    {
      "anonymous": false,
      "inputs": [
        {
          "indexed": true,
          "name": "token",
          "type": "address"
        },
        {
          "indexed": true,
          "name": "winner",
          "type": "address"
        },
        {
          "indexed": true,
          "name": "advertiser",
          "type": "address"
        },
        {
          "indexed": false,
          "name": "tokenId",
          "type": "uint256"
        }
      ],
      "name": "Reclaimed",
      "type": "event"
    },
    {
      "anonymous": false,
      "inputs": [
        {
          "indexed": true,
          "name": "token",
          "type": "address"
        },
        {
          "indexed": true,
          "name": "winner",
          "type": "address"
        },
        {
          "indexed": true,
          "name": "advertiser",
          "type": "address"
        },
        {
          "indexed": false,
          "name": "tokenId",
          "type": "uint256"
        }
      ],
      "name": "Converted",
      "type": "event"
    }
  ],
  "bytecode": "0x6060604052341561000f57600080fd5b60405160a080610be38339810160405280805191906020018051919060200180519190602001805191906020018051915050600160a060020a038416151561005657600080fd5b6000831161006357600080fd5b6000821161007057600080fd5b606481111561007e57600080fd5b60008054600160a060020a03191633600160a060020a0390811691909117808355169063fc0c546a90604051602001526040518163ffffffff167c0100000000000000000000000000000000000000000000000000000000028152600401602060405180830381600087803b15156100f557600080fd5b6102c65a03f1151561010657600080fd5b505050604051805160028054600160a060020a0319908116600160a060020a0393841617909155600180548216888416179055600380549091169188169190911790555060048390556005829055606461016d82846401000000006101a281026109811704565b81151561017657fe5b0460078190556101949083906401000000006109ac6101d882021704565b600655506101ea9350505050565b6000808315156101b557600091506101d1565b508282028284828115156101c557fe5b04146101cd57fe5b8091505b5092915050565b6000828211156101e457fe5b50900390565b6109ea806101f96000396000f3006060604052600436106100a05763ffffffff60e060020a600035041663284084f981146100a55780632dabbeed146100d45780633dfbfd4c146100ec57806369d24f63146101115780636ecc5d62146101245780637b4fd96e14610137578063a3908e1b1461014a578063ddd5e1b214610160578063e5ebccf414610182578063eccb3a4f14610195578063f437bc59146101d8578063f9a1095c146101eb575b600080fd5b34156100b057600080fd5b6100b86101fe565b604051600160a060020a03909116815260200160405180910390f35b34156100df57600080fd5b6100ea60043561020d565b005b34156100f757600080fd5b6100ff6103ef565b60405190815260200160405180910390f35b341561011c57600080fd5b6100ff6103f5565b341561012f57600080fd5b6100b86103fb565b341561014257600080fd5b6100ff61040a565b341561015557600080fd5b6100ea600435610410565b341561016b57600080fd5b6100ea600435600160a060020a0360243516610690565b341561018d57600080fd5b6100b8610915565b34156101a057600080fd5b6101ab600435610924565b604051600160a060020a039384168152919092166020820152604080820192909252606001905180910390f35b34156101e357600080fd5b6100b8610952565b34156101f657600080fd5b6100ff610961565b600254600160a060020a031681565b6000818152600860205260408120600181015490919033600160a060020a03908116911614806102405750816002015442115b151561024b57600080fd5b5080546001805490830154600160a060020a03928316929182169163a9059cbb91168560405160e060020a63ffffffff8516028152600160a060020a0390921660048301526024820152604401600060405180830381600087803b15156102b157600080fd5b6102c65a03f115156102c257600080fd5b5050600254600554600160a060020a0390911691506323b872dd903090849060006040516020015260405160e060020a63ffffffff8616028152600160a060020a0393841660048201529190921660248201526044810191909152606401602060405180830381600087803b151561033957600080fd5b6102c65a03f1151561034a57600080fd5b50505060405180519050151561035f57600080fd5b600083815260086020526040808220805473ffffffffffffffffffffffffffffffffffffffff199081168255600180830180549092169091556002909101929092559054600160a060020a038381169233821692909116907fd298734636572fc109667e04fc766ff33d5050996ff25165a0f3f8ec0f2a15779087905190815260200160405180910390a4505050565b60075481565b60045481565b600054600160a060020a031681565b60055481565b6000818152600860205260408120805490919033600160a060020a0390811691161461043b57600080fd5b5060018082015490548254600160a060020a03928316929182169163a9059cbb91168560405160e060020a63ffffffff8516028152600160a060020a0390921660048301526024820152604401600060405180830381600087803b15156104a157600080fd5b6102c65a03f115156104b257600080fd5b5050506000600654111561055a57600254600654600160a060020a03909116906323b872dd903090849060006040516020015260405160e060020a63ffffffff8616028152600160a060020a0393841660048201529190921660248201526044810191909152606401602060405180830381600087803b151561053457600080fd5b6102c65a03f1151561054557600080fd5b50505060405180519050151561055a57600080fd5b600060075411156105ff57600254600754600160a060020a03909116906323b872dd903090849060006040516020015260405160e060020a63ffffffff8616028152600160a060020a0393841660048201529190921660248201526044810191909152606401602060405180830381600087803b15156105d957600080fd5b6102c65a03f115156105ea57600080fd5b5050506040518051905015156105ff57600080fd5b600083815260086020526040808220805473ffffffffffffffffffffffffffffffffffffffff19908116825560018083018054909216909155600290910192909255905433600160a060020a039081169284821692909116907ff98522c4d7ccb9de6d7bb8395a567bd90003fe876d577e4d0fd4b53e1ddfedf89087905190815260200160405180910390a4505050565b600154600160a060020a0316636352211e8360006040516020015260405160e060020a63ffffffff84160281526004810191909152602401602060405180830381600087803b15156106e157600080fd5b6102c65a03f115156106f257600080fd5b50505060405180519050600160a060020a031633600160a060020a031614151561071b57600080fd5b600254600554600160a060020a03909116906323b872dd908390309060006040516020015260405160e060020a63ffffffff8616028152600160a060020a0393841660048201529190921660248201526044810191909152606401602060405180830381600087803b151561078f57600080fd5b6102c65a03f115156107a057600080fd5b5050506040518051905015156107b557600080fd5b600154600160a060020a031663b2e6ceeb8360405160e060020a63ffffffff84160281526004810191909152602401600060405180830381600087803b15156107fd57600080fd5b6102c65a03f1151561080e57600080fd5b50505060606040519081016040528082600160a060020a0316815260200133600160a060020a031681526020016108506004544261096790919063ffffffff16565b905260008381526008602052604090208151815473ffffffffffffffffffffffffffffffffffffffff1916600160a060020a0391909116178155602082015160018201805473ffffffffffffffffffffffffffffffffffffffff1916600160a060020a0392909216919091179055604082015160029091015550600154600160a060020a038083169133821691167f913c992353dc81b7a8ba31496c484e9b6306bd2f6c509a649a38fdf5e1c953b28560405190815260200160405180910390a45050565b600154600160a060020a031681565b600860205260009081526040902080546001820154600290920154600160a060020a03918216929091169083565b600354600160a060020a031681565b60065481565b60008282018381101561097657fe5b8091505b5092915050565b600080831515610994576000915061097a565b508282028284828115156109a457fe5b041461097657fe5b6000828211156109b857fe5b509003905600a165627a7a723058203821b8357b3c55b416634276571c3f29e6b3a1e1bb7c6a8e178d3a8d720df9630029",
  "source": "pragma solidity ^0.4.18;\n\nimport 'zeppelin-solidity/contracts/token/ERC721/ERC721.sol';\nimport 'zeppelin-solidity/contracts/math/SafeMath.sol';\n\nimport '../token/IZXToken.sol';\nimport './TokenDriver.sol';\n\n/**\n * @title Campaign contract\n *\n * @dev Campaign is a contract between advertiser, host (which typically is the game owner) and game players.\n *\n * The basic sequence of campaign consists of steps:\n *  1) The game manager creates the campaign in TokenDriver contract to allow advertisers to use\n *  the game ERC721 token for advertisers. The address of the new contract is promoted to players and advertisers.\n *  2) Advertiser approves an amount of IZX tokens to use by this campaign using ERC20 interface\n *  3) Player, owing an ERC721 token in the game, calls claim() method to monetize his token.\n *  This call reserves ERC721 and IZX tokens on this contract, so that the agreement between them is ensured to be\n *  executed.\n *  4) Advertiser approves the payment by calling convert() method. This transaction distributes IZX\n *  payout to player and the host of this contract, and transfers ERC721 token to advertiser.\n *\n * The result of execution is that IZX token is sent to host and player, and ERC721 is sent to advertiser.\n * The side effect, and most important to advertiser, is that advertiser is approving actual transaction to happen.\n * Advertiser can use this to convert only visitors of offline shop, or require any other activities\n * for transaction to happen. If player fails to satisfy these requirements, he or she may call reclaim() method\n * to return ERC721 token back.\n *\n * @notice Campaign is created using TokenDriver to allow IZX token to be approved and transfered to this contract.\n * The campaign can work with any ERC721-compliant token in any game. if the game does not have one,\n * it can create a ERC721 token - look DriveToken contract as example.\n *\n * Tokens, transfered to advertiser, can be later burnt, or used in auction ( look Auction contract ) to gain some\n * IZX back.\n *\n * @author Aleksey Studnev <studnev@izx.io>\n */\ncontract Campaign {\n\n    struct Prize {\n        address advertiser;\n        address winner;\n        uint    expires_at;\n    }\n\n    TokenDriver public  driver;\n    ERC721      public  erc721token;\n    IZXToken    public  izx;\n    address     public  host;\n    uint        public  lifetime;\n    uint        public  token_price;\n    uint        public  winner_payout;\n    uint        public  host_payout;\n    \n    mapping(uint256 => Prize) public prizes;\n\n    event Claimed( address indexed token, address indexed winner, address indexed advertiser, uint256 tokenId);\n    event Reclaimed( address indexed token, address indexed winner, address indexed advertiser, uint256 tokenId);\n    event Converted( address indexed token, address indexed winner, address indexed advertiser, uint256 tokenId);\n\n    using SafeMath for uint256;\n\n    /**\n    * @dev create a new advertising contract for ERC721 token\n    *\n    * @param _host The initiator of the campaign creation. Typically it is a game owner or promoter\n    * @param _token The address of ERC721 token, traded in new campaign\n    * @param _lifetime The time period in seconds, allowed to convert the prize\n    * after it is claimed by ERC721 token owner. I this time expires, and prize is not converted to IZX tokens,\n    * the token can be returned to the initial owner.\n    * @param _token_price Price of every ERC721 token in IZX, payed by advertiser.\n    * @param _host_share Percentage (0 to 100) share of the payout for\n    * every completed conversion in the new contract. If equal to 0, all token price is payed\n    * to the winner of the prize. If set to 100, all bid is payed to host, nothing left to the winner.\n    */\n    function Campaign(  address _host, \n                        ERC721 _token, \n                        uint _lifetime, \n                        uint _token_price,\n                        uint _host_share) public {\n\n        require(address(_token) != address(0));\n        require(_lifetime > 0);\n        require(_token_price > 0);\n        require(_host_share <= 100);\n        \n        driver = TokenDriver(msg.sender);\n        izx = driver.token();\n        erc721token = _token;\n        host = _host;\n        lifetime = _lifetime;\n        token_price = _token_price;\n\n        host_payout = _host_share.mul(token_price) / 100;\n        winner_payout = _token_price.sub(host_payout);\n    }\n\n    /**\n    * @dev player claims owing the ERC721 token\n    *\n    * @param _tokenId ID of owned ERC721 token in the game\n    * @param _advertiser The address of advertiser, who is assumed to convert this token\n    *\n    * @notice player must call ERC721 approve method to allow this contract to take ownershio of the token,\n    * effectively reserving it for conversion. Also, the token price in IZX is reserved from advertiser account.\n    */\n    function claim(uint _tokenId, address _advertiser) public {\n        require(msg.sender == erc721token.ownerOf(_tokenId));\n        require(izx.transferFrom(_advertiser, this, token_price));\n\n        erc721token.takeOwnership(_tokenId);\n        prizes[_tokenId] = Prize(_advertiser, msg.sender, now.add(lifetime) );\n\n        Claimed(erc721token, msg.sender, _advertiser, _tokenId);\n    }\n\n    /**\n    * @dev action, opposite to claim. Player, who claimed the token can call this before convert,\n    * or anybody can call this after prize is expired.\n    *\n    * @param _tokenId ID of claimed ERC721 token\n    *\n    * @notice player get his ERC721 back, and advertiser receives token price IZX amount.\n    * This transaction reverts claim transaction.\n    */\n    function reclaim(uint _tokenId) public {\n        Prize storage prize = prizes[_tokenId];\n        require(prize.winner == msg.sender || now > prize.expires_at);\n        address advertiser = prize.advertiser;\n\n        erc721token.transfer(prize.winner, _tokenId);\n        require(izx.transferFrom(this, advertiser, token_price));\n\n        delete prizes[_tokenId];\n\n        Reclaimed( erc721token, msg.sender, advertiser, _tokenId);\n    }\n\n    /**\n    * @dev advertiser calls this method to approve IZX payout to player and host.\n    *\n    * @param _tokenId ID of claimed ERC721 token\n    *\n    * @notice payout distribution depends on host_share percentage.If equal to 0, all token price is payed\n    * to the player, claiming the prize. If set to 100, all bid is payed to host, nothing left to the player.\n    * On success, ERC721 token is transfered to advertiser, which he can burn or sell in auction, or put back to game\n    * on his will.\n    */\n    function convert(uint _tokenId) public {\n        Prize storage prize = prizes[_tokenId];\n        require(prize.advertiser == msg.sender);\n\n        address winner = prize.winner;\n        erc721token.transfer(prize.advertiser, _tokenId);\n        \n        if(winner_payout>0){\n            require(izx.transferFrom(this, winner, winner_payout));\n        }\n\n        if(host_payout>0){\n            require(izx.transferFrom(this, winner, host_payout));\n        }\n\n        delete prizes[_tokenId];\n\n        Converted( erc721token, winner, msg.sender, _tokenId);\n    }\n\n\n}",
  "sourcePath": "/Users/studnev/dev4bc/contracts/contracts/drive/Campaign.sol",
  "compiler": {
    "name": "solc",
    "version": "0.4.18+commit.9cf6e910.Emscripten.clang"
  },
  "schemaVersion": "1.0.1",
  "updatedAt": "2018-03-26T06:10:09.172Z"
}