{
  "contractName": "CampaignManager",
  "abi": [
    {
      "constant": true,
      "inputs": [],
      "name": "totalPayments",
      "outputs": [
        {
          "name": "",
          "type": "uint256"
        }
      ],
      "payable": false,
      "stateMutability": "view",
      "type": "function"
    },
    {
      "constant": false,
      "inputs": [
        {
          "name": "_max_tokens",
          "type": "uint256"
        },
        {
          "name": "_min_value",
          "type": "uint256"
        }
      ],
      "name": "grant_tokens",
      "outputs": [],
      "payable": false,
      "stateMutability": "nonpayable",
      "type": "function"
    },
    {
      "constant": true,
      "inputs": [
        {
          "name": "",
          "type": "address"
        }
      ],
      "name": "game_payout",
      "outputs": [
        {
          "name": "master_payout",
          "type": "uint256"
        },
        {
          "name": "game_payout",
          "type": "uint256"
        },
        {
          "name": "winner_payout",
          "type": "uint256"
        },
        {
          "name": "holder_payout",
          "type": "uint256"
        },
        {
          "name": "token_reserve",
          "type": "uint256"
        }
      ],
      "payable": false,
      "stateMutability": "view",
      "type": "function"
    },
    {
      "constant": false,
      "inputs": [
        {
          "name": "_master_payout",
          "type": "uint256"
        },
        {
          "name": "_game_payout",
          "type": "uint256"
        },
        {
          "name": "_winner_payout",
          "type": "uint256"
        },
        {
          "name": "_holder_payout",
          "type": "uint256"
        },
        {
          "name": "_reserve",
          "type": "uint256"
        }
      ],
      "name": "change_payouts",
      "outputs": [],
      "payable": false,
      "stateMutability": "nonpayable",
      "type": "function"
    },
    {
      "constant": false,
      "inputs": [],
      "name": "withdrawPayments",
      "outputs": [],
      "payable": false,
      "stateMutability": "nonpayable",
      "type": "function"
    },
    {
      "constant": false,
      "inputs": [
        {
          "name": "_erc721",
          "type": "address"
        },
        {
          "name": "_tokenId",
          "type": "uint256"
        }
      ],
      "name": "give_prize",
      "outputs": [],
      "payable": false,
      "stateMutability": "nonpayable",
      "type": "function"
    },
    {
      "constant": true,
      "inputs": [
        {
          "name": "",
          "type": "address"
        },
        {
          "name": "",
          "type": "uint256"
        }
      ],
      "name": "prizes",
      "outputs": [
        {
          "name": "master",
          "type": "address"
        },
        {
          "name": "game",
          "type": "address"
        },
        {
          "name": "holder",
          "type": "address"
        },
        {
          "name": "value_eth",
          "type": "uint256"
        },
        {
          "name": "expires_at",
          "type": "uint256"
        },
        {
          "name": "info_hash",
          "type": "uint256"
        }
      ],
      "payable": false,
      "stateMutability": "view",
      "type": "function"
    },
    {
      "constant": false,
      "inputs": [
        {
          "name": "_erc721",
          "type": "address"
        },
        {
          "name": "_master",
          "type": "address"
        },
        {
          "name": "_game",
          "type": "address"
        },
        {
          "name": "_tokenId",
          "type": "uint256"
        },
        {
          "name": "_lifetime",
          "type": "uint256"
        },
        {
          "name": "_info_hash",
          "type": "uint256"
        }
      ],
      "name": "register_prize",
      "outputs": [],
      "payable": true,
      "stateMutability": "payable",
      "type": "function"
    },
    {
      "constant": true,
      "inputs": [
        {
          "name": "",
          "type": "address"
        }
      ],
      "name": "payments",
      "outputs": [
        {
          "name": "",
          "type": "uint256"
        }
      ],
      "payable": false,
      "stateMutability": "view",
      "type": "function"
    },
    {
      "constant": true,
      "inputs": [],
      "name": "token",
      "outputs": [
        {
          "name": "",
          "type": "address"
        }
      ],
      "payable": false,
      "stateMutability": "view",
      "type": "function"
    },
    {
      "inputs": [
        {
          "name": "_izx_token",
          "type": "address"
        }
      ],
      "payable": false,
      "stateMutability": "nonpayable",
      "type": "constructor"
    }
  ],
  "bytecode": "0x6060604052341561000f57600080fd5b604051602080610f698339810160405280805160008054600160a060020a03909216600160a060020a03199092169190911790555050610f15806100546000396000f3006060604052600436106100895763ffffffff60e060020a6000350416625b4487811461008e5780630d881ed7146100b35780631f24c7e3146100ce578063211e8ad51461011f5780636103d70b14610141578063b4a28c3714610154578063cec3e62d14610176578063d125f41c146101dd578063e2982c2114610206578063fc0c546a14610225575b600080fd5b341561009957600080fd5b6100a1610254565b60405190815260200160405180910390f35b34156100be57600080fd5b6100cc60043560243561025a565b005b34156100d957600080fd5b6100ed600160a060020a0360043516610373565b604051808681526020018581526020018481526020018381526020018281526020019550505050505060405180910390f35b341561012a57600080fd5b6100cc6004356024356044356064356084356103a2565b341561014c57600080fd5b6100cc610470565b341561015f57600080fd5b6100cc600160a060020a0360043516602435610509565b341561018157600080fd5b610198600160a060020a0360043516602435610772565b604051600160a060020a0396871681529486166020860152929094166040808501919091526060840191909152608083019390935260a082015260c001905180910390f35b6100cc600160a060020a036004358116906024358116906044351660643560843560a4356107be565b341561021157600080fd5b6100a1600160a060020a0360043516610ace565b341561023057600080fd5b610238610ae0565b604051600160a060020a03909116815260200160405180910390f35b60045481565b6000805481908490600160a060020a03166370a0823133846040516020015260405160e060020a63ffffffff8416028152600160a060020a039091166004820152602401602060405180830381600087803b15156102b757600080fd5b6102c65a03f115156102c857600080fd5b50505060405180519050101515156102df57600080fd5b600160a060020a03331660009081526002602052604090208054909250151561036257600180549061031390828101610e9f565b90503360018281548110151561032557fe5b6000918252602090912001805473ffffffffffffffffffffffffffffffffffffffff1916600160a060020a03929092169190911790556001810182555b506001810192909255600290910155565b600660205260009081526040902080546001820154600283015460038401546004909401549293919290919085565b60648511156103b057600080fd5b60648411156103be57600080fd5b60648311156103cc57600080fd5b60648211156103da57600080fd5b600081116103e757600080fd5b606485850184018301146103fa57600080fd5b60a0604051908101604090815286825260208083018790528183018690526060830185905260808301849052600160a060020a0333166000908152600690915220815181556020820151816001015560408201518160020155606082015181600301556080820151600490910155505050505050565b33600160a060020a03811660009081526003602052604090205480151561049657600080fd5b600160a060020a03301631819010156104ae57600080fd5b6004546104c1908263ffffffff610aef16565b600455600160a060020a0382166000818152600360205260408082209190915582156108fc0290839051600060405180830381858888f19350505050151561050557fe5b5050565b600160a060020a038281166000908152600560209081526040808320858452909152812080549092829133821691161461054257600080fd5b600483015442901161055357600080fd5b84600160a060020a0316636352211e8560006040516020015260405160e060020a63ffffffff84160281526004810191909152602401602060405180830381600087803b15156105a257600080fd5b6102c65a03f115156105b357600080fd5b5050506040518051925050600160a060020a03821615156105d357600080fd5b84600160a060020a031663b2e6ceeb8560405160e060020a63ffffffff84160281526004810191909152602401600060405180830381600087803b151561061957600080fd5b6102c65a03f1151561062a57600080fd5b5050506001830154600160a060020a03166000908152600660205260409081902091506106e790849060c0905190810160409081528254600160a060020a03908116835260018401548116602084015260028401541681830152600383015460608301526004830154608083015260059092015460a0808301919091529091849190519081016040908152825482526001830154602083015260028301549082015260038201546060820152600490910154608082015284610b01565b6002830154600482015461070491600160a060020a031690610bb2565b505050600160a060020a039091166000908152600560208181526040808420948452939052918120805473ffffffffffffffffffffffffffffffffffffffff199081168255600182018054821690556002820180549091169055600381018290556004810182905590910155565b60056020818152600093845260408085209091529183529120805460018201546002830154600384015460048501549490950154600160a060020a039384169592841694919093169286565b6000808084116107cd57600080fd5b600160a060020a03881615156107e257600080fd5b600160a060020a03861615156107f757600080fd5b600160a060020a038716151561080c57600080fd5b84151561081857600080fd5b600160a060020a038881166000908152600560209081526040808320898452909152902054161561084857600080fd5b600160a060020a0386166000908152600660205260409020600481015490925015156108e95760a06040519081016040908152600a8252601460208084018290528284019190915260326060840152670de0b6b3a76400006080840152600160a060020a0389166000908152600690915220815181556020820151816001015560408201518160020155606082015181600301556080820151600490910155505b506000805460048301548892600160a060020a03909216916323b872dd9184913091906040516020015260405160e060020a63ffffffff8616028152600160a060020a0393841660048201529190921660248201526044810191909152606401602060405180830381600087803b151561096257600080fd5b6102c65a03f1151561097357600080fd5b5050506040518051905015156109ba576109a3826004015460643485600301540281151561099d57fe5b04610c4e565b9050600160a060020a03811615156109ba57600080fd5b60c06040519081016040908152600160a060020a03808a16835288811660208085019190915284821683850152346060850152428801608085015260a08401879052908b16600090815260058252828120898252909152208151815473ffffffffffffffffffffffffffffffffffffffff1916600160a060020a0391909116178155602082015160018201805473ffffffffffffffffffffffffffffffffffffffff1916600160a060020a0392909216919091179055604082015160028201805473ffffffffffffffffffffffffffffffffffffffff1916600160a060020a0392909216919091179055606082015181600301556080820151816004015560a0820151600590910155505050505050505050565b60036020526000908152604090205481565b600054600160a060020a031681565b600082821115610afb57fe5b50900390565b600080600080866060015193506000841115610ba9574287608001511115610b9e57606486602001518502811515610b3557fe5b049250606486604001518502811515610b4a57fe5b049150606486606001518502811515610b5f57fe5b049050610b70876020015184610cf3565b610b7a8583610cf3565b610b88876040015182610cf3565b610b99875182848688030303610cf3565b610ba9565b610ba9875185610cf3565b50505050505050565b600160a060020a038083166000908152600260205260408082206001810180548601905582549093169163a9059cbb9186918691516020015260405160e060020a63ffffffff8516028152600160a060020a0390921660048301526024820152604401602060405180830381600087803b1515610c2e57600080fd5b6102c65a03f11515610c3f57600080fd5b50505060405180515050505050565b600080610c5b8484610d4f565b60008054919250600160a060020a03909116906323b872dd908390309088906040516020015260405160e060020a63ffffffff8616028152600160a060020a0393841660048201529190921660248201526044810191909152606401602060405180830381600087803b1515610cd057600080fd5b6102c65a03f11515610ce157600080fd5b50505060405180515090949350505050565b600160a060020a038216600090815260036020526040902054610d1c908263ffffffff610e8916565b600160a060020a038316600090815260036020526040902055600454610d48908263ffffffff610e8916565b6004555050565b600154600090818080808442811515610d6457fe5b069350600092505b84831015610089576001805485908110610d8257fe5b6000918252602080832090910154600160a060020a031680835260029091526040909120600181015491935091508811801590610dc25750806002015487115b8015610e465750600080548991600160a060020a03909116906370a082319085906040516020015260405160e060020a63ffffffff8416028152600160a060020a039091166004820152602401602060405180830381600087803b1515610e2857600080fd5b6102c65a03f11515610e3957600080fd5b5050506040518051905010155b15610e605760018101805489900390559094508490610e7e565b60019093019284841415610e7357600093505b600190920191610d6c565b505050505092915050565b600082820183811015610e9857fe5b9392505050565b815481835581811511610ec357600083815260209020610ec3918101908301610ec8565b505050565b610ee691905b80821115610ee25760008155600101610ece565b5090565b905600a165627a7a72305820fa6670661318ed4e0a9fcf8679a9649364cef679079b97fef502433d0a673c840029",
  "source": "pragma solidity ^0.4.18;\n\nimport \"./TokenDriver.sol\";\n\nimport \"../token/IZXToken.sol\";\n\nimport 'zeppelin-solidity/contracts/payment/PullPayment.sol';\nimport \"zeppelin-solidity/contracts/math/SafeMath.sol\";\nimport 'zeppelin-solidity/contracts/token/ERC721/ERC721.sol';\n\ncontract CampaignManager is TokenDriver, PullPayment {\n\n    struct Prize {\n        address master;\n        address game;\n        address holder;\n\n        uint256 value_eth;\n        uint256 expires_at;\n\n        uint256 info_hash;\n    }\n\n    struct Payout {\n        uint256 master_payout;\n        uint256 game_payout;\n        uint256 winner_payout;\n        uint256 holder_payout;\n        uint256 token_reserve;\n    }\n\n\n    mapping (address => mapping (uint256 => Prize)) public prizes;\n    mapping (address => Payout) public game_payout;\n\n    function CampaignManager(IZXToken _izx_token) TokenDriver(_izx_token) public {\n    }\n\n    function register_prize(ERC721 _erc721, address _master, address _game, uint256 _tokenId,\n                                            uint256 _lifetime, uint256 _info_hash) payable public {\n\n        require(_lifetime>0);\n        require(_erc721!=address(0));\n        require(_game!=address(0));\n        require(_master!=address(0));\n        require(_tokenId!=0);\n        require( prizes[_erc721][_tokenId].master==address(0) );\n\n        Payout storage payout = game_payout[_game];\n        if(payout.token_reserve==0){\n            game_payout[_game] = Payout(10,20,20,50,1 ether);\n        }\n\n        address holder = _master;\n        if( !token.transferFrom(_master, address(this), payout.token_reserve) ) {\n            holder = reserve_tokens( payout.token_reserve, (payout.holder_payout*msg.value)/100);\n            require(holder != address(0));\n        }\n\n        prizes[_erc721][_tokenId] = Prize(_master, _game, holder, msg.value, now + _lifetime, _info_hash );\n\n    }\n\n    function give_prize(ERC721 _erc721, uint256 _tokenId) public {\n\n        Prize storage prize = prizes[_erc721][_tokenId];\n\n        require(prize.master == msg.sender);\n        require(prize.expires_at > now);\n\n        address winner = _erc721.ownerOf(_tokenId);\n        require(winner != address(0));\n\n        _erc721.takeOwnership(_tokenId);\n\n        Payout storage payout = game_payout[prize.game];\n        make_payouts(prize, payout, winner);\n\n        release_tokens(prize.holder, payout.token_reserve);\n        delete prizes[_erc721][_tokenId];\n\n    }\n\n    function make_payouts(Prize _prize, Payout _payout, address _winner) private {\n        uint256 payout_amount = _prize.value_eth;\n        if(payout_amount>0){\n\n             if(_prize.expires_at > now){\n                uint256 game_amount = (payout_amount *_payout.game_payout) / 100;\n                uint256 winner_amount = (payout_amount * _payout.winner_payout) / 100;\n                uint256 holder_amount = (payout_amount * _payout.holder_payout) / 100;\n\n                asyncSend(_prize.game, game_amount);\n                asyncSend(_winner, winner_amount);\n                asyncSend(_prize.holder, holder_amount);\n                asyncSend(_prize.master, payout_amount - game_amount - winner_amount - holder_amount);\n\n             }else{\n                asyncSend(_prize.master, payout_amount);\n             }\n\n         }\n    }\n\n    function change_payouts(uint256 _master_payout, uint256 _game_payout, uint256 _winner_payout,\n                                        uint256 _holder_payout, uint256 _reserve ) public {\n        require(_master_payout <= 100);\n        require(_game_payout <= 100);\n        require(_winner_payout <= 100);\n        require(_holder_payout <= 100);\n        require(_reserve> 0);\n        require(_master_payout + _game_payout + _winner_payout + _holder_payout == 100);\n\n        game_payout[msg.sender] = Payout(   _master_payout,\n                                            _game_payout,\n                                            _winner_payout,\n                                            _holder_payout,\n                                            _reserve);\n    }\n\n}",
  "sourcePath": "/Users/studnev/dev4bc/contracts/contracts/drive/CampaignManager.sol",
  "compiler": {
    "name": "solc",
    "version": "0.4.18+commit.9cf6e910.Emscripten.clang"
  },
  "schemaVersion": "1.0.1",
  "updatedAt": "2018-02-12T14:52:15.157Z"
}