{
  "contractName": "ControlledByVote",
  "abi": [
    {
      "constant": true,
      "inputs": [],
      "name": "candidate_wins",
      "outputs": [
        {
          "name": "",
          "type": "bool"
        }
      ],
      "payable": false,
      "stateMutability": "view",
      "type": "function"
    },
    {
      "constant": false,
      "inputs": [
        {
          "name": "_candidate",
          "type": "address"
        },
        {
          "name": "_finishes_at",
          "type": "uint256"
        }
      ],
      "name": "startVoting",
      "outputs": [],
      "payable": false,
      "stateMutability": "nonpayable",
      "type": "function"
    },
    {
      "constant": true,
      "inputs": [],
      "name": "min_voting_duration",
      "outputs": [
        {
          "name": "",
          "type": "uint256"
        }
      ],
      "payable": false,
      "stateMutability": "view",
      "type": "function"
    },
    {
      "constant": true,
      "inputs": [],
      "name": "candidate",
      "outputs": [
        {
          "name": "",
          "type": "address"
        }
      ],
      "payable": false,
      "stateMutability": "view",
      "type": "function"
    },
    {
      "constant": true,
      "inputs": [],
      "name": "finishes_at",
      "outputs": [
        {
          "name": "",
          "type": "uint256"
        }
      ],
      "payable": false,
      "stateMutability": "view",
      "type": "function"
    },
    {
      "constant": true,
      "inputs": [],
      "name": "voices_counted",
      "outputs": [
        {
          "name": "",
          "type": "bool"
        }
      ],
      "payable": false,
      "stateMutability": "view",
      "type": "function"
    },
    {
      "constant": true,
      "inputs": [],
      "name": "votingInProgress",
      "outputs": [
        {
          "name": "",
          "type": "bool"
        }
      ],
      "payable": false,
      "stateMutability": "view",
      "type": "function"
    },
    {
      "constant": true,
      "inputs": [],
      "name": "max_voting_duration",
      "outputs": [
        {
          "name": "",
          "type": "uint256"
        }
      ],
      "payable": false,
      "stateMutability": "view",
      "type": "function"
    },
    {
      "constant": false,
      "inputs": [],
      "name": "finishVoting",
      "outputs": [],
      "payable": false,
      "stateMutability": "nonpayable",
      "type": "function"
    },
    {
      "constant": true,
      "inputs": [],
      "name": "token",
      "outputs": [
        {
          "name": "",
          "type": "address"
        }
      ],
      "payable": false,
      "stateMutability": "view",
      "type": "function"
    },
    {
      "inputs": [
        {
          "name": "_token",
          "type": "address"
        },
        {
          "name": "_min_voting_duration",
          "type": "uint256"
        },
        {
          "name": "_max_voting_duration",
          "type": "uint256"
        }
      ],
      "payable": false,
      "stateMutability": "nonpayable",
      "type": "constructor"
    },
    {
      "anonymous": false,
      "inputs": [
        {
          "indexed": true,
          "name": "candidate",
          "type": "address"
        },
        {
          "indexed": true,
          "name": "token",
          "type": "address"
        },
        {
          "indexed": false,
          "name": "finishes_at",
          "type": "uint256"
        }
      ],
      "name": "VotingStarted",
      "type": "event"
    },
    {
      "anonymous": false,
      "inputs": [
        {
          "indexed": true,
          "name": "candidate",
          "type": "address"
        },
        {
          "indexed": true,
          "name": "token",
          "type": "address"
        },
        {
          "indexed": false,
          "name": "candidate_wins",
          "type": "bool"
        },
        {
          "indexed": false,
          "name": "voices_pro",
          "type": "uint256"
        },
        {
          "indexed": false,
          "name": "voices_cons",
          "type": "uint256"
        }
      ],
      "name": "VotingCompleted",
      "type": "event"
    }
  ],
  "bytecode": "0x6060604052341561000f57600080fd5b604051606080610633833981016040528080519190602001805191906020018051915050600160a060020a038316151561004857600080fd5b8181101561005557600080fd5b6000811161006257600080fd5b60008054600160a060020a03909416600160a060020a03199094169390931790925560015560025561059a806100996000396000f30060606040526004361061008a5763ffffffff60e060020a6000350416631ccb5255811461008f5780632d9375a3146100b6578063643cf142146100da5780636c8381f8146100ff578063712c8b461461012e578063c034a1fb14610141578063d5e6879d14610154578063ee10b08114610167578063f90943031461017a578063fc0c546a1461018d575b600080fd5b341561009a57600080fd5b6100a26101a0565b604051901515815260200160405180910390f35b34156100c157600080fd5b6100d8600160a060020a03600435166024356101ae565b005b34156100e557600080fd5b6100ed610342565b60405190815260200160405180910390f35b341561010a57600080fd5b610112610348565b604051600160a060020a03909116815260200160405180910390f35b341561013957600080fd5b6100ed610357565b341561014c57600080fd5b6100a261035d565b341561015f57600080fd5b6100a2610366565b341561017257600080fd5b6100ed61038a565b341561018557600080fd5b6100d8610390565b341561019857600080fd5b610112610549565b600554610100900460ff1681565b600354600160a060020a0316156101f35760045442116101cd57600080fd5b60055460ff1615156101de57600080fd5b600554610100900460ff16156101f357600080fd5b600160a060020a038216151561020857600080fd5b60008054600160a060020a03908116919084169063fc0c546a90604051602001526040518163ffffffff1660e060020a028152600401602060405180830381600087803b151561025757600080fd5b6102c65a03f1151561026857600080fd5b50505060405180519050600160a060020a031614151561028757600080fd5b60015461029b90429063ffffffff61055816565b8110156102a757600080fd5b6002546102bb90429063ffffffff61055816565b8111156102c757600080fd5b6003805473ffffffffffffffffffffffffffffffffffffffff1916600160a060020a03848116919091179182905560048390556005805460ff19169055600054811691167f68d3bd4df5e14f4c5f4a1110f8c2d3b5a9f7f3ba31ec9a2ef7ae0fcd3d0027b58360405190815260200160405180910390a35050565b60015481565b600354600160a060020a031681565b60045481565b60055460ff1681565b600354600090600160a060020a03161580159061038557506004544211155b905090565b60025481565b6003546000908190600160a060020a031615156103ac57600080fd5b60045442116103ba57600080fd5b60055460ff16156103ca57600080fd5b60008054600160a060020a0316906370a082319030906040516020015260405160e060020a63ffffffff8416028152600160a060020a039091166004820152602401602060405180830381600087803b151561042557600080fd5b6102c65a03f1151561043657600080fd5b505050604051805160008054600354929550600160a060020a0390811693506370a082319216906040516020015260405160e060020a63ffffffff8416028152600160a060020a039091166004820152602401602060405180830381600087803b15156104a257600080fd5b6102c65a03f115156104b357600080fd5b50505060405180516005805460ff19610100878511810261ff0019909316929092171660011791829055600054600354939550600160a060020a03908116945092909216917f496c2feeb608a621b3a48ee8fd54b105c8f021d965523fa295de4dcf82034d08910460ff168486604051921515835260208301919091526040808301919091526060909101905180910390a35050565b600054600160a060020a031681565b60008282018381101561056757fe5b93925050505600a165627a7a72305820ce3e9194b441f7d721b32dc4f0f4b4ecdc087946e6573c4ebf01540e7a12c9750029",
  "source": "pragma solidity ^0.4.18;\n\nimport 'zeppelin-solidity/contracts/math/SafeMath.sol';\nimport '../token/ERC20.sol';\n\ncontract ControlledByVote {\n\n    ERC20               public  token;\n    uint                public  min_voting_duration;\n    uint                public  max_voting_duration;\n\n    ControlledByVote    public  candidate;\n    uint                public  finishes_at;\n    bool                public  voices_counted;\n    bool                public  candidate_wins;\n\n    event VotingStarted( address indexed candidate, address indexed token, uint finishes_at);\n    event VotingCompleted( address indexed candidate, address indexed token, bool candidate_wins, uint voices_pro, uint voices_cons);\n\n    using SafeMath for uint256;\n\n    modifier onlyNoVoting() {\n        if(address(candidate) != address(0)){\n            require(now > finishes_at);\n            require(voices_counted);\n            require(!candidate_wins);\n        }\n        _;\n    }\n\n    modifier onlyVotedFor(ControlledByVote _vote_for) {\n        require(candidate != address(0));\n        require(candidate == _vote_for);\n\n        require(now > finishes_at);\n        require(voices_counted);\n        require(candidate_wins);\n\n        _;\n    }\n\n\n\n    function ControlledByVote( ERC20 _token, uint _min_voting_duration, uint _max_voting_duration ) public {\n        require( address(_token) != address(0));\n        require( _max_voting_duration >= _min_voting_duration);\n        require( _max_voting_duration > 0 );\n        token = _token;\n        min_voting_duration = _min_voting_duration;\n        max_voting_duration = _max_voting_duration;\n    }\n\n\n    function startVoting(ControlledByVote _candidate, uint _finishes_at) onlyNoVoting public {\n        require(address(_candidate) != address(0));\n        require(_candidate.token() == token);\n        require(_finishes_at >= now.add(min_voting_duration));\n        require(_finishes_at <= now.add(max_voting_duration));\n\n        candidate = _candidate;\n        finishes_at = _finishes_at;\n        voices_counted = false;\n\n        VotingStarted( candidate, token, finishes_at);\n    }\n\n\n    function finishVoting() public {\n\n        require(address(candidate) != address(0));\n        require(now > finishes_at);\n        require(!voices_counted);\n\n        uint voices_cons    = token.balanceOf(this);\n        uint voices_pro     = token.balanceOf(candidate);\n\n        candidate_wins = voices_pro > voices_cons;\n        voices_counted = true;\n\n        VotingCompleted( candidate, token, candidate_wins, voices_pro, voices_cons);\n\n    }\n\n    function votingInProgress() public view returns(bool){\n        return candidate!=address(0) && (now <= finishes_at);\n    }\n\n\n}",
  "sourcePath": "/Users/studnev/dev4bc/contracts/contracts/drive/ControlledByVote.sol",
  "compiler": {
    "name": "solc",
    "version": "0.4.18+commit.9cf6e910.Emscripten.clang"
  },
  "schemaVersion": "1.0.1",
  "updatedAt": "2018-04-03T08:37:25.912Z"
}