{
  "contractName": "Controlled",
  "abi": [
    {
      "constant": false,
      "inputs": [
        {
          "name": "_newController",
          "type": "address"
        }
      ],
      "name": "changeController",
      "outputs": [],
      "payable": false,
      "stateMutability": "nonpayable",
      "type": "function"
    },
    {
      "constant": true,
      "inputs": [],
      "name": "controller",
      "outputs": [
        {
          "name": "",
          "type": "address"
        }
      ],
      "payable": false,
      "stateMutability": "view",
      "type": "function"
    },
    {
      "inputs": [],
      "payable": false,
      "stateMutability": "nonpayable",
      "type": "constructor"
    }
  ],
  "bytecode": "0x6060604052341561000f57600080fd5b60008054600160a060020a033316600160a060020a03199091161790556101668061003b6000396000f30060606040526004361061004b5763ffffffff7c01000000000000000000000000000000000000000000000000000000006000350416633cebb8238114610050578063f77c47911461007e575b600080fd5b341561005b57600080fd5b61007c73ffffffffffffffffffffffffffffffffffffffff600435166100ba565b005b341561008957600080fd5b61009161011e565b60405173ffffffffffffffffffffffffffffffffffffffff909116815260200160405180910390f35b6000543373ffffffffffffffffffffffffffffffffffffffff9081169116146100e257600080fd5b6000805473ffffffffffffffffffffffffffffffffffffffff191673ffffffffffffffffffffffffffffffffffffffff92909216919091179055565b60005473ffffffffffffffffffffffffffffffffffffffff16815600a165627a7a72305820dd96f0fedd09cf691b82d70fa9b45a99b8a74eda8a8bfd1d76695d73aaa6fcbb0029",
  "source": "pragma solidity ^0.4.11;\n\n// Controller for Token interface\n// Taken from https://github.com/Giveth/minime/blob/master/contracts/MiniMeToken.sol\n\n/// @dev The token controller contract must implement these functions\ncontract TokenController {\n    /// @notice Called when `_owner` sends ether to the Token contract\n    /// @param _owner The address that sent the ether to create tokens\n    /// @return True if the ether is accepted, false if it throws\n    function proxyPayment(address _owner) payable public returns(bool);\n\n    /// @notice Notifies the controller about a token transfer allowing the\n    ///  controller to react if desired\n    /// @param _from The origin of the transfer\n    /// @param _to The destination of the transfer\n    /// @param _amount The amount of the transfer\n    /// @return False if the controller does not authorize the transfer\n    function onTransfer(address _from, address _to, uint _amount) public returns(bool);\n\n    /// @notice Notifies the controller about an approval allowing the\n    ///  controller to react if desired\n    /// @param _owner The address that calls `approve()`\n    /// @param _spender The spender in the `approve()` call\n    /// @param _amount The amount in the `approve()` call\n    /// @return False if the controller does not authorize the approval\n    function onApprove(address _owner, address _spender, uint _amount) public\n        returns(bool);\n}\n\n\ncontract Controlled {\n    /// @notice The address of the controller is the only address that can call\n    ///  a function with this modifier\n    modifier onlyController { require(msg.sender == controller); _; }\n\n    address public controller;\n\n    function Controlled() public { controller = msg.sender;}\n\n    /// @notice Changes the controller of the contract\n    /// @param _newController The new controller of the contract\n    function changeController(address _newController) onlyController public {\n        controller = _newController;\n    }\n}",
  "sourcePath": "/Users/studnev/dev4bc/contracts/contracts/token/TokenController.sol",
  "compiler": {
    "name": "solc",
    "version": "0.4.18+commit.9cf6e910.Emscripten.clang"
  },
  "schemaVersion": "1.0.1",
  "updatedAt": "2018-03-26T14:49:06.526Z"
}