{
  "contractName": "ControlledToken",
  "abi": [
    {
      "constant": true,
      "inputs": [],
      "name": "name",
      "outputs": [
        {
          "name": "",
          "type": "string"
        }
      ],
      "payable": false,
      "stateMutability": "view",
      "type": "function"
    },
    {
      "constant": false,
      "inputs": [
        {
          "name": "_spender",
          "type": "address"
        },
        {
          "name": "_value",
          "type": "uint256"
        }
      ],
      "name": "approve",
      "outputs": [
        {
          "name": "success",
          "type": "bool"
        }
      ],
      "payable": false,
      "stateMutability": "nonpayable",
      "type": "function"
    },
    {
      "constant": true,
      "inputs": [],
      "name": "totalSupply",
      "outputs": [
        {
          "name": "",
          "type": "uint256"
        }
      ],
      "payable": false,
      "stateMutability": "view",
      "type": "function"
    },
    {
      "constant": false,
      "inputs": [
        {
          "name": "_from",
          "type": "address"
        },
        {
          "name": "_to",
          "type": "address"
        },
        {
          "name": "_value",
          "type": "uint256"
        }
      ],
      "name": "transferFrom",
      "outputs": [
        {
          "name": "success",
          "type": "bool"
        }
      ],
      "payable": false,
      "stateMutability": "nonpayable",
      "type": "function"
    },
    {
      "constant": true,
      "inputs": [],
      "name": "decimals",
      "outputs": [
        {
          "name": "",
          "type": "uint8"
        }
      ],
      "payable": false,
      "stateMutability": "view",
      "type": "function"
    },
    {
      "constant": false,
      "inputs": [
        {
          "name": "_newController",
          "type": "address"
        }
      ],
      "name": "changeController",
      "outputs": [],
      "payable": false,
      "stateMutability": "nonpayable",
      "type": "function"
    },
    {
      "constant": true,
      "inputs": [],
      "name": "version",
      "outputs": [
        {
          "name": "",
          "type": "string"
        }
      ],
      "payable": false,
      "stateMutability": "view",
      "type": "function"
    },
    {
      "constant": true,
      "inputs": [
        {
          "name": "_owner",
          "type": "address"
        }
      ],
      "name": "balanceOf",
      "outputs": [
        {
          "name": "balance",
          "type": "uint256"
        }
      ],
      "payable": false,
      "stateMutability": "view",
      "type": "function"
    },
    {
      "constant": false,
      "inputs": [
        {
          "name": "_owner",
          "type": "address"
        },
        {
          "name": "_amount",
          "type": "uint256"
        }
      ],
      "name": "generateTokens",
      "outputs": [
        {
          "name": "",
          "type": "bool"
        }
      ],
      "payable": false,
      "stateMutability": "nonpayable",
      "type": "function"
    },
    {
      "constant": true,
      "inputs": [],
      "name": "symbol",
      "outputs": [
        {
          "name": "",
          "type": "string"
        }
      ],
      "payable": false,
      "stateMutability": "view",
      "type": "function"
    },
    {
      "constant": false,
      "inputs": [
        {
          "name": "_to",
          "type": "address"
        },
        {
          "name": "_value",
          "type": "uint256"
        }
      ],
      "name": "transfer",
      "outputs": [
        {
          "name": "success",
          "type": "bool"
        }
      ],
      "payable": false,
      "stateMutability": "nonpayable",
      "type": "function"
    },
    {
      "constant": false,
      "inputs": [
        {
          "name": "_owner",
          "type": "address"
        },
        {
          "name": "_amount",
          "type": "uint256"
        }
      ],
      "name": "destroyTokens",
      "outputs": [
        {
          "name": "",
          "type": "bool"
        }
      ],
      "payable": false,
      "stateMutability": "nonpayable",
      "type": "function"
    },
    {
      "constant": true,
      "inputs": [
        {
          "name": "_owner",
          "type": "address"
        },
        {
          "name": "_spender",
          "type": "address"
        }
      ],
      "name": "allowance",
      "outputs": [
        {
          "name": "remaining",
          "type": "uint256"
        }
      ],
      "payable": false,
      "stateMutability": "view",
      "type": "function"
    },
    {
      "constant": false,
      "inputs": [
        {
          "name": "_token",
          "type": "address"
        }
      ],
      "name": "claimTokens",
      "outputs": [],
      "payable": false,
      "stateMutability": "nonpayable",
      "type": "function"
    },
    {
      "constant": true,
      "inputs": [],
      "name": "controller",
      "outputs": [
        {
          "name": "",
          "type": "address"
        }
      ],
      "payable": false,
      "stateMutability": "view",
      "type": "function"
    },
    {
      "inputs": [
        {
          "name": "_initialAmount",
          "type": "uint256"
        },
        {
          "name": "_tokenName",
          "type": "string"
        },
        {
          "name": "_decimalUnits",
          "type": "uint8"
        },
        {
          "name": "_tokenSymbol",
          "type": "string"
        }
      ],
      "payable": false,
      "stateMutability": "nonpayable",
      "type": "constructor"
    },
    {
      "payable": true,
      "stateMutability": "payable",
      "type": "fallback"
    },
    {
      "anonymous": false,
      "inputs": [
        {
          "indexed": true,
          "name": "_token",
          "type": "address"
        },
        {
          "indexed": true,
          "name": "_controller",
          "type": "address"
        },
        {
          "indexed": false,
          "name": "_amount",
          "type": "uint256"
        }
      ],
      "name": "ClaimedTokens",
      "type": "event"
    },
    {
      "anonymous": false,
      "inputs": [
        {
          "indexed": true,
          "name": "from",
          "type": "address"
        },
        {
          "indexed": true,
          "name": "to",
          "type": "address"
        },
        {
          "indexed": false,
          "name": "value",
          "type": "uint256"
        }
      ],
      "name": "Transfer",
      "type": "event"
    },
    {
      "anonymous": false,
      "inputs": [
        {
          "indexed": true,
          "name": "owner",
          "type": "address"
        },
        {
          "indexed": true,
          "name": "spender",
          "type": "address"
        },
        {
          "indexed": false,
          "name": "value",
          "type": "uint256"
        }
      ],
      "name": "Approval",
      "type": "event"
    }
  ],
  "bytecode": "0x606060405260408051908101604052600381527f312e3000000000000000000000000000000000000000000000000000000000006020820152600490805161004b9291602001906100fc565b50341561005757600080fd5b60405162000ef438038062000ef483398101604052808051919060200180518201919060200180519190602001805160008054600160a060020a033316600160a060020a03199091168117825581526006602052604090208690556005869055909101905060018380516100cf9291602001906100fc565b506002805460ff191660ff841617905560038180516100f29291602001906100fc565b5050505050610197565b828054600181600116156101000203166002900490600052602060002090601f016020900481019282601f1061013d57805160ff191683800117855561016a565b8280016001018555821561016a579182015b8281111561016a57825182559160200191906001019061014f565b5061017692915061017a565b5090565b61019491905b808211156101765760008155600101610180565b90565b610d4d80620001a76000396000f3006060604052600436106100c15763ffffffff60e060020a60003504166306fdde038114610166578063095ea7b3146101f057806318160ddd1461022657806323b872dd1461024b578063313ce567146102735780633cebb8231461029c57806354fd4d50146102bb57806370a08231146102ce578063827f32c0146102ed57806395d89b411461030f578063a9059cbb14610322578063d3ce77fe14610344578063dd62ed3e14610366578063df8de3e71461038b578063f77c4791146103aa575b6000546100d690600160a060020a03166103d9565b15156100e157600080fd5b60008054600160a060020a03169063f48c305490349033906040516020015260405160e060020a63ffffffff8516028152600160a060020a0390911660048201526024016020604051808303818588803b151561013d57600080fd5b6125ee5a03f1151561014e57600080fd5b5050505060405180519050151561016457600080fd5b005b341561017157600080fd5b610179610406565b60405160208082528190810183818151815260200191508051906020019080838360005b838110156101b557808201518382015260200161019d565b50505050905090810190601f1680156101e25780820380516001836020036101000a031916815260200191505b509250505060405180910390f35b34156101fb57600080fd5b610212600160a060020a03600435166024356104a4565b604051901515815260200160405180910390f35b341561023157600080fd5b6102396105be565b60405190815260200160405180910390f35b341561025657600080fd5b610212600160a060020a03600435811690602435166044356105c4565b341561027e57600080fd5b610286610768565b60405160ff909116815260200160405180910390f35b34156102a757600080fd5b610164600160a060020a0360043516610771565b34156102c657600080fd5b6101796107bb565b34156102d957600080fd5b610239600160a060020a0360043516610826565b34156102f857600080fd5b610212600160a060020a0360043516602435610841565b341561031a57600080fd5b6101796108e1565b341561032d57600080fd5b610212600160a060020a036004351660243561094c565b341561034f57600080fd5b610212600160a060020a0360043516602435610a7e565b341561037157600080fd5b610239600160a060020a0360043581169060243516610b1b565b341561039657600080fd5b610164600160a060020a0360043516610b46565b34156103b557600080fd5b6103bd610cf2565b604051600160a060020a03909116815260200160405180910390f35b600080600160a060020a03831615156103f55760009150610400565b823b90506000811191505b50919050565b60018054600181600116156101000203166002900480601f01602080910402602001604051908101604052809291908181526020018280546001816001161561010002031660029004801561049c5780601f106104715761010080835404028352916020019161049c565b820191906000526020600020905b81548152906001019060200180831161047f57829003601f168201915b505050505081565b600080546104ba90600160a060020a03166103d9565b156105555760008054600160a060020a03169063da682aeb903390869086906040516020015260405160e060020a63ffffffff8616028152600160a060020a0393841660048201529190921660248201526044810191909152606401602060405180830381600087803b151561052f57600080fd5b6102c65a03f1151561054057600080fd5b50505060405180519050151561055557600080fd5b600160a060020a03338116600081815260076020908152604080832094881680845294909152908190208590557f8c5be1e5ebec7d5bd14f71427d1e84f3dd0314c0f7b2291e5b200ac8c7c3b9259085905190815260200160405180910390a350600192915050565b60055481565b600160a060020a0380841660008181526007602090815260408083203390951683529381528382205492825260069052918220548390108015906106085750828110155b151561061357600080fd5b60005461062890600160a060020a03166103d9565b156106c35760008054600160a060020a031690634a393149908790879087906040516020015260405160e060020a63ffffffff8616028152600160a060020a0393841660048201529190921660248201526044810191909152606401602060405180830381600087803b151561069d57600080fd5b6102c65a03f115156106ae57600080fd5b5050506040518051905015156106c357600080fd5b600160a060020a038085166000908152600660205260408082208054870190559187168152208054849003905560001981101561072857600160a060020a03808616600090815260076020908152604080832033909416835292905220805484900390555b83600160a060020a031685600160a060020a0316600080516020610d028339815191528560405190815260200160405180910390a3506001949350505050565b60025460ff1681565b60005433600160a060020a0390811691161461078c57600080fd5b6000805473ffffffffffffffffffffffffffffffffffffffff1916600160a060020a0392909216919091179055565b60048054600181600116156101000203166002900480601f01602080910402602001604051908101604052809291908181526020018280546001816001161561010002031660029004801561049c5780601f106104715761010080835404028352916020019161049c565b600160a060020a031660009081526006602052604090205490565b600080548190819033600160a060020a0390811691161461086157600080fd5b60055491508382018290101561087657600080fd5b61087f85610826565b90508381018190101561089157600080fd5b818401600555600160a060020a0385166000818152600660205260408082208488019055600080516020610d028339815191529087905190815260200160405180910390a3506001949350505050565b60038054600181600116156101000203166002900480601f01602080910402602001604051908101604052809291908181526020018280546001816001161561010002031660029004801561049c5780601f106104715761010080835404028352916020019161049c565b600160a060020a0333166000908152600660205260408120548290101561097257600080fd5b60005461098790600160a060020a03166103d9565b15610a225760008054600160a060020a031690634a393149903390869086906040516020015260405160e060020a63ffffffff8616028152600160a060020a0393841660048201529190921660248201526044810191909152606401602060405180830381600087803b15156109fc57600080fd5b6102c65a03f11515610a0d57600080fd5b505050604051805190501515610a2257600080fd5b600160a060020a03338116600081815260066020526040808220805487900390559286168082529083902080548601905591600080516020610d028339815191529085905190815260200160405180910390a350600192915050565b600080548190819033600160a060020a03908116911614610a9e57600080fd5b600554915083821015610ab057600080fd5b610ab985610826565b905083811015610ac857600080fd5b838203600555600160a060020a0385166000818152600660205260408082208785039055909190600080516020610d028339815191529087905190815260200160405180910390a3506001949350505050565b600160a060020a03918216600090815260076020908152604080832093909416825291909152205490565b60008054819033600160a060020a03908116911614610b6457600080fd5b600160a060020a0383161515610bb257600054600160a060020a039081169030163180156108fc0290604051600060405180830381858888f193505050501515610bad57600080fd5b610ced565b82915081600160a060020a03166370a082313060006040516020015260405160e060020a63ffffffff8416028152600160a060020a039091166004820152602401602060405180830381600087803b1515610c0c57600080fd5b6102c65a03f11515610c1d57600080fd5b505050604051805160008054919350600160a060020a03808616935063a9059cbb92169084906040516020015260405160e060020a63ffffffff8516028152600160a060020a0390921660048301526024820152604401602060405180830381600087803b1515610c8d57600080fd5b6102c65a03f11515610c9e57600080fd5b50505060405180515050600054600160a060020a039081169084167ff931edb47c50b4b4104c187b5814a9aef5f709e17e2ecf9617e860cacade929c8360405190815260200160405180910390a35b505050565b600054600160a060020a0316815600ddf252ad1be2c89b69c2b068fc378daa952ba7f163c4a11628f55a4df523b3efa165627a7a7230582040b31da39848f79c6edde2b55bceb3267b04a077e5b7b7a7c34f265b11f0a9bc0029",
  "source": "pragma solidity ^0.4.11;\n\nimport './ERC20.sol';\nimport './TokenController.sol';\n\n// Token implementation\n// sources\n//   https://github.com/ConsenSys/Tokens\n\n\n\ncontract ControlledToken is ERC20, Controlled {\n\n    uint256 constant MAX_UINT256 = 2**256 - 1;\n\n    event ClaimedTokens(address indexed _token, address indexed _controller, uint _amount);\n\n    /* Public variables of the token */\n\n    /*\n    NOTE:\n    The following variables are OPTIONAL vanities. One does not have to include them.\n    They allow one to customise the token contract & in no way influences the core functionality.\n    Some wallets/interfaces might not even bother to look at this information.\n    */\n    string public name;                   //fancy name: eg Simon Bucks\n    uint8 public decimals;                //How many decimals to show. ie. There could 1000 base units with 3 decimals. Meaning 0.980 SBX = 980 base units. It's like comparing 1 wei to 1 ether.\n    string public symbol;                 //An identifier: eg SBX\n    string public version = '1.0';       //human 0.1 standard. Just an arbitrary versioning scheme.\n    uint256 public totalSupply;\n\n    function ControlledToken(\n        uint256 _initialAmount,\n        string _tokenName,\n        uint8 _decimalUnits,\n        string _tokenSymbol\n        ) {\n        balances[msg.sender] = _initialAmount;               // Give the creator all initial tokens\n        totalSupply = _initialAmount;                        // Update total supply\n        name = _tokenName;                                   // Set the name for display purposes\n        decimals = _decimalUnits;                            // Amount of decimals for display purposes\n        symbol = _tokenSymbol;                               // Set the symbol for display purposes\n    }\n\n\n    function transfer(address _to, uint256 _value) returns (bool success) {\n        //Default assumes totalSupply can't be over max (2^256 - 1).\n        //If your token leaves out totalSupply and can issue more tokens as time goes on, you need to check if it doesn't wrap.\n        //Replace the if with this one instead.\n        //require(balances[msg.sender] >= _value && balances[_to] + _value > balances[_to]);\n        require(balances[msg.sender] >= _value);\n\n        if (isContract(controller)) {\n            require(TokenController(controller).onTransfer(msg.sender, _to, _value));\n        }\n\n        balances[msg.sender] -= _value;\n        balances[_to] += _value;\n        // Alerts the token controller of the transfer\n\n        Transfer(msg.sender, _to, _value);\n        return true;\n    }\n\n    function transferFrom(address _from, address _to, uint256 _value) returns (bool success) {\n        //same as above. Replace this line with the following if you want to protect against wrapping uints.\n        //require(balances[_from] >= _value && allowed[_from][msg.sender] >= _value && balances[_to] + _value > balances[_to]);\n        uint256 allowance = allowed[_from][msg.sender];\n        require(balances[_from] >= _value && allowance >= _value);\n\n        if (isContract(controller)) {\n            require(TokenController(controller).onTransfer(_from, _to, _value));\n        }\n\n        balances[_to] += _value;\n        balances[_from] -= _value;\n        if (allowance < MAX_UINT256) {\n            allowed[_from][msg.sender] -= _value;\n        }\n        Transfer(_from, _to, _value);\n        return true;\n    }\n\n    function balanceOf(address _owner) constant returns (uint256 balance) {\n        return balances[_owner];\n    }\n\n    function approve(address _spender, uint256 _value) returns (bool success) {\n\n        // Alerts the token controller of the approve function call\n        if (isContract(controller)) {\n            require(TokenController(controller).onApprove(msg.sender, _spender, _value));\n        }\n\n        allowed[msg.sender][_spender] = _value;\n        Approval(msg.sender, _spender, _value);\n        return true;\n    }\n\n    function allowance(address _owner, address _spender) constant returns (uint256 remaining) {\n      return allowed[_owner][_spender];\n    }\n\n    ////////////////\n// Generate and destroy tokens\n////////////////\n\n    /// @notice Generates `_amount` tokens that are assigned to `_owner`\n    /// @param _owner The address that will be assigned the new tokens\n    /// @param _amount The quantity of tokens generated\n    /// @return True if the tokens are generated correctly\n    function generateTokens(address _owner, uint _amount ) onlyController returns (bool) {\n        uint curTotalSupply = totalSupply;\n        require(curTotalSupply + _amount >= curTotalSupply); // Check for overflow\n        uint previousBalanceTo = balanceOf(_owner);\n        require(previousBalanceTo + _amount >= previousBalanceTo); // Check for overflow\n        totalSupply = curTotalSupply + _amount;\n        balances[_owner]  = previousBalanceTo + _amount;\n        Transfer(0, _owner, _amount);\n        return true;\n    }\n\n\n    /// @notice Burns `_amount` tokens from `_owner`\n    /// @param _owner The address that will lose the tokens\n    /// @param _amount The quantity of tokens to burn\n    /// @return True if the tokens are burned correctly\n    function destroyTokens(address _owner, uint _amount\n    ) onlyController returns (bool) {\n        uint curTotalSupply = totalSupply;\n        require(curTotalSupply >= _amount);\n        uint previousBalanceFrom = balanceOf(_owner);\n        require(previousBalanceFrom >= _amount);\n        totalSupply = curTotalSupply - _amount;\n        balances[_owner] = previousBalanceFrom - _amount;\n        Transfer(_owner, 0, _amount);\n        return true;\n    }\n\n    /// @notice The fallback function: If the contract's controller has not been\n    ///  set to 0, then the `proxyPayment` method is called which relays the\n    ///  ether and creates tokens as described in the token controller contract\n    function ()  payable {\n        require(isContract(controller));\n        require(TokenController(controller).proxyPayment.value(msg.value)(msg.sender));\n    }\n\n    /// @dev Internal function to determine if an address is a contract\n    /// @param _addr The address being queried\n    /// @return True if `_addr` is a contract\n    function isContract(address _addr) constant internal returns(bool) {\n        uint size;\n        if (_addr == 0) return false;\n        assembly {\n            size := extcodesize(_addr)\n        }\n        return size>0;\n    }\n\n    /// @notice This method can be used by the controller to extract mistakenly\n    ///  sent tokens to this contract.\n    /// @param _token The address of the token contract that you want to recover\n    ///  set to 0 in case you want to extract ether.\n    function claimTokens(address _token) onlyController {\n        if (_token == 0x0) {\n            controller.transfer(this.balance);\n            return;\n        }\n\n        ControlledToken token = ControlledToken(_token);\n        uint balance = token.balanceOf(this);\n        token.transfer(controller, balance);\n        ClaimedTokens(_token, controller, balance);\n    }\n\n\n    mapping (address => uint256) balances;\n    mapping (address => mapping (address => uint256)) allowed;\n\n\n}\n\n",
  "sourcePath": "/Users/studnev/dev4bc/contracts/contracts/token/ControlledToken.sol",
  "compiler": {
    "name": "solc",
    "version": "0.4.18+commit.9cf6e910.Emscripten.clang"
  },
  "schemaVersion": "1.0.1",
  "updatedAt": "2018-04-03T08:37:25.934Z"
}