{
  "contractName": "CryptoPuzzleGame",
  "abi": [
    {
      "constant": true,
      "inputs": [],
      "name": "manager",
      "outputs": [
        {
          "name": "",
          "type": "address"
        }
      ],
      "payable": false,
      "stateMutability": "view",
      "type": "function"
    },
    {
      "constant": false,
      "inputs": [
        {
          "name": "_secret",
          "type": "uint256"
        }
      ],
      "name": "claim_win",
      "outputs": [
        {
          "name": "",
          "type": "uint256"
        }
      ],
      "payable": false,
      "stateMutability": "nonpayable",
      "type": "function"
    },
    {
      "constant": true,
      "inputs": [
        {
          "name": "",
          "type": "uint256"
        }
      ],
      "name": "puzzles",
      "outputs": [
        {
          "name": "",
          "type": "uint256"
        }
      ],
      "payable": false,
      "stateMutability": "view",
      "type": "function"
    },
    {
      "constant": false,
      "inputs": [
        {
          "name": "_hash",
          "type": "uint256"
        },
        {
          "name": "_info",
          "type": "uint256"
        }
      ],
      "name": "create_puzzle",
      "outputs": [
        {
          "name": "",
          "type": "uint256"
        }
      ],
      "payable": true,
      "stateMutability": "payable",
      "type": "function"
    },
    {
      "constant": true,
      "inputs": [],
      "name": "PRIZE_LIFETIME",
      "outputs": [
        {
          "name": "",
          "type": "uint256"
        }
      ],
      "payable": false,
      "stateMutability": "view",
      "type": "function"
    },
    {
      "constant": true,
      "inputs": [
        {
          "name": "_secret",
          "type": "uint256"
        }
      ],
      "name": "key_hash256",
      "outputs": [
        {
          "name": "",
          "type": "uint256"
        }
      ],
      "payable": false,
      "stateMutability": "view",
      "type": "function"
    },
    {
      "constant": true,
      "inputs": [],
      "name": "token",
      "outputs": [
        {
          "name": "",
          "type": "address"
        }
      ],
      "payable": false,
      "stateMutability": "view",
      "type": "function"
    },
    {
      "inputs": [
        {
          "name": "_manager",
          "type": "address"
        }
      ],
      "payable": false,
      "stateMutability": "nonpayable",
      "type": "constructor"
    }
  ],
  "bytecode": "0x6060604052341561000f57600080fd5b60405160208061134f83398101604052808051915061002e905061010d565b604051809103906000f080151561004457600080fd5b60008054600160a060020a0319908116600160a060020a039384161782556001805490911684841617908190559091169063f9e0f4a890601e60146032670429d069189e00006040517c010000000000000000000000000000000000000000000000000000000063ffffffff88160281526004810195909552602485019390935260448401919091526064830152608482015260a401600060405180830381600087803b15156100f357600080fd5b6102c65a03f1151561010457600080fd5b5050505061011d565b604051610e298061052683390190565b6103fa8061012c6000396000f3006060604052600436106100695763ffffffff60e060020a600035041663481c6a75811461006e5780634f84c5f11461009d57806390ba2652146100c557806395bc0081146100db5780639fe4f221146100e9578063e2dc19cb146100fc578063fc0c546a14610112575b600080fd5b341561007957600080fd5b610081610125565b604051600160a060020a03909116815260200160405180910390f35b34156100a857600080fd5b6100b3600435610134565b60405190815260200160405180910390f35b34156100d057600080fd5b6100b36004356101e3565b6100b36004356024356101f5565b34156100f457600080fd5b6100b3610349565b341561010757600080fd5b6100b3600435610350565b341561011d57600080fd5b6100816103bf565b600154600160a060020a031681565b600080600061014284610350565b600081815260026020526040902054909250905080151561016257600080fd5b600054600160a060020a031663a9059cbb338360405160e060020a63ffffffff8516028152600160a060020a0390921660048301526024820152604401600060405180830381600087803b15156101b857600080fd5b6102c65a03f115156101c957600080fd5b505050600082815260026020526040812055915050919050565b60026020526000908152604090205481565b60008083151561020457600080fd5b6000848152600260205260409020541561021d57600080fd5b60008054600160a060020a031690636a6278429030906040516020015260405160e060020a63ffffffff8416028152600160a060020a039091166004820152602401602060405180830381600087803b151561027857600080fd5b6102c65a03f1151561028957600080fd5b5050506040518051600154600054919350600160a060020a03908116925063d125f41c913491163330866203f4808a60405160e060020a63ffffffff8a16028152600160a060020a03968716600482015294861660248601529290941660448401526064830152608482019290925260a481019190915260c4016000604051808303818588803b151561031b57600080fd5b6125ee5a03f1151561032c57600080fd5b505050600085815260026020526040902082905550905092915050565b6203f48081565b6000600282306000604051602001526040518083815260200182600160a060020a0316600160a060020a03166c010000000000000000000000000281526014019250505060206040518083038160008661646e5a03f115156103b157600080fd5b505060405180519392505050565b600054600160a060020a0316815600a165627a7a723058209e304ed989664577dd70cec839e3958fb2d1410fee458a70d0adcb9390c1c1c50029606060405260408051908101604052600a81527f50757a7a6c652057696e000000000000000000000000000000000000000000006020820152600690805161004b9291602001906100b9565b5060408051908101604052600681527f50555a5a4c450000000000000000000000000000000000000000000000000000602082015260079080516100939291602001906100b9565b50600160085560058054600160a060020a03191633600160a060020a0316179055610154565b828054600181600116156101000203166002900490600052602060002090601f016020900481019282601f106100fa57805160ff1916838001178555610127565b82800160010185558215610127579182015b8281111561012757825182559160200191906001019061010c565b50610133929150610137565b5090565b61015191905b80821115610133576000815560010161013d565b90565b610cc6806101636000396000f3006060604052600436106100cf5763ffffffff7c010000000000000000000000000000000000000000000000000000000060003504166306fdde0381146100d4578063095ea7b31461015e57806318160ddd146101825780632a6dd48f146101a757806342966c68146101d95780635a3f2672146101ef5780636352211e146102615780636a6278421461027757806370a08231146102965780638da5cb5b146102b557806395d89b41146102c8578063a9059cbb146102db578063b2e6ceeb146102fd578063f2fde38b14610313575b600080fd5b34156100df57600080fd5b6100e7610332565b60405160208082528190810183818151815260200191508051906020019080838360005b8381101561012357808201518382015260200161010b565b50505050905090810190601f1680156101505780820380516001836020036101000a031916815260200191505b509250505060405180910390f35b341561016957600080fd5b610180600160a060020a03600435166024356103d0565b005b341561018d57600080fd5b6101956104c2565b60405190815260200160405180910390f35b34156101b257600080fd5b6101bd6004356104c9565b604051600160a060020a03909116815260200160405180910390f35b34156101e457600080fd5b6101806004356104e4565b34156101fa57600080fd5b61020e600160a060020a03600435166104f0565b60405160208082528190810183818151815260200191508051906020019060200280838360005b8381101561024d578082015183820152602001610235565b505050509050019250505060405180910390f35b341561026c57600080fd5b6101bd600435610573565b341561028257600080fd5b610195600160a060020a036004351661059d565b34156102a157600080fd5b610195600160a060020a03600435166105e3565b34156102c057600080fd5b6101bd6105fe565b34156102d357600080fd5b6100e761060d565b34156102e657600080fd5b610180600160a060020a0360043516602435610678565b341561030857600080fd5b6101806004356106af565b341561031e57600080fd5b610180600160a060020a03600435166106d7565b60068054600181600116156101000203166002900480601f0160208091040260200160405190810160405280929190818152602001828054600181600116156101000203166002900480156103c85780601f1061039d576101008083540402835291602001916103c8565b820191906000526020600020905b8154815290600101906020018083116103ab57829003601f168201915b505050505081565b60008133600160a060020a03166103e682610573565b600160a060020a0316146103f957600080fd5b61040283610573565b9150600160a060020a03848116908316141561041d57600080fd5b610426836104c9565b600160a060020a03161515806104445750600160a060020a03841615155b156104bc5760008381526002602052604090819020805473ffffffffffffffffffffffffffffffffffffffff1916600160a060020a0387811691821790925591908416907f8c5be1e5ebec7d5bd14f71427d1e84f3dd0314c0f7b2291e5b200ac8c7c3b9259086905190815260200160405180910390a35b50505050565b6000545b90565b600090815260026020526040902054600160a060020a031690565b6104ed81610772565b50565b6104f8610c4b565b6003600083600160a060020a0316600160a060020a0316815260200190815260200160002080548060200260200160405190810160405280929190818152602001828054801561056757602002820191906000526020600020905b815481526020019060010190808311610553575b50505050509050919050565b600081815260016020526040812054600160a060020a031680151561059757600080fd5b92915050565b60055460009033600160a060020a039081169116146105bb57600080fd5b6105c782600854610807565b6008546105db90600163ffffffff61086916565b600855919050565b600160a060020a031660009081526003602052604090205490565b600554600160a060020a031681565b60078054600181600116156101000203166002900480601f0160208091040260200160405190810160405280929190818152602001828054600181600116156101000203166002900480156103c85780601f1061039d576101008083540402835291602001916103c8565b8033600160a060020a031661068c82610573565b600160a060020a03161461069f57600080fd5b6106aa33848461087f565b505050565b6106b93382610945565b15156106c457600080fd5b6104ed6106d082610573565b338361087f565b60055433600160a060020a039081169116146106f257600080fd5b600160a060020a038116151561070757600080fd5b600554600160a060020a0380831691167f8be0079c531659141344cd1fd0a4f28419497f9722a3daafe3b4186f6b6457e060405160405180910390a36005805473ffffffffffffffffffffffffffffffffffffffff1916600160a060020a0392909216919091179055565b8033600160a060020a031661078682610573565b600160a060020a03161461079957600080fd5b6107a2826104c9565b600160a060020a0316156107ba576107ba338361096b565b6107c433836109fd565b600033600160a060020a03167fddf252ad1be2c89b69c2b068fc378daa952ba7f163c4a11628f55a4df523b3ef8460405190815260200160405180910390a35050565b600160a060020a038216151561081c57600080fd5b6108268282610b74565b81600160a060020a031660007fddf252ad1be2c89b69c2b068fc378daa952ba7f163c4a11628f55a4df523b3ef8360405190815260200160405180910390a35050565b60008282018381101561087857fe5b9392505050565b600160a060020a038216151561089457600080fd5b61089d81610573565b600160a060020a03838116911614156108b557600080fd5b82600160a060020a03166108c882610573565b600160a060020a0316146108db57600080fd5b6108e5838261096b565b6108ef83826109fd565b6108f98282610b74565b81600160a060020a031683600160a060020a03167fddf252ad1be2c89b69c2b068fc378daa952ba7f163c4a11628f55a4df523b3ef8360405190815260200160405180910390a3505050565b600082600160a060020a031661095a836104c9565b600160a060020a0316149392505050565b81600160a060020a031661097e82610573565b600160a060020a03161461099157600080fd5b600081815260026020526040808220805473ffffffffffffffffffffffffffffffffffffffff19169055600160a060020a038416907f8c5be1e5ebec7d5bd14f71427d1e84f3dd0314c0f7b2291e5b200ac8c7c3b9259084905190815260200160405180910390a35050565b600080600084600160a060020a0316610a1585610573565b600160a060020a031614610a2857600080fd5b6000848152600460205260409020549250610a536001610a47876105e3565b9063ffffffff610c3916565b600160a060020a038616600090815260036020526040902080549193509083908110610a7b57fe5b6000918252602080832090910154868352600182526040808420805473ffffffffffffffffffffffffffffffffffffffff19169055600160a060020a0389168452600390925291208054919250829185908110610ad457fe5b6000918252602080832090910192909255600160a060020a0387168152600390915260408120805484908110610b0657fe5b6000918252602080832090910192909255600160a060020a0387168152600390915260409020805490610b3d906000198301610c5d565b50600084815260046020526040808220829055828252812084905554610b6a90600163ffffffff610c3916565b6000555050505050565b600081815260016020526040812054600160a060020a031615610b9657600080fd5b6000828152600160205260409020805473ffffffffffffffffffffffffffffffffffffffff1916600160a060020a038516179055610bd3836105e3565b600160a060020a038416600090815260036020526040902080549192509060018101610bff8382610c5d565b506000918252602080832091909101849055838252600490526040812082905554610c3190600163ffffffff61086916565b600055505050565b600082821115610c4557fe5b50900390565b60206040519081016040526000815290565b8154818355818115116106aa576000838152602090206106aa9181019083016104c691905b80821115610c965760008155600101610c82565b50905600a165627a7a72305820cd33d28b3eeb83f8a36bd647cc00bb9bf4911fb40576d7193da98dc7637196280029",
  "source": "pragma solidity ^0.4.18;\n\nimport \"./PuzzleToken.sol\";\nimport \"../drive/CampaignManager.sol\";\n\n/**\n * @title CryptoPuzzleGame is the game of solving a puzzle using cryptographic hash.\n *\n * @dev The game demonstrates how any blockchain game, based on ERC721, can be integrated with the\n * monetization and reward system, based on IZX token.\n * The rules of the game are the following: game master invents a secret number and calculates a hash from it.\n * Players need to guess the secret number, knowing the hash. As the only way to solve this is the direct\n * brute force, it is computationally unrealizable. So the game should have hints or any kind of puzzle,\n * which helps to guess the secret number.\n * For example, game master can create a word, or graphic puzzle, and generate the secret code from it.\n * Player, who is the first to solve the puzzle, will be able to unlock the prize and receive ERC721 token\n * (PuzzleToken).\n * The same principle can be applied to a wide variety of games, where the prize can be coded as a secret,\n * and will be hunted or guessed by a player. This also includes IZX augmented reality game, where the token is\n * hunted like Pokemon Go.\n * To be able to create different puzzles, additional information can be associated with prize as a number ( called _info).\n * This can be used as a hash for IPFS content to get a content of a puzzle in a game, or hash of geographic position\n * of token on the map, or anything else, related to the game rules.\n *\n * @author Aleksey Studnev <studnev@izx.io>\n */\ncontract CryptoPuzzleGame {\n\n    PuzzleToken         public  token;\n    CampaignManager     public  manager;\n    uint256             public  constant PRIZE_LIFETIME = 72 hours;\n\n    mapping (uint256 => uint256) public puzzles;\n\n    /**\n    * @dev Create the game with the campaign manager.\n    * It sets the parameters for payout for this game as well.\n    * @param _manager The campaign manager, which will arrange pay reward for prizes of this game\n    */\n    function CryptoPuzzleGame(CampaignManager _manager) public {\n        token = new PuzzleToken();\n        manager = _manager;\n        manager.set_game_payout( 0, 30, 20, 50, 0.3 ether );\n    }\n\n\n    /**\n    * @dev Create the new puzzle and sets a prize for winner. Function is payable,\n    * the amount will be used as a fund, distributed for this prize\n    * @param _hash is the hash, generated using key_hash256 function from the secret number\n    * @param _info is the optional additional information to solve the puzzle and win the game,\n    * for example, encrypted geograpic location or hash for IPFS resource. It can also be a\n    * key to record in game database to lookup specific puzzle or game requisites.\n    * @return Id of token for the puzzle\n    */\n    function create_puzzle(uint256 _hash, uint256 _info) public payable returns(uint256){\n\n        require(_hash!=0);\n        require(puzzles[_hash]==0);\n\n        uint256 tokenId = token.mint(this);\n\n        manager.register_prize.value(msg.value)(token, msg.sender, this, tokenId, PRIZE_LIFETIME, _info);\n\n        puzzles[_hash]= tokenId;\n\n        return tokenId;\n    }\n\n\n    /**\n    * @dev Claim that caller solved the puzzle.\n    * In response it gets the token, which can be used to get a reward from Campaign Manager.\n    * @param _secret is the secret number, guessed by caller\n    * @return Id of token for the puzzle\n    */\n    function claim_win(uint256 _secret) public returns(uint256){\n\n        uint256 hash = key_hash256(_secret);\n        uint256 tokenId = puzzles[hash];\n        require(tokenId!=0);\n\n        token.transfer(msg.sender, tokenId);\n\n        delete(puzzles[hash]);\n\n        return tokenId;\n\n    }\n\n    /**\n    * @dev calculate hash using a secret number. The same method used to claim a prize\n    * Note, that this calculation can be done offline using sha256 hash function on client side\n    * @param _secret is the secret number\n    * @return hash of the prize\n    */\n    function key_hash256(uint256 _secret) public view returns(uint256) {\n        return uint256(sha256(_secret, address(this)));\n    }\n\n\n}",
  "sourcePath": "/Users/studnev/dev4bc/contracts/contracts/example/CryptoPuzzleGame.sol",
  "compiler": {
    "name": "solc",
    "version": "0.4.18+commit.9cf6e910.Emscripten.clang"
  },
  "schemaVersion": "1.0.1",
  "updatedAt": "2018-02-23T10:30:49.112Z"
}