{
  "contractName": "FreeGame",
  "abi": [
    {
      "constant": true,
      "inputs": [
        {
          "name": "",
          "type": "address"
        }
      ],
      "name": "issuedPrizes",
      "outputs": [
        {
          "name": "",
          "type": "uint256"
        }
      ],
      "payable": false,
      "stateMutability": "view",
      "type": "function"
    },
    {
      "constant": false,
      "inputs": [],
      "name": "withdraw",
      "outputs": [],
      "payable": false,
      "stateMutability": "nonpayable",
      "type": "function"
    },
    {
      "constant": true,
      "inputs": [],
      "name": "owner",
      "outputs": [
        {
          "name": "",
          "type": "address"
        }
      ],
      "payable": false,
      "stateMutability": "view",
      "type": "function"
    },
    {
      "constant": false,
      "inputs": [
        {
          "name": "_newOwner",
          "type": "address"
        }
      ],
      "name": "changeOwner",
      "outputs": [],
      "payable": false,
      "stateMutability": "nonpayable",
      "type": "function"
    },
    {
      "constant": false,
      "inputs": [
        {
          "name": "_hashes",
          "type": "uint256[]"
        },
        {
          "name": "_expiration",
          "type": "uint256"
        }
      ],
      "name": "issue",
      "outputs": [],
      "payable": true,
      "stateMutability": "payable",
      "type": "function"
    },
    {
      "constant": false,
      "inputs": [
        {
          "name": "_key",
          "type": "uint256"
        },
        {
          "name": "_winner",
          "type": "address"
        }
      ],
      "name": "claim",
      "outputs": [
        {
          "name": "",
          "type": "bool"
        }
      ],
      "payable": false,
      "stateMutability": "nonpayable",
      "type": "function"
    },
    {
      "constant": true,
      "inputs": [
        {
          "name": "_key",
          "type": "uint256"
        }
      ],
      "name": "key_hash256",
      "outputs": [
        {
          "name": "",
          "type": "uint256"
        }
      ],
      "payable": false,
      "stateMutability": "view",
      "type": "function"
    },
    {
      "constant": true,
      "inputs": [
        {
          "name": "",
          "type": "uint256"
        }
      ],
      "name": "prizes",
      "outputs": [
        {
          "name": "issuer",
          "type": "address"
        },
        {
          "name": "owner",
          "type": "address"
        },
        {
          "name": "tokens",
          "type": "uint256"
        },
        {
          "name": "value",
          "type": "uint256"
        },
        {
          "name": "expiration",
          "type": "uint256"
        }
      ],
      "payable": false,
      "stateMutability": "view",
      "type": "function"
    },
    {
      "constant": true,
      "inputs": [
        {
          "name": "",
          "type": "address"
        }
      ],
      "name": "pendingWithdrawals",
      "outputs": [
        {
          "name": "",
          "type": "uint256"
        }
      ],
      "payable": false,
      "stateMutability": "view",
      "type": "function"
    },
    {
      "constant": true,
      "inputs": [],
      "name": "controller",
      "outputs": [
        {
          "name": "",
          "type": "address"
        }
      ],
      "payable": false,
      "stateMutability": "view",
      "type": "function"
    },
    {
      "constant": true,
      "inputs": [],
      "name": "token",
      "outputs": [
        {
          "name": "",
          "type": "address"
        }
      ],
      "payable": false,
      "stateMutability": "view",
      "type": "function"
    },
    {
      "inputs": [
        {
          "name": "_token",
          "type": "address"
        },
        {
          "name": "_controller",
          "type": "address"
        }
      ],
      "payable": false,
      "stateMutability": "nonpayable",
      "type": "constructor"
    },
    {
      "anonymous": false,
      "inputs": [
        {
          "indexed": true,
          "name": "issuer",
          "type": "address"
        },
        {
          "indexed": true,
          "name": "owner",
          "type": "address"
        },
        {
          "indexed": false,
          "name": "amount",
          "type": "uint256"
        }
      ],
      "name": "Issue",
      "type": "event"
    },
    {
      "anonymous": false,
      "inputs": [
        {
          "indexed": true,
          "name": "issuer",
          "type": "address"
        },
        {
          "indexed": true,
          "name": "owner",
          "type": "address"
        },
        {
          "indexed": true,
          "name": "winner",
          "type": "address"
        },
        {
          "indexed": false,
          "name": "amount",
          "type": "uint256"
        }
      ],
      "name": "Claim",
      "type": "event"
    },
    {
      "anonymous": false,
      "inputs": [
        {
          "indexed": true,
          "name": "issuer",
          "type": "address"
        },
        {
          "indexed": true,
          "name": "owner",
          "type": "address"
        },
        {
          "indexed": false,
          "name": "amount",
          "type": "uint256"
        }
      ],
      "name": "Expired",
      "type": "event"
    }
  ],
  "bytecode": "0x6060604052341561000f57600080fd5b604051604080610aba833981016040528080519190602001805160008054600160a060020a03191633600160a060020a039081169190911790915590925083915082908216151561005f57600080fd5b600160a060020a038116151561007457600080fd5b60018054600160a060020a03938416600160a060020a031991821617909155600280549290931691161790555050610a09806100b16000396000f3006060604052600436106100955763ffffffff60e060020a6000350416630f38dc38811461009a5780633ccfd60b146100cb5780638da5cb5b146100e0578063a6f9dae11461010f578063c28b4f981461012e578063ddd5e1b214610174578063e2dc19cb146101aa578063eccb3a4f146101c0578063f3f4370314610210578063f77c47911461022f578063fc0c546a14610242575b600080fd5b34156100a557600080fd5b6100b9600160a060020a0360043516610255565b60405190815260200160405180910390f35b34156100d657600080fd5b6100de610267565b005b34156100eb57600080fd5b6100f36102be565b604051600160a060020a03909116815260200160405180910390f35b341561011a57600080fd5b6100de600160a060020a03600435166102cd565b6100de6004602481358181019083013580602081810201604051908101604052809392919081815260200183836020028082843750949650509335935061031792505050565b341561017f57600080fd5b610196600435600160a060020a0360243516610330565b604051901515815260200160405180910390f35b34156101b557600080fd5b6100b96004356105c5565b34156101cb57600080fd5b6101d6600435610634565b604051600160a060020a0395861681529390941660208401526040808401929092526060830152608082019290925260a001905180910390f35b341561021b57600080fd5b6100b9600160a060020a0360043516610670565b341561023a57600080fd5b6100f3610682565b341561024d57600080fd5b6100f3610691565b60056020526000908152604090205481565b600160a060020a0333166000908152600460205260408120805490829055908111156102bb5733600160a060020a03168160405160006040518083038185876187965a03f19250505015156102bb57600080fd5b50565b600054600160a060020a031681565b60005433600160a060020a039081169116146102e857600080fd5b6000805473ffffffffffffffffffffffffffffffffffffffff1916600160a060020a0392909216919091179055565b341561032257600080fd5b61032c82826106a0565b5050565b600080600061033e856105c5565b600081815260036020526040902060018101549193509150600160a060020a0316151561036a57600080fd5b80600401544211156104f55760018054908201546002830154600160a060020a039283169263a9059cbb92169060006040516020015260405160e060020a63ffffffff8516028152600160a060020a0390921660048301526024820152604401602060405180830381600087803b15156103e357600080fd5b6102c65a03f115156103f457600080fd5b50505060405180519050151561040957600080fd5b60008160030154111561043c5760038101548154600160a060020a03166000908152600460205260409020805490910190555b600160a060020a033381166000908152600560205260409081902080546000190190556001830154835460028501549184169316917f4f250de368f70919105efcd7254a862cc87a72d732d1fa5760792925064f4eb991905190815260200160405180910390a360008281526003602081905260408220805473ffffffffffffffffffffffffffffffffffffffff19908116825560018201805490911690556002810183905590810182905560040181905592506105bd565b6104ff8185610941565b600160a060020a03338116600090815260056020526040908190208054600019019055600183015483546002850154888516949283169391909216917fc1405953cccdad6b442e266c84d66ad671e2534c6584f8e6ef92802f7ad294d5915190815260200160405180910390a460008281526003602081905260408220805473ffffffffffffffffffffffffffffffffffffffff19908116825560018083018054909216909155600282018490559181018390556004019190915592505b505092915050565b6000600282306000604051602001526040518083815260200182600160a060020a0316600160a060020a03166c010000000000000000000000000281526014019250505060206040518083038160008661646e5a03f1151561062657600080fd5b505060405180519392505050565b600360208190526000918252604090912080546001820154600283015493830154600490930154600160a060020a039283169492909116929085565b60046020526000908152604090205481565b600254600160a060020a031681565b600154600160a060020a031681565b60008060006106b1855134336109d4565b92506000831180156106c257504284115b15156106cd57600080fd5b600254600160a060020a03166307fe1b61308560006040516020015260405160e060020a63ffffffff8516028152600160a060020a0390921660048301526024820152604401602060405180830381600087803b151561072c57600080fd5b6102c65a03f1151561073d57600080fd5b5050506040518051925050600160a060020a0382161561093a57600154600160a060020a03166323b872dd83308660006040516020015260405160e060020a63ffffffff8616028152600160a060020a0393841660048201529190921660248201526044810191909152606401602060405180830381600087803b15156107c357600080fd5b6102c65a03f115156107d457600080fd5b5050506040518051905015156107e957600080fd5b5060005b828110156108e15760a06040519081016040528033600160a060020a0316815260200183600160a060020a0316815260200160018152602001348152602001858152506003600087848151811061084057fe5b9060200190602002015181526020019081526020016000206000820151815473ffffffffffffffffffffffffffffffffffffffff1916600160a060020a0391909116178155602082015160018201805473ffffffffffffffffffffffffffffffffffffffff1916600160a060020a039290921691909117905560408201518160020155606082015181600301556080820151600490910155506001016107ed565b600160a060020a0333811660008181526005602052604090819020805487019055918416917f4b2682685b046a3dae8e75ff49b82fa703e366056a43c6a791411011134f4f5d9086905190815260200160405180910390a35b5050505050565b60018054908301546002840154600160a060020a039283169263a9059cbb92169060006040516020015260405160e060020a63ffffffff8516028152600160a060020a0390921660048301526024820152604401602060405180830381600087803b15156109ae57600080fd5b6102c65a03f115156109bf57600080fd5b50505060405180519050151561032c57600080fd5b600193925050505600a165627a7a723058205108b76572234a11d1b97fdc4a300fc98960d34fec0d74252781ae43083a66340029",
  "source": "pragma solidity ^0.4.11;\n\nimport \"./Game.sol\";\n\ncontract FreeGame is Game {\n\n    function FreeGame(  ERC20 _token, GameController _controller  )\n        Game(_token, _controller) public {\n    }\n\n    function issue(uint256[] _hashes, uint256 _expiration) payable public {\n        require(msg.value==0);\n        super.issue(_hashes, _expiration);\n    }\n\n    function reserve_amount( uint256 , uint256 , address  ) internal returns(uint256) {\n        return 1;\n    }\n\n    function payout(Prize storage _prize, address ) internal {\n        require(token.transfer(_prize.owner, _prize.tokens));\n    }\n}",
  "sourcePath": "/Users/studnev/dev4bc/contracts/contracts/game/FreeGame.sol",
  "compiler": {
    "name": "solc",
    "version": "0.4.18+commit.9cf6e910.Emscripten.clang"
  },
  "schemaVersion": "1.0.1",
  "updatedAt": "2017-12-27T17:40:40.987Z"
}