{
  "contractName": "FreeGame",
  "abi": [
    {
      "constant": true,
      "inputs": [
        {
          "name": "",
          "type": "address"
        }
      ],
      "name": "issuedPrizes",
      "outputs": [
        {
          "name": "",
          "type": "uint256"
        }
      ],
      "payable": false,
      "stateMutability": "view",
      "type": "function"
    },
    {
      "constant": false,
      "inputs": [
        {
          "name": "_hashes",
          "type": "uint256[]"
        }
      ],
      "name": "issue",
      "outputs": [],
      "payable": true,
      "stateMutability": "payable",
      "type": "function"
    },
    {
      "constant": true,
      "inputs": [],
      "name": "prize_life_time",
      "outputs": [
        {
          "name": "",
          "type": "uint256"
        }
      ],
      "payable": false,
      "stateMutability": "view",
      "type": "function"
    },
    {
      "constant": false,
      "inputs": [],
      "name": "withdraw",
      "outputs": [],
      "payable": false,
      "stateMutability": "nonpayable",
      "type": "function"
    },
    {
      "constant": true,
      "inputs": [],
      "name": "owner",
      "outputs": [
        {
          "name": "",
          "type": "address"
        }
      ],
      "payable": false,
      "stateMutability": "view",
      "type": "function"
    },
    {
      "constant": false,
      "inputs": [
        {
          "name": "_newOwner",
          "type": "address"
        }
      ],
      "name": "changeOwner",
      "outputs": [],
      "payable": false,
      "stateMutability": "nonpayable",
      "type": "function"
    },
    {
      "constant": false,
      "inputs": [
        {
          "name": "_key",
          "type": "uint256"
        },
        {
          "name": "_winner",
          "type": "address"
        }
      ],
      "name": "claim",
      "outputs": [
        {
          "name": "",
          "type": "bool"
        }
      ],
      "payable": false,
      "stateMutability": "nonpayable",
      "type": "function"
    },
    {
      "constant": true,
      "inputs": [
        {
          "name": "_key",
          "type": "uint256"
        }
      ],
      "name": "key_hash256",
      "outputs": [
        {
          "name": "",
          "type": "uint256"
        }
      ],
      "payable": false,
      "stateMutability": "view",
      "type": "function"
    },
    {
      "constant": true,
      "inputs": [
        {
          "name": "",
          "type": "uint256"
        }
      ],
      "name": "prizes",
      "outputs": [
        {
          "name": "issuer",
          "type": "address"
        },
        {
          "name": "owner",
          "type": "address"
        },
        {
          "name": "tokens",
          "type": "uint256"
        },
        {
          "name": "value",
          "type": "uint256"
        },
        {
          "name": "expiration",
          "type": "uint256"
        }
      ],
      "payable": false,
      "stateMutability": "view",
      "type": "function"
    },
    {
      "constant": true,
      "inputs": [
        {
          "name": "",
          "type": "address"
        }
      ],
      "name": "pendingWithdrawals",
      "outputs": [
        {
          "name": "",
          "type": "uint256"
        }
      ],
      "payable": false,
      "stateMutability": "view",
      "type": "function"
    },
    {
      "constant": true,
      "inputs": [],
      "name": "controller",
      "outputs": [
        {
          "name": "",
          "type": "address"
        }
      ],
      "payable": false,
      "stateMutability": "view",
      "type": "function"
    },
    {
      "constant": true,
      "inputs": [],
      "name": "token",
      "outputs": [
        {
          "name": "",
          "type": "address"
        }
      ],
      "payable": false,
      "stateMutability": "view",
      "type": "function"
    },
    {
      "inputs": [
        {
          "name": "_token",
          "type": "address"
        },
        {
          "name": "_controller",
          "type": "address"
        },
        {
          "name": "_prize_life_time",
          "type": "uint256"
        }
      ],
      "payable": false,
      "stateMutability": "nonpayable",
      "type": "constructor"
    },
    {
      "anonymous": false,
      "inputs": [
        {
          "indexed": true,
          "name": "issuer",
          "type": "address"
        },
        {
          "indexed": true,
          "name": "owner",
          "type": "address"
        },
        {
          "indexed": false,
          "name": "amount",
          "type": "uint256"
        }
      ],
      "name": "Issue",
      "type": "event"
    },
    {
      "anonymous": false,
      "inputs": [
        {
          "indexed": true,
          "name": "issuer",
          "type": "address"
        },
        {
          "indexed": true,
          "name": "owner",
          "type": "address"
        },
        {
          "indexed": true,
          "name": "winner",
          "type": "address"
        },
        {
          "indexed": false,
          "name": "amount",
          "type": "uint256"
        }
      ],
      "name": "Claim",
      "type": "event"
    },
    {
      "anonymous": false,
      "inputs": [
        {
          "indexed": true,
          "name": "issuer",
          "type": "address"
        },
        {
          "indexed": true,
          "name": "owner",
          "type": "address"
        },
        {
          "indexed": false,
          "name": "amount",
          "type": "uint256"
        }
      ],
      "name": "Expired",
      "type": "event"
    }
  ],
  "bytecode": "0x6060604052341561000f57600080fd5b604051606080610b7483398101604052808051919060200180519190602001805160008054600160a060020a03191633600160a060020a0390811691909117909155909250849150839083908316151561006857600080fd5b600160a060020a038216151561007d57600080fd5b60018054600160a060020a03948516600160a060020a0319918216179091556002805493909416921691909117909155600355505050610ab2806100c26000396000f3006060604052600436106100a05763ffffffff60e060020a6000350416630f38dc3881146100a5578063247f216b146100d6578063389bd2531461011c5780633ccfd60b1461012f5780638da5cb5b14610142578063a6f9dae114610171578063ddd5e1b214610190578063e2dc19cb146101c6578063eccb3a4f146101dc578063f3f437031461022c578063f77c47911461024b578063fc0c546a1461025e575b600080fd5b34156100b057600080fd5b6100c4600160a060020a0360043516610271565b60405190815260200160405180910390f35b61011a600460248135818101908301358060208181020160405190810160405280939291908181526020018383602002808284375094965061028395505050505050565b005b341561012757600080fd5b6100c461029a565b341561013a57600080fd5b61011a6102a0565b341561014d57600080fd5b6101556102f4565b604051600160a060020a03909116815260200160405180910390f35b341561017c57600080fd5b61011a600160a060020a0360043516610303565b341561019b57600080fd5b6101b2600435600160a060020a036024351661034d565b604051901515815260200160405180910390f35b34156101d157600080fd5b6100c46004356105e1565b34156101e757600080fd5b6101f2600435610650565b604051600160a060020a0395861681529390941660208401526040808401929092526060830152608082019290925260a001905180910390f35b341561023757600080fd5b6100c4600160a060020a036004351661068c565b341561025657600080fd5b61015561069e565b341561026957600080fd5b6101556106ad565b60066020526000908152604090205481565b341561028e57600080fd5b610297816106bc565b50565b60035481565b600160a060020a0333166000908152600560205260408120805490829055908111156102975733600160a060020a03168160405160006040518083038185876187965a03f192505050151561029757600080fd5b600054600160a060020a031681565b60005433600160a060020a0390811691161461031e57600080fd5b6000805473ffffffffffffffffffffffffffffffffffffffff1916600160a060020a0392909216919091179055565b600080600061035b856105e1565b600081815260046020526040902060018101549193509150600160a060020a0316151561038757600080fd5b80600401544211156105115760018054908201546002830154600160a060020a039283169263a9059cbb92169060006040516020015260405160e060020a63ffffffff8516028152600160a060020a0390921660048301526024820152604401602060405180830381600087803b151561040057600080fd5b6102c65a03f1151561041157600080fd5b50505060405180519050151561042657600080fd5b6000816003015411156104595760038101548154600160a060020a03166000908152600560205260409020805490910190555b600160a060020a033381166000908152600660205260409081902080546000190190556001830154835460028501549184169316917f4f250de368f70919105efcd7254a862cc87a72d732d1fa5760792925064f4eb991905190815260200160405180910390a360008281526004602081905260408220805473ffffffffffffffffffffffffffffffffffffffff199081168255600182018054909116905560028101839055600381018390550181905592506105d9565b61051b81856109a0565b600160a060020a03338116600090815260066020526040908190208054600019019055600183015483546002850154888516949283169391909216917fc1405953cccdad6b442e266c84d66ad671e2534c6584f8e6ef92802f7ad294d5915190815260200160405180910390a460008281526004602081905260408220805473ffffffffffffffffffffffffffffffffffffffff19908116825560018083018054909216909155600282018490556003820184905591019190915592505b505092915050565b6000600282306000604051602001526040518083815260200182600160a060020a0316600160a060020a03166c010000000000000000000000000281526014019250505060206040518083038160008661646e5a03f1151561064257600080fd5b505060405180519392505050565b600460208190526000918252604090912080546001820154600283015460038401549390940154600160a060020a039283169492909116929085565b60056020526000908152604090205481565b600254600160a060020a031681565b600154600160a060020a031681565b60008060008060006106cf865134610a37565b9095509350600085116106e157600080fd5b600254600160a060020a03166307fe1b61308760006040516020015260405160e060020a63ffffffff8516028152600160a060020a0390921660048301526024820152604401602060405180830381600087803b151561074057600080fd5b6102c65a03f1151561075157600080fd5b5050506040518051935050600160a060020a0383161561099857600154600160a060020a03166323b872dd84308860006040516020015260405160e060020a63ffffffff8616028152600160a060020a0393841660048201529190921660248201526044810191909152606401602060405180830381600087803b15156107d757600080fd5b6102c65a03f115156107e857600080fd5b5050506040518051905015156107fd57600080fd5b600034111561084357610819346108148787610a3e565b610a74565b9150600082111561084357600160a060020a03331660009081526005602052604090208054830190555b5060005b8481101561093f5760a06040519081016040528033600160a060020a0316815260200184600160a060020a031681526020016001815260200185815260200160035442018152506004600088848151811061089e57fe5b9060200190602002015181526020019081526020016000206000820151815473ffffffffffffffffffffffffffffffffffffffff1916600160a060020a0391909116178155602082015160018201805473ffffffffffffffffffffffffffffffffffffffff1916600160a060020a03929092169190911790556040820151816002015560608201518160030155608082015160049091015550600101610847565b600160a060020a0333811660008181526006602052604090819020805489019055918516917f4b2682685b046a3dae8e75ff49b82fa703e366056a43c6a791411011134f4f5d9088905190815260200160405180910390a35b505050505050565b60018054908301546002840154600160a060020a039283169263a9059cbb92169060006040516020015260405160e060020a63ffffffff8516028152600160a060020a0390921660048301526024820152604401602060405180830381600087803b1515610a0d57600080fd5b6102c65a03f11515610a1e57600080fd5b505050604051805190501515610a3357600080fd5b5050565b5090600090565b600080831515610a515760009150610a6d565b50828202828482811515610a6157fe5b0414610a6957fe5b8091505b5092915050565b600082821115610a8057fe5b509003905600a165627a7a723058208a358043c264930332292e738e82d4db7fb21b342f2513f7a87d44142b494f220029",
  "source": "pragma solidity ^0.4.11;\n\nimport \"./Game.sol\";\n\ncontract FreeGame is Game {\n\n    function FreeGame(  ERC20 _token, GameController _controller, uint256 _prize_life_time  )\n        Game(_token, _controller, _prize_life_time) public {\n    }\n\n    function issue(uint256[] _hashes) payable public {\n        require(msg.value==0);\n        super.issue(_hashes);\n    }\n\n    function calculate_amount( uint256 _requested_amount, uint256  ) internal\n        returns(uint256 prize_count, uint256 prize_value) {\n            return (_requested_amount, 0);\n    }\n\n    function payout(Prize storage _prize, address ) internal {\n        require(token.transfer(_prize.owner, _prize.tokens));\n    }\n}",
  "sourcePath": "/Users/studnev/dev4bc/contracts/contracts/game/FreeGame.sol",
  "compiler": {
    "name": "solc",
    "version": "0.4.18+commit.9cf6e910.Emscripten.clang"
  },
  "schemaVersion": "1.0.1",
  "updatedAt": "2017-12-28T16:27:57.935Z"
}