{
  "contractName": "GameController",
  "abi": [
    {
      "constant": true,
      "inputs": [
        {
          "name": "_game",
          "type": "address"
        }
      ],
      "name": "owners",
      "outputs": [
        {
          "name": "",
          "type": "address[]"
        }
      ],
      "payable": false,
      "stateMutability": "view",
      "type": "function"
    },
    {
      "constant": true,
      "inputs": [
        {
          "name": "_to",
          "type": "address"
        },
        {
          "name": "_amount",
          "type": "uint256"
        }
      ],
      "name": "amount_owner",
      "outputs": [
        {
          "name": "",
          "type": "address"
        }
      ],
      "payable": false,
      "stateMutability": "view",
      "type": "function"
    },
    {
      "constant": false,
      "inputs": [
        {
          "name": "_from",
          "type": "address"
        },
        {
          "name": "_to",
          "type": "address"
        },
        {
          "name": "_amount",
          "type": "uint256"
        }
      ],
      "name": "onTransfer",
      "outputs": [
        {
          "name": "",
          "type": "bool"
        }
      ],
      "payable": false,
      "stateMutability": "nonpayable",
      "type": "function"
    },
    {
      "constant": true,
      "inputs": [
        {
          "name": "_owner",
          "type": "address"
        },
        {
          "name": "_game",
          "type": "address"
        }
      ],
      "name": "reserved_amount",
      "outputs": [
        {
          "name": "",
          "type": "uint256"
        }
      ],
      "payable": false,
      "stateMutability": "view",
      "type": "function"
    },
    {
      "constant": true,
      "inputs": [
        {
          "name": "_owner",
          "type": "address"
        },
        {
          "name": "_game",
          "type": "address"
        }
      ],
      "name": "approved_amount",
      "outputs": [
        {
          "name": "",
          "type": "uint256"
        }
      ],
      "payable": false,
      "stateMutability": "view",
      "type": "function"
    },
    {
      "constant": true,
      "inputs": [
        {
          "name": "_owner",
          "type": "address"
        },
        {
          "name": "_game",
          "type": "address"
        }
      ],
      "name": "available_amount",
      "outputs": [
        {
          "name": "",
          "type": "uint256"
        }
      ],
      "payable": false,
      "stateMutability": "view",
      "type": "function"
    },
    {
      "constant": true,
      "inputs": [
        {
          "name": "_owner",
          "type": "address"
        },
        {
          "name": "_game",
          "type": "address"
        }
      ],
      "name": "owner_index",
      "outputs": [
        {
          "name": "",
          "type": "uint256"
        }
      ],
      "payable": false,
      "stateMutability": "view",
      "type": "function"
    },
    {
      "constant": false,
      "inputs": [
        {
          "name": "_owner",
          "type": "address"
        },
        {
          "name": "_spender",
          "type": "address"
        },
        {
          "name": "_amount",
          "type": "uint256"
        }
      ],
      "name": "onApprove",
      "outputs": [
        {
          "name": "",
          "type": "bool"
        }
      ],
      "payable": false,
      "stateMutability": "nonpayable",
      "type": "function"
    },
    {
      "constant": true,
      "inputs": [],
      "name": "master",
      "outputs": [
        {
          "name": "",
          "type": "address"
        }
      ],
      "payable": false,
      "stateMutability": "view",
      "type": "function"
    },
    {
      "constant": false,
      "inputs": [
        {
          "name": "",
          "type": "address"
        }
      ],
      "name": "proxyPayment",
      "outputs": [
        {
          "name": "",
          "type": "bool"
        }
      ],
      "payable": true,
      "stateMutability": "payable",
      "type": "function"
    },
    {
      "constant": true,
      "inputs": [],
      "name": "token",
      "outputs": [
        {
          "name": "",
          "type": "address"
        }
      ],
      "payable": false,
      "stateMutability": "view",
      "type": "function"
    },
    {
      "inputs": [
        {
          "name": "_token",
          "type": "address"
        },
        {
          "name": "_master",
          "type": "address"
        }
      ],
      "payable": false,
      "stateMutability": "nonpayable",
      "type": "constructor"
    }
  ],
  "bytecode": "0x6060604052341561000f57600080fd5b6040516040806109308339810160405280805191906020018051915050600160a060020a038116151561004157600080fd5b600160a060020a038216151561005657600080fd5b60008054600160a060020a03928316600160a060020a0319918216179091556001805493909216921691909117905561089c806100946000396000f3006060604052600436106100955763ffffffff60e060020a600035041663022914a7811461009a57806307fe1b611461010c5780634a3931491461014a5780636194126d146101865780636b9a38b1146101bd57806370ef4f70146101e25780637a8952ec14610207578063da682aeb1461022c578063ee97f7f314610254578063f48c305414610267578063fc0c546a1461027b575b600080fd5b34156100a557600080fd5b6100b9600160a060020a036004351661028e565b60405160208082528190810183818151815260200191508051906020019060200280838360005b838110156100f85780820151838201526020016100e0565b505050509050019250505060405180910390f35b341561011757600080fd5b61012e600160a060020a036004351660243561031e565b604051600160a060020a03909116815260200160405180910390f35b341561015557600080fd5b610172600160a060020a0360043581169060243516604435610457565b604051901515815260200160405180910390f35b341561019157600080fd5b6101ab600160a060020a03600435811690602435166105df565b60405190815260200160405180910390f35b34156101c857600080fd5b6101ab600160a060020a036004358116906024351661060f565b34156101ed57600080fd5b6101ab600160a060020a036004358116906024351661063e565b341561021257600080fd5b6101ab600160a060020a03600435811690602435166106f4565b341561023757600080fd5b610172600160a060020a0360043581169060243516604435610724565b341561025f57600080fd5b61012e6107f0565b610172600160a060020a03600435166107ff565b341561028657600080fd5b61012e610805565b610296610814565b6002600083600160a060020a0316600160a060020a0316815260200190815260200160002060000180548060200260200160405190810160405280929190818152602001828054801561031257602002820191906000526020600020905b8154600160a060020a031681526001909101906020018083116102f4575b50505050509050919050565b600160a060020a0382166000908152600260205260408120548180805b8383101561044857600160a060020a038716600090815260026020526040902080548490811061036757fe5b6000918252602082200154600154600160a060020a03918216945088929116906370a082319085906040516020015260405160e060020a63ffffffff8416028152600160a060020a039091166004820152602401602060405180830381600087803b15156103d457600080fd5b6102c65a03f115156103e557600080fd5b5050506040518051905010151561043d5750600160a060020a03808716600090815260026020818152604080842094861684526001948501909152909120908101549181015490918701901061043d5781945061044d565b60019092019161033b565b600094505b5050505092915050565b6000805481908190819033600160a060020a0390811691161461047957600080fd5b600160a060020a038087166000908152600260209081526040808320938b1683526001840190915281208054929550935090111561058457506002810180548501905581548290819060001981019081106104d057fe5b60009182526020909120015482548254600160a060020a03909216918391600019019081106104fb57fe5b6000918252602090912001805473ffffffffffffffffffffffffffffffffffffffff1916600160a060020a0392909216919091179055805487908290600019810190811061054557fe5b6000918252602090912001805473ffffffffffffffffffffffffffffffffffffffff1916600160a060020a0392909216919091179055600193506105d5565b600160a060020a038088166000908152600260209081526040808320938a168352600184019091528120805492955093509011156105d0576002820180548690039055600193506105d5565b600093505b5050509392505050565b600160a060020a039081166000908152600260208181526040808420959094168352600190940190935220015490565b600160a060020a0390811660009081526002602090815260408083209490931682526001938401905220015490565b600160a060020a03808216600090815260026020908152604080832086851684526001908101909252808320820154915492939192849216906370a082319087908490516020015260405160e060020a63ffffffff8416028152600160a060020a039091166004820152602401602060405180830381600087803b15156106c457600080fd5b6102c65a03f115156106d557600080fd5b5050506040518051915050818110156106ec578091505b509392505050565b600160a060020a038082166000908152600260209081526040808320938616835260019093019052205492915050565b6000805481908190819033600160a060020a0390811691161461074657600080fd5b600160a060020a038087166000908152600260209081526040808320938b1683526001840190915290208054919450925015156107dd57825461078c8460018301610826565b90508683600001828154811015156107a057fe5b6000918252602090912001805473ffffffffffffffffffffffffffffffffffffffff1916600160a060020a03929092169190911790556001810182555b5060019081019390935550909392505050565b600054600160a060020a031681565b50600090565b600154600160a060020a031681565b60206040519081016040526000815290565b81548183558181151161084a5760008381526020902061084a91810190830161084f565b505050565b61086d91905b808211156108695760008155600101610855565b5090565b905600a165627a7a7230582097bf1768bf7e3186ef235f06e341fcd7b410485adccdf17c1b08687f99737ea40029",
  "source": "pragma solidity ^0.4.11;\n\nimport \"../token/TokenController.sol\";\nimport \"../token/ERC20.sol\";\n\n/**\n * @title GameController\n * @dev GameController is a TokenController contract to calculate the amount of tokens,\n *  which can be used in the game.\n *\n * The contract ensures, that the game can use the amount of tokens, allowed by\n * token holders. Note, that token holder may allow more tokens, that it holds, to more than one game.\n *\n * After the tokens are used in prize, they are transfered to the game, and token holder apparently\n * may not use them before the prize is claimed or expired.\n *\n * Contract also ensures the rotation of token holders, so that the last used token holder is placed\n * to the end of the queue. It guarantees that all token holders have the same chance to participate in the\n * game.\n *\n * Game requests the amount of tokens from GameController using amount_owner() method.\n *\n * @author Aleksey Studnev <studnev@izx.io>\n */\ncontract GameController is TokenController {\n\n    struct Balance {\n        uint key_index;\n        uint approved_amount;\n        uint reserved_amount;\n    }\n\n    struct Allowance {\n       address[] owners;\n       mapping( address => Balance) balances;\n    }\n\n    address public master;\n    ERC20   public token;\n\n    mapping( address => Allowance) allowances;\n\n    function GameController(ERC20 _token, address _master) public {\n        require(_master != address(0));\n        require(address(_token) != address(0));\n        master = _master;\n        token = _token;\n    }\n\n    function onApprove(address _owner, address _spender, uint _amount) public returns(bool){\n        require(msg.sender==master);\n\n        Allowance storage allowance = allowances[_spender];\n        Balance storage balance = allowance.balances[_owner];\n\n        if(balance.key_index==0){\n            uint next = allowance.owners.length++;\n            allowance.owners[next] = _owner;\n            balance.key_index = next + 1;\n        }\n\n        balance.approved_amount = _amount;\n\n        return true;\n    }\n\n    function onTransfer(address _from, address _to, uint _amount) public returns(bool){\n        require(msg.sender==master);\n\n        Allowance storage allowance = allowances[_to];\n        Balance storage balance = allowance.balances[_from];\n\n        if(balance.key_index>0){\n            balance.reserved_amount += _amount;\n            address[] storage owners = allowance.owners;\n\n            owners[balance.key_index-1] = owners[owners.length-1];\n            owners[owners.length-1] = _from;\n\n            return true;\n        }else{\n            allowance = allowances[_from];\n            balance = allowance.balances[_to];\n\n            if(balance.key_index>0){\n                balance.reserved_amount -= _amount;\n                return true;\n            }else{\n                return false;\n            }\n\n        }\n    }\n\n    function proxyPayment(address) payable public returns(bool) {\n        return false;\n    }\n\n    function amount_owner(address _to, uint256 _amount) view public returns(address){\n        uint256 count = allowances[_to].owners.length;\n        for(uint i = 0; i < count; i++ ){\n            address owner = allowances[_to].owners[i];\n            if(token.balanceOf(owner)>=_amount){\n                Balance storage balance = allowances[_to].balances[owner];\n                if(balance.approved_amount >= _amount + balance.reserved_amount){\n                    return owner;\n                }\n            }\n        }\n        return address(0);\n    }\n\n    function approved_amount(address _owner, address _game) view public returns(uint256){\n        return allowances[_game].balances[_owner].approved_amount;\n    }\n\n    function reserved_amount(address _owner, address _game) view public returns(uint256){\n        return allowances[_game].balances[_owner].reserved_amount;\n    }\n\n    function owner_index(address _owner, address _game) view public returns(uint256){\n        return allowances[_game].balances[_owner].key_index;\n    }\n\n    function available_amount(address _owner, address _game) view public returns(uint256){\n        uint256 amt = allowances[_game].balances[_owner].approved_amount;\n        uint256 bal = token.balanceOf(_owner);\n        if( bal < amt){\n            amt = bal;\n        }\n        return amt;\n    }\n\n    function owners(address _game) view public returns(address[]){\n        return allowances[_game].owners;\n    }\n}",
  "sourcePath": "/Users/studnev/dev4bc/contracts/contracts/game/GameController.sol",
  "compiler": {
    "name": "solc",
    "version": "0.4.18+commit.9cf6e910.Emscripten.clang"
  },
  "schemaVersion": "1.0.1",
  "updatedAt": "2018-01-05T10:59:21.330Z"
}