{
  "contractName": "GameController",
  "abi": [
    {
      "constant": true,
      "inputs": [
        {
          "name": "_to",
          "type": "address"
        },
        {
          "name": "_amount",
          "type": "uint256"
        }
      ],
      "name": "amount_owner",
      "outputs": [
        {
          "name": "",
          "type": "address"
        }
      ],
      "payable": false,
      "stateMutability": "view",
      "type": "function"
    },
    {
      "constant": false,
      "inputs": [
        {
          "name": "_from",
          "type": "address"
        },
        {
          "name": "_to",
          "type": "address"
        },
        {
          "name": "_amount",
          "type": "uint256"
        }
      ],
      "name": "onTransfer",
      "outputs": [
        {
          "name": "",
          "type": "bool"
        }
      ],
      "payable": false,
      "stateMutability": "nonpayable",
      "type": "function"
    },
    {
      "constant": true,
      "inputs": [
        {
          "name": "_owner",
          "type": "address"
        },
        {
          "name": "_game",
          "type": "address"
        }
      ],
      "name": "reserved_amount",
      "outputs": [
        {
          "name": "",
          "type": "uint256"
        }
      ],
      "payable": false,
      "stateMutability": "view",
      "type": "function"
    },
    {
      "constant": true,
      "inputs": [
        {
          "name": "_owner",
          "type": "address"
        },
        {
          "name": "_game",
          "type": "address"
        }
      ],
      "name": "approved_amount",
      "outputs": [
        {
          "name": "",
          "type": "uint256"
        }
      ],
      "payable": false,
      "stateMutability": "view",
      "type": "function"
    },
    {
      "constant": true,
      "inputs": [
        {
          "name": "_owner",
          "type": "address"
        },
        {
          "name": "_game",
          "type": "address"
        }
      ],
      "name": "owner_index",
      "outputs": [
        {
          "name": "",
          "type": "uint256"
        }
      ],
      "payable": false,
      "stateMutability": "view",
      "type": "function"
    },
    {
      "constant": false,
      "inputs": [
        {
          "name": "_owner",
          "type": "address"
        },
        {
          "name": "_spender",
          "type": "address"
        },
        {
          "name": "_amount",
          "type": "uint256"
        }
      ],
      "name": "onApprove",
      "outputs": [
        {
          "name": "",
          "type": "bool"
        }
      ],
      "payable": false,
      "stateMutability": "nonpayable",
      "type": "function"
    },
    {
      "constant": true,
      "inputs": [],
      "name": "master",
      "outputs": [
        {
          "name": "",
          "type": "address"
        }
      ],
      "payable": false,
      "stateMutability": "view",
      "type": "function"
    },
    {
      "constant": false,
      "inputs": [
        {
          "name": "",
          "type": "address"
        }
      ],
      "name": "proxyPayment",
      "outputs": [
        {
          "name": "",
          "type": "bool"
        }
      ],
      "payable": true,
      "stateMutability": "payable",
      "type": "function"
    },
    {
      "constant": true,
      "inputs": [],
      "name": "token",
      "outputs": [
        {
          "name": "",
          "type": "address"
        }
      ],
      "payable": false,
      "stateMutability": "view",
      "type": "function"
    },
    {
      "inputs": [
        {
          "name": "_token",
          "type": "address"
        },
        {
          "name": "_master",
          "type": "address"
        }
      ],
      "payable": false,
      "stateMutability": "nonpayable",
      "type": "constructor"
    }
  ],
  "bytecode": "0x6060604052341561000f57600080fd5b6040516040806107978339810160405280805191906020018051915050600160a060020a038116151561004157600080fd5b600160a060020a038216151561005657600080fd5b60008054600160a060020a03928316600160a060020a03199182161790915560018054939092169216919091179055610703806100946000396000f3006060604052600436106100985763ffffffff7c010000000000000000000000000000000000000000000000000000000060003504166307fe1b61811461009d5780634a393149146100db5780636194126d146101175780636b9a38b11461014e5780637a8952ec14610173578063da682aeb14610198578063ee97f7f3146101c0578063f48c3054146101d3578063fc0c546a146101e7575b600080fd5b34156100a857600080fd5b6100bf600160a060020a03600435166024356101fa565b604051600160a060020a03909116815260200160405180910390f35b34156100e657600080fd5b610103600160a060020a036004358116906024351660443561034c565b604051901515815260200160405180910390f35b341561012257600080fd5b61013c600160a060020a03600435811690602435166104d4565b60405190815260200160405180910390f35b341561015957600080fd5b61013c600160a060020a03600435811690602435166104eb565b341561017e57600080fd5b61013c600160a060020a0360043581169060243516610502565b34156101a357600080fd5b610103600160a060020a0360043581169060243516604435610516565b34156101cb57600080fd5b6100bf6105e3565b610103600160a060020a03600435166105f2565b34156101f257600080fd5b6100bf6105f8565b600160a060020a0382166000908152600260205260408120548180805b8383101561033d57600160a060020a038716600090815260026020526040902080548490811061024357fe5b6000918252602082200154600154600160a060020a03918216945088929116906370a08231908590604051602001526040517c010000000000000000000000000000000000000000000000000000000063ffffffff8416028152600160a060020a039091166004820152602401602060405180830381600087803b15156102c957600080fd5b6102c65a03f115156102da57600080fd5b505050604051805190501015156103325750600160a060020a03808716600090815260026020818152604080842094861684526001948501909152909120908101549181015490918701901061033257819450610342565b600190920191610217565b600094505b5050505092915050565b6000805481908190819033600160a060020a0390811691161461036e57600080fd5b600160a060020a038087166000908152600260209081526040808320938b1683526001840190915281208054929550935090111561047957506002810180548501905581548290819060001981019081106103c557fe5b60009182526020909120015482548254600160a060020a03909216918391600019019081106103f057fe5b6000918252602090912001805473ffffffffffffffffffffffffffffffffffffffff1916600160a060020a0392909216919091179055805487908290600019810190811061043a57fe5b6000918252602090912001805473ffffffffffffffffffffffffffffffffffffffff1916600160a060020a0392909216919091179055600193506104ca565b600160a060020a038088166000908152600260209081526040808320938a168352600184019091528120805492955093509011156104c5576002820180548690039055600193506104ca565b600093505b5050509392505050565b60006104e08383610607565b604001519392505050565b60006104f78383610607565b602001519392505050565b600061050e8383610607565b519392505050565b6000805481908190819033600160a060020a0390811691161461053857600080fd5b600160a060020a038087166000908152600260209081526040808320938b168352600184019091528120805492955093509011156105d057825461057f846001830161066b565b905086836000018281548110151561059357fe5b6000918252602090912001805473ffffffffffffffffffffffffffffffffffffffff1916600160a060020a03929092169190911790556001810182555b5060019081019390935550909392505050565b600054600160a060020a031681565b50600090565b600154600160a060020a031681565b61060f610694565b600160a060020a0380831660009081526002602090815260408083209387168352600184019091529081902090606090519081016040908152825482526001830154602083015260029092015491810191909152949350505050565b81548183558181151161068f5760008381526020902061068f9181019083016106b6565b505050565b6060604051908101604052806000815260200160008152602001600081525090565b6106d491905b808211156106d057600081556001016106bc565b5090565b905600a165627a7a72305820bb63fc0e8e11c4250833bd05276982143163d75cdb0a46dec53d4ff37b2032750029",
  "source": "pragma solidity ^0.4.11;\n\nimport \"../token/TokenController.sol\";\nimport \"../token/ERC20.sol\";\n\n/**\n * @title GameController\n * @dev GameController is a TokenController contract to calculate the amount of tokens,\n *  which can be used in the game.\n *\n * The contract ensures, that the game can use the amount of tokens, allowed by\n * token holders. Note, that token holder may allow more tokens, that it holds, to more than one game.\n *\n * After the tokens are used in prize, they are transfered to the game, and token holder apparently\n * may not use them before the prize is claimed or expired.\n *\n * Contract also ensures the rotation of token holders, so that the last used token holder is placed\n * to the end of the queue. It guarantees that all token holders have the same chance to participate in the\n * game.\n *\n * Game requests the amount of tokens from GameController using amount_owner() method.\n *\n * @author Aleksey Studnev <studnev@izx.io>\n */\ncontract GameController is TokenController {\n\n    struct Balance {\n        uint key_index;\n        uint approved_amount;\n        uint reserved_amount;\n    }\n\n    struct Allowance {\n       address[] owners;\n       mapping( address => Balance) balances;\n    }\n\n    address public master;\n    ERC20   public token;\n\n    mapping( address => Allowance) allowances;\n\n    function GameController(ERC20 _token, address _master) public {\n        require(_master != address(0));\n        require(address(_token) != address(0));\n        master = _master;\n        token = _token;\n    }\n\n    function onApprove(address _owner, address _spender, uint _amount) public returns(bool){\n        require(msg.sender==master);\n\n        Allowance storage allowance = allowances[_spender];\n        Balance storage balance = allowance.balances[_owner];\n\n        if(balance.key_index>0){\n            uint next = allowance.owners.length++;\n            allowance.owners[next] = _owner;\n            balance.key_index = next + 1;\n        }\n\n        balance.approved_amount = _amount;\n\n        return true;\n    }\n\n    function onTransfer(address _from, address _to, uint _amount) public returns(bool){\n        require(msg.sender==master);\n\n        Allowance storage allowance = allowances[_to];\n        Balance storage balance = allowance.balances[_from];\n\n        if(balance.key_index>0){\n            balance.reserved_amount += _amount;\n            address[] storage owners = allowance.owners;\n\n            owners[balance.key_index-1] = owners[owners.length-1];\n            owners[owners.length-1] = _from;\n\n            return true;\n        }else{\n            allowance = allowances[_from];\n            balance = allowance.balances[_to];\n\n            if(balance.key_index>0){\n                balance.reserved_amount -= _amount;\n                return true;\n            }else{\n                return false;\n            }\n\n        }\n    }\n\n    function proxyPayment(address) payable public returns(bool) {\n        return false;\n    }\n\n    function amount_owner(address _to, uint256 _amount) view public returns(address){\n        uint256 count = allowances[_to].owners.length;\n        for(uint i = 0; i < count; i++ ){\n            address owner = allowances[_to].owners[i];\n            if(token.balanceOf(owner)>=_amount){\n                Balance storage balance = allowances[_to].balances[owner];\n                if(balance.approved_amount >= _amount + balance.reserved_amount){\n                    return owner;\n                }\n            }\n        }\n        return address(0);\n    }\n\n    function approved_amount(address _owner, address _game) view public returns(uint256){\n        return owner_balance(_owner, _game).approved_amount;\n    }\n\n    function reserved_amount(address _owner, address _game) view public returns(uint256){\n        return owner_balance(_owner, _game).reserved_amount;\n    }\n\n    function owner_index(address _owner, address _game) view public returns(uint256){\n        return owner_balance(_owner, _game).key_index;\n    }\n\n    function owner_balance(address _owner, address _game) view internal returns(Balance){\n        Allowance storage allowance = allowances[_game];\n        return allowance.balances[_owner];\n    }\n}",
  "sourcePath": "/Users/studnev/dev4bc/contracts/contracts/game/GameController.sol",
  "compiler": {
    "name": "solc",
    "version": "0.4.18+commit.9cf6e910.Emscripten.clang"
  },
  "schemaVersion": "1.0.1",
  "updatedAt": "2017-12-30T09:39:12.382Z"
}