{
  "contractName": "GameController",
  "abi": [
    {
      "constant": true,
      "inputs": [
        {
          "name": "_to",
          "type": "address"
        },
        {
          "name": "_amount",
          "type": "uint256"
        }
      ],
      "name": "amount_owner",
      "outputs": [
        {
          "name": "",
          "type": "address"
        }
      ],
      "payable": false,
      "stateMutability": "view",
      "type": "function"
    },
    {
      "constant": false,
      "inputs": [
        {
          "name": "_from",
          "type": "address"
        },
        {
          "name": "_to",
          "type": "address"
        },
        {
          "name": "_amount",
          "type": "uint256"
        }
      ],
      "name": "onTransfer",
      "outputs": [
        {
          "name": "",
          "type": "bool"
        }
      ],
      "payable": false,
      "stateMutability": "nonpayable",
      "type": "function"
    },
    {
      "constant": true,
      "inputs": [
        {
          "name": "_owner",
          "type": "address"
        },
        {
          "name": "_game",
          "type": "address"
        }
      ],
      "name": "reserved_amount",
      "outputs": [
        {
          "name": "",
          "type": "uint256"
        }
      ],
      "payable": false,
      "stateMutability": "view",
      "type": "function"
    },
    {
      "constant": true,
      "inputs": [
        {
          "name": "_owner",
          "type": "address"
        },
        {
          "name": "_game",
          "type": "address"
        }
      ],
      "name": "approved_amount",
      "outputs": [
        {
          "name": "",
          "type": "uint256"
        }
      ],
      "payable": false,
      "stateMutability": "view",
      "type": "function"
    },
    {
      "constant": true,
      "inputs": [
        {
          "name": "_owner",
          "type": "address"
        },
        {
          "name": "_game",
          "type": "address"
        }
      ],
      "name": "owner_index",
      "outputs": [
        {
          "name": "",
          "type": "uint256"
        }
      ],
      "payable": false,
      "stateMutability": "view",
      "type": "function"
    },
    {
      "constant": false,
      "inputs": [
        {
          "name": "_owner",
          "type": "address"
        },
        {
          "name": "_spender",
          "type": "address"
        },
        {
          "name": "_amount",
          "type": "uint256"
        }
      ],
      "name": "onApprove",
      "outputs": [
        {
          "name": "",
          "type": "bool"
        }
      ],
      "payable": false,
      "stateMutability": "nonpayable",
      "type": "function"
    },
    {
      "constant": true,
      "inputs": [],
      "name": "master",
      "outputs": [
        {
          "name": "",
          "type": "address"
        }
      ],
      "payable": false,
      "stateMutability": "view",
      "type": "function"
    },
    {
      "constant": false,
      "inputs": [
        {
          "name": "",
          "type": "address"
        }
      ],
      "name": "proxyPayment",
      "outputs": [
        {
          "name": "",
          "type": "bool"
        }
      ],
      "payable": true,
      "stateMutability": "payable",
      "type": "function"
    },
    {
      "inputs": [
        {
          "name": "_master",
          "type": "address"
        }
      ],
      "payable": false,
      "stateMutability": "nonpayable",
      "type": "constructor"
    }
  ],
  "bytecode": "0x6060604052341561000f57600080fd5b60405160208061069b83398101604052808051915050600160a060020a038116151561003a57600080fd5b60008054600160a060020a03909216600160a060020a03199092169190911790556106318061006a6000396000f30060606040526004361061008d5763ffffffff7c010000000000000000000000000000000000000000000000000000000060003504166307fe1b6181146100925780634a393149146100d05780636194126d1461010c5780636b9a38b1146101435780637a8952ec14610168578063da682aeb1461018d578063ee97f7f3146101b5578063f48c3054146101c8575b600080fd5b341561009d57600080fd5b6100b4600160a060020a03600435166024356101dc565b604051600160a060020a03909116815260200160405180910390f35b34156100db57600080fd5b6100f8600160a060020a0360043581169060243516604435610291565b604051901515815260200160405180910390f35b341561011757600080fd5b610131600160a060020a0360043581169060243516610415565b60405190815260200160405180910390f35b341561014e57600080fd5b610131600160a060020a036004358116906024351661042c565b341561017357600080fd5b610131600160a060020a0360043581169060243516610443565b341561019857600080fd5b6100f8600160a060020a0360043581169060243516604435610457565b34156101c057600080fd5b6100b4610522565b6100f8600160a060020a0360043516610531565b600160a060020a0382166000908152600160205260408120548180805b8383101561028257600160a060020a038716600090815260016020526040902080548490811061022557fe5b6000918252602080832090910154600160a060020a038a811684526001808452604080862092909316808652918101909352922060028101549181015492945092508701901061027757819450610287565b6001909201916101f9565b600094505b5050505092915050565b6000805481908190819033600160a060020a039081169116146102b357600080fd5b600160a060020a038087166000908152600160208181526040808420948c16845291840190528120805492955093509011156103bc575060028101805485019055815482908190600019810190811061030857fe5b60009182526020909120015482548254600160a060020a039092169183916000190190811061033357fe5b6000918252602090912001805473ffffffffffffffffffffffffffffffffffffffff1916600160a060020a0392909216919091179055805487908290600019810190811061037d57fe5b6000918252602090912001805473ffffffffffffffffffffffffffffffffffffffff1916600160a060020a03929092169190911790556001935061040b565b600160a060020a038088166000908152600160208181526040808420948b16845291840190528120805492955093509011156104065760028201805486900390556001935061040b565b600093505b5050509392505050565b60006104218383610537565b604001519392505050565b60006104388383610537565b602001519392505050565b600061044f8383610537565b519392505050565b6000805481908190819033600160a060020a0390811691161461047957600080fd5b600160a060020a038087166000908152600160208181526040808420948c168452918401905281208054929550935090111561050f5782546104be8460018301610599565b90508683600001828154811015156104d257fe5b6000918252602090912001805473ffffffffffffffffffffffffffffffffffffffff1916600160a060020a03929092169190911790556001810182555b5060019081019390935550909392505050565b600054600160a060020a031681565b50600090565b61053f6105c2565b600160a060020a038083166000908152600160208181526040808420948816845291840190529081902090606090519081016040908152825482526001830154602083015260029092015491810191909152949350505050565b8154818355818115116105bd576000838152602090206105bd9181019083016105e4565b505050565b6060604051908101604052806000815260200160008152602001600081525090565b61060291905b808211156105fe57600081556001016105ea565b5090565b905600a165627a7a72305820021b11d9e90cf526b59e8f028f14975c1293b36ca7b96d98d600bff8af35285f0029",
  "source": "pragma solidity ^0.4.11;\n\nimport \"../token/TokenController.sol\";\n\n/**\n * @title GameController\n * @dev GameController is a TokenController contract to calculate the amount of tokens,\n *  which can be used in the game.\n *\n * The contract ensures, that the game can use the amount of tokens, allowed by\n * token holders. Note, that token holder may allow more tokens, that it holds, to more than one game.\n *\n * After the tokens are used in prize, they are transfered to the game, and token holder apparently\n * may not use them before the prize is claimed or expired.\n *\n * Contract also ensures the rotation of token holders, so that the last used token holder is placed\n * to the end of the queue. It guarantees that all token holders have the same chance to participate in the\n * game.\n *\n * Game requests the amount of tokens from GameController using amount_owner() method.\n *\n * @author Aleksey Studnev <studnev@izx.io>\n */\ncontract GameController is TokenController {\n\n    struct Balance {\n        uint key_index;\n        uint approved_amount;\n        uint reserved_amount;\n    }\n\n    struct Allowance {\n       address[] owners;\n       mapping( address => Balance) balances;\n    }\n\n    address public master;\n    mapping( address => Allowance) allowances;\n\n\n    function GameController(address _master) public {\n        require(_master != address(0));\n        master = _master;\n    }\n\n    function onApprove(address _owner, address _spender, uint _amount) public returns(bool){\n        require(msg.sender==master);\n\n        Allowance storage allowance = allowances[_spender];\n        Balance storage balance = allowance.balances[_owner];\n\n        if(balance.key_index>0){\n            uint next = allowance.owners.length++;\n            allowance.owners[next] = _owner;\n            balance.key_index = next + 1;\n        }\n\n        balance.approved_amount = _amount;\n\n        return true;\n    }\n\n    function onTransfer(address _from, address _to, uint _amount) public returns(bool){\n        require(msg.sender==master);\n\n        Allowance storage allowance = allowances[_to];\n        Balance storage balance = allowance.balances[_from];\n\n        if(balance.key_index>0){\n            balance.reserved_amount += _amount;\n            address[] storage owners = allowance.owners;\n\n            owners[balance.key_index-1] = owners[owners.length-1];\n            owners[owners.length-1] = _from;\n\n            return true;\n        }else{\n            allowance = allowances[_from];\n            balance = allowance.balances[_to];\n\n            if(balance.key_index>0){\n                balance.reserved_amount -= _amount;\n                return true;\n            }else{\n                return false;\n            }\n\n        }\n    }\n\n    function proxyPayment(address) payable public returns(bool) {\n        return false;\n    }\n\n    function amount_owner(address _to, uint256 _amount) view public returns(address){\n        uint256 count = allowances[_to].owners.length;\n        for(uint i = 0; i < count; i++ ){\n            address owner = allowances[_to].owners[i];\n            Balance storage balance = allowances[_to].balances[owner];\n            if(balance.approved_amount >= _amount + balance.reserved_amount){\n                return owner;\n            }\n        }\n        return address(0);\n    }\n\n    function approved_amount(address _owner, address _game) view public returns(uint256){\n        return owner_balance(_owner, _game).approved_amount;\n    }\n\n    function reserved_amount(address _owner, address _game) view public returns(uint256){\n        return owner_balance(_owner, _game).reserved_amount;\n    }\n\n    function owner_index(address _owner, address _game) view public returns(uint256){\n        return owner_balance(_owner, _game).key_index;\n    }\n\n    function owner_balance(address _owner, address _game) view internal returns(Balance){\n        Allowance storage allowance = allowances[_game];\n        return allowance.balances[_owner];\n    }\n}",
  "sourcePath": "/Users/studnev/dev4bc/contracts/contracts/game/GameController.sol",
  "compiler": {
    "name": "solc",
    "version": "0.4.18+commit.9cf6e910.Emscripten.clang"
  },
  "schemaVersion": "1.0.1",
  "updatedAt": "2017-12-29T15:31:25.769Z"
}