{
  "contractName": "IZXTokenController",
  "abi": [
    {
      "constant": false,
      "inputs": [
        {
          "name": "",
          "type": "address"
        },
        {
          "name": "_to",
          "type": "address"
        },
        {
          "name": "",
          "type": "uint256"
        }
      ],
      "name": "onTransfer",
      "outputs": [
        {
          "name": "",
          "type": "bool"
        }
      ],
      "payable": false,
      "stateMutability": "nonpayable",
      "type": "function"
    },
    {
      "constant": true,
      "inputs": [],
      "name": "driver",
      "outputs": [
        {
          "name": "",
          "type": "address"
        }
      ],
      "payable": false,
      "stateMutability": "view",
      "type": "function"
    },
    {
      "constant": true,
      "inputs": [],
      "name": "owner",
      "outputs": [
        {
          "name": "",
          "type": "address"
        }
      ],
      "payable": false,
      "stateMutability": "view",
      "type": "function"
    },
    {
      "constant": false,
      "inputs": [
        {
          "name": "_newController",
          "type": "address"
        }
      ],
      "name": "changeTokenController",
      "outputs": [],
      "payable": false,
      "stateMutability": "nonpayable",
      "type": "function"
    },
    {
      "constant": false,
      "inputs": [
        {
          "name": "",
          "type": "address"
        },
        {
          "name": "_spender",
          "type": "address"
        },
        {
          "name": "",
          "type": "uint256"
        }
      ],
      "name": "onApprove",
      "outputs": [
        {
          "name": "",
          "type": "bool"
        }
      ],
      "payable": false,
      "stateMutability": "nonpayable",
      "type": "function"
    },
    {
      "constant": false,
      "inputs": [
        {
          "name": "newOwner",
          "type": "address"
        }
      ],
      "name": "transferOwnership",
      "outputs": [],
      "payable": false,
      "stateMutability": "nonpayable",
      "type": "function"
    },
    {
      "constant": false,
      "inputs": [
        {
          "name": "",
          "type": "address"
        }
      ],
      "name": "proxyPayment",
      "outputs": [
        {
          "name": "",
          "type": "bool"
        }
      ],
      "payable": true,
      "stateMutability": "payable",
      "type": "function"
    },
    {
      "constant": true,
      "inputs": [],
      "name": "token",
      "outputs": [
        {
          "name": "",
          "type": "address"
        }
      ],
      "payable": false,
      "stateMutability": "view",
      "type": "function"
    },
    {
      "inputs": [
        {
          "name": "_driver",
          "type": "address"
        }
      ],
      "payable": false,
      "stateMutability": "nonpayable",
      "type": "constructor"
    },
    {
      "anonymous": false,
      "inputs": [
        {
          "indexed": true,
          "name": "previousOwner",
          "type": "address"
        },
        {
          "indexed": true,
          "name": "newOwner",
          "type": "address"
        }
      ],
      "name": "OwnershipTransferred",
      "type": "event"
    }
  ],
  "bytecode": "0x6060604052341561000f57600080fd5b6040516020806104878339810160405280805160008054600160a060020a03191633600160a060020a039081169190911790915590925082161515905061005557600080fd5b60018054600160a060020a031916600160a060020a0383811691909117918290551663fc0c546a6000604051602001526040518163ffffffff167c0100000000000000000000000000000000000000000000000000000000028152600401602060405180830381600087803b15156100cc57600080fd5b6102c65a03f115156100dd57600080fd5b505050604051805160028054600160a060020a031916600160a060020a039283161790819055161515905061011157600080fd5b50610366806101216000396000f30060606040526004361061008d5763ffffffff7c01000000000000000000000000000000000000000000000000000000006000350416634a39314981146100925780636ecc5d62146100ce5780638da5cb5b146100fd578063d6c8976b14610110578063da682aeb14610092578063f2fde38b14610131578063f48c305414610150578063fc0c546a14610164575b600080fd5b341561009d57600080fd5b6100ba600160a060020a0360043581169060243516604435610177565b604051901515815260200160405180910390f35b34156100d957600080fd5b6100e16101a4565b604051600160a060020a03909116815260200160405180910390f35b341561010857600080fd5b6100e16101b3565b341561011b57600080fd5b61012f600160a060020a03600435166101c2565b005b341561013c57600080fd5b61012f600160a060020a036004351661025d565b6100ba600160a060020a03600435166102f8565b341561016f57600080fd5b6100e16102fe565b600154600090600160a060020a038481169116148061019c575061019a8361030d565b155b949350505050565b600154600160a060020a031681565b600054600160a060020a031681565b60005433600160a060020a039081169116146101dd57600080fd5b600254600160a060020a0316633cebb823826040517c010000000000000000000000000000000000000000000000000000000063ffffffff8416028152600160a060020a039091166004820152602401600060405180830381600087803b151561024657600080fd5b6102c65a03f1151561025757600080fd5b50505050565b60005433600160a060020a0390811691161461027857600080fd5b600160a060020a038116151561028d57600080fd5b600054600160a060020a0380831691167f8be0079c531659141344cd1fd0a4f28419497f9722a3daafe3b4186f6b6457e060405160405180910390a36000805473ffffffffffffffffffffffffffffffffffffffff1916600160a060020a0392909216919091179055565b50600090565b600254600160a060020a031681565b600080600160a060020a03831615156103295760009150610334565b823b90506000811191505b509190505600a165627a7a72305820a9b6b5cfbaa3a43f1a688f49785b804a7d47c35fc3bb3106ec62d744a2540b9e0029",
  "source": "pragma solidity ^0.4.18;\n\nimport 'zeppelin-solidity/contracts/ownership/Ownable.sol';\nimport \"../token/TokenController.sol\";\nimport \"../token/IZXToken.sol\";\nimport \"./TokenDriver.sol\";\n\n/**\n * @title IZXTokenController\n * @dev TODO\n *\n * @author Aleksey Studnev <studnev@izx.io>\n */\ncontract IZXTokenController is Ownable, TokenController {\n\n    TokenDriver public driver;       // drive for token\n    IZXToken    public token;        // token controlled\n\n    function IZXTokenController( TokenDriver _driver ) public {\n        require(_driver != address(0));\n        driver = _driver;\n        token = driver.token();\n        require(token != address(0));\n    }\n\n    /// @notice `onlyOwner` changes the controller of the tokenContract\n    /// @param _newController - controller to be used with token\n    function changeTokenController(address _newController) onlyOwner public {\n        token.changeController(_newController);\n    }\n\n\n    /// @dev Internal function to determine if an address is a contract\n    /// @param _addr The address being queried\n    /// @return True if `_addr` is a contract\n    function isContract(address _addr) constant internal returns(bool) {\n        uint size;\n        if (_addr == 0) return false;\n        assembly {\n            size := extcodesize(_addr)\n        }\n        return size>0;\n    }\n\n    /// @notice Do not allow to pay on contract\n    function proxyPayment(address) payable public returns(bool) {\n        return false;\n    }\n\n    /// @notice Allow to transfer to any account or driver smart contract\n    function onTransfer(address, address _to, uint) public returns(bool) {\n        return (_to==address(driver)) || !isContract(_to);\n    }\n\n    /// @notice Allow to approve to any account or driver smart contract\n    function onApprove(address, address _spender, uint) public returns(bool)\n    {\n        return (_spender==address(driver)) || !isContract(_spender);\n    }\n\n\n}",
  "sourcePath": "/Users/studnev/dev4bc/contracts/contracts/drive/IZXTokenController.sol",
  "compiler": {
    "name": "solc",
    "version": "0.4.18+commit.9cf6e910.Emscripten.clang"
  },
  "schemaVersion": "1.0.1",
  "updatedAt": "2018-02-12T13:13:45.559Z"
}