{
  "contractName": "PreSale",
  "abi": [
    {
      "constant": true,
      "inputs": [],
      "name": "exchangeRate",
      "outputs": [
        {
          "name": "",
          "type": "uint256"
        }
      ],
      "payable": false,
      "stateMutability": "view",
      "type": "function"
    },
    {
      "constant": false,
      "inputs": [
        {
          "name": "_newController",
          "type": "address"
        }
      ],
      "name": "changeController",
      "outputs": [],
      "payable": false,
      "stateMutability": "nonpayable",
      "type": "function"
    },
    {
      "constant": true,
      "inputs": [],
      "name": "vaultAddress",
      "outputs": [
        {
          "name": "",
          "type": "address"
        }
      ],
      "payable": false,
      "stateMutability": "view",
      "type": "function"
    },
    {
      "constant": false,
      "inputs": [
        {
          "name": "_from",
          "type": "address"
        },
        {
          "name": "_to",
          "type": "address"
        },
        {
          "name": "_amount",
          "type": "uint256"
        }
      ],
      "name": "onTransfer",
      "outputs": [
        {
          "name": "",
          "type": "bool"
        }
      ],
      "payable": false,
      "stateMutability": "nonpayable",
      "type": "function"
    },
    {
      "constant": false,
      "inputs": [
        {
          "name": "_owners",
          "type": "address[]"
        },
        {
          "name": "_tokens",
          "type": "uint256[]"
        }
      ],
      "name": "distributeTokens",
      "outputs": [],
      "payable": false,
      "stateMutability": "nonpayable",
      "type": "function"
    },
    {
      "constant": true,
      "inputs": [],
      "name": "tokenContract",
      "outputs": [
        {
          "name": "",
          "type": "address"
        }
      ],
      "payable": false,
      "stateMutability": "view",
      "type": "function"
    },
    {
      "constant": false,
      "inputs": [
        {
          "name": "_newVaultAddress",
          "type": "address"
        }
      ],
      "name": "setVault",
      "outputs": [],
      "payable": false,
      "stateMutability": "nonpayable",
      "type": "function"
    },
    {
      "constant": true,
      "inputs": [],
      "name": "totalTokenCount",
      "outputs": [
        {
          "name": "",
          "type": "uint256"
        }
      ],
      "payable": false,
      "stateMutability": "view",
      "type": "function"
    },
    {
      "constant": true,
      "inputs": [],
      "name": "owner",
      "outputs": [
        {
          "name": "",
          "type": "address"
        }
      ],
      "payable": false,
      "stateMutability": "view",
      "type": "function"
    },
    {
      "constant": true,
      "inputs": [],
      "name": "exchangeRateAt",
      "outputs": [
        {
          "name": "",
          "type": "uint256"
        }
      ],
      "payable": false,
      "stateMutability": "view",
      "type": "function"
    },
    {
      "constant": false,
      "inputs": [
        {
          "name": "_newOwner",
          "type": "address"
        }
      ],
      "name": "changeOwner",
      "outputs": [],
      "payable": false,
      "stateMutability": "nonpayable",
      "type": "function"
    },
    {
      "constant": true,
      "inputs": [],
      "name": "transfersAllowed",
      "outputs": [
        {
          "name": "",
          "type": "bool"
        }
      ],
      "payable": false,
      "stateMutability": "view",
      "type": "function"
    },
    {
      "constant": true,
      "inputs": [],
      "name": "startFundingTime",
      "outputs": [
        {
          "name": "",
          "type": "uint256"
        }
      ],
      "payable": false,
      "stateMutability": "view",
      "type": "function"
    },
    {
      "constant": false,
      "inputs": [
        {
          "name": "_owner",
          "type": "address"
        },
        {
          "name": "_spender",
          "type": "address"
        },
        {
          "name": "_amount",
          "type": "uint256"
        }
      ],
      "name": "onApprove",
      "outputs": [
        {
          "name": "",
          "type": "bool"
        }
      ],
      "payable": false,
      "stateMutability": "nonpayable",
      "type": "function"
    },
    {
      "constant": false,
      "inputs": [
        {
          "name": "_exchangeRate",
          "type": "uint256"
        }
      ],
      "name": "setExchangeRate",
      "outputs": [],
      "payable": false,
      "stateMutability": "nonpayable",
      "type": "function"
    },
    {
      "constant": true,
      "inputs": [],
      "name": "tokenCap",
      "outputs": [
        {
          "name": "",
          "type": "uint256"
        }
      ],
      "payable": false,
      "stateMutability": "view",
      "type": "function"
    },
    {
      "constant": true,
      "inputs": [],
      "name": "totalCollected",
      "outputs": [
        {
          "name": "",
          "type": "uint256"
        }
      ],
      "payable": false,
      "stateMutability": "view",
      "type": "function"
    },
    {
      "constant": true,
      "inputs": [],
      "name": "endFundingTime",
      "outputs": [
        {
          "name": "",
          "type": "uint256"
        }
      ],
      "payable": false,
      "stateMutability": "view",
      "type": "function"
    },
    {
      "constant": false,
      "inputs": [
        {
          "name": "_allow",
          "type": "bool"
        }
      ],
      "name": "setTransfersAllowed",
      "outputs": [],
      "payable": false,
      "stateMutability": "nonpayable",
      "type": "function"
    },
    {
      "constant": false,
      "inputs": [
        {
          "name": "_owner",
          "type": "address"
        }
      ],
      "name": "proxyPayment",
      "outputs": [
        {
          "name": "",
          "type": "bool"
        }
      ],
      "payable": true,
      "stateMutability": "payable",
      "type": "function"
    },
    {
      "inputs": [],
      "payable": false,
      "stateMutability": "nonpayable",
      "type": "constructor"
    },
    {
      "payable": true,
      "stateMutability": "payable",
      "type": "fallback"
    }
  ],
  "bytecode": "0x6060604052341561000f57600080fd5b6000635a497a0061271060008060006064336000806101000a81548173ffffffffffffffffffffffffffffffffffffffff021916908373ffffffffffffffffffffffffffffffffffffffff16021790555042861015801561006f57508686115b8015610092575060008473ffffffffffffffffffffffffffffffffffffffff1614155b151561009d57600080fd5b86600181905550856002819055508460038190555082600660006101000a81548173ffffffffffffffffffffffffffffffffffffffff021916908373ffffffffffffffffffffffffffffffffffffffff16021790555083600760006101000a81548173ffffffffffffffffffffffffffffffffffffffff021916908373ffffffffffffffffffffffffffffffffffffffff16021790555081600760146101000a81548160ff021916908315150217905550806008819055504360098190555050505050505050610f2a806101726000396000f300606060405260043610610112576000357c0100000000000000000000000000000000000000000000000000000000900463ffffffff1680633ba0b9a91461011d5780633cebb82314610146578063430bf08a1461017f5780634a393149146101d45780634bd09c2a1461024d57806355a373d6146102e75780636817031b1461033c578063764912ef146103755780638da5cb5b1461039e5780639cbf1b85146103f3578063a6f9dae11461041c578063b0660c3d14610455578063b75ece9c14610482578063da682aeb146104ab578063db068e0e14610524578063dd54291b14610547578063e29eb83614610570578063e4693e9814610599578063f3cd1c28146105c2578063f48c3054146105e7575b61011b3361062d565b005b341561012857600080fd5b6101306108ce565b6040518082815260200191505060405180910390f35b341561015157600080fd5b61017d600480803573ffffffffffffffffffffffffffffffffffffffff169060200190919050506108d4565b005b341561018a57600080fd5b610192610a02565b604051808273ffffffffffffffffffffffffffffffffffffffff1673ffffffffffffffffffffffffffffffffffffffff16815260200191505060405180910390f35b34156101df57600080fd5b610233600480803573ffffffffffffffffffffffffffffffffffffffff1690602001909190803573ffffffffffffffffffffffffffffffffffffffff16906020019091908035906020019091905050610a28565b604051808215151515815260200191505060405180910390f35b341561025857600080fd5b6102e560048080359060200190820180359060200190808060200260200160405190810160405280939291908181526020018383602002808284378201915050505050509190803590602001908201803590602001908080602002602001604051908101604052809392919081815260200183836020028082843782019150505050505091905050610a43565b005b34156102f257600080fd5b6102fa610bf1565b604051808273ffffffffffffffffffffffffffffffffffffffff1673ffffffffffffffffffffffffffffffffffffffff16815260200191505060405180910390f35b341561034757600080fd5b610373600480803573ffffffffffffffffffffffffffffffffffffffff16906020019091905050610c17565b005b341561038057600080fd5b610388610cb6565b6040518082815260200191505060405180910390f35b34156103a957600080fd5b6103b1610cbc565b604051808273ffffffffffffffffffffffffffffffffffffffff1673ffffffffffffffffffffffffffffffffffffffff16815260200191505060405180910390f35b34156103fe57600080fd5b610406610ce1565b6040518082815260200191505060405180910390f35b341561042757600080fd5b610453600480803573ffffffffffffffffffffffffffffffffffffffff16906020019091905050610ce7565b005b341561046057600080fd5b610468610d85565b604051808215151515815260200191505060405180910390f35b341561048d57600080fd5b610495610d98565b6040518082815260200191505060405180910390f35b34156104b657600080fd5b61050a600480803573ffffffffffffffffffffffffffffffffffffffff1690602001909190803573ffffffffffffffffffffffffffffffffffffffff16906020019091908035906020019091905050610d9e565b604051808215151515815260200191505060405180910390f35b341561052f57600080fd5b6105456004808035906020019091905050610db9565b005b341561055257600080fd5b61055a610e25565b6040518082815260200191505060405180910390f35b341561057b57600080fd5b610583610e2b565b6040518082815260200191505060405180910390f35b34156105a457600080fd5b6105ac610e31565b6040518082815260200191505060405180910390f35b34156105cd57600080fd5b6105e560048080351515906020019091905050610e37565b005b610613600480803573ffffffffffffffffffffffffffffffffffffffff16906020019091905050610eaf565b604051808215151515815260200191505060405180910390f35b6000600154421015801561064357506002544211155b801561070e57506000600660009054906101000a900473ffffffffffffffffffffffffffffffffffffffff1673ffffffffffffffffffffffffffffffffffffffff1663f77c47916000604051602001526040518163ffffffff167c0100000000000000000000000000000000000000000000000000000000028152600401602060405180830381600087803b15156106da57600080fd5b6102c65a03f115156106eb57600080fd5b5050506040518051905073ffffffffffffffffffffffffffffffffffffffff1614155b801561071b575060003414155b151561072657600080fd5b606461073434600854610ec3565b81151561073d57fe5b04905060035481600454011115151561075557600080fd5b34600560008282540192505081905550600760009054906101000a900473ffffffffffffffffffffffffffffffffffffffff1673ffffffffffffffffffffffffffffffffffffffff166108fc349081150290604051600060405180830381858888f1935050505015156107c757600080fd5b600660009054906101000a900473ffffffffffffffffffffffffffffffffffffffff1673ffffffffffffffffffffffffffffffffffffffff1663827f32c083836000604051602001526040518363ffffffff167c0100000000000000000000000000000000000000000000000000000000028152600401808373ffffffffffffffffffffffffffffffffffffffff1673ffffffffffffffffffffffffffffffffffffffff16815260200182815260200192505050602060405180830381600087803b151561089457600080fd5b6102c65a03f115156108a557600080fd5b5050506040518051905015156108ba57600080fd5b806004600082825401925050819055505050565b60085481565b6000809054906101000a900473ffffffffffffffffffffffffffffffffffffffff1673ffffffffffffffffffffffffffffffffffffffff163373ffffffffffffffffffffffffffffffffffffffff1614151561092f57600080fd5b600660009054906101000a900473ffffffffffffffffffffffffffffffffffffffff1673ffffffffffffffffffffffffffffffffffffffff16633cebb823826040518263ffffffff167c0100000000000000000000000000000000000000000000000000000000028152600401808273ffffffffffffffffffffffffffffffffffffffff1673ffffffffffffffffffffffffffffffffffffffff168152602001915050600060405180830381600087803b15156109eb57600080fd5b6102c65a03f115156109fc57600080fd5b50505050565b600760009054906101000a900473ffffffffffffffffffffffffffffffffffffffff1681565b6000600760149054906101000a900460ff1690509392505050565b60008060009054906101000a900473ffffffffffffffffffffffffffffffffffffffff1673ffffffffffffffffffffffffffffffffffffffff163373ffffffffffffffffffffffffffffffffffffffff16141515610aa057600080fd5b81518351141515610ab057600080fd5b600090505b8251811015610bec57600660009054906101000a900473ffffffffffffffffffffffffffffffffffffffff1673ffffffffffffffffffffffffffffffffffffffff1663827f32c08483815181101515610b0a57fe5b906020019060200201518484815181101515610b2257fe5b906020019060200201516000604051602001526040518363ffffffff167c0100000000000000000000000000000000000000000000000000000000028152600401808373ffffffffffffffffffffffffffffffffffffffff1673ffffffffffffffffffffffffffffffffffffffff16815260200182815260200192505050602060405180830381600087803b1515610bb957600080fd5b6102c65a03f11515610bca57600080fd5b505050604051805190501515610bdf57600080fd5b8080600101915050610ab5565b505050565b600660009054906101000a900473ffffffffffffffffffffffffffffffffffffffff1681565b6000809054906101000a900473ffffffffffffffffffffffffffffffffffffffff1673ffffffffffffffffffffffffffffffffffffffff163373ffffffffffffffffffffffffffffffffffffffff16141515610c7257600080fd5b80600760006101000a81548173ffffffffffffffffffffffffffffffffffffffff021916908373ffffffffffffffffffffffffffffffffffffffff16021790555050565b60045481565b6000809054906101000a900473ffffffffffffffffffffffffffffffffffffffff1681565b60095481565b6000809054906101000a900473ffffffffffffffffffffffffffffffffffffffff1673ffffffffffffffffffffffffffffffffffffffff163373ffffffffffffffffffffffffffffffffffffffff16141515610d4257600080fd5b806000806101000a81548173ffffffffffffffffffffffffffffffffffffffff021916908373ffffffffffffffffffffffffffffffffffffffff16021790555050565b600760149054906101000a900460ff1681565b60015481565b6000600760149054906101000a900460ff1690509392505050565b6000809054906101000a900473ffffffffffffffffffffffffffffffffffffffff1673ffffffffffffffffffffffffffffffffffffffff163373ffffffffffffffffffffffffffffffffffffffff16141515610e1457600080fd5b806008819055504360098190555050565b60035481565b60055481565b60025481565b6000809054906101000a900473ffffffffffffffffffffffffffffffffffffffff1673ffffffffffffffffffffffffffffffffffffffff163373ffffffffffffffffffffffffffffffffffffffff16141515610e9257600080fd5b80600760146101000a81548160ff02191690831515021790555050565b6000610eba8261062d565b60019050919050565b6000806000841415610ed85760009150610ef7565b8284029050828482811515610ee957fe5b04141515610ef357fe5b8091505b50929150505600a165627a7a72305820cd601c8f953cd3cc94e142b0ff2af32ee294f128ed0da6ee526dd59e92c698bf0029",
  "source": "pragma solidity ^0.4.11;\n\nimport \"./TokenSale.sol\";\n\ncontract PreSale is TokenSale {\n    function PreSale() TokenSale(\n        0,    //    uint _startFundingTime,\n        1514764800,    //    uint _endFundingTime,\n        10000,    //    uint _maximumFunding,\n        0,    //    address _vaultAddress,\n        0,    //    address _tokenAddress,\n        false,    //    bool _transfersAllowed,\n        100    //    uint256 _exchangeRate\n    ) public {}\n}",
  "sourcePath": "/Users/studnev/dev4bc/contracts/contracts/crowdsale/PreSale.sol",
  "compiler": {
    "name": "solc",
    "version": "0.4.18+commit.9cf6e910.Emscripten.clang"
  },
  "schemaVersion": "1.0.1",
  "updatedAt": "2017-11-27T11:07:02.399Z"
}