{
  "contractName": "ProxyController",
  "abi": [
    {
      "constant": false,
      "inputs": [
        {
          "name": "_newController",
          "type": "address"
        }
      ],
      "name": "changeProxiedController",
      "outputs": [],
      "payable": false,
      "stateMutability": "nonpayable",
      "type": "function"
    },
    {
      "constant": false,
      "inputs": [
        {
          "name": "_from",
          "type": "address"
        },
        {
          "name": "_to",
          "type": "address"
        },
        {
          "name": "_amount",
          "type": "uint256"
        }
      ],
      "name": "onTransfer",
      "outputs": [
        {
          "name": "",
          "type": "bool"
        }
      ],
      "payable": false,
      "stateMutability": "nonpayable",
      "type": "function"
    },
    {
      "constant": true,
      "inputs": [],
      "name": "tokenContract",
      "outputs": [
        {
          "name": "",
          "type": "address"
        }
      ],
      "payable": false,
      "stateMutability": "view",
      "type": "function"
    },
    {
      "constant": false,
      "inputs": [
        {
          "name": "_allow",
          "type": "bool"
        }
      ],
      "name": "setTransfersToContractsAllowed",
      "outputs": [],
      "payable": false,
      "stateMutability": "nonpayable",
      "type": "function"
    },
    {
      "constant": true,
      "inputs": [],
      "name": "proxiedController",
      "outputs": [
        {
          "name": "",
          "type": "address"
        }
      ],
      "payable": false,
      "stateMutability": "view",
      "type": "function"
    },
    {
      "constant": true,
      "inputs": [],
      "name": "owner",
      "outputs": [
        {
          "name": "",
          "type": "address"
        }
      ],
      "payable": false,
      "stateMutability": "view",
      "type": "function"
    },
    {
      "constant": false,
      "inputs": [
        {
          "name": "_newOwner",
          "type": "address"
        }
      ],
      "name": "changeOwner",
      "outputs": [],
      "payable": false,
      "stateMutability": "nonpayable",
      "type": "function"
    },
    {
      "constant": true,
      "inputs": [],
      "name": "allowTransfersToContracts",
      "outputs": [
        {
          "name": "",
          "type": "bool"
        }
      ],
      "payable": false,
      "stateMutability": "view",
      "type": "function"
    },
    {
      "constant": false,
      "inputs": [
        {
          "name": "_newController",
          "type": "address"
        }
      ],
      "name": "changeTokenController",
      "outputs": [],
      "payable": false,
      "stateMutability": "nonpayable",
      "type": "function"
    },
    {
      "constant": false,
      "inputs": [
        {
          "name": "_owner",
          "type": "address"
        },
        {
          "name": "_spender",
          "type": "address"
        },
        {
          "name": "_amount",
          "type": "uint256"
        }
      ],
      "name": "onApprove",
      "outputs": [
        {
          "name": "",
          "type": "bool"
        }
      ],
      "payable": false,
      "stateMutability": "nonpayable",
      "type": "function"
    },
    {
      "constant": false,
      "inputs": [
        {
          "name": "_owner",
          "type": "address"
        }
      ],
      "name": "proxyPayment",
      "outputs": [
        {
          "name": "",
          "type": "bool"
        }
      ],
      "payable": true,
      "stateMutability": "payable",
      "type": "function"
    },
    {
      "inputs": [
        {
          "name": "_token",
          "type": "address"
        },
        {
          "name": "_controller",
          "type": "address"
        }
      ],
      "payable": false,
      "stateMutability": "nonpayable",
      "type": "constructor"
    }
  ],
  "bytecode": "0x6060604052341561000f57600080fd5b6040516040806106c7833981016040528080519190602001805160008054600160a060020a03191633600160a060020a039081169190911790915590925083161515905061005c57600080fd5b600160a060020a038116151561007157600080fd5b60018054600160a060020a03938416600160a060020a0319918216179091556002805492909316911617905561061b806100ac6000396000f3006060604052600436106100955763ffffffff60e060020a6000350416633e908252811461009a5780634a393149146100bb57806355a373d6146100f75780636cebfbe61461012657806375141bab1461013e5780638da5cb5b14610151578063a6f9dae114610164578063c9ca90f014610183578063d6c8976b14610196578063da682aeb146101b5578063f48c3054146101dd575b600080fd5b34156100a557600080fd5b6100b9600160a060020a03600435166101f1565b005b34156100c657600080fd5b6100e3600160a060020a036004358116906024351660443561023b565b604051901515815260200160405180910390f35b341561010257600080fd5b61010a61032c565b604051600160a060020a03909116815260200160405180910390f35b341561013157600080fd5b6100b9600435151561033b565b341561014957600080fd5b61010a610385565b341561015c57600080fd5b61010a610394565b341561016f57600080fd5b6100b9600160a060020a03600435166103a3565b341561018e57600080fd5b6100e36103ed565b34156101a157600080fd5b6100b9600160a060020a03600435166103fd565b34156101c057600080fd5b6100e3600160a060020a036004358116906024351660443561047f565b6100e3600160a060020a036004351661052a565b60005433600160a060020a0390811691161461020c57600080fd5b6002805473ffffffffffffffffffffffffffffffffffffffff1916600160a060020a0392909216919091179055565b600254600090600160a060020a031615156102755760025460a060020a900460ff168061026e575061026c836105c2565b155b9050610325565b600254600160a060020a0316634a39314985858560006040516020015260405160e060020a63ffffffff8616028152600160a060020a0393841660048201529190921660248201526044810191909152606401602060405180830381600087803b15156102e157600080fd5b6102c65a03f115156102f257600080fd5b505050604051805190501561030957506001610325565b60025460a060020a900460ff168061026e575061026c836105c2565b9392505050565b600154600160a060020a031681565b60005433600160a060020a0390811691161461035657600080fd5b6002805491151560a060020a0274ff000000000000000000000000000000000000000019909216919091179055565b600254600160a060020a031681565b600054600160a060020a031681565b60005433600160a060020a039081169116146103be57600080fd5b6000805473ffffffffffffffffffffffffffffffffffffffff1916600160a060020a0392909216919091179055565b60025460a060020a900460ff1681565b60005433600160a060020a0390811691161461041857600080fd5b600154600160a060020a0316633cebb8238260405160e060020a63ffffffff8416028152600160a060020a039091166004820152602401600060405180830381600087803b151561046857600080fd5b6102c65a03f1151561047957600080fd5b50505050565b600254600090600160a060020a0316151561049c57506001610325565b600254600160a060020a031663da682aeb85858560006040516020015260405160e060020a63ffffffff8616028152600160a060020a0393841660048201529190921660248201526044810191909152606401602060405180830381600087803b151561050857600080fd5b6102c65a03f1151561051957600080fd5b505050604051805190509050610325565b600254600090600160a060020a03161515610547575060006105bd565b600254600160a060020a031663f48c30548360006040516020015260405160e060020a63ffffffff8416028152600160a060020a039091166004820152602401602060405180830381600087803b15156105a057600080fd5b6102c65a03f115156105b157600080fd5b50505060405180519150505b919050565b600080600160a060020a03831615156105de57600091506105e9565b823b90506000811191505b509190505600a165627a7a72305820a80bbf1f41199eae3687125cdb0c03f5de013e28811bff2579b1ee36f01075c20029",
  "source": "pragma solidity ^0.4.11;\n\nimport \"../util/Owned.sol\";\nimport \"../token/ControlledToken.sol\";\n\ncontract ProxyController is Owned, TokenController {\n\n    ControlledToken public tokenContract;       // token controlled\n    TokenController public proxiedController;   // controller being proxied\n    bool            public allowTransfersToContracts;\n\n    function ProxyController(address _token, address _controller) public {\n\n        require(_token != address(0));\n        require(_controller != address(0));\n\n        tokenContract = ControlledToken(_token);\n        proxiedController = TokenController(_controller);\n    }\n\n\n    /// @notice `onlyOwner` changes the controller of the tokenContract\n    /// @param _newController - controller to be used with token\n    function changeTokenController(address _newController) onlyOwner public {\n        tokenContract.changeController(_newController);\n    }\n\n    /// @notice `onlyOwner` changes the proxied controller\n    /// @param _newController - controller to be proxied\n    function changeProxiedController(address _newController) onlyOwner public {\n        proxiedController = TokenController(_newController);\n    }\n\n    /// @notice `onlyOwner` changes the setting to allow transfer tokens to other contracts\n    /// @param _allow  allowing to transfer tokens to other contracts\n    function setTransfersToContractsAllowed(bool _allow) onlyOwner public{\n        allowTransfersToContracts = _allow;\n    }\n\n    /// @dev Internal function to determine if an address is a contract\n    /// @param _addr The address being queried\n    /// @return True if `_addr` is a contract\n    function isContract(address _addr) constant internal returns(bool) {\n        uint size;\n        if (_addr == 0) return false;\n        assembly {\n            size := extcodesize(_addr)\n        }\n        return size>0;\n    }\n\n    /////////////////\n    // TokenController interface\n    /////////////////\n\n    /// @notice `proxyPayment()` allows the caller to send ether to the TokenSale and\n    /// have the tokens created in an address of their choosing\n    /// @param _owner The address that will hold the newly created tokens\n    function proxyPayment(address _owner) payable public returns(bool) {\n        if(proxiedController==address(0)){\n            return false;\n        }else{\n            return proxiedController.proxyPayment(_owner);\n        }\n    }\n\n    /// @notice Notifies the controller about a transfer, for this TokenSale all\n    ///  transfers are allowed by default and no extra notifications are needed\n    /// @param _from The origin of the transfer\n    /// @param _to The destination of the transfer\n    /// @param _amount The amount of the transfer\n    /// @return False if the controller does not authorize the transfer\n    function onTransfer(address _from, address _to, uint _amount) public returns(bool) {\n        if(proxiedController==address(0)){\n            return allowTransfersToContracts || !isContract(_to);\n        }else if(proxiedController.onTransfer(_from, _to, _amount)){\n            return true;\n        }else{\n            return allowTransfersToContracts || !isContract(_to);\n        }\n    }\n\n    /// @notice Notifies the controller about an approval, for this TokenSale all\n    ///  approvals are allowed by default and no extra notifications are needed\n    /// @param _owner The address that calls `approve()`\n    /// @param _spender The spender in the `approve()` call\n    /// @param _amount The amount in the `approve()` call\n    /// @return False if the controller does not authorize the approval\n    function onApprove(address _owner, address _spender, uint _amount) public\n        returns(bool)\n    {\n        if(proxiedController==address(0)){\n            return true;\n        }else{\n            return proxiedController.onApprove(_owner, _spender, _amount);\n        }\n    }\n\n\n}",
  "sourcePath": "/Users/studnev/dev4bc/contracts/contracts/token/ProxyController.sol",
  "compiler": {
    "name": "solc",
    "version": "0.4.18+commit.9cf6e910.Emscripten.clang"
  },
  "schemaVersion": "1.0.1",
  "updatedAt": "2017-12-27T16:24:14.539Z"
}