{
  "contractName": "PullPayment",
  "abi": [
    {
      "constant": true,
      "inputs": [],
      "name": "totalPayments",
      "outputs": [
        {
          "name": "",
          "type": "uint256"
        }
      ],
      "payable": false,
      "stateMutability": "view",
      "type": "function"
    },
    {
      "constant": false,
      "inputs": [],
      "name": "withdrawPayments",
      "outputs": [],
      "payable": false,
      "stateMutability": "nonpayable",
      "type": "function"
    },
    {
      "constant": true,
      "inputs": [
        {
          "name": "",
          "type": "address"
        }
      ],
      "name": "payments",
      "outputs": [
        {
          "name": "",
          "type": "uint256"
        }
      ],
      "payable": false,
      "stateMutability": "view",
      "type": "function"
    }
  ],
  "bytecode": "0x6060604052341561000f57600080fd5b6101d68061001e6000396000f3006060604052600436106100555763ffffffff7c01000000000000000000000000000000000000000000000000000000006000350416625b4487811461005a5780636103d70b1461007f578063e2982c2114610094575b600080fd5b341561006557600080fd5b61006d6100c0565b60405190815260200160405180910390f35b341561008a57600080fd5b6100926100c6565b005b341561009f57600080fd5b61006d73ffffffffffffffffffffffffffffffffffffffff60043516610186565b60015481565b3373ffffffffffffffffffffffffffffffffffffffff81166000908152602081905260409020548015156100f957600080fd5b73ffffffffffffffffffffffffffffffffffffffff3016318190101561011e57600080fd5b600154610131908263ffffffff61019816565b60015573ffffffffffffffffffffffffffffffffffffffff82166000818152602081905260408082209190915582156108fc0290839051600060405180830381858888f19350505050151561018257fe5b5050565b60006020819052908152604090205481565b6000828211156101a457fe5b509003905600a165627a7a72305820d8934091bae72425cbe9a88a76a66818d1ec1341e51b6877f37a451d7c32ebb30029",
  "source": "pragma solidity ^0.4.18;\n\n\nimport \"../math/SafeMath.sol\";\n\n\n/**\n * @title PullPayment\n * @dev Base contract supporting async send for pull payments. Inherit from this\n * contract and use asyncSend instead of send.\n */\ncontract PullPayment {\n  using SafeMath for uint256;\n\n  mapping(address => uint256) public payments;\n  uint256 public totalPayments;\n\n  /**\n  * @dev withdraw accumulated balance, called by payee.\n  */\n  function withdrawPayments() public {\n    address payee = msg.sender;\n    uint256 payment = payments[payee];\n\n    require(payment != 0);\n    require(this.balance >= payment);\n\n    totalPayments = totalPayments.sub(payment);\n    payments[payee] = 0;\n\n    assert(payee.send(payment));\n  }\n\n  /**\n  * @dev Called by the payer to store the sent amount as credit to be pulled.\n  * @param dest The destination address of the funds.\n  * @param amount The amount to transfer.\n  */\n  function asyncSend(address dest, uint256 amount) internal {\n    payments[dest] = payments[dest].add(amount);\n    totalPayments = totalPayments.add(amount);\n  }\n}\n",
  "sourcePath": "zeppelin-solidity/contracts/payment/PullPayment.sol",
  "compiler": {
    "name": "solc",
    "version": "0.4.18+commit.9cf6e910.Emscripten.clang"
  },
  "schemaVersion": "1.0.1",
  "updatedAt": "2018-02-12T13:07:15.862Z"
}