{
  "contractName": "RevShareGame",
  "abi": [
    {
      "constant": true,
      "inputs": [
        {
          "name": "",
          "type": "address"
        }
      ],
      "name": "issuedPrizes",
      "outputs": [
        {
          "name": "",
          "type": "uint256"
        }
      ],
      "payable": false,
      "stateMutability": "view",
      "type": "function"
    },
    {
      "constant": false,
      "inputs": [
        {
          "name": "_hashes",
          "type": "uint256[]"
        }
      ],
      "name": "issue",
      "outputs": [],
      "payable": true,
      "stateMutability": "payable",
      "type": "function"
    },
    {
      "constant": true,
      "inputs": [],
      "name": "prize_life_time",
      "outputs": [
        {
          "name": "",
          "type": "uint256"
        }
      ],
      "payable": false,
      "stateMutability": "view",
      "type": "function"
    },
    {
      "constant": false,
      "inputs": [],
      "name": "withdraw",
      "outputs": [],
      "payable": false,
      "stateMutability": "nonpayable",
      "type": "function"
    },
    {
      "constant": false,
      "inputs": [
        {
          "name": "_token_price",
          "type": "uint256"
        }
      ],
      "name": "set_token_price",
      "outputs": [],
      "payable": false,
      "stateMutability": "nonpayable",
      "type": "function"
    },
    {
      "constant": true,
      "inputs": [],
      "name": "token_price",
      "outputs": [
        {
          "name": "",
          "type": "uint256"
        }
      ],
      "payable": false,
      "stateMutability": "view",
      "type": "function"
    },
    {
      "constant": true,
      "inputs": [],
      "name": "owner",
      "outputs": [
        {
          "name": "",
          "type": "address"
        }
      ],
      "payable": false,
      "stateMutability": "view",
      "type": "function"
    },
    {
      "constant": false,
      "inputs": [
        {
          "name": "_newOwner",
          "type": "address"
        }
      ],
      "name": "changeOwner",
      "outputs": [],
      "payable": false,
      "stateMutability": "nonpayable",
      "type": "function"
    },
    {
      "constant": false,
      "inputs": [
        {
          "name": "_dev_commission",
          "type": "uint256"
        },
        {
          "name": "_owner_commission",
          "type": "uint256"
        },
        {
          "name": "_issuer_commission",
          "type": "uint256"
        }
      ],
      "name": "set_payouts",
      "outputs": [],
      "payable": false,
      "stateMutability": "nonpayable",
      "type": "function"
    },
    {
      "constant": false,
      "inputs": [
        {
          "name": "_key",
          "type": "uint256"
        },
        {
          "name": "_winner",
          "type": "address"
        }
      ],
      "name": "claim",
      "outputs": [
        {
          "name": "",
          "type": "bool"
        }
      ],
      "payable": false,
      "stateMutability": "nonpayable",
      "type": "function"
    },
    {
      "constant": true,
      "inputs": [
        {
          "name": "_key",
          "type": "uint256"
        }
      ],
      "name": "key_hash256",
      "outputs": [
        {
          "name": "",
          "type": "uint256"
        }
      ],
      "payable": false,
      "stateMutability": "view",
      "type": "function"
    },
    {
      "constant": true,
      "inputs": [
        {
          "name": "",
          "type": "uint256"
        }
      ],
      "name": "prizes",
      "outputs": [
        {
          "name": "issuer",
          "type": "address"
        },
        {
          "name": "owner",
          "type": "address"
        },
        {
          "name": "tokens",
          "type": "uint256"
        },
        {
          "name": "value",
          "type": "uint256"
        },
        {
          "name": "expiration",
          "type": "uint256"
        }
      ],
      "payable": false,
      "stateMutability": "view",
      "type": "function"
    },
    {
      "constant": true,
      "inputs": [
        {
          "name": "",
          "type": "address"
        }
      ],
      "name": "pendingWithdrawals",
      "outputs": [
        {
          "name": "",
          "type": "uint256"
        }
      ],
      "payable": false,
      "stateMutability": "view",
      "type": "function"
    },
    {
      "constant": true,
      "inputs": [],
      "name": "controller",
      "outputs": [
        {
          "name": "",
          "type": "address"
        }
      ],
      "payable": false,
      "stateMutability": "view",
      "type": "function"
    },
    {
      "constant": true,
      "inputs": [],
      "name": "token",
      "outputs": [
        {
          "name": "",
          "type": "address"
        }
      ],
      "payable": false,
      "stateMutability": "view",
      "type": "function"
    },
    {
      "inputs": [
        {
          "name": "_token",
          "type": "address"
        },
        {
          "name": "_controller",
          "type": "address"
        },
        {
          "name": "_prize_life_time",
          "type": "uint256"
        },
        {
          "name": "_token_price",
          "type": "uint256"
        },
        {
          "name": "_dev_commission",
          "type": "uint256"
        },
        {
          "name": "_owner_commission",
          "type": "uint256"
        },
        {
          "name": "_issuer_commission",
          "type": "uint256"
        }
      ],
      "payable": false,
      "stateMutability": "nonpayable",
      "type": "constructor"
    },
    {
      "anonymous": false,
      "inputs": [
        {
          "indexed": true,
          "name": "issuer",
          "type": "address"
        },
        {
          "indexed": true,
          "name": "owner",
          "type": "address"
        },
        {
          "indexed": false,
          "name": "amount",
          "type": "uint256"
        }
      ],
      "name": "Issue",
      "type": "event"
    },
    {
      "anonymous": false,
      "inputs": [
        {
          "indexed": true,
          "name": "issuer",
          "type": "address"
        },
        {
          "indexed": true,
          "name": "owner",
          "type": "address"
        },
        {
          "indexed": true,
          "name": "winner",
          "type": "address"
        },
        {
          "indexed": false,
          "name": "amount",
          "type": "uint256"
        }
      ],
      "name": "Claim",
      "type": "event"
    },
    {
      "anonymous": false,
      "inputs": [
        {
          "indexed": true,
          "name": "issuer",
          "type": "address"
        },
        {
          "indexed": true,
          "name": "owner",
          "type": "address"
        },
        {
          "indexed": false,
          "name": "amount",
          "type": "uint256"
        }
      ],
      "name": "Expired",
      "type": "event"
    }
  ],
  "bytecode": "0x6060604052341561000f57600080fd5b60405160e080610d658339810160405280805191906020018051919060200180519190602001805191906020018051919060200180519190602001805160008054600160a060020a03191633600160a060020a0390811691909117909155909250889150879087908316151561008457600080fd5b600160a060020a038216151561009957600080fd5b60018054600160a060020a03948516600160a060020a0319918216179091556002805493909416921691909117909155600355600793909355600891909155600955600a55505050610c75806100f06000396000f3006060604052600436106100c15763ffffffff60e060020a6000350416630f38dc3881146100c6578063247f216b146100f7578063389bd2531461013d5780633ccfd60b146101505780635b81aff2146101635780637b4fd96e146101795780638da5cb5b1461018c578063a6f9dae1146101bb578063b71a3f46146101da578063ddd5e1b2146101f6578063e2dc19cb1461022c578063eccb3a4f14610242578063f3f4370314610292578063f77c4791146102b1578063fc0c546a146102c4575b600080fd5b34156100d157600080fd5b6100e5600160a060020a03600435166102d7565b60405190815260200160405180910390f35b61013b60046024813581810190830135806020818102016040519081016040528093929190818152602001838360200280828437509496506102e995505050505050565b005b341561014857600080fd5b6100e56105d6565b341561015b57600080fd5b61013b6105dc565b341561016e57600080fd5b61013b600435610633565b341561018457600080fd5b6100e5610653565b341561019757600080fd5b61019f610659565b604051600160a060020a03909116815260200160405180910390f35b34156101c657600080fd5b61013b600160a060020a0360043516610668565b34156101e557600080fd5b61013b6004356024356044356106b2565b341561020157600080fd5b610218600435600160a060020a03602435166106db565b604051901515815260200160405180910390f35b341561023757600080fd5b6100e560043561096f565b341561024d57600080fd5b6102586004356109de565b604051600160a060020a0395861681529390941660208401526040808401929092526060830152608082019290925260a001905180910390f35b341561029d57600080fd5b6100e5600160a060020a0360043516610a1a565b34156102bc57600080fd5b61019f610a2c565b34156102cf57600080fd5b61019f610a3b565b60066020526000908152604090205481565b60008060008060008060006102ff885134610a4a565b965096509650965060008711151561031657600080fd5b600254600160a060020a03166307fe1b61308660006040516020015260405160e060020a63ffffffff8516028152600160a060020a0390921660048301526024820152604401602060405180830381600087803b151561037557600080fd5b6102c65a03f1151561038657600080fd5b5050506040518051935050600160a060020a038316156105cc57600154600160a060020a03166323b872dd84308760006040516020015260405160e060020a63ffffffff8616028152600160a060020a0393841660048201529190921660248201526044810191909152606401602060405180830381600087803b151561040c57600080fd5b6102c65a03f1151561041d57600080fd5b50505060405180519050151561043257600080fd5b60003411156104785761044e346104498989610a80565b610ab6565b9150600082111561047857600160a060020a03331660009081526005602052604090208054830190555b5060005b868110156105735760a06040519081016040528033600160a060020a0316815260200184600160a060020a031681526020018681526020018781526020016003544201815250600460008a84815181106104d257fe5b9060200190602002015181526020019081526020016000206000820151815473ffffffffffffffffffffffffffffffffffffffff1916600160a060020a0391909116178155602082015160018201805473ffffffffffffffffffffffffffffffffffffffff1916600160a060020a0392909216919091179055604082015181600201556060820151816003015560808201516004909101555060010161047c565b600160a060020a033381166000818152600660205260409081902080548b019055918516917f4b2682685b046a3dae8e75ff49b82fa703e366056a43c6a791411011134f4f5d908a905190815260200160405180910390a35b5050505050505050565b60035481565b600160a060020a0333166000908152600560205260408120805490829055908111156106305733600160a060020a03168160405160006040518083038185876187965a03f192505050151561063057600080fd5b50565b60005433600160a060020a0390811691161461064e57600080fd5b600755565b60075481565b600054600160a060020a031681565b60005433600160a060020a0390811691161461068357600080fd5b6000805473ffffffffffffffffffffffffffffffffffffffff1916600160a060020a0392909216919091179055565b60005433600160a060020a039081169116146106cd57600080fd5b600892909255600955600a55565b60008060006106e98561096f565b600081815260046020526040902060018101549193509150600160a060020a0316151561071557600080fd5b806004015442111561089f5760018054908201546002830154600160a060020a039283169263a9059cbb92169060006040516020015260405160e060020a63ffffffff8516028152600160a060020a0390921660048301526024820152604401602060405180830381600087803b151561078e57600080fd5b6102c65a03f1151561079f57600080fd5b5050506040518051905015156107b457600080fd5b6000816003015411156107e75760038101548154600160a060020a03166000908152600560205260409020805490910190555b600160a060020a033381166000908152600660205260409081902080546000190190556001830154835460028501549184169316917f4f250de368f70919105efcd7254a862cc87a72d732d1fa5760792925064f4eb991905190815260200160405180910390a360008281526004602081905260408220805473ffffffffffffffffffffffffffffffffffffffff19908116825560018201805490911690556002810183905560038101839055018190559250610967565b6108a98185610ac8565b600160a060020a03338116600090815260066020526040908190208054600019019055600183015483546002850154888516949283169391909216917fc1405953cccdad6b442e266c84d66ad671e2534c6584f8e6ef92802f7ad294d5915190815260200160405180910390a460008281526004602081905260408220805473ffffffffffffffffffffffffffffffffffffffff19908116825560018083018054909216909155600282018490556003820184905591019190915592505b505092915050565b6000600282306000604051602001526040518083815260200182600160a060020a0316600160a060020a03166c010000000000000000000000000281526014019250505060206040518083038160008661646e5a03f115156109d057600080fd5b505060405180519392505050565b600460208190526000918252604090912080546001820154600283015460038401549390940154600160a060020a039283169492909116929085565b60056020526000908152604090205481565b600254600160a060020a031681565b600154600160a060020a031681565b60008060008060075485811515610a5d57fe5b049350600754925085841115610a71578593505b50600190508292959194509250565b600080831515610a935760009150610aaf565b50828202828482811515610aa357fe5b0414610aab57fe5b8091505b5092915050565b600082821115610ac257fe5b50900390565b60018054908301546002840154600092839283928392600160a060020a039081169263a9059cbb92911690846040516020015260405160e060020a63ffffffff8516028152600160a060020a0390921660048301526024820152604401602060405180830381600087803b1515610b3e57600080fd5b6102c65a03f11515610b4f57600080fd5b505050604051805190501515610b6457600080fd5b856003015493506064610b7985600854610a80565b811515610b8257fe5b60008054600160a060020a031681526005602052604090208054929091049182019055600954909350606490610bb9908690610a80565b811515610bc257fe5b6001880154600160a060020a031660009081526005602052604090208054929091049182019055600a54909250606490610bfd908690610a80565b811515610c0657fe5b9654600160a060020a03908116600090815260056020526040808220805494909a04938401909955961686529590942080549290910190940190910301909155505600a165627a7a7230582017a715f53b1b53db6f0e4a3d839df2ecf54f76d89de0e20d4f5f745c8a41f90a0029",
  "source": "pragma solidity ^0.4.11;\n\n\nimport \"./Game.sol\";\n\ncontract RevShareGame is Game {\n\n    uint256 public token_price;\n    uint256 dev_commission;\n    uint256 owner_commission;\n    uint256 issuer_commission;\n    \n\n    function RevShareGame(   ERC20 _token,\n                        GameController _controller,\n                        uint256 _prize_life_time,\n                        uint256 _token_price,\n                        uint256 _dev_commission,\n                        uint256 _owner_commission,\n                        uint256 _issuer_commission\n                        )\n        Game(_token, _controller, _prize_life_time) public {\n\n        token_price = _token_price;\n        dev_commission = _dev_commission;\n        owner_commission = _owner_commission;\n        issuer_commission = _issuer_commission;\n\n    }\n\n\n     function calculate_amount( uint256 _requested_amount, uint256 _payed_value ) internal\n            returns(uint256 prize_count, uint256 prize_value, uint256 prize_tokens, uint256 total_tokens) {\n     \n        prize_count = _payed_value / token_price;\n        prize_value = token_price;\n\n        if(prize_count > _requested_amount){\n            prize_count = _requested_amount;\n        }\n\n        return (prize_count, prize_value, 1, prize_count);\n     }\n\n     function set_token_price(uint256 _token_price) onlyOwner public {\n        token_price = _token_price;\n     }\n     \n     function set_payouts(uint256 _dev_commission, uint256 _owner_commission, uint256 _issuer_commission) onlyOwner public {\n        dev_commission = _dev_commission;\n        owner_commission = _owner_commission;\n        issuer_commission = _issuer_commission;\n     }\n\n\n    function payout(Prize storage _prize, address _winner) internal {\n        require(token.transfer(_prize.owner, _prize.tokens));\n        uint256 total = _prize.value;\n\n        uint256 dev_commission_amount = mul(total, dev_commission) / 100;\n        pendingWithdrawals[owner] += dev_commission_amount;\n\n        uint256 owner_commission_amount = mul(total, owner_commission) / 100;\n        pendingWithdrawals[_prize.owner] += owner_commission_amount;\n\n        uint256 issuer_commission_amount = mul(total, issuer_commission) / 100;\n        pendingWithdrawals[_prize.issuer] += issuer_commission_amount;\n\n        pendingWithdrawals[_winner] += total - (dev_commission_amount + owner_commission_amount + issuer_commission_amount);\n    }\n\n}",
  "sourcePath": "/Users/studnev/dev4bc/contracts/contracts/game/RevShareGame.sol",
  "compiler": {
    "name": "solc",
    "version": "0.4.18+commit.9cf6e910.Emscripten.clang"
  },
  "schemaVersion": "1.0.1",
  "updatedAt": "2017-12-28T17:03:32.524Z"
}