{
  "contractName": "RevShareGame",
  "abi": [
    {
      "constant": true,
      "inputs": [],
      "name": "prize_tokens",
      "outputs": [
        {
          "name": "",
          "type": "uint256"
        }
      ],
      "payable": false,
      "stateMutability": "view",
      "type": "function"
    },
    {
      "constant": false,
      "inputs": [
        {
          "name": "_hashes",
          "type": "uint256[]"
        }
      ],
      "name": "issue",
      "outputs": [],
      "payable": true,
      "stateMutability": "payable",
      "type": "function"
    },
    {
      "constant": true,
      "inputs": [],
      "name": "prize_life_time",
      "outputs": [
        {
          "name": "",
          "type": "uint256"
        }
      ],
      "payable": false,
      "stateMutability": "view",
      "type": "function"
    },
    {
      "constant": false,
      "inputs": [],
      "name": "withdraw",
      "outputs": [],
      "payable": false,
      "stateMutability": "nonpayable",
      "type": "function"
    },
    {
      "constant": false,
      "inputs": [
        {
          "name": "_hashes",
          "type": "uint256[]"
        }
      ],
      "name": "revoke",
      "outputs": [],
      "payable": false,
      "stateMutability": "nonpayable",
      "type": "function"
    },
    {
      "constant": true,
      "inputs": [],
      "name": "prize_price",
      "outputs": [
        {
          "name": "",
          "type": "uint256"
        }
      ],
      "payable": false,
      "stateMutability": "view",
      "type": "function"
    },
    {
      "constant": true,
      "inputs": [],
      "name": "owner",
      "outputs": [
        {
          "name": "",
          "type": "address"
        }
      ],
      "payable": false,
      "stateMutability": "view",
      "type": "function"
    },
    {
      "constant": false,
      "inputs": [
        {
          "name": "_prize_tokens",
          "type": "uint256"
        }
      ],
      "name": "set_prize_tokens",
      "outputs": [],
      "payable": false,
      "stateMutability": "nonpayable",
      "type": "function"
    },
    {
      "constant": false,
      "inputs": [
        {
          "name": "_newOwner",
          "type": "address"
        }
      ],
      "name": "changeOwner",
      "outputs": [],
      "payable": false,
      "stateMutability": "nonpayable",
      "type": "function"
    },
    {
      "constant": false,
      "inputs": [
        {
          "name": "_dev_commission",
          "type": "uint256"
        },
        {
          "name": "_owner_commission",
          "type": "uint256"
        },
        {
          "name": "_issuer_commission",
          "type": "uint256"
        }
      ],
      "name": "set_payouts",
      "outputs": [],
      "payable": false,
      "stateMutability": "nonpayable",
      "type": "function"
    },
    {
      "constant": false,
      "inputs": [
        {
          "name": "_prize_price",
          "type": "uint256"
        }
      ],
      "name": "set_prize_price",
      "outputs": [],
      "payable": false,
      "stateMutability": "nonpayable",
      "type": "function"
    },
    {
      "constant": false,
      "inputs": [
        {
          "name": "_key",
          "type": "uint256"
        },
        {
          "name": "_winner",
          "type": "address"
        }
      ],
      "name": "claim",
      "outputs": [
        {
          "name": "",
          "type": "bool"
        }
      ],
      "payable": false,
      "stateMutability": "nonpayable",
      "type": "function"
    },
    {
      "constant": true,
      "inputs": [
        {
          "name": "_key",
          "type": "uint256"
        }
      ],
      "name": "key_hash256",
      "outputs": [
        {
          "name": "",
          "type": "uint256"
        }
      ],
      "payable": false,
      "stateMutability": "view",
      "type": "function"
    },
    {
      "constant": true,
      "inputs": [
        {
          "name": "",
          "type": "uint256"
        }
      ],
      "name": "prizes",
      "outputs": [
        {
          "name": "issuer",
          "type": "address"
        },
        {
          "name": "owner",
          "type": "address"
        },
        {
          "name": "tokens",
          "type": "uint256"
        },
        {
          "name": "value",
          "type": "uint256"
        },
        {
          "name": "expiration",
          "type": "uint256"
        }
      ],
      "payable": false,
      "stateMutability": "view",
      "type": "function"
    },
    {
      "constant": true,
      "inputs": [
        {
          "name": "",
          "type": "address"
        }
      ],
      "name": "pendingWithdrawals",
      "outputs": [
        {
          "name": "",
          "type": "uint256"
        }
      ],
      "payable": false,
      "stateMutability": "view",
      "type": "function"
    },
    {
      "constant": true,
      "inputs": [],
      "name": "controller",
      "outputs": [
        {
          "name": "",
          "type": "address"
        }
      ],
      "payable": false,
      "stateMutability": "view",
      "type": "function"
    },
    {
      "constant": true,
      "inputs": [],
      "name": "token",
      "outputs": [
        {
          "name": "",
          "type": "address"
        }
      ],
      "payable": false,
      "stateMutability": "view",
      "type": "function"
    },
    {
      "inputs": [
        {
          "name": "_token",
          "type": "address"
        },
        {
          "name": "_controller",
          "type": "address"
        },
        {
          "name": "_prize_life_time",
          "type": "uint256"
        },
        {
          "name": "_prize_tokens",
          "type": "uint256"
        },
        {
          "name": "_prize_price",
          "type": "uint256"
        },
        {
          "name": "_dev_commission",
          "type": "uint256"
        },
        {
          "name": "_owner_commission",
          "type": "uint256"
        },
        {
          "name": "_issuer_commission",
          "type": "uint256"
        }
      ],
      "payable": false,
      "stateMutability": "nonpayable",
      "type": "constructor"
    },
    {
      "anonymous": false,
      "inputs": [
        {
          "indexed": true,
          "name": "issuer",
          "type": "address"
        },
        {
          "indexed": true,
          "name": "owner",
          "type": "address"
        },
        {
          "indexed": false,
          "name": "hash",
          "type": "uint256"
        },
        {
          "indexed": false,
          "name": "tokens",
          "type": "uint256"
        },
        {
          "indexed": false,
          "name": "value",
          "type": "uint256"
        },
        {
          "indexed": false,
          "name": "expiration",
          "type": "uint256"
        }
      ],
      "name": "Issue",
      "type": "event"
    },
    {
      "anonymous": false,
      "inputs": [
        {
          "indexed": true,
          "name": "issuer",
          "type": "address"
        },
        {
          "indexed": true,
          "name": "owner",
          "type": "address"
        },
        {
          "indexed": true,
          "name": "winner",
          "type": "address"
        },
        {
          "indexed": false,
          "name": "hash",
          "type": "uint256"
        },
        {
          "indexed": false,
          "name": "tokens",
          "type": "uint256"
        },
        {
          "indexed": false,
          "name": "value",
          "type": "uint256"
        }
      ],
      "name": "Claim",
      "type": "event"
    },
    {
      "anonymous": false,
      "inputs": [
        {
          "indexed": true,
          "name": "issuer",
          "type": "address"
        },
        {
          "indexed": true,
          "name": "owner",
          "type": "address"
        },
        {
          "indexed": false,
          "name": "hash",
          "type": "uint256"
        },
        {
          "indexed": false,
          "name": "tokens",
          "type": "uint256"
        },
        {
          "indexed": false,
          "name": "value",
          "type": "uint256"
        }
      ],
      "name": "Revoke",
      "type": "event"
    }
  ],
  "bytecode": "0x6060604052341561000f57600080fd5b60405161010080610f55833981016040528080519190602001805191906020018051919060200180519190602001805191906020018051919060200180519190602001805160008054600160a060020a03191633600160a060020a0390811691909117909155909250899150889088908316151561008c57600080fd5b600160a060020a03821615156100a157600080fd5b600081116100ae57600080fd5b60018054600160a060020a03948516600160a060020a031991821617909155600280549390941692169190911790915560035560648383018201146100f257600080fd5b600084116100ff57600080fd5b6000851161010c57600080fd5b600693909355600793909355600855600991909155600a55505050610e1f806101366000396000f3006060604052600436106100d75763ffffffff60e060020a6000350416631b29018981146100dc578063247f216b14610101578063389bd253146101475780633ccfd60b1461015a578063420b3bd11461016d5780635ee0d8fc146101bc5780638da5cb5b146101cf5780639313d650146101fe578063a6f9dae114610214578063b71a3f4614610233578063db1eacb41461024f578063ddd5e1b214610265578063e2dc19cb1461029b578063eccb3a4f146102b1578063f3f4370314610301578063f77c479114610320578063fc0c546a14610333575b600080fd5b34156100e757600080fd5b6100ef610346565b60405190815260200160405180910390f35b610145600460248135818101908301358060208181020160405190810160405280939291908181526020018383602002808284375094965061034c95505050505050565b005b341561015257600080fd5b6100ef610677565b341561016557600080fd5b61014561067d565b341561017857600080fd5b61014560046024813581810190830135806020818102016040519081016040528093929190818152602001838360200280828437509496506106d495505050505050565b34156101c757600080fd5b6100ef6107a3565b34156101da57600080fd5b6101e26107a9565b604051600160a060020a03909116815260200160405180910390f35b341561020957600080fd5b6101456004356107b8565b341561021f57600080fd5b610145600160a060020a03600435166107d8565b341561023e57600080fd5b610145600435602435604435610822565b341561025a57600080fd5b61014560043561084b565b341561027057600080fd5b610287600435600160a060020a036024351661086b565b604051901515815260200160405180910390f35b34156102a657600080fd5b6100ef6004356109d6565b34156102bc57600080fd5b6102c7600435610a45565b604051600160a060020a0395861681529390941660208401526040808401929092526060830152608082019290925260a001905180910390f35b341561030c57600080fd5b6100ef600160a060020a0360043516610a81565b341561032b57600080fd5b6101e2610a93565b341561033e57600080fd5b6101e2610aa2565b60075481565b6000806000806000806006543481151561036257fe5b049550865186111561037357865195505b6000861161038057600080fd5b61038c86600754610ab1565b600254909550600160a060020a03166307fe1b61308760006040516020015260405160e060020a63ffffffff8516028152600160a060020a0390921660048301526024820152604401602060405180830381600087803b15156103ee57600080fd5b6102c65a03f115156103ff57600080fd5b5050506040518051945050600160a060020a038416151561041f57600080fd5b600154600160a060020a03166323b872dd85308860006040516020015260405160e060020a63ffffffff8616028152600160a060020a0393841660048201529190921660248201526044810191909152606401602060405180830381600087803b151561048b57600080fd5b6102c65a03f1151561049c57600080fd5b5050506040518051905015156104b157600080fd5b6104c6346104c188600654610ab1565b610ae7565b925060008311156104f057600160a060020a03331660009081526005602052604090208054840190555b5050600354420160005b8581101561066e5760a06040519081016040528033600160a060020a0316815260200185600160a060020a0316815260200160075481526020016006548152602001838152506004600089848151811061055057fe5b9060200190602002015181526020019081526020016000206000820151815473ffffffffffffffffffffffffffffffffffffffff1916600160a060020a0391909116178155602082015160018201805473ffffffffffffffffffffffffffffffffffffffff1916600160a060020a039290921691909117905560408201518160020155606082015181600301556080820151816004015590505083600160a060020a031633600160a060020a03167fb0a73fdcdba556764570fd9b88fc745d32a9aaf30f046c5aeccd0bf9cc99271c89848151811061062b57fe5b90602001906020020151600754600654876040518085815260200184815260200183815260200182815260200194505050505060405180910390a36001016104fa565b50505050505050565b60035481565b600160a060020a0333166000908152600560205260408120805490829055908111156106d15733600160a060020a03168160405160006040518083038185876187965a03f19250505015156106d157600080fd5b50565b6000805b825182101561079e57600460008484815181106106f157fe5b9060200190602002015181526020019081526020016000209050806004015442118061072a5750805433600160a060020a039081169116145b15610793576107938160a060405190810160409081528254600160a060020a039081168352600184015416602083015260028301549082015260038201546060820152600490910154608082015284848151811061078457fe5b90602001906020020151610af9565b6001909101906106d8565b505050565b60065481565b600054600160a060020a031681565b60005433600160a060020a039081169116146107d357600080fd5b600755565b60005433600160a060020a039081169116146107f357600080fd5b6000805473ffffffffffffffffffffffffffffffffffffffff1916600160a060020a0392909216919091179055565b60005433600160a060020a0390811691161461083d57600080fd5b600892909255600955600a55565b60005433600160a060020a0390811691161461086657600080fd5b600655565b6000806000610879856109d6565b600081815260046020526040902060018101549193509150600160a060020a031615156108a557600080fd5b8060040154421115610909576109008160a060405190810160409081528254600160a060020a039081168352600184015416602083015260028301549082015260038201546060820152600490910154608082015283610af9565b600092506109ce565b6109138185610c72565b6001810154815460028301546003840154600160a060020a038089169481169316917fe13b9fd454ff56d3db734a68636b9b52734a6006abb5a3c2600faab1e3d5579d9187919060405180848152602001838152602001828152602001935050505060405180910390a460008281526004602081905260408220805473ffffffffffffffffffffffffffffffffffffffff19908116825560018083018054909216909155600282018490556003820184905591019190915592505b505092915050565b6000600282306000604051602001526040518083815260200182600160a060020a0316600160a060020a03166c010000000000000000000000000281526014019250505060206040518083038160008661646e5a03f11515610a3757600080fd5b505060405180519392505050565b600460208190526000918252604090912080546001820154600283015460038401549390940154600160a060020a039283169492909116929085565b60056020526000908152604090205481565b600254600160a060020a031681565b600154600160a060020a031681565b600080831515610ac45760009150610ae0565b50828202828482811515610ad457fe5b0414610adc57fe5b8091505b5092915050565b600082821115610af357fe5b50900390565b600154600160a060020a031663a9059cbb6020840151846040015160006040516020015260405160e060020a63ffffffff8516028152600160a060020a0390921660048301526024820152604401602060405180830381600087803b1515610b6057600080fd5b6102c65a03f11515610b7157600080fd5b505050604051805190501515610b8657600080fd5b600082606001511115610bbf578160600151600560008451600160a060020a031681526020810191909152604001600020805490910190555b8160200151600160a060020a03168251600160a060020a03167f532dc55aa2b2368c1b55b7b1ffe159f8d19732791960257d75711389e84fa683838560400151866060015160405180848152602001838152602001828152602001935050505060405180910390a360009081526004602081905260408220805473ffffffffffffffffffffffffffffffffffffffff19908116825560018201805490911690556002810183905560038101839055015550565b60018054908301546002840154600092839283928392600160a060020a039081169263a9059cbb92911690846040516020015260405160e060020a63ffffffff8516028152600160a060020a0390921660048301526024820152604401602060405180830381600087803b1515610ce857600080fd5b6102c65a03f11515610cf957600080fd5b505050604051805190501515610d0e57600080fd5b856003015493506064610d2385600854610ab1565b811515610d2c57fe5b60008054600160a060020a031681526005602052604090208054929091049182019055600954909350606490610d63908690610ab1565b811515610d6c57fe5b6001880154600160a060020a031660009081526005602052604090208054929091049182019055600a54909250606490610da7908690610ab1565b811515610db057fe5b9654600160a060020a03908116600090815260056020526040808220805494909a04938401909955961686529590942080549290910190940190910301909155505600a165627a7a72305820bc9d77c5c01942b42ab6c53a541be52759b4dbda972f4c7fd523f32e161ee0f40029",
  "source": "pragma solidity ^0.4.11;\n\n\nimport \"./Game.sol\";\n\n/**\n * @title RevShareGame\n * @dev RevShareGame is a contract to perform the game with Ether payout to winner, game owner, issuer and token holder\n * in persentages.\n *\n * Look Game contract on the rule games. In the RevShareGame, issuing prizes happens on fixed prize price,\n * setup by game developer.\n *\n * @author Aleksey Studnev <studnev@izx.io>\n */\ncontract RevShareGame is Game {\n\n    uint256 public prize_price; // price of the single issuance of the prize in wei\n    uint256 public prize_tokens; // amount of tokens in one prize\n    uint256 dev_commission;     // commission in percentage, payed to game owner (developer)\n    uint256 owner_commission;   // commission in percentage, payed to tokens holder\n    uint256 issuer_commission;  // commission in percentage, payed to issuer\n\n    /// @notice RevShareGame constructor. Called by game owner (\"developer\")\n    /// @param _token ERC20 token, used in game, not 0\n    /// @param _controller GameController, used to controlled token allowances, not 0\n    /// @param _prize_life_time time from prize creation to expiration in seconds\n    /// @param _prize_tokens amount of tokens in one prize\n    /// @param _prize_price price of the single issuance of the prize in wei\n    /// @param _dev_commission commission in percentage, payed to game owner (developer)\n    /// @param _owner_commission commission in percentage, payed to tokens holder\n    /// @param _issuer_commission commission in percentage, payed to issuer\n    function RevShareGame( ERC20 _token,\n                        GameController _controller,\n                        uint256 _prize_life_time,\n                        uint256 _prize_tokens,\n                        uint256 _prize_price,\n                        uint256 _dev_commission,\n                        uint256 _owner_commission,\n                        uint256 _issuer_commission\n                        )\n        Game(_token, _controller, _prize_life_time) public {\n\n        require( (_dev_commission + _owner_commission + _issuer_commission) == 100 );\n        require( _prize_price > 0 );\n        require( _prize_tokens > 0 );\n\n        prize_price = _prize_price;\n        prize_tokens = _prize_tokens;\n        dev_commission = _dev_commission;\n        owner_commission = _owner_commission;\n        issuer_commission = _issuer_commission;\n\n    }\n\n    /// @notice issue prizes using approved tokens from token owners and based on token price specified\n    /// @param _hashes array of hashes to setup prizes\n    function issue(uint256[] _hashes) payable public {\n\n        uint256 prize_count = msg.value / prize_price;\n        if(prize_count > _hashes.length){\n            prize_count = _hashes.length;\n        }\n\n        require(prize_count>0);\n\n        uint256 total_tokens = mul(prize_count, prize_tokens);\n        address tokens_owner = controller.amount_owner(this, total_tokens );\n\n        require( tokens_owner!=address(0) );\n        require( token.transferFrom(tokens_owner, this, total_tokens) );\n\n        uint256 change = sub(msg.value, mul(prize_count, prize_price));\n        if(change>0){\n            pendingWithdrawals[msg.sender] += change;\n        }\n\n        uint256 expired_at = now + prize_life_time;\n        for(uint i=0;i<prize_count;i++){\n            prizes[_hashes[i]] = Prize(msg.sender, tokens_owner, prize_tokens, prize_price, expired_at);\n            Issue(msg.sender, tokens_owner, _hashes[i], prize_tokens, prize_price, expired_at);\n        }\n    }\n\n     function set_prize_tokens(uint256 _prize_tokens) onlyOwner public {\n        prize_tokens = _prize_tokens;\n     }\n\n     function set_prize_price(uint256 _prize_price) onlyOwner public {\n        prize_price = _prize_price;\n     }\n     \n     function set_payouts(uint256 _dev_commission, uint256 _owner_commission, uint256 _issuer_commission) onlyOwner public {\n        dev_commission = _dev_commission;\n        owner_commission = _owner_commission;\n        issuer_commission = _issuer_commission;\n     }\n\n\n    function payout(Prize storage _prize, address _winner) internal {\n        require(token.transfer(_prize.owner, _prize.tokens));\n        uint256 total = _prize.value;\n\n        uint256 dev_commission_amount = mul(total, dev_commission) / 100;\n        pendingWithdrawals[owner] += dev_commission_amount;\n\n        uint256 owner_commission_amount = mul(total, owner_commission) / 100;\n        pendingWithdrawals[_prize.owner] += owner_commission_amount;\n\n        uint256 issuer_commission_amount = mul(total, issuer_commission) / 100;\n        pendingWithdrawals[_prize.issuer] += issuer_commission_amount;\n\n        pendingWithdrawals[_winner] += total - (dev_commission_amount + owner_commission_amount + issuer_commission_amount);\n    }\n\n}",
  "sourcePath": "/Users/studnev/dev4bc/contracts/contracts/game/RevShareGame.sol",
  "compiler": {
    "name": "solc",
    "version": "0.4.18+commit.9cf6e910.Emscripten.clang"
  },
  "schemaVersion": "1.0.1",
  "updatedAt": "2018-01-05T10:41:55.709Z"
}