{
  "contractName": "RevShareGame",
  "abi": [
    {
      "constant": true,
      "inputs": [
        {
          "name": "",
          "type": "address"
        }
      ],
      "name": "issuedPrizes",
      "outputs": [
        {
          "name": "",
          "type": "uint256"
        }
      ],
      "payable": false,
      "stateMutability": "view",
      "type": "function"
    },
    {
      "constant": false,
      "inputs": [],
      "name": "withdraw",
      "outputs": [],
      "payable": false,
      "stateMutability": "nonpayable",
      "type": "function"
    },
    {
      "constant": false,
      "inputs": [
        {
          "name": "_token_price",
          "type": "uint256"
        }
      ],
      "name": "set_token_price",
      "outputs": [],
      "payable": false,
      "stateMutability": "nonpayable",
      "type": "function"
    },
    {
      "constant": true,
      "inputs": [],
      "name": "token_price",
      "outputs": [
        {
          "name": "",
          "type": "uint256"
        }
      ],
      "payable": false,
      "stateMutability": "view",
      "type": "function"
    },
    {
      "constant": true,
      "inputs": [],
      "name": "owner",
      "outputs": [
        {
          "name": "",
          "type": "address"
        }
      ],
      "payable": false,
      "stateMutability": "view",
      "type": "function"
    },
    {
      "constant": false,
      "inputs": [
        {
          "name": "_newOwner",
          "type": "address"
        }
      ],
      "name": "changeOwner",
      "outputs": [],
      "payable": false,
      "stateMutability": "nonpayable",
      "type": "function"
    },
    {
      "constant": false,
      "inputs": [
        {
          "name": "_dev_commission",
          "type": "uint256"
        },
        {
          "name": "_owner_commission",
          "type": "uint256"
        },
        {
          "name": "_issuer_commission",
          "type": "uint256"
        }
      ],
      "name": "set_payouts",
      "outputs": [],
      "payable": false,
      "stateMutability": "nonpayable",
      "type": "function"
    },
    {
      "constant": false,
      "inputs": [
        {
          "name": "_hashes",
          "type": "uint256[]"
        },
        {
          "name": "_expiration",
          "type": "uint256"
        }
      ],
      "name": "issue",
      "outputs": [],
      "payable": true,
      "stateMutability": "payable",
      "type": "function"
    },
    {
      "constant": false,
      "inputs": [
        {
          "name": "_key",
          "type": "uint256"
        },
        {
          "name": "_winner",
          "type": "address"
        }
      ],
      "name": "claim",
      "outputs": [
        {
          "name": "",
          "type": "bool"
        }
      ],
      "payable": false,
      "stateMutability": "nonpayable",
      "type": "function"
    },
    {
      "constant": true,
      "inputs": [
        {
          "name": "_key",
          "type": "uint256"
        }
      ],
      "name": "key_hash256",
      "outputs": [
        {
          "name": "",
          "type": "uint256"
        }
      ],
      "payable": false,
      "stateMutability": "view",
      "type": "function"
    },
    {
      "constant": true,
      "inputs": [
        {
          "name": "",
          "type": "uint256"
        }
      ],
      "name": "prizes",
      "outputs": [
        {
          "name": "issuer",
          "type": "address"
        },
        {
          "name": "owner",
          "type": "address"
        },
        {
          "name": "tokens",
          "type": "uint256"
        },
        {
          "name": "value",
          "type": "uint256"
        },
        {
          "name": "expiration",
          "type": "uint256"
        }
      ],
      "payable": false,
      "stateMutability": "view",
      "type": "function"
    },
    {
      "constant": true,
      "inputs": [
        {
          "name": "",
          "type": "address"
        }
      ],
      "name": "pendingWithdrawals",
      "outputs": [
        {
          "name": "",
          "type": "uint256"
        }
      ],
      "payable": false,
      "stateMutability": "view",
      "type": "function"
    },
    {
      "constant": true,
      "inputs": [],
      "name": "controller",
      "outputs": [
        {
          "name": "",
          "type": "address"
        }
      ],
      "payable": false,
      "stateMutability": "view",
      "type": "function"
    },
    {
      "constant": true,
      "inputs": [],
      "name": "token",
      "outputs": [
        {
          "name": "",
          "type": "address"
        }
      ],
      "payable": false,
      "stateMutability": "view",
      "type": "function"
    },
    {
      "inputs": [
        {
          "name": "_token",
          "type": "address"
        },
        {
          "name": "_controller",
          "type": "address"
        },
        {
          "name": "_token_price",
          "type": "uint256"
        },
        {
          "name": "_dev_commission",
          "type": "uint256"
        },
        {
          "name": "_owner_commission",
          "type": "uint256"
        },
        {
          "name": "_issuer_commission",
          "type": "uint256"
        }
      ],
      "payable": false,
      "stateMutability": "nonpayable",
      "type": "constructor"
    },
    {
      "anonymous": false,
      "inputs": [
        {
          "indexed": true,
          "name": "issuer",
          "type": "address"
        },
        {
          "indexed": true,
          "name": "owner",
          "type": "address"
        },
        {
          "indexed": false,
          "name": "amount",
          "type": "uint256"
        }
      ],
      "name": "Issue",
      "type": "event"
    },
    {
      "anonymous": false,
      "inputs": [
        {
          "indexed": true,
          "name": "issuer",
          "type": "address"
        },
        {
          "indexed": true,
          "name": "owner",
          "type": "address"
        },
        {
          "indexed": true,
          "name": "winner",
          "type": "address"
        },
        {
          "indexed": false,
          "name": "amount",
          "type": "uint256"
        }
      ],
      "name": "Claim",
      "type": "event"
    },
    {
      "anonymous": false,
      "inputs": [
        {
          "indexed": true,
          "name": "issuer",
          "type": "address"
        },
        {
          "indexed": true,
          "name": "owner",
          "type": "address"
        },
        {
          "indexed": false,
          "name": "amount",
          "type": "uint256"
        }
      ],
      "name": "Expired",
      "type": "event"
    }
  ],
  "bytecode": "0x6060604052341561000f57600080fd5b60405160c080610d1a83398101604052808051919060200180519190602001805191906020018051919060200180519190602001805160008054600160a060020a03191633600160a060020a039081169190911790915590925087915086908216151561007b57600080fd5b600160a060020a038116151561009057600080fd5b60018054600160a060020a03938416600160a060020a031991821617909155600280549290931691161790556006939093556007919091556008556009555050610c3b806100df6000396000f3006060604052600436106100b65763ffffffff60e060020a6000350416630f38dc3881146100bb5780633ccfd60b146100ec5780635b81aff2146101015780637b4fd96e146101175780638da5cb5b1461012a578063a6f9dae114610159578063b71a3f4614610178578063c28b4f9814610194578063ddd5e1b2146101da578063e2dc19cb14610210578063eccb3a4f14610226578063f3f4370314610276578063f77c479114610295578063fc0c546a146102a8575b600080fd5b34156100c657600080fd5b6100da600160a060020a03600435166102bb565b60405190815260200160405180910390f35b34156100f757600080fd5b6100ff6102cd565b005b341561010c57600080fd5b6100ff600435610324565b341561012257600080fd5b6100da610344565b341561013557600080fd5b61013d61034a565b604051600160a060020a03909116815260200160405180910390f35b341561016457600080fd5b6100ff600160a060020a0360043516610359565b341561018357600080fd5b6100ff6004356024356044356103a3565b6100ff600460248135818101908301358060208181020160405190810160405280939291908181526020018383602002808284375094965050933593506103cc92505050565b34156101e557600080fd5b6101fc600435600160a060020a036024351661066d565b604051901515815260200160405180910390f35b341561021b57600080fd5b6100da600435610902565b341561023157600080fd5b61023c600435610971565b604051600160a060020a0395861681529390941660208401526040808401929092526060830152608082019290925260a001905180910390f35b341561028157600080fd5b6100da600160a060020a03600435166109ad565b34156102a057600080fd5b61013d6109bf565b34156102b357600080fd5b61013d6109ce565b60056020526000908152604090205481565b600160a060020a0333166000908152600460205260408120805490829055908111156103215733600160a060020a03168160405160006040518083038185876187965a03f192505050151561032157600080fd5b50565b60005433600160a060020a0390811691161461033f57600080fd5b600655565b60065481565b600054600160a060020a031681565b60005433600160a060020a0390811691161461037457600080fd5b6000805473ffffffffffffffffffffffffffffffffffffffff1916600160a060020a0392909216919091179055565b60005433600160a060020a039081169116146103be57600080fd5b600792909255600855600955565b60008060006103dd855134336109dd565b92506000831180156103ee57504284115b15156103f957600080fd5b600254600160a060020a03166307fe1b61308560006040516020015260405160e060020a63ffffffff8516028152600160a060020a0390921660048301526024820152604401602060405180830381600087803b151561045857600080fd5b6102c65a03f1151561046957600080fd5b5050506040518051925050600160a060020a0382161561066657600154600160a060020a03166323b872dd83308660006040516020015260405160e060020a63ffffffff8616028152600160a060020a0393841660048201529190921660248201526044810191909152606401602060405180830381600087803b15156104ef57600080fd5b6102c65a03f1151561050057600080fd5b50505060405180519050151561051557600080fd5b5060005b8281101561060d5760a06040519081016040528033600160a060020a0316815260200183600160a060020a0316815260200160018152602001348152602001858152506003600087848151811061056c57fe5b9060200190602002015181526020019081526020016000206000820151815473ffffffffffffffffffffffffffffffffffffffff1916600160a060020a0391909116178155602082015160018201805473ffffffffffffffffffffffffffffffffffffffff1916600160a060020a03929092169190911790556040820151816002015560608201518160030155608082015160049091015550600101610519565b600160a060020a0333811660008181526005602052604090819020805487019055918416917f4b2682685b046a3dae8e75ff49b82fa703e366056a43c6a791411011134f4f5d9086905190815260200160405180910390a35b5050505050565b600080600061067b85610902565b600081815260036020526040902060018101549193509150600160a060020a031615156106a757600080fd5b80600401544211156108325760018054908201546002830154600160a060020a039283169263a9059cbb92169060006040516020015260405160e060020a63ffffffff8516028152600160a060020a0390921660048301526024820152604401602060405180830381600087803b151561072057600080fd5b6102c65a03f1151561073157600080fd5b50505060405180519050151561074657600080fd5b6000816003015411156107795760038101548154600160a060020a03166000908152600460205260409020805490910190555b600160a060020a033381166000908152600560205260409081902080546000190190556001830154835460028501549184169316917f4f250de368f70919105efcd7254a862cc87a72d732d1fa5760792925064f4eb991905190815260200160405180910390a360008281526003602081905260408220805473ffffffffffffffffffffffffffffffffffffffff19908116825560018201805490911690556002810183905590810182905560040181905592506108fa565b61083c8185610a46565b600160a060020a03338116600090815260056020526040908190208054600019019055600183015483546002850154888516949283169391909216917fc1405953cccdad6b442e266c84d66ad671e2534c6584f8e6ef92802f7ad294d5915190815260200160405180910390a460008281526003602081905260408220805473ffffffffffffffffffffffffffffffffffffffff19908116825560018083018054909216909155600282018490559181018390556004019190915592505b505092915050565b6000600282306000604051602001526040518083815260200182600160a060020a0316600160a060020a03166c010000000000000000000000000281526014019250505060206040518083038160008661646e5a03f1151561096357600080fd5b505060405180519392505050565b600360208190526000918252604090912080546001820154600283015493830154600490930154600160a060020a039283169492909116929085565b60046020526000908152604090205481565b600254600160a060020a031681565b600154600160a060020a031681565b6000806000600654858115156109ef57fe5b049150858211156109fe578591505b610a1385610a0e84600654610bc7565b610bfd565b90506000811115610a3d57600160a060020a03841660009081526004602052604090208054820190555b50949350505050565b60018054908301546002840154600092839283928392600160a060020a039081169263a9059cbb92911690846040516020015260405160e060020a63ffffffff8516028152600160a060020a0390921660048301526024820152604401602060405180830381600087803b1515610abc57600080fd5b6102c65a03f11515610acd57600080fd5b505050604051805190501515610ae257600080fd5b856003015493506064610af785600754610bc7565b811515610b0057fe5b60008054600160a060020a031681526004602052604090208054929091049182019055600854909350606490610b37908690610bc7565b811515610b4057fe5b6001880154600160a060020a031660009081526004602052604090208054929091049182019055600954909250606490610b7b908690610bc7565b811515610b8457fe5b9654600160a060020a03908116600090815260046020526040808220805494909a0493840190995596168652959094208054929091019094019091030190915550565b600080831515610bda5760009150610bf6565b50828202828482811515610bea57fe5b0414610bf257fe5b8091505b5092915050565b600082821115610c0957fe5b509003905600a165627a7a72305820294d6b63d7b2d5633de01c0968d207cfab9da5046257cfc0a57eaa2287572dfa0029",
  "source": "pragma solidity ^0.4.11;\n\n\nimport \"./Game.sol\";\nimport \"../util/SafeMath.sol\";\n\ncontract RevShareGame is Game, SafeMath {\n\n    uint256 public token_price;\n    uint256 dev_commission;\n    uint256 owner_commission;\n    uint256 issuer_commission;\n    \n\n    function RevShareGame(   ERC20 _token,\n                        GameController _controller,\n                        uint256 _token_price,\n                        uint256 _dev_commission,\n                        uint256 _owner_commission,\n                        uint256 _issuer_commission\n                        )\n        Game(_token, _controller) public {\n\n        token_price = _token_price;\n        dev_commission = _dev_commission;\n        owner_commission = _owner_commission;\n        issuer_commission = _issuer_commission;\n\n    }\n\n\n     function reserve_amount( uint256 _requested_amount, uint256 _payed_value, address _buyer ) internal returns(uint256) {\n     \n        uint256 amount = _payed_value / token_price;\n\n        if(amount > _requested_amount){\n            amount = _requested_amount;\n        }\n        \n        uint256 change = sub(_payed_value, mul(amount, token_price));\n        if(change>0){\n            pendingWithdrawals[_buyer] += change;\n        }\n        \n        return amount;\n     }\n\n     function set_token_price(uint256 _token_price) onlyOwner public {\n        token_price = _token_price;\n     }\n     \n     function set_payouts(uint256 _dev_commission, uint256 _owner_commission, uint256 _issuer_commission) onlyOwner public {\n        dev_commission = _dev_commission;\n        owner_commission = _owner_commission;\n        issuer_commission = _issuer_commission;\n     }\n\n\n    function payout(Prize storage _prize, address _winner) internal {\n        require(token.transfer(_prize.owner, _prize.tokens));\n        uint256 total = _prize.value;\n\n        uint256 dev_commission_amount = mul(total, dev_commission) / 100;\n        pendingWithdrawals[owner] += dev_commission_amount;\n\n        uint256 owner_commission_amount = mul(total, owner_commission) / 100;\n        pendingWithdrawals[_prize.owner] += owner_commission_amount;\n\n        uint256 issuer_commission_amount = mul(total, issuer_commission) / 100;\n        pendingWithdrawals[_prize.issuer] += issuer_commission_amount;\n\n        pendingWithdrawals[_winner] += total - (dev_commission_amount + owner_commission_amount + issuer_commission_amount);\n    }\n\n}",
  "sourcePath": "/Users/studnev/dev4bc/contracts/contracts/game/RevShareGame.sol",
  "compiler": {
    "name": "solc",
    "version": "0.4.18+commit.9cf6e910.Emscripten.clang"
  },
  "schemaVersion": "1.0.1",
  "updatedAt": "2017-12-27T18:08:31.724Z"
}