{
  "contractName": "RevShareGame",
  "abi": [
    {
      "constant": true,
      "inputs": [
        {
          "name": "",
          "type": "address"
        }
      ],
      "name": "issuedPrizes",
      "outputs": [
        {
          "name": "",
          "type": "uint256"
        }
      ],
      "payable": false,
      "stateMutability": "view",
      "type": "function"
    },
    {
      "constant": false,
      "inputs": [
        {
          "name": "_hashes",
          "type": "uint256[]"
        }
      ],
      "name": "issue",
      "outputs": [],
      "payable": true,
      "stateMutability": "payable",
      "type": "function"
    },
    {
      "constant": true,
      "inputs": [],
      "name": "prize_life_time",
      "outputs": [
        {
          "name": "",
          "type": "uint256"
        }
      ],
      "payable": false,
      "stateMutability": "view",
      "type": "function"
    },
    {
      "constant": false,
      "inputs": [],
      "name": "withdraw",
      "outputs": [],
      "payable": false,
      "stateMutability": "nonpayable",
      "type": "function"
    },
    {
      "constant": false,
      "inputs": [
        {
          "name": "_token_price",
          "type": "uint256"
        }
      ],
      "name": "set_token_price",
      "outputs": [],
      "payable": false,
      "stateMutability": "nonpayable",
      "type": "function"
    },
    {
      "constant": true,
      "inputs": [],
      "name": "token_price",
      "outputs": [
        {
          "name": "",
          "type": "uint256"
        }
      ],
      "payable": false,
      "stateMutability": "view",
      "type": "function"
    },
    {
      "constant": true,
      "inputs": [],
      "name": "owner",
      "outputs": [
        {
          "name": "",
          "type": "address"
        }
      ],
      "payable": false,
      "stateMutability": "view",
      "type": "function"
    },
    {
      "constant": false,
      "inputs": [
        {
          "name": "_newOwner",
          "type": "address"
        }
      ],
      "name": "changeOwner",
      "outputs": [],
      "payable": false,
      "stateMutability": "nonpayable",
      "type": "function"
    },
    {
      "constant": false,
      "inputs": [
        {
          "name": "_dev_commission",
          "type": "uint256"
        },
        {
          "name": "_owner_commission",
          "type": "uint256"
        },
        {
          "name": "_issuer_commission",
          "type": "uint256"
        }
      ],
      "name": "set_payouts",
      "outputs": [],
      "payable": false,
      "stateMutability": "nonpayable",
      "type": "function"
    },
    {
      "constant": false,
      "inputs": [
        {
          "name": "_key",
          "type": "uint256"
        },
        {
          "name": "_winner",
          "type": "address"
        }
      ],
      "name": "claim",
      "outputs": [
        {
          "name": "",
          "type": "bool"
        }
      ],
      "payable": false,
      "stateMutability": "nonpayable",
      "type": "function"
    },
    {
      "constant": true,
      "inputs": [
        {
          "name": "_key",
          "type": "uint256"
        }
      ],
      "name": "key_hash256",
      "outputs": [
        {
          "name": "",
          "type": "uint256"
        }
      ],
      "payable": false,
      "stateMutability": "view",
      "type": "function"
    },
    {
      "constant": true,
      "inputs": [
        {
          "name": "",
          "type": "uint256"
        }
      ],
      "name": "prizes",
      "outputs": [
        {
          "name": "issuer",
          "type": "address"
        },
        {
          "name": "owner",
          "type": "address"
        },
        {
          "name": "tokens",
          "type": "uint256"
        },
        {
          "name": "value",
          "type": "uint256"
        },
        {
          "name": "expiration",
          "type": "uint256"
        }
      ],
      "payable": false,
      "stateMutability": "view",
      "type": "function"
    },
    {
      "constant": true,
      "inputs": [
        {
          "name": "",
          "type": "address"
        }
      ],
      "name": "pendingWithdrawals",
      "outputs": [
        {
          "name": "",
          "type": "uint256"
        }
      ],
      "payable": false,
      "stateMutability": "view",
      "type": "function"
    },
    {
      "constant": true,
      "inputs": [],
      "name": "controller",
      "outputs": [
        {
          "name": "",
          "type": "address"
        }
      ],
      "payable": false,
      "stateMutability": "view",
      "type": "function"
    },
    {
      "constant": true,
      "inputs": [],
      "name": "token",
      "outputs": [
        {
          "name": "",
          "type": "address"
        }
      ],
      "payable": false,
      "stateMutability": "view",
      "type": "function"
    },
    {
      "inputs": [
        {
          "name": "_token",
          "type": "address"
        },
        {
          "name": "_controller",
          "type": "address"
        },
        {
          "name": "_prize_life_time",
          "type": "uint256"
        },
        {
          "name": "_token_price",
          "type": "uint256"
        },
        {
          "name": "_dev_commission",
          "type": "uint256"
        },
        {
          "name": "_owner_commission",
          "type": "uint256"
        },
        {
          "name": "_issuer_commission",
          "type": "uint256"
        }
      ],
      "payable": false,
      "stateMutability": "nonpayable",
      "type": "constructor"
    },
    {
      "anonymous": false,
      "inputs": [
        {
          "indexed": true,
          "name": "issuer",
          "type": "address"
        },
        {
          "indexed": true,
          "name": "owner",
          "type": "address"
        },
        {
          "indexed": false,
          "name": "amount",
          "type": "uint256"
        }
      ],
      "name": "Issue",
      "type": "event"
    },
    {
      "anonymous": false,
      "inputs": [
        {
          "indexed": true,
          "name": "issuer",
          "type": "address"
        },
        {
          "indexed": true,
          "name": "owner",
          "type": "address"
        },
        {
          "indexed": true,
          "name": "winner",
          "type": "address"
        },
        {
          "indexed": false,
          "name": "amount",
          "type": "uint256"
        }
      ],
      "name": "Claim",
      "type": "event"
    },
    {
      "anonymous": false,
      "inputs": [
        {
          "indexed": true,
          "name": "issuer",
          "type": "address"
        },
        {
          "indexed": true,
          "name": "owner",
          "type": "address"
        },
        {
          "indexed": false,
          "name": "amount",
          "type": "uint256"
        }
      ],
      "name": "Expired",
      "type": "event"
    }
  ],
  "bytecode": "0x6060604052341561000f57600080fd5b60405160e080610d518339810160405280805191906020018051919060200180519190602001805191906020018051919060200180519190602001805160008054600160a060020a03191633600160a060020a0390811691909117909155909250889150879087908316151561008457600080fd5b600160a060020a038216151561009957600080fd5b60018054600160a060020a03948516600160a060020a0319918216179091556002805493909416921691909117909155600355600793909355600891909155600955600a55505050610c61806100f06000396000f3006060604052600436106100c15763ffffffff60e060020a6000350416630f38dc3881146100c6578063247f216b146100f7578063389bd2531461013d5780633ccfd60b146101505780635b81aff2146101635780637b4fd96e146101795780638da5cb5b1461018c578063a6f9dae1146101bb578063b71a3f46146101da578063ddd5e1b2146101f6578063e2dc19cb1461022c578063eccb3a4f14610242578063f3f4370314610292578063f77c4791146102b1578063fc0c546a146102c4575b600080fd5b34156100d157600080fd5b6100e5600160a060020a03600435166102d7565b60405190815260200160405180910390f35b61013b60046024813581810190830135806020818102016040519081016040528093929190818152602001838360200280828437509496506102e995505050505050565b005b341561014857600080fd5b6100e56105cd565b341561015b57600080fd5b61013b6105d3565b341561016e57600080fd5b61013b60043561062a565b341561018457600080fd5b6100e561064a565b341561019757600080fd5b61019f610650565b604051600160a060020a03909116815260200160405180910390f35b34156101c657600080fd5b61013b600160a060020a036004351661065f565b34156101e557600080fd5b61013b6004356024356044356106a9565b341561020157600080fd5b610218600435600160a060020a03602435166106d2565b604051901515815260200160405180910390f35b341561023757600080fd5b6100e5600435610966565b341561024d57600080fd5b6102586004356109d5565b604051600160a060020a0395861681529390941660208401526040808401929092526060830152608082019290925260a001905180910390f35b341561029d57600080fd5b6100e5600160a060020a0360043516610a11565b34156102bc57600080fd5b61019f610a23565b34156102cf57600080fd5b61019f610a32565b60066020526000908152604090205481565b60008060008060006102fc865134610a41565b90955093506000851161030e57600080fd5b600254600160a060020a03166307fe1b61308760006040516020015260405160e060020a63ffffffff8516028152600160a060020a0390921660048301526024820152604401602060405180830381600087803b151561036d57600080fd5b6102c65a03f1151561037e57600080fd5b5050506040518051935050600160a060020a038316156105c557600154600160a060020a03166323b872dd84308860006040516020015260405160e060020a63ffffffff8616028152600160a060020a0393841660048201529190921660248201526044810191909152606401602060405180830381600087803b151561040457600080fd5b6102c65a03f1151561041557600080fd5b50505060405180519050151561042a57600080fd5b600034111561047057610446346104418787610a6c565b610aa2565b9150600082111561047057600160a060020a03331660009081526005602052604090208054830190555b5060005b8481101561056c5760a06040519081016040528033600160a060020a0316815260200184600160a060020a03168152602001600181526020018581526020016003544201815250600460008884815181106104cb57fe5b9060200190602002015181526020019081526020016000206000820151815473ffffffffffffffffffffffffffffffffffffffff1916600160a060020a0391909116178155602082015160018201805473ffffffffffffffffffffffffffffffffffffffff1916600160a060020a03929092169190911790556040820151816002015560608201518160030155608082015160049091015550600101610474565b600160a060020a0333811660008181526006602052604090819020805489019055918516917f4b2682685b046a3dae8e75ff49b82fa703e366056a43c6a791411011134f4f5d9088905190815260200160405180910390a35b505050505050565b60035481565b600160a060020a0333166000908152600560205260408120805490829055908111156106275733600160a060020a03168160405160006040518083038185876187965a03f192505050151561062757600080fd5b50565b60005433600160a060020a0390811691161461064557600080fd5b600755565b60075481565b600054600160a060020a031681565b60005433600160a060020a0390811691161461067a57600080fd5b6000805473ffffffffffffffffffffffffffffffffffffffff1916600160a060020a0392909216919091179055565b60005433600160a060020a039081169116146106c457600080fd5b600892909255600955600a55565b60008060006106e085610966565b600081815260046020526040902060018101549193509150600160a060020a0316151561070c57600080fd5b80600401544211156108965760018054908201546002830154600160a060020a039283169263a9059cbb92169060006040516020015260405160e060020a63ffffffff8516028152600160a060020a0390921660048301526024820152604401602060405180830381600087803b151561078557600080fd5b6102c65a03f1151561079657600080fd5b5050506040518051905015156107ab57600080fd5b6000816003015411156107de5760038101548154600160a060020a03166000908152600560205260409020805490910190555b600160a060020a033381166000908152600660205260409081902080546000190190556001830154835460028501549184169316917f4f250de368f70919105efcd7254a862cc87a72d732d1fa5760792925064f4eb991905190815260200160405180910390a360008281526004602081905260408220805473ffffffffffffffffffffffffffffffffffffffff1990811682556001820180549091169055600281018390556003810183905501819055925061095e565b6108a08185610ab4565b600160a060020a03338116600090815260066020526040908190208054600019019055600183015483546002850154888516949283169391909216917fc1405953cccdad6b442e266c84d66ad671e2534c6584f8e6ef92802f7ad294d5915190815260200160405180910390a460008281526004602081905260408220805473ffffffffffffffffffffffffffffffffffffffff19908116825560018083018054909216909155600282018490556003820184905591019190915592505b505092915050565b6000600282306000604051602001526040518083815260200182600160a060020a0316600160a060020a03166c010000000000000000000000000281526014019250505060206040518083038160008661646e5a03f115156109c757600080fd5b505060405180519392505050565b600460208190526000918252604090912080546001820154600283015460038401549390940154600160a060020a039283169492909116929085565b60056020526000908152604090205481565b600254600160a060020a031681565b600154600160a060020a031681565b60008060075483811515610a5157fe5b049150600754905083821115610a65578391505b9250929050565b600080831515610a7f5760009150610a9b565b50828202828482811515610a8f57fe5b0414610a9757fe5b8091505b5092915050565b600082821115610aae57fe5b50900390565b60018054908301546002840154600092839283928392600160a060020a039081169263a9059cbb92911690846040516020015260405160e060020a63ffffffff8516028152600160a060020a0390921660048301526024820152604401602060405180830381600087803b1515610b2a57600080fd5b6102c65a03f11515610b3b57600080fd5b505050604051805190501515610b5057600080fd5b856003015493506064610b6585600854610a6c565b811515610b6e57fe5b60008054600160a060020a031681526005602052604090208054929091049182019055600954909350606490610ba5908690610a6c565b811515610bae57fe5b6001880154600160a060020a031660009081526005602052604090208054929091049182019055600a54909250606490610be9908690610a6c565b811515610bf257fe5b9654600160a060020a03908116600090815260056020526040808220805494909a04938401909955961686529590942080549290910190940190910301909155505600a165627a7a72305820e43643d3e70094e57a8da6e3ed841cd1d64e286e6999adc2c8619c8480947aaa0029",
  "source": "pragma solidity ^0.4.11;\n\n\nimport \"./Game.sol\";\n\ncontract RevShareGame is Game {\n\n    uint256 public token_price;\n    uint256 dev_commission;\n    uint256 owner_commission;\n    uint256 issuer_commission;\n    \n\n    function RevShareGame(   ERC20 _token,\n                        GameController _controller,\n                        uint256 _prize_life_time,\n                        uint256 _token_price,\n                        uint256 _dev_commission,\n                        uint256 _owner_commission,\n                        uint256 _issuer_commission\n                        )\n        Game(_token, _controller, _prize_life_time) public {\n\n        token_price = _token_price;\n        dev_commission = _dev_commission;\n        owner_commission = _owner_commission;\n        issuer_commission = _issuer_commission;\n\n    }\n\n\n     function calculate_amount( uint256 _requested_amount, uint256 _payed_value ) internal\n            returns(uint256 prize_count, uint256 prize_value) {\n     \n        prize_count = _payed_value / token_price;\n        prize_value = token_price;\n\n        if(prize_count > _requested_amount){\n            prize_count = _requested_amount;\n        }\n\n        return (prize_count, prize_value);\n     }\n\n     function set_token_price(uint256 _token_price) onlyOwner public {\n        token_price = _token_price;\n     }\n     \n     function set_payouts(uint256 _dev_commission, uint256 _owner_commission, uint256 _issuer_commission) onlyOwner public {\n        dev_commission = _dev_commission;\n        owner_commission = _owner_commission;\n        issuer_commission = _issuer_commission;\n     }\n\n\n    function payout(Prize storage _prize, address _winner) internal {\n        require(token.transfer(_prize.owner, _prize.tokens));\n        uint256 total = _prize.value;\n\n        uint256 dev_commission_amount = mul(total, dev_commission) / 100;\n        pendingWithdrawals[owner] += dev_commission_amount;\n\n        uint256 owner_commission_amount = mul(total, owner_commission) / 100;\n        pendingWithdrawals[_prize.owner] += owner_commission_amount;\n\n        uint256 issuer_commission_amount = mul(total, issuer_commission) / 100;\n        pendingWithdrawals[_prize.issuer] += issuer_commission_amount;\n\n        pendingWithdrawals[_winner] += total - (dev_commission_amount + owner_commission_amount + issuer_commission_amount);\n    }\n\n}",
  "sourcePath": "/Users/studnev/dev4bc/contracts/contracts/game/RevShareGame.sol",
  "compiler": {
    "name": "solc",
    "version": "0.4.18+commit.9cf6e910.Emscripten.clang"
  },
  "schemaVersion": "1.0.1",
  "updatedAt": "2017-12-28T16:27:57.938Z"
}