{
  "contractName": "RevShareGame",
  "abi": [
    {
      "constant": true,
      "inputs": [],
      "name": "prize_tokens",
      "outputs": [
        {
          "name": "",
          "type": "uint256"
        }
      ],
      "payable": false,
      "stateMutability": "view",
      "type": "function"
    },
    {
      "constant": false,
      "inputs": [
        {
          "name": "_hashes",
          "type": "uint256[]"
        }
      ],
      "name": "issue",
      "outputs": [],
      "payable": true,
      "stateMutability": "payable",
      "type": "function"
    },
    {
      "constant": false,
      "inputs": [
        {
          "name": "_key",
          "type": "uint256"
        }
      ],
      "name": "claim",
      "outputs": [
        {
          "name": "",
          "type": "bool"
        }
      ],
      "payable": false,
      "stateMutability": "nonpayable",
      "type": "function"
    },
    {
      "constant": true,
      "inputs": [],
      "name": "prize_life_time",
      "outputs": [
        {
          "name": "",
          "type": "uint256"
        }
      ],
      "payable": false,
      "stateMutability": "view",
      "type": "function"
    },
    {
      "constant": false,
      "inputs": [],
      "name": "withdraw",
      "outputs": [],
      "payable": false,
      "stateMutability": "nonpayable",
      "type": "function"
    },
    {
      "constant": false,
      "inputs": [
        {
          "name": "_hashes",
          "type": "uint256[]"
        }
      ],
      "name": "revoke",
      "outputs": [],
      "payable": false,
      "stateMutability": "nonpayable",
      "type": "function"
    },
    {
      "constant": true,
      "inputs": [],
      "name": "prize_price",
      "outputs": [
        {
          "name": "",
          "type": "uint256"
        }
      ],
      "payable": false,
      "stateMutability": "view",
      "type": "function"
    },
    {
      "constant": true,
      "inputs": [],
      "name": "owner",
      "outputs": [
        {
          "name": "",
          "type": "address"
        }
      ],
      "payable": false,
      "stateMutability": "view",
      "type": "function"
    },
    {
      "constant": false,
      "inputs": [
        {
          "name": "_prize_tokens",
          "type": "uint256"
        }
      ],
      "name": "set_prize_tokens",
      "outputs": [],
      "payable": false,
      "stateMutability": "nonpayable",
      "type": "function"
    },
    {
      "constant": false,
      "inputs": [
        {
          "name": "_newOwner",
          "type": "address"
        }
      ],
      "name": "changeOwner",
      "outputs": [],
      "payable": false,
      "stateMutability": "nonpayable",
      "type": "function"
    },
    {
      "constant": false,
      "inputs": [
        {
          "name": "_dev_commission",
          "type": "uint256"
        },
        {
          "name": "_owner_commission",
          "type": "uint256"
        },
        {
          "name": "_issuer_commission",
          "type": "uint256"
        }
      ],
      "name": "set_payouts",
      "outputs": [],
      "payable": false,
      "stateMutability": "nonpayable",
      "type": "function"
    },
    {
      "constant": false,
      "inputs": [
        {
          "name": "_key",
          "type": "uint256"
        },
        {
          "name": "_winner",
          "type": "address"
        }
      ],
      "name": "claim_winner",
      "outputs": [
        {
          "name": "",
          "type": "bool"
        }
      ],
      "payable": false,
      "stateMutability": "nonpayable",
      "type": "function"
    },
    {
      "constant": false,
      "inputs": [
        {
          "name": "_prize_price",
          "type": "uint256"
        }
      ],
      "name": "set_prize_price",
      "outputs": [],
      "payable": false,
      "stateMutability": "nonpayable",
      "type": "function"
    },
    {
      "constant": true,
      "inputs": [
        {
          "name": "_key",
          "type": "uint256"
        }
      ],
      "name": "key_hash256",
      "outputs": [
        {
          "name": "",
          "type": "uint256"
        }
      ],
      "payable": false,
      "stateMutability": "view",
      "type": "function"
    },
    {
      "constant": true,
      "inputs": [
        {
          "name": "",
          "type": "uint256"
        }
      ],
      "name": "prizes",
      "outputs": [
        {
          "name": "issuer",
          "type": "address"
        },
        {
          "name": "owner",
          "type": "address"
        },
        {
          "name": "tokens",
          "type": "uint256"
        },
        {
          "name": "value",
          "type": "uint256"
        },
        {
          "name": "expiration",
          "type": "uint256"
        }
      ],
      "payable": false,
      "stateMutability": "view",
      "type": "function"
    },
    {
      "constant": true,
      "inputs": [
        {
          "name": "",
          "type": "address"
        }
      ],
      "name": "pendingWithdrawals",
      "outputs": [
        {
          "name": "",
          "type": "uint256"
        }
      ],
      "payable": false,
      "stateMutability": "view",
      "type": "function"
    },
    {
      "constant": true,
      "inputs": [],
      "name": "controller",
      "outputs": [
        {
          "name": "",
          "type": "address"
        }
      ],
      "payable": false,
      "stateMutability": "view",
      "type": "function"
    },
    {
      "constant": true,
      "inputs": [],
      "name": "token",
      "outputs": [
        {
          "name": "",
          "type": "address"
        }
      ],
      "payable": false,
      "stateMutability": "view",
      "type": "function"
    },
    {
      "inputs": [
        {
          "name": "_token",
          "type": "address"
        },
        {
          "name": "_controller",
          "type": "address"
        },
        {
          "name": "_prize_life_time",
          "type": "uint256"
        },
        {
          "name": "_prize_tokens",
          "type": "uint256"
        },
        {
          "name": "_prize_price",
          "type": "uint256"
        },
        {
          "name": "_dev_commission",
          "type": "uint256"
        },
        {
          "name": "_owner_commission",
          "type": "uint256"
        },
        {
          "name": "_issuer_commission",
          "type": "uint256"
        }
      ],
      "payable": false,
      "stateMutability": "nonpayable",
      "type": "constructor"
    },
    {
      "anonymous": false,
      "inputs": [
        {
          "indexed": true,
          "name": "issuer",
          "type": "address"
        },
        {
          "indexed": true,
          "name": "owner",
          "type": "address"
        },
        {
          "indexed": false,
          "name": "hash",
          "type": "uint256"
        },
        {
          "indexed": false,
          "name": "tokens",
          "type": "uint256"
        },
        {
          "indexed": false,
          "name": "value",
          "type": "uint256"
        },
        {
          "indexed": false,
          "name": "expiration",
          "type": "uint256"
        }
      ],
      "name": "Issue",
      "type": "event"
    },
    {
      "anonymous": false,
      "inputs": [
        {
          "indexed": true,
          "name": "issuer",
          "type": "address"
        },
        {
          "indexed": true,
          "name": "owner",
          "type": "address"
        },
        {
          "indexed": true,
          "name": "winner",
          "type": "address"
        },
        {
          "indexed": false,
          "name": "hash",
          "type": "uint256"
        },
        {
          "indexed": false,
          "name": "tokens",
          "type": "uint256"
        },
        {
          "indexed": false,
          "name": "value",
          "type": "uint256"
        }
      ],
      "name": "Claim",
      "type": "event"
    },
    {
      "anonymous": false,
      "inputs": [
        {
          "indexed": true,
          "name": "issuer",
          "type": "address"
        },
        {
          "indexed": true,
          "name": "owner",
          "type": "address"
        },
        {
          "indexed": false,
          "name": "hash",
          "type": "uint256"
        },
        {
          "indexed": false,
          "name": "tokens",
          "type": "uint256"
        },
        {
          "indexed": false,
          "name": "value",
          "type": "uint256"
        }
      ],
      "name": "Revoke",
      "type": "event"
    }
  ],
  "bytecode": "0x6060604052341561000f57600080fd5b60405161010080610f77833981016040528080519190602001805191906020018051919060200180519190602001805191906020018051919060200180519190602001805160008054600160a060020a03191633600160a060020a0390811691909117909155909250899150889088908316151561008c57600080fd5b600160a060020a03821615156100a157600080fd5b600081116100ae57600080fd5b60018054600160a060020a03948516600160a060020a0319918216179091556002805493909416921691909117909155600355600084116100ee57600080fd5b600085116100fb57600080fd5b600693909355600793909355600855600991909155600a55505050610e52806101256000396000f3006060604052600436106100e25763ffffffff60e060020a6000350416631b29018981146100e7578063247f216b1461010c578063379607f514610152578063389bd2531461017c5780633ccfd60b1461018f578063420b3bd1146101a25780635ee0d8fc146101f15780638da5cb5b146102045780639313d65014610233578063a6f9dae114610249578063b71a3f4614610268578063dae2939c14610284578063db1eacb4146102a6578063e2dc19cb146102bc578063eccb3a4f146102d2578063f3f4370314610322578063f77c479114610341578063fc0c546a14610354575b600080fd5b34156100f257600080fd5b6100fa610367565b60405190815260200160405180910390f35b610150600460248135818101908301358060208181020160405190810160405280939291908181526020018383602002808284375094965061036d95505050505050565b005b341561015d57600080fd5b610168600435610698565b604051901515815260200160405180910390f35b341561018757600080fd5b6100fa6106aa565b341561019a57600080fd5b6101506106b0565b34156101ad57600080fd5b610150600460248135818101908301358060208181020160405190810160405280939291908181526020018383602002808284375094965061070795505050505050565b34156101fc57600080fd5b6100fa6107d6565b341561020f57600080fd5b6102176107dc565b604051600160a060020a03909116815260200160405180910390f35b341561023e57600080fd5b6101506004356107eb565b341561025457600080fd5b610150600160a060020a036004351661080b565b341561027357600080fd5b610150600435602435604435610855565b341561028f57600080fd5b610168600435600160a060020a036024351661087e565b34156102b157600080fd5b6101506004356109e9565b34156102c757600080fd5b6100fa600435610a09565b34156102dd57600080fd5b6102e8600435610a78565b604051600160a060020a0395861681529390941660208401526040808401929092526060830152608082019290925260a001905180910390f35b341561032d57600080fd5b6100fa600160a060020a0360043516610ab4565b341561034c57600080fd5b610217610ac6565b341561035f57600080fd5b610217610ad5565b60075481565b6000806000806000806006543481151561038357fe5b049550865186111561039457865195505b600086116103a157600080fd5b6103ad86600754610ae4565b600254909550600160a060020a03166307fe1b61308760006040516020015260405160e060020a63ffffffff8516028152600160a060020a0390921660048301526024820152604401602060405180830381600087803b151561040f57600080fd5b6102c65a03f1151561042057600080fd5b5050506040518051945050600160a060020a038416151561044057600080fd5b600154600160a060020a03166323b872dd85308860006040516020015260405160e060020a63ffffffff8616028152600160a060020a0393841660048201529190921660248201526044810191909152606401602060405180830381600087803b15156104ac57600080fd5b6102c65a03f115156104bd57600080fd5b5050506040518051905015156104d257600080fd5b6104e7346104e288600654610ae4565b610b1a565b9250600083111561051157600160a060020a03331660009081526005602052604090208054840190555b5050600354420160005b8581101561068f5760a06040519081016040528033600160a060020a0316815260200185600160a060020a0316815260200160075481526020016006548152602001838152506004600089848151811061057157fe5b9060200190602002015181526020019081526020016000206000820151815473ffffffffffffffffffffffffffffffffffffffff1916600160a060020a0391909116178155602082015160018201805473ffffffffffffffffffffffffffffffffffffffff1916600160a060020a039290921691909117905560408201518160020155606082015181600301556080820151816004015590505083600160a060020a031633600160a060020a03167fb0a73fdcdba556764570fd9b88fc745d32a9aaf30f046c5aeccd0bf9cc99271c89848151811061064c57fe5b90602001906020020151600754600654876040518085815260200184815260200183815260200182815260200194505050505060405180910390a360010161051b565b50505050505050565b60006106a4823361087e565b92915050565b60035481565b600160a060020a0333166000908152600560205260408120805490829055908111156107045733600160a060020a03168160405160006040518083038185876187965a03f192505050151561070457600080fd5b50565b6000805b82518210156107d1576004600084848151811061072457fe5b9060200190602002015181526020019081526020016000209050806004015442118061075d5750805433600160a060020a039081169116145b156107c6576107c68160a060405190810160409081528254600160a060020a03908116835260018401541660208301526002830154908201526003820154606082015260049091015460808201528484815181106107b757fe5b90602001906020020151610b2c565b60019091019061070b565b505050565b60065481565b600054600160a060020a031681565b60005433600160a060020a0390811691161461080657600080fd5b600755565b60005433600160a060020a0390811691161461082657600080fd5b6000805473ffffffffffffffffffffffffffffffffffffffff1916600160a060020a0392909216919091179055565b60005433600160a060020a0390811691161461087057600080fd5b600892909255600955600a55565b600080600061088c85610a09565b600081815260046020526040902060018101549193509150600160a060020a031615156108b857600080fd5b806004015442111561091c576109138160a060405190810160409081528254600160a060020a039081168352600184015416602083015260028301549082015260038201546060820152600490910154608082015283610b2c565b600092506109e1565b6109268185610ca5565b6001810154815460028301546003840154600160a060020a038089169481169316917fe13b9fd454ff56d3db734a68636b9b52734a6006abb5a3c2600faab1e3d5579d9187919060405180848152602001838152602001828152602001935050505060405180910390a460008281526004602081905260408220805473ffffffffffffffffffffffffffffffffffffffff19908116825560018083018054909216909155600282018490556003820184905591019190915592505b505092915050565b60005433600160a060020a03908116911614610a0457600080fd5b600655565b6000600282306000604051602001526040518083815260200182600160a060020a0316600160a060020a03166c010000000000000000000000000281526014019250505060206040518083038160008661646e5a03f11515610a6a57600080fd5b505060405180519392505050565b600460208190526000918252604090912080546001820154600283015460038401549390940154600160a060020a039283169492909116929085565b60056020526000908152604090205481565b600254600160a060020a031681565b600154600160a060020a031681565b600080831515610af75760009150610b13565b50828202828482811515610b0757fe5b0414610b0f57fe5b8091505b5092915050565b600082821115610b2657fe5b50900390565b600154600160a060020a031663a9059cbb6020840151846040015160006040516020015260405160e060020a63ffffffff8516028152600160a060020a0390921660048301526024820152604401602060405180830381600087803b1515610b9357600080fd5b6102c65a03f11515610ba457600080fd5b505050604051805190501515610bb957600080fd5b600082606001511115610bf2578160600151600560008451600160a060020a031681526020810191909152604001600020805490910190555b8160200151600160a060020a03168251600160a060020a03167f532dc55aa2b2368c1b55b7b1ffe159f8d19732791960257d75711389e84fa683838560400151866060015160405180848152602001838152602001828152602001935050505060405180910390a360009081526004602081905260408220805473ffffffffffffffffffffffffffffffffffffffff19908116825560018201805490911690556002810183905560038101839055015550565b60018054908301546002840154600092839283928392600160a060020a039081169263a9059cbb92911690846040516020015260405160e060020a63ffffffff8516028152600160a060020a0390921660048301526024820152604401602060405180830381600087803b1515610d1b57600080fd5b6102c65a03f11515610d2c57600080fd5b505050604051805190501515610d4157600080fd5b856003015493506064610d5685600854610ae4565b811515610d5f57fe5b60008054600160a060020a031681526005602052604090208054929091049182019055600954909350606490610d96908690610ae4565b811515610d9f57fe5b6001880154600160a060020a031660009081526005602052604090208054929091049182019055600a54909250606490610dda908690610ae4565b811515610de357fe5b9654600160a060020a03908116600090815260056020526040808220805494909a04938401909955961686529590942080549290910190940190910301909155505600a165627a7a72305820ab9244efc8d6291da4953878f08a5d2cbd9ca5bc628df4213d548434fa52f9880029",
  "source": "pragma solidity ^0.4.11;\n\n\nimport \"./Game.sol\";\n\n/**\n * @title RevShareGame\n * @dev RevShareGame is a contract to perform the game with Ether payout to winner, game owner, issuer and token holder\n * in persentages.\n *\n * Look Game contract on the rule games. In the RevShareGame, issuing prizes happens on fixed prize price,\n * setup by game developer.\n *\n * @author Aleksey Studnev <studnev@izx.io>\n */\ncontract RevShareGame is Game {\n\n    uint256 public prize_price; // price of the single issuance of the prize in wei\n    uint256 public prize_tokens; // amount of tokens in one prize\n    uint256 dev_commission;     // commission in percentage, payed to game owner (developer)\n    uint256 owner_commission;   // commission in percentage, payed to tokens holder\n    uint256 issuer_commission;  // commission in percentage, payed to issuer\n\n    /// @notice RevShareGame constructor. Called by game owner (\"developer\")\n    /// @param _token ERC20 token, used in game, not 0\n    /// @param _controller GameController, used to controlled token allowances, not 0\n    /// @param _prize_life_time time from prize creation to expiration in seconds\n    /// @param _prize_tokens amount of tokens in one prize\n    /// @param _prize_price price of the single issuance of the prize in wei\n    /// @param _dev_commission commission in percentage, payed to game owner (developer)\n    /// @param _owner_commission commission in percentage, payed to tokens holder\n    /// @param _issuer_commission commission in percentage, payed to issuer\n    function RevShareGame( ERC20 _token,\n                        GameController _controller,\n                        uint256 _prize_life_time,\n                        uint256 _prize_tokens,\n                        uint256 _prize_price,\n                        uint256 _dev_commission,\n                        uint256 _owner_commission,\n                        uint256 _issuer_commission\n                        )\n        Game(_token, _controller, _prize_life_time) public {\n\n        require( _prize_price > 0 );\n        require( _prize_tokens > 0 );\n\n        prize_price = _prize_price;\n        prize_tokens = _prize_tokens;\n        dev_commission = _dev_commission;\n        owner_commission = _owner_commission;\n        issuer_commission = _issuer_commission;\n\n    }\n\n    /// @notice issue prizes using approved tokens from token owners and based on token price specified\n    /// @param _hashes array of hashes to setup prizes\n    function issue(uint256[] _hashes) payable public {\n\n        uint256 prize_count = msg.value / prize_price;\n        if(prize_count > _hashes.length){\n            prize_count = _hashes.length;\n        }\n\n        require(prize_count>0);\n\n        uint256 total_tokens = mul(prize_count, prize_tokens);\n        address tokens_owner = controller.amount_owner(this, total_tokens );\n\n        require( tokens_owner!=address(0) );\n        require( token.transferFrom(tokens_owner, this, total_tokens) );\n\n        uint256 change = sub(msg.value, mul(prize_count, prize_price));\n        if(change>0){\n            pendingWithdrawals[msg.sender] += change;\n        }\n\n        uint256 expired_at = now + prize_life_time;\n        for(uint i=0;i<prize_count;i++){\n            prizes[_hashes[i]] = Prize(msg.sender, tokens_owner, prize_tokens, prize_price, expired_at);\n            Issue(msg.sender, tokens_owner, _hashes[i], prize_tokens, prize_price, expired_at);\n        }\n    }\n\n     function set_prize_tokens(uint256 _prize_tokens) onlyOwner public {\n        prize_tokens = _prize_tokens;\n     }\n\n     function set_prize_price(uint256 _prize_price) onlyOwner public {\n        prize_price = _prize_price;\n     }\n     \n     function set_payouts(uint256 _dev_commission, uint256 _owner_commission, uint256 _issuer_commission) onlyOwner public {\n        dev_commission = _dev_commission;\n        owner_commission = _owner_commission;\n        issuer_commission = _issuer_commission;\n     }\n\n\n    function payout(Prize storage _prize, address _winner) internal {\n        require(token.transfer(_prize.owner, _prize.tokens));\n        uint256 total = _prize.value;\n\n        uint256 dev_commission_amount = mul(total, dev_commission) / 100;\n        pendingWithdrawals[owner] += dev_commission_amount;\n\n        uint256 owner_commission_amount = mul(total, owner_commission) / 100;\n        pendingWithdrawals[_prize.owner] += owner_commission_amount;\n\n        uint256 issuer_commission_amount = mul(total, issuer_commission) / 100;\n        pendingWithdrawals[_prize.issuer] += issuer_commission_amount;\n\n        pendingWithdrawals[_winner] += total - (dev_commission_amount + owner_commission_amount + issuer_commission_amount);\n    }\n\n}",
  "sourcePath": "/Users/studnev/dev4bc/contracts/contracts/game/RevShareGame.sol",
  "compiler": {
    "name": "solc",
    "version": "0.4.18+commit.9cf6e910.Emscripten.clang"
  },
  "schemaVersion": "1.0.1",
  "updatedAt": "2018-01-07T10:14:16.898Z"
}