{
  "contractName": "TokenDriver",
  "abi": [
    {
      "constant": true,
      "inputs": [],
      "name": "candidate_wins",
      "outputs": [
        {
          "name": "",
          "type": "bool"
        }
      ],
      "payable": false,
      "stateMutability": "view",
      "type": "function"
    },
    {
      "constant": false,
      "inputs": [
        {
          "name": "_candidate",
          "type": "address"
        },
        {
          "name": "_finishes_at",
          "type": "uint256"
        }
      ],
      "name": "startVoting",
      "outputs": [],
      "payable": false,
      "stateMutability": "nonpayable",
      "type": "function"
    },
    {
      "constant": false,
      "inputs": [],
      "name": "withdraw",
      "outputs": [],
      "payable": false,
      "stateMutability": "nonpayable",
      "type": "function"
    },
    {
      "constant": false,
      "inputs": [
        {
          "name": "_newController",
          "type": "address"
        }
      ],
      "name": "changeController",
      "outputs": [],
      "payable": false,
      "stateMutability": "nonpayable",
      "type": "function"
    },
    {
      "constant": false,
      "inputs": [
        {
          "name": "_from",
          "type": "address"
        },
        {
          "name": "_to",
          "type": "address"
        },
        {
          "name": "_amount",
          "type": "uint256"
        }
      ],
      "name": "onTransfer",
      "outputs": [
        {
          "name": "",
          "type": "bool"
        }
      ],
      "payable": false,
      "stateMutability": "nonpayable",
      "type": "function"
    },
    {
      "constant": true,
      "inputs": [],
      "name": "min_voting_duration",
      "outputs": [
        {
          "name": "",
          "type": "uint256"
        }
      ],
      "payable": false,
      "stateMutability": "view",
      "type": "function"
    },
    {
      "constant": true,
      "inputs": [],
      "name": "candidate",
      "outputs": [
        {
          "name": "",
          "type": "address"
        }
      ],
      "payable": false,
      "stateMutability": "view",
      "type": "function"
    },
    {
      "constant": true,
      "inputs": [],
      "name": "finishes_at",
      "outputs": [
        {
          "name": "",
          "type": "uint256"
        }
      ],
      "payable": false,
      "stateMutability": "view",
      "type": "function"
    },
    {
      "constant": false,
      "inputs": [
        {
          "name": "_from",
          "type": "address"
        },
        {
          "name": "_amount",
          "type": "uint256"
        }
      ],
      "name": "register_deposit",
      "outputs": [],
      "payable": false,
      "stateMutability": "nonpayable",
      "type": "function"
    },
    {
      "constant": true,
      "inputs": [
        {
          "name": "",
          "type": "address"
        }
      ],
      "name": "allowed_contracts",
      "outputs": [
        {
          "name": "",
          "type": "bool"
        }
      ],
      "payable": false,
      "stateMutability": "view",
      "type": "function"
    },
    {
      "constant": true,
      "inputs": [],
      "name": "voices_counted",
      "outputs": [
        {
          "name": "",
          "type": "bool"
        }
      ],
      "payable": false,
      "stateMutability": "view",
      "type": "function"
    },
    {
      "constant": false,
      "inputs": [
        {
          "name": "_token",
          "type": "address"
        },
        {
          "name": "_lifetime",
          "type": "uint256"
        },
        {
          "name": "_token_price",
          "type": "uint256"
        },
        {
          "name": "_host_share",
          "type": "uint256"
        }
      ],
      "name": "createCampaign",
      "outputs": [],
      "payable": false,
      "stateMutability": "nonpayable",
      "type": "function"
    },
    {
      "constant": true,
      "inputs": [],
      "name": "votingInProgress",
      "outputs": [
        {
          "name": "",
          "type": "bool"
        }
      ],
      "payable": false,
      "stateMutability": "view",
      "type": "function"
    },
    {
      "constant": false,
      "inputs": [
        {
          "name": "",
          "type": "address"
        },
        {
          "name": "_spender",
          "type": "address"
        },
        {
          "name": "",
          "type": "uint256"
        }
      ],
      "name": "onApprove",
      "outputs": [
        {
          "name": "",
          "type": "bool"
        }
      ],
      "payable": false,
      "stateMutability": "nonpayable",
      "type": "function"
    },
    {
      "constant": true,
      "inputs": [],
      "name": "max_voting_duration",
      "outputs": [
        {
          "name": "",
          "type": "uint256"
        }
      ],
      "payable": false,
      "stateMutability": "view",
      "type": "function"
    },
    {
      "constant": false,
      "inputs": [
        {
          "name": "",
          "type": "address"
        }
      ],
      "name": "proxyPayment",
      "outputs": [
        {
          "name": "",
          "type": "bool"
        }
      ],
      "payable": true,
      "stateMutability": "payable",
      "type": "function"
    },
    {
      "constant": false,
      "inputs": [
        {
          "name": "_token",
          "type": "address"
        },
        {
          "name": "_host_share",
          "type": "uint256"
        }
      ],
      "name": "createAuction",
      "outputs": [],
      "payable": false,
      "stateMutability": "nonpayable",
      "type": "function"
    },
    {
      "constant": false,
      "inputs": [],
      "name": "finishVoting",
      "outputs": [],
      "payable": false,
      "stateMutability": "nonpayable",
      "type": "function"
    },
    {
      "constant": true,
      "inputs": [],
      "name": "token",
      "outputs": [
        {
          "name": "",
          "type": "address"
        }
      ],
      "payable": false,
      "stateMutability": "view",
      "type": "function"
    },
    {
      "constant": true,
      "inputs": [
        {
          "name": "",
          "type": "address"
        }
      ],
      "name": "deposits",
      "outputs": [
        {
          "name": "",
          "type": "uint256"
        }
      ],
      "payable": false,
      "stateMutability": "view",
      "type": "function"
    },
    {
      "inputs": [
        {
          "name": "_token",
          "type": "address"
        },
        {
          "name": "_min_voting_duration",
          "type": "uint256"
        },
        {
          "name": "_max_voting_duration",
          "type": "uint256"
        }
      ],
      "payable": false,
      "stateMutability": "nonpayable",
      "type": "constructor"
    },
    {
      "anonymous": false,
      "inputs": [
        {
          "indexed": true,
          "name": "token",
          "type": "address"
        },
        {
          "indexed": true,
          "name": "auction",
          "type": "address"
        }
      ],
      "name": "NewAuction",
      "type": "event"
    },
    {
      "anonymous": false,
      "inputs": [
        {
          "indexed": true,
          "name": "token",
          "type": "address"
        },
        {
          "indexed": true,
          "name": "campaign",
          "type": "address"
        }
      ],
      "name": "NewCampaign",
      "type": "event"
    },
    {
      "anonymous": false,
      "inputs": [
        {
          "indexed": true,
          "name": "token",
          "type": "address"
        },
        {
          "indexed": true,
          "name": "new_driver",
          "type": "address"
        }
      ],
      "name": "NewTokenDriver",
      "type": "event"
    },
    {
      "anonymous": false,
      "inputs": [
        {
          "indexed": true,
          "name": "candidate",
          "type": "address"
        },
        {
          "indexed": true,
          "name": "token",
          "type": "address"
        },
        {
          "indexed": false,
          "name": "finishes_at",
          "type": "uint256"
        }
      ],
      "name": "VotingStarted",
      "type": "event"
    },
    {
      "anonymous": false,
      "inputs": [
        {
          "indexed": true,
          "name": "candidate",
          "type": "address"
        },
        {
          "indexed": true,
          "name": "token",
          "type": "address"
        },
        {
          "indexed": false,
          "name": "candidate_wins",
          "type": "bool"
        },
        {
          "indexed": false,
          "name": "voices_pro",
          "type": "uint256"
        },
        {
          "indexed": false,
          "name": "voices_cons",
          "type": "uint256"
        }
      ],
      "name": "VotingCompleted",
      "type": "event"
    }
  ],
  "bytecode": "0x6060604052341561000f57600080fd5b6040516060806125fe83398101604052808051919060200180519190602001805191508390508282600160a060020a038316151561004c57600080fd5b8181101561005957600080fd5b6000811161006657600080fd5b60008054600160a060020a03909416600160a060020a03199094169390931790925560015560025550505061255e806100a06000396000f3006060604052600436106200010d5763ffffffff60e060020a6000350416631ccb52558114620001125780632d9375a3146200013c5780633ccfd60b14620001635780633cebb82314620001795780634a393149146200019b578063643cf14214620001c65780636c8381f814620001ee578063712c8b46146200022057806374024a4314620002365780637adbf096146200025b578063c034a1fb146200027d578063ca59f2e41462000293578063d5e6879d14620002be578063da682aeb14620002d4578063ee10b08114620002ff578063f48c30541462000315578063f7e88298146200032b578063f90943031462000350578063fc0c546a1462000366578063fc7e286d146200037c575b600080fd5b34156200011e57600080fd5b620001286200039e565b604051901515815260200160405180910390f35b34156200014857600080fd5b62000161600160a060020a0360043516602435620003ac565b005b34156200016f57600080fd5b620001616200054e565b34156200018557600080fd5b62000161600160a060020a036004351662000609565b3415620001a757600080fd5b62000128600160a060020a03600435811690602435166044356200071c565b3415620001d257600080fd5b620001dc6200082d565b60405190815260200160405180910390f35b3415620001fa57600080fd5b6200020462000833565b604051600160a060020a03909116815260200160405180910390f35b34156200022c57600080fd5b620001dc62000842565b34156200024257600080fd5b62000161600160a060020a036004351660243562000848565b34156200026757600080fd5b62000128600160a060020a036004351662000933565b34156200028957600080fd5b6200012862000948565b34156200029f57600080fd5b62000161600160a060020a036004351660243560443560643562000951565b3415620002ca57600080fd5b6200012862000a07565b3415620002e057600080fd5b62000128600160a060020a036004358116906024351660443562000a2c565b34156200030b57600080fd5b620001dc62000a9d565b62000128600160a060020a036004351662000aa3565b34156200033757600080fd5b62000161600160a060020a036004351660243562000ac8565b34156200035c57600080fd5b6200016162000b6d565b34156200037257600080fd5b6200020462000d2d565b34156200038857600080fd5b620001dc600160a060020a036004351662000d3c565b600554610100900460ff1681565b600354600160a060020a031615620003f5576004544211620003cd57600080fd5b60055460ff161515620003df57600080fd5b600554610100900460ff1615620003f557600080fd5b600160a060020a03821615156200040b57600080fd5b60008054600160a060020a03908116919084169063fc0c546a90604051602001526040518163ffffffff1660e060020a028152600401602060405180830381600087803b15156200045b57600080fd5b6102c65a03f115156200046d57600080fd5b50505060405180519050600160a060020a03161415156200048d57600080fd5b600154620004a390429063ffffffff62000d4e16565b811015620004b057600080fd5b600254620004c690429063ffffffff62000d4e16565b811115620004d357600080fd5b6003805473ffffffffffffffffffffffffffffffffffffffff1916600160a060020a03848116919091179182905560048390556005805460ff19169055600054811691167f68d3bd4df5e14f4c5f4a1110f8c2d3b5a9f7f3ba31ec9a2ef7ae0fcd3d0027b58360405190815260200160405180910390a35050565b600160a060020a0333166000908152600760205260408120549081116200057457600080fd5b600160a060020a033381811660009081526007602052604080822082905581549093169263a9059cbb92918591516020015260405160e060020a63ffffffff8516028152600160a060020a0390921660048301526024820152604401602060405180830381600087803b1515620005ea57600080fd5b6102c65a03f11515620005fc57600080fd5b5050506040518051505050565b6003548190600160a060020a031615156200062357600080fd5b600354600160a060020a038281169116146200063e57600080fd5b60045442116200064d57600080fd5b60055460ff1615156200065f57600080fd5b600554610100900460ff1615156200067657600080fd5b600054600160a060020a0316633cebb8238360405160e060020a63ffffffff8416028152600160a060020a039091166004820152602401600060405180830381600087803b1515620006c757600080fd5b6102c65a03f11515620006d957600080fd5b5050600054600160a060020a038085169250167f53b878b7ffe941b32bc93948feae31d5904556da79774e109a54ee809755387860405160405180910390a35050565b6000805433600160a060020a039081169116146200073957600080fd5b30600160a060020a031683600160a060020a03161480620007675750600354600160a060020a038481169116145b80156200077957506200077962000a07565b15620007f35782600160a060020a03166374024a43858460405160e060020a63ffffffff8516028152600160a060020a0390921660048301526024820152604401600060405180830381600087803b1515620007d457600080fd5b6102c65a03f11515620007e657600080fd5b5050506001905062000826565b620007fe8362000d5e565b1580620008235750600160a060020a03831660009081526006602052604090205460ff165b90505b9392505050565b60015481565b600354600160a060020a031681565b60045481565b60005433600160a060020a0390811691161480620008dc575060008054600160a060020a03169063f77c479190604051602001526040518163ffffffff1660e060020a028152600401602060405180830381600087803b1515620008ab57600080fd5b6102c65a03f11515620008bd57600080fd5b50505060405180519050600160a060020a031633600160a060020a0316145b1515620008e857600080fd5b600160a060020a03821660009081526007602052604090205462000913908263ffffffff62000d4e16565b600160a060020a0390921660009081526007602052604090209190915550565b60066020526000908152604090205460ff1681565b60055460ff1681565b600033858585856200096262000d8d565b600160a060020a0395861681529390941660208401526040808401929092526060830152608082019290925260a0019051809103906000f0801515620009a757600080fd5b600160a060020a0380821660008181526006602052604090819020805460ff1916600117905592935091908716907f80be4dbaa03bc00a19589f5317f3a2e53d819bed4d9a72fb2daa707b31360e1b905160405180910390a35050505050565b600354600090600160a060020a03161580159062000a2757506004544211155b905090565b6000805433600160a060020a0390811691161462000a4957600080fd5b62000a548362000d5e565b158062000a795750600160a060020a03831660009081526006602052604090205460ff165b8062000823575030600160a060020a031683600160a060020a031614949350505050565b60025481565b6000805433600160a060020a0390811691161462000ac057600080fd5b506000919050565b600033838362000ad762000d9e565b600160a060020a0393841681529190921660208201526040808201929092526060019051809103906000f080151562000b0f57600080fd5b600160a060020a0380821660008181526006602052604090819020805460ff1916600117905592935091908516907f3d7974c32ce472d784c795bc3d4465e0b7d5d323530e5bd66c1e93586f22179f905160405180910390a3505050565b6003546000908190600160a060020a0316151562000b8a57600080fd5b600454421162000b9957600080fd5b60055460ff161562000baa57600080fd5b60008054600160a060020a0316906370a082319030906040516020015260405160e060020a63ffffffff8416028152600160a060020a039091166004820152602401602060405180830381600087803b151562000c0657600080fd5b6102c65a03f1151562000c1857600080fd5b505050604051805160008054600354929550600160a060020a0390811693506370a082319216906040516020015260405160e060020a63ffffffff8416028152600160a060020a039091166004820152602401602060405180830381600087803b151562000c8557600080fd5b6102c65a03f1151562000c9757600080fd5b50505060405180516005805460ff19610100878511810261ff0019909316929092171660011791829055600054600354939550600160a060020a03908116945092909216917f496c2feeb608a621b3a48ee8fd54b105c8f021d965523fa295de4dcf82034d08910460ff168486604051921515835260208301919091526040808301919091526060909101905180910390a35050565b600054600160a060020a031681565b60076020526000908152604090205481565b6000828201838110156200082657fe5b600080600160a060020a038316151562000d7c576000915062000d87565b823b90506000811191505b50919050565b604051610bc08062000db083390190565b604051610bc380620019708339019056006060604052341561000f57600080fd5b60405160a080610bc08339810160405280805191906020018051919060200180519190602001805191906020018051915050600160a060020a038416151561005657600080fd5b6000831161006357600080fd5b6000821161007057600080fd5b606481111561007e57600080fd5b60008054600160a060020a03191633600160a060020a0390811691909117808355169063fc0c546a90604051602001526040518163ffffffff167c0100000000000000000000000000000000000000000000000000000000028152600401602060405180830381600087803b15156100f557600080fd5b6102c65a03f1151561010657600080fd5b505050604051805160028054600160a060020a0319908116600160a060020a0393841617909155600180548216888416179055600380549091169188169190911790555060048390556005829055606461016d82846401000000006101a2810261095e1704565b81151561017657fe5b0460078190556101949083906401000000006109896101d882021704565b600655506101ea9350505050565b6000808315156101b557600091506101d1565b508282028284828115156101c557fe5b04146101cd57fe5b8091505b5092915050565b6000828211156101e457fe5b50900390565b6109c7806101f96000396000f3006060604052600436106100a05763ffffffff60e060020a600035041663284084f981146100a55780632dabbeed146100d45780633dfbfd4c146100ec57806369d24f63146101115780636ecc5d62146101245780637b4fd96e14610137578063a3908e1b1461014a578063ddd5e1b214610160578063e5ebccf414610182578063eccb3a4f14610195578063f437bc59146101d8578063f9a1095c146101eb575b600080fd5b34156100b057600080fd5b6100b86101fe565b604051600160a060020a03909116815260200160405180910390f35b34156100df57600080fd5b6100ea60043561020d565b005b34156100f757600080fd5b6100ff6103e5565b60405190815260200160405180910390f35b341561011c57600080fd5b6100ff6103eb565b341561012f57600080fd5b6100b86103f1565b341561014257600080fd5b6100ff610400565b341561015557600080fd5b6100ea600435610406565b341561016b57600080fd5b6100ea600435600160a060020a036024351661066d565b341561018d57600080fd5b6100b86108f2565b34156101a057600080fd5b6101ab600435610901565b604051600160a060020a039384168152919092166020820152604080820192909252606001905180910390f35b34156101e357600080fd5b6100b861092f565b34156101f657600080fd5b6100ff61093e565b600254600160a060020a031681565b60008181526008602052604081206001810154909190819033600160a060020a03908116911614806102425750826002015442115b151561024d57600080fd5b505080546001808301549054600160a060020a0392831692918216911663a9059cbb828660405160e060020a63ffffffff8516028152600160a060020a0390921660048301526024820152604401600060405180830381600087803b15156102b457600080fd5b6102c65a03f115156102c557600080fd5b5050600254600554600160a060020a03909116915063a9059cbb90849060006040516020015260405160e060020a63ffffffff8516028152600160a060020a0390921660048301526024820152604401602060405180830381600087803b151561032e57600080fd5b6102c65a03f1151561033f57600080fd5b50505060405180519050151561035457600080fd5b600084815260086020526040808220805473ffffffffffffffffffffffffffffffffffffffff199081168255600180830180549092169091556002909101929092559054600160a060020a038481169284821692909116907fd298734636572fc109667e04fc766ff33d5050996ff25165a0f3f8ec0f2a15779088905190815260200160405180910390a450505050565b60075481565b60045481565b600054600160a060020a031681565b60055481565b6000818152600860205260408120805490919033600160a060020a0390811691161461043157600080fd5b5060018082015490548254600160a060020a03928316929182169163a9059cbb91168560405160e060020a63ffffffff8516028152600160a060020a0390921660048301526024820152604401600060405180830381600087803b151561049757600080fd5b6102c65a03f115156104a857600080fd5b5050506000600654111561054257600254600654600160a060020a039091169063a9059cbb90839060006040516020015260405160e060020a63ffffffff8516028152600160a060020a0390921660048301526024820152604401602060405180830381600087803b151561051c57600080fd5b6102c65a03f1151561052d57600080fd5b50505060405180519050151561054257600080fd5b600060075411156105dc57600254600354600754600160a060020a039283169263a9059cbb92169060006040516020015260405160e060020a63ffffffff8516028152600160a060020a0390921660048301526024820152604401602060405180830381600087803b15156105b657600080fd5b6102c65a03f115156105c757600080fd5b5050506040518051905015156105dc57600080fd5b600083815260086020526040808220805473ffffffffffffffffffffffffffffffffffffffff19908116825560018083018054909216909155600290910192909255905433600160a060020a039081169284821692909116907ff98522c4d7ccb9de6d7bb8395a567bd90003fe876d577e4d0fd4b53e1ddfedf89087905190815260200160405180910390a4505050565b600154600160a060020a0316636352211e8360006040516020015260405160e060020a63ffffffff84160281526004810191909152602401602060405180830381600087803b15156106be57600080fd5b6102c65a03f115156106cf57600080fd5b50505060405180519050600160a060020a031633600160a060020a03161415156106f857600080fd5b600254600554600160a060020a03909116906323b872dd908390309060006040516020015260405160e060020a63ffffffff8616028152600160a060020a0393841660048201529190921660248201526044810191909152606401602060405180830381600087803b151561076c57600080fd5b6102c65a03f1151561077d57600080fd5b50505060405180519050151561079257600080fd5b600154600160a060020a031663b2e6ceeb8360405160e060020a63ffffffff84160281526004810191909152602401600060405180830381600087803b15156107da57600080fd5b6102c65a03f115156107eb57600080fd5b50505060606040519081016040528082600160a060020a0316815260200133600160a060020a0316815260200161082d6004544261094490919063ffffffff16565b905260008381526008602052604090208151815473ffffffffffffffffffffffffffffffffffffffff1916600160a060020a0391909116178155602082015160018201805473ffffffffffffffffffffffffffffffffffffffff1916600160a060020a0392909216919091179055604082015160029091015550600154600160a060020a038083169133821691167f913c992353dc81b7a8ba31496c484e9b6306bd2f6c509a649a38fdf5e1c953b28560405190815260200160405180910390a45050565b600154600160a060020a031681565b600860205260009081526040902080546001820154600290920154600160a060020a03918216929091169083565b600354600160a060020a031681565b60065481565b60008282018381101561095357fe5b8091505b5092915050565b6000808315156109715760009150610957565b5082820282848281151561098157fe5b041461095357fe5b60008282111561099557fe5b509003905600a165627a7a723058200f42351583d74d56887334b7ba294b76521a40049dd351adcc3c14074696053e00296060604052341561000f57600080fd5b604051606080610bc3833981016040528080519190602001805191906020018051915050600160a060020a038216151561004857600080fd5b606481111561005657600080fd5b60008054600160a060020a03191633600160a060020a0390811691909117808355169063fc0c546a90604051602001526040518163ffffffff167c0100000000000000000000000000000000000000000000000000000000028152600401602060405180830381600087803b15156100cd57600080fd5b6102c65a03f115156100de57600080fd5b505050604051805160028054600160a060020a0319908116600160a060020a0393841617909155600180548216958316959095179094556003805490941694169390931790915560045550610a8b806101386000396000f30060606040526004361061007f5763ffffffff60e060020a600035041663284084f981146100845780632e1a7d4d146100b35780633620875e146100cb57806358d3ceab146100ea578063598647f81461010f5780636ecc5d6214610128578063bfb231d21461013b578063e5ebccf414610193578063f437bc59146101a6575b600080fd5b341561008f57600080fd5b6100976101b9565b604051600160a060020a03909116815260200160405180910390f35b34156100be57600080fd5b6100c96004356101c8565b005b34156100d657600080fd5b6100c9600435602435604435606435610222565b34156100f557600080fd5b6100fd610412565b60405190815260200160405180910390f35b341561011a57600080fd5b6100c9600435602435610418565b341561013357600080fd5b61009761073f565b341561014657600080fd5b61015160043561074e565b604051600160a060020a0396871681529490951660208501526040808501939093526060840191909152608083015260a082019290925260c001905180910390f35b341561019e57600080fd5b610097610790565b34156101b157600080fd5b61009761079f565b600254600160a060020a031681565b6000818152600560205260409020600281015442116101e657600080fd5b6005810154600090116101f857600080fd5b80546001820154600583015461021e928592600160a060020a03918216929116906107ae565b5050565b600154600160a060020a0316636352211e8560006040516020015260405160e060020a63ffffffff84160281526004810191909152602401602060405180830381600087803b151561027357600080fd5b6102c65a03f1151561028457600080fd5b50505060405180519050600160a060020a031633600160a060020a03161415156102ad57600080fd5b828210156102ba57600080fd5b600081116102c757600080fd5b600084815260056020526040902054600160a060020a0316156102e957600080fd5b60c06040519081016040908152600160a060020a033316825260006020830152810161031b428463ffffffff610a0816565b81526020808201869052604080830186905260006060909301839052878352600590915290208151815473ffffffffffffffffffffffffffffffffffffffff1916600160a060020a0391909116178155602082015160018201805473ffffffffffffffffffffffffffffffffffffffff1916600160a060020a039290921691909117905560408201518160020155606082015181600301556080820151816004015560a082015160059091015550600154600160a060020a0333811691167f3f3483d0995db4c081e0101ef6753bef457833c20605cd871de61dcb48085a9a8660405190815260200160405180910390a350505050565b60045481565b6000828152600560205260409020600281015442901161043757600080fd5b6005810154821161044757600080fd5b600381015482101561045857600080fd5b6001810154600160a060020a031615156104cd57600154600160a060020a031663b2e6ceeb8460405160e060020a63ffffffff84160281526004810191909152602401600060405180830381600087803b15156104b457600080fd5b6102c65a03f115156104c557600080fd5b505050610560565b60025460018201546005830154600160a060020a039283169263a9059cbb92169060006040516020015260405160e060020a63ffffffff8516028152600160a060020a0390921660048301526024820152604401602060405180830381600087803b151561053a57600080fd5b6102c65a03f1151561054b57600080fd5b50505060405180519050151561056057600080fd5b6004810154821061062c576002546004820154600160a060020a03909116906323b872dd903390309060006040516020015260405160e060020a63ffffffff8616028152600160a060020a0393841660048201529190921660248201526044810191909152606401602060405180830381600087803b15156105e157600080fd5b6102c65a03f115156105f257600080fd5b50505060405180519050151561060757600080fd5b80546004820154610627918591600160a060020a039091169033906107ae565b6106f0565b600254600160a060020a03166323b872dd33308560006040516020015260405160e060020a63ffffffff8616028152600160a060020a0393841660048201529190921660248201526044810191909152606401602060405180830381600087803b151561069857600080fd5b6102c65a03f115156106a957600080fd5b5050506040518051905015156106be57600080fd5b60018101805473ffffffffffffffffffffffffffffffffffffffff191633600160a060020a0316179055600581018290555b600154600160a060020a0333811691167fd21fbaad97462831ad0c216f300fefb33a10b03bb18bb70ed668562e88d15d53858560405191825260208201526040908101905180910390a3505050565b600054600160a060020a031681565b6005602081905260009182526040909120805460018201546002830154600384015460048501549490950154600160a060020a03938416959290931693909286565b600154600160a060020a031681565b600354600160a060020a031681565b60008060646107c860045485610a2290919063ffffffff16565b8115156107d157fe5b049150600082111561085f57600254600354600160a060020a039182169163a9059cbb91168460006040516020015260405160e060020a63ffffffff8516028152600160a060020a0390921660048301526024820152604401602060405180830381600087803b151561084357600080fd5b6102c65a03f1151561085457600080fd5b505050604051805150505b61086f838363ffffffff610a4d16565b905060008111156108f557600254600160a060020a031663a9059cbb868360006040516020015260405160e060020a63ffffffff8516028152600160a060020a0390921660048301526024820152604401602060405180830381600087803b15156108d957600080fd5b6102c65a03f115156108ea57600080fd5b505050604051805150505b600154600160a060020a031663a9059cbb858860405160e060020a63ffffffff8516028152600160a060020a0390921660048301526024820152604401600060405180830381600087803b151561094b57600080fd5b6102c65a03f1151561095c57600080fd5b5050506000868152600560208190526040808320805473ffffffffffffffffffffffffffffffffffffffff1990811682556001808301805490921690915560028201859055600382018590556004820185905592019290925554600160a060020a03868116929116907f16dd16959a056953a63cf14bf427881e762e54f03d86b864efea8238dd3b822f90899087905191825260208201526040908101905180910390a3505050505050565b600082820183811015610a1757fe5b8091505b5092915050565b600080831515610a355760009150610a1b565b50828202828482811515610a4557fe5b0414610a1757fe5b600082821115610a5957fe5b509003905600a165627a7a72305820ece3c9e40a3f42afa7ea170db683c4733c8bbf75bc14f5faf36c44617404c2750029a165627a7a72305820751c43016ec7081778468b537be58c0cdc6e79c6d445926a22b7ca286c19a36c0029",
  "source": "pragma solidity ^0.4.18;\n\nimport 'zeppelin-solidity/contracts/token/ERC721/ERC721.sol';\n\nimport '../token/TokenController.sol';\nimport '../token/ControlledToken.sol';\nimport './Auction.sol';\nimport './Campaign.sol';\nimport './ControlledByVote.sol';\n\n/**\n * @title TokenDriver\n *\n * @dev TokenDriver is responsible for controlling operations with IZX tokens.\n * IZX token can be used in campaigns and auctions, where it is used as a payment\n * unit for ERC721 tokens, used in advertisement campaigns.\n *\n * Token transfer and approval is allowed for all non-contract ( wallet ) addresses,\n * as well as auctions / campaigns, created in this driver.\n *\n * @notice Once setup as a controller for the token, this contract can be changed only\n * by voting procedure, look ControlledByVote contract for details.\n * The protocol works completely in decentralized way, with nobody\n * having full control over it.\n *\n * @author Aleksey Studnev <studnev@izx.io>\n */\ncontract TokenDriver is TokenController, ControlledByVote {\n\n    event NewAuction( address indexed token, address indexed auction);\n    event NewCampaign( address indexed token, address indexed campaign);\n    event NewTokenDriver( address indexed token, address indexed new_driver);\n\n    mapping(address => bool) public allowed_contracts;\n    mapping(address => uint) public deposits;\n\n    using SafeMath for uint256;\n\n    /**\n    * @dev Throws if called by any account other than the token.\n    */\n    modifier onlyToken() {\n        require(msg.sender == address(token));\n        _;\n    }\n\n    /**\n    * @dev Throws if called by any account other than the token or its controller.\n    */\n    modifier onlyTokenOrController() {\n        require(msg.sender == address(token) || msg.sender == address(ControlledToken(token).controller() ) );\n        _;\n    }\n\n    function TokenDriver( ERC20 _token, uint _min_voting_duration, uint _max_voting_duration ) public\n                ControlledByVote(_token, _min_voting_duration, _max_voting_duration) {}\n\n    /**\n    * @dev creates a new auction contract for ERC721 token\n    * @param _token The address of ERC721 token, traded in new auction\n    * @param _host_share Percentage (0 to 100) share of the payout for\n    * every completed auction sale in the new contract. If equal to 0, all bid is payed\n    * to the winner of the auction. If set to 100, all bid is payed to host, nothing left to bidder.\n    */\n    function createAuction(ERC721 _token, uint _host_share) external{\n        Auction auction = new Auction(msg.sender, _token, _host_share);\n        allowed_contracts[address(auction)] = true;\n        NewAuction( _token, auction);\n    }\n\n    /**\n    * @dev create a new advertising contract for ERC721 token\n    * @param _token The address of ERC721 token, traded in new campaign\n    * @param _lifetime The time period in seconds, allowed to convert the prize\n    * after it is claimed by ERC721 token owner. I this time expires, and prize is not converted to IZX tokens,\n    * the token can be returned to the initial owner.\n    * @param _token_price Price of every ERC721 token in IZX, payed by advertiser.\n    * @param _host_share Percentage (0 to 100) share of the payout for\n    * every completed conversion in the new contract. If equal to 0, all token price is payed\n    * to the winner of the prize. If set to 100, all bid is payed to host, nothing left to the winner.\n    */\n    function createCampaign(ERC721 _token, uint _lifetime, uint _token_price, uint _host_share) external{\n        Campaign campaign = new Campaign(msg.sender, _token, _lifetime, _token_price, _host_share);\n        allowed_contracts[address(campaign)] = true;\n        NewCampaign( _token, campaign);\n    }\n\n    /// ----- METHODS IMPLEMENTATION FROM TokenController interface ----- ///\n\n    /// @notice Called when `_owner` sends ether to the Token contract\n    function proxyPayment(address) payable public onlyToken returns(bool){\n        return false;\n    }\n\n    /// @notice Notifies the controller about a token transfer allowing the\n    ///  controller to react if desired\n    /// @param _from The origin of the transfer\n    /// @param _to The destination of the transfer\n    /// @param _amount The amount of the transfer\n    /// @return False if the controller does not authorize the transfer\n    function onTransfer(address _from, address _to, uint _amount) public onlyToken returns(bool){\n        if(  (_to==address(this) || _to==address(candidate)) && votingInProgress()){\n           TokenDriver(_to).register_deposit(_from, _amount);\n           return true;\n        }else{\n           return !isContract(_to) || allowed_contracts[_to];\n        }\n    }\n\n    /// @notice Notifies the controller about an approval allowing the\n    function onApprove(address, address _spender, uint) public onlyToken returns(bool){\n        return !isContract(_spender) || allowed_contracts[_spender] || _spender==address(this);\n    }\n\n    /// @dev Internal function to determine if an address is a contract\n    /// @param _addr The address being queried\n    /// @return True if `_addr` is a contract\n    function isContract(address _addr) constant internal returns(bool) {\n        uint size;\n        if (_addr == 0) return false;\n        assembly {\n            size := extcodesize(_addr)\n        }\n        return size>0;\n    }\n\n    function register_deposit(address _from, uint _amount) onlyTokenOrController public {\n        deposits[_from] = deposits[_from].add(_amount);\n    }\n\n    function withdraw() public {\n        uint amount = deposits[msg.sender];\n        require(amount > 0);\n        deposits[msg.sender] = 0;\n        token.transfer(msg.sender, amount);\n    }\n\n    function changeController(ControlledByVote _newController) onlyVotedFor(_newController) public {\n        ControlledToken(token).changeController(_newController);\n        NewTokenDriver( token, address(_newController));\n    }\n}",
  "sourcePath": "/Users/studnev/dev4bc/contracts/contracts/drive/TokenDriver.sol",
  "compiler": {
    "name": "solc",
    "version": "0.4.18+commit.9cf6e910.Emscripten.clang"
  },
  "schemaVersion": "1.0.1",
  "updatedAt": "2018-04-03T10:55:18.255Z"
}