{
  "contractName": "TokenDriver",
  "abi": [
    {
      "constant": false,
      "inputs": [
        {
          "name": "_max_tokens",
          "type": "uint256"
        },
        {
          "name": "_min_value",
          "type": "uint256"
        }
      ],
      "name": "grant_tokens",
      "outputs": [],
      "payable": false,
      "stateMutability": "nonpayable",
      "type": "function"
    },
    {
      "constant": true,
      "inputs": [],
      "name": "token",
      "outputs": [
        {
          "name": "",
          "type": "address"
        }
      ],
      "payable": false,
      "stateMutability": "view",
      "type": "function"
    },
    {
      "inputs": [
        {
          "name": "_token",
          "type": "address"
        }
      ],
      "payable": false,
      "stateMutability": "nonpayable",
      "type": "constructor"
    }
  ],
  "bytecode": "0x6060604052341561000f57600080fd5b6040516020806102a58339810160405280805160008054600160a060020a03909216600160a060020a03199092169190911790555050610251806100546000396000f30060606040526004361061004b5763ffffffff7c01000000000000000000000000000000000000000000000000000000006000350416630d881ed78114610050578063fc0c546a1461006b575b600080fd5b341561005b57600080fd5b61006960043560243561009a565b005b341561007657600080fd5b61007e6101cc565b604051600160a060020a03909116815260200160405180910390f35b6000805481908490600160a060020a03166370a082313384604051602001526040517c010000000000000000000000000000000000000000000000000000000063ffffffff8416028152600160a060020a039091166004820152602401602060405180830381600087803b151561011057600080fd5b6102c65a03f1151561012157600080fd5b505050604051805190501015151561013857600080fd5b600160a060020a0333166000908152600260205260409020805490925015156101bb57600180549061016c908281016101db565b90503360018281548110151561017e57fe5b6000918252602090912001805473ffffffffffffffffffffffffffffffffffffffff1916600160a060020a03929092169190911790556001810182555b506001810192909255600290910155565b600054600160a060020a031681565b8154818355818115116101ff576000838152602090206101ff918101908301610204565b505050565b61022291905b8082111561021e576000815560010161020a565b5090565b905600a165627a7a723058206c16921e972938553ae48327ce47f10763d050b4912ee5ab47ccbda3f3c03ef90029",
  "source": "pragma solidity ^0.4.18;\n\nimport '../token/IZXToken.sol';\n\ncontract TokenDriver  {\n\n    IZXToken  public token;\n\n    struct Approval {\n        uint256 key_index;\n        uint256 tokens;\n        uint256 min_value;\n    }\n\n    address[] holders;\n    mapping( address => Approval) approvals;\n\n    function TokenDriver(IZXToken _token) public {\n        token = _token;\n    }\n\n    function grant_tokens(uint256 _max_tokens, uint256 _min_value) public {\n        require(token.balanceOf(msg.sender) >= _max_tokens);\n        Approval storage approval = approvals[msg.sender];\n\n        if(approval.key_index==0){\n            uint next = holders.length++;\n            holders[next] = msg.sender;\n            approval.key_index = next + 1;\n        }\n        \n        approval.tokens = _max_tokens;\n        approval.min_value = _min_value;\n\n    }\n\n    function reserve_tokens(uint256 _tokens, uint256 _value) internal returns(address) {\n        address holder = holder_approved(_tokens, _value);\n        token.transferFrom(holder, address(this), _tokens);\n        return holder;\n    }\n\n    function release_tokens(address _holder, uint256 _tokens) internal {\n        Approval storage approval = approvals[_holder];\n        approval.tokens = approval.tokens + _tokens;\n        token.transfer(_holder, _tokens);\n    }\n\n    function holder_approved(uint256 _tokens, uint256 _value) private returns(address){\n\n        uint256 count = holders.length;\n        uint256 i = (block.timestamp % count);\n        for(uint j = 0; j < count; j++ ){\n            address holder = holders[i];\n            Approval storage approval = approvals[holder];\n            if(_tokens <= approval.tokens && _value > approval.min_value && token.balanceOf(holder)>=_tokens){\n               approval.tokens = approval.tokens - _tokens;\n               return holder;\n            }\n\n            i++;\n            if(i==count){\n                i=0;\n            }\n\n        }\n        revert();\n    }\n\n}",
  "sourcePath": "/Users/studnev/dev4bc/contracts/contracts/drive/TokenDriver.sol",
  "compiler": {
    "name": "solc",
    "version": "0.4.18+commit.9cf6e910.Emscripten.clang"
  },
  "schemaVersion": "1.0.1",
  "updatedAt": "2018-02-12T14:50:31.576Z"
}