{
  "contractName": "TokenDriver",
  "abi": [
    {
      "constant": false,
      "inputs": [
        {
          "name": "",
          "type": "address"
        },
        {
          "name": "_to",
          "type": "address"
        },
        {
          "name": "",
          "type": "uint256"
        }
      ],
      "name": "onTransfer",
      "outputs": [
        {
          "name": "",
          "type": "bool"
        }
      ],
      "payable": false,
      "stateMutability": "nonpayable",
      "type": "function"
    },
    {
      "constant": true,
      "inputs": [
        {
          "name": "",
          "type": "address"
        }
      ],
      "name": "allowed_contracts",
      "outputs": [
        {
          "name": "",
          "type": "bool"
        }
      ],
      "payable": false,
      "stateMutability": "view",
      "type": "function"
    },
    {
      "constant": false,
      "inputs": [
        {
          "name": "_token",
          "type": "address"
        },
        {
          "name": "_lifetime",
          "type": "uint256"
        },
        {
          "name": "_token_price",
          "type": "uint256"
        },
        {
          "name": "_host_share",
          "type": "uint256"
        }
      ],
      "name": "createCampaign",
      "outputs": [],
      "payable": false,
      "stateMutability": "nonpayable",
      "type": "function"
    },
    {
      "constant": false,
      "inputs": [
        {
          "name": "",
          "type": "address"
        },
        {
          "name": "_spender",
          "type": "address"
        },
        {
          "name": "",
          "type": "uint256"
        }
      ],
      "name": "onApprove",
      "outputs": [
        {
          "name": "",
          "type": "bool"
        }
      ],
      "payable": false,
      "stateMutability": "nonpayable",
      "type": "function"
    },
    {
      "constant": false,
      "inputs": [
        {
          "name": "",
          "type": "address"
        }
      ],
      "name": "proxyPayment",
      "outputs": [
        {
          "name": "",
          "type": "bool"
        }
      ],
      "payable": true,
      "stateMutability": "payable",
      "type": "function"
    },
    {
      "constant": false,
      "inputs": [
        {
          "name": "_token",
          "type": "address"
        },
        {
          "name": "_host_share",
          "type": "uint256"
        }
      ],
      "name": "createAuction",
      "outputs": [],
      "payable": false,
      "stateMutability": "nonpayable",
      "type": "function"
    },
    {
      "constant": true,
      "inputs": [],
      "name": "token",
      "outputs": [
        {
          "name": "",
          "type": "address"
        }
      ],
      "payable": false,
      "stateMutability": "view",
      "type": "function"
    },
    {
      "inputs": [
        {
          "name": "_token",
          "type": "address"
        }
      ],
      "payable": false,
      "stateMutability": "nonpayable",
      "type": "constructor"
    },
    {
      "anonymous": false,
      "inputs": [
        {
          "indexed": true,
          "name": "token",
          "type": "address"
        },
        {
          "indexed": true,
          "name": "auction",
          "type": "address"
        }
      ],
      "name": "NewAuction",
      "type": "event"
    },
    {
      "anonymous": false,
      "inputs": [
        {
          "indexed": true,
          "name": "token",
          "type": "address"
        },
        {
          "indexed": true,
          "name": "campaign",
          "type": "address"
        }
      ],
      "name": "NewCampaign",
      "type": "event"
    }
  ],
  "bytecode": "0x6060604052341561000f57600080fd5b604051602080611b7a83398101604052808051915050600160a060020a038116151561003a57600080fd5b60008054600160a060020a03909216600160a060020a0319909216919091179055611b108061006a6000396000f3006060604052600436106100825763ffffffff7c01000000000000000000000000000000000000000000000000000000006000350416634a39314981146100875780637adbf096146100c3578063ca59f2e4146100e2578063da682aeb14610087578063f48c30541461010c578063f7e8829814610120578063fc0c546a14610142575b600080fd5b341561009257600080fd5b6100af600160a060020a0360043581169060243516604435610171565b604051901515815260200160405180910390f35b34156100ce57600080fd5b6100af600160a060020a03600435166101a8565b34156100ed57600080fd5b61010a600160a060020a03600435166024356044356064356101bd565b005b6100af600160a060020a0360043516610272565b341561012b57600080fd5b61010a600160a060020a0360043516602435610278565b341561014d57600080fd5b61015561031c565b604051600160a060020a03909116815260200160405180910390f35b600061017c8361032b565b15806101a05750600160a060020a03831660009081526001602052604090205460ff165b949350505050565b60016020526000908152604090205460ff1681565b600033858585856101cc610358565b600160a060020a0395861681529390941660208401526040808401929092526060830152608082019290925260a0019051809103906000f080151561021057600080fd5b600160a060020a03808216600081815260016020819052604091829020805460ff1916909117905592935091908716907f80be4dbaa03bc00a19589f5317f3a2e53d819bed4d9a72fb2daa707b31360e1b905160405180910390a35050505050565b50600090565b6000338383610285610368565b600160a060020a0393841681529190921660208201526040808201929092526060019051809103906000f08015156102bc57600080fd5b600160a060020a03808216600081815260016020819052604091829020805460ff1916909117905592935091908516907f3d7974c32ce472d784c795bc3d4465e0b7d5d323530e5bd66c1e93586f22179f905160405180910390a3505050565b600054600160a060020a031681565b600080600160a060020a03831615156103475760009150610352565b823b90506000811191505b50919050565b604051610bc08061037983390190565b604051610bac80610f398339019056006060604052341561000f57600080fd5b60405160a080610bc08339810160405280805191906020018051919060200180519190602001805191906020018051915050600160a060020a038416151561005657600080fd5b6000831161006357600080fd5b6000821161007057600080fd5b606481111561007e57600080fd5b60008054600160a060020a03191633600160a060020a0390811691909117808355169063fc0c546a90604051602001526040518163ffffffff167c0100000000000000000000000000000000000000000000000000000000028152600401602060405180830381600087803b15156100f557600080fd5b6102c65a03f1151561010657600080fd5b505050604051805160028054600160a060020a0319908116600160a060020a0393841617909155600180548216888416179055600380549091169188169190911790555060048390556005829055606461016d82846401000000006101a2810261095e1704565b81151561017657fe5b0460078190556101949083906401000000006109896101d882021704565b600655506101ea9350505050565b6000808315156101b557600091506101d1565b508282028284828115156101c557fe5b04146101cd57fe5b8091505b5092915050565b6000828211156101e457fe5b50900390565b6109c7806101f96000396000f3006060604052600436106100a05763ffffffff60e060020a600035041663284084f981146100a55780632dabbeed146100d45780633dfbfd4c146100ec57806369d24f63146101115780636ecc5d62146101245780637b4fd96e14610137578063a3908e1b1461014a578063ddd5e1b214610160578063e5ebccf414610182578063eccb3a4f14610195578063f437bc59146101d8578063f9a1095c146101eb575b600080fd5b34156100b057600080fd5b6100b86101fe565b604051600160a060020a03909116815260200160405180910390f35b34156100df57600080fd5b6100ea60043561020d565b005b34156100f757600080fd5b6100ff6103e5565b60405190815260200160405180910390f35b341561011c57600080fd5b6100ff6103eb565b341561012f57600080fd5b6100b86103f1565b341561014257600080fd5b6100ff610400565b341561015557600080fd5b6100ea600435610406565b341561016b57600080fd5b6100ea600435600160a060020a036024351661066d565b341561018d57600080fd5b6100b86108f2565b34156101a057600080fd5b6101ab600435610901565b604051600160a060020a039384168152919092166020820152604080820192909252606001905180910390f35b34156101e357600080fd5b6100b861092f565b34156101f657600080fd5b6100ff61093e565b600254600160a060020a031681565b60008181526008602052604081206001810154909190819033600160a060020a03908116911614806102425750826002015442115b151561024d57600080fd5b505080546001808301549054600160a060020a0392831692918216911663a9059cbb828660405160e060020a63ffffffff8516028152600160a060020a0390921660048301526024820152604401600060405180830381600087803b15156102b457600080fd5b6102c65a03f115156102c557600080fd5b5050600254600554600160a060020a03909116915063a9059cbb90849060006040516020015260405160e060020a63ffffffff8516028152600160a060020a0390921660048301526024820152604401602060405180830381600087803b151561032e57600080fd5b6102c65a03f1151561033f57600080fd5b50505060405180519050151561035457600080fd5b600084815260086020526040808220805473ffffffffffffffffffffffffffffffffffffffff199081168255600180830180549092169091556002909101929092559054600160a060020a038481169284821692909116907fd298734636572fc109667e04fc766ff33d5050996ff25165a0f3f8ec0f2a15779088905190815260200160405180910390a450505050565b60075481565b60045481565b600054600160a060020a031681565b60055481565b6000818152600860205260408120805490919033600160a060020a0390811691161461043157600080fd5b5060018082015490548254600160a060020a03928316929182169163a9059cbb91168560405160e060020a63ffffffff8516028152600160a060020a0390921660048301526024820152604401600060405180830381600087803b151561049757600080fd5b6102c65a03f115156104a857600080fd5b5050506000600654111561054257600254600654600160a060020a039091169063a9059cbb90839060006040516020015260405160e060020a63ffffffff8516028152600160a060020a0390921660048301526024820152604401602060405180830381600087803b151561051c57600080fd5b6102c65a03f1151561052d57600080fd5b50505060405180519050151561054257600080fd5b600060075411156105dc57600254600354600754600160a060020a039283169263a9059cbb92169060006040516020015260405160e060020a63ffffffff8516028152600160a060020a0390921660048301526024820152604401602060405180830381600087803b15156105b657600080fd5b6102c65a03f115156105c757600080fd5b5050506040518051905015156105dc57600080fd5b600083815260086020526040808220805473ffffffffffffffffffffffffffffffffffffffff19908116825560018083018054909216909155600290910192909255905433600160a060020a039081169284821692909116907ff98522c4d7ccb9de6d7bb8395a567bd90003fe876d577e4d0fd4b53e1ddfedf89087905190815260200160405180910390a4505050565b600154600160a060020a0316636352211e8360006040516020015260405160e060020a63ffffffff84160281526004810191909152602401602060405180830381600087803b15156106be57600080fd5b6102c65a03f115156106cf57600080fd5b50505060405180519050600160a060020a031633600160a060020a03161415156106f857600080fd5b600254600554600160a060020a03909116906323b872dd908390309060006040516020015260405160e060020a63ffffffff8616028152600160a060020a0393841660048201529190921660248201526044810191909152606401602060405180830381600087803b151561076c57600080fd5b6102c65a03f1151561077d57600080fd5b50505060405180519050151561079257600080fd5b600154600160a060020a031663b2e6ceeb8360405160e060020a63ffffffff84160281526004810191909152602401600060405180830381600087803b15156107da57600080fd5b6102c65a03f115156107eb57600080fd5b50505060606040519081016040528082600160a060020a0316815260200133600160a060020a0316815260200161082d6004544261094490919063ffffffff16565b905260008381526008602052604090208151815473ffffffffffffffffffffffffffffffffffffffff1916600160a060020a0391909116178155602082015160018201805473ffffffffffffffffffffffffffffffffffffffff1916600160a060020a0392909216919091179055604082015160029091015550600154600160a060020a038083169133821691167f913c992353dc81b7a8ba31496c484e9b6306bd2f6c509a649a38fdf5e1c953b28560405190815260200160405180910390a45050565b600154600160a060020a031681565b600860205260009081526040902080546001820154600290920154600160a060020a03918216929091169083565b600354600160a060020a031681565b60065481565b60008282018381101561095357fe5b8091505b5092915050565b6000808315156109715760009150610957565b5082820282848281151561098157fe5b041461095357fe5b60008282111561099557fe5b509003905600a165627a7a723058206a5112989f0459e4b2de7bc917d42b9d4fa5eb1e6030b1a21c56e928c3c0b56700296060604052341561000f57600080fd5b604051606080610bac833981016040528080519190602001805191906020018051915050600160a060020a038216151561004857600080fd5b606481111561005657600080fd5b60008054600160a060020a03191633600160a060020a0390811691909117808355169063fc0c546a90604051602001526040518163ffffffff167c0100000000000000000000000000000000000000000000000000000000028152600401602060405180830381600087803b15156100cd57600080fd5b6102c65a03f115156100de57600080fd5b505050604051805160028054600160a060020a0319908116600160a060020a0393841617909155600180548216958316959095179094556003805490941694169390931790915560045550610a74806101386000396000f30060606040526004361061007f5763ffffffff60e060020a600035041663284084f981146100845780632e1a7d4d146100b35780633620875e146100cb57806358d3ceab146100ea578063598647f81461010f5780636ecc5d6214610128578063bfb231d21461013b578063e5ebccf414610193578063f437bc59146101a6575b600080fd5b341561008f57600080fd5b6100976101b9565b604051600160a060020a03909116815260200160405180910390f35b34156100be57600080fd5b6100c96004356101c8565b005b34156100d657600080fd5b6100c9600435602435604435606435610222565b34156100f557600080fd5b6100fd6103fb565b60405190815260200160405180910390f35b341561011a57600080fd5b6100c9600435602435610401565b341561013357600080fd5b610097610737565b341561014657600080fd5b610151600435610746565b604051600160a060020a0396871681529490951660208501526040808501939093526060840191909152608083015260a082019290925260c001905180910390f35b341561019e57600080fd5b610097610788565b34156101b157600080fd5b610097610797565b600254600160a060020a031681565b6000818152600560205260409020600281015442116101e657600080fd5b6005810154600090116101f857600080fd5b80546001820154600583015461021e928592600160a060020a03918216929116906107a6565b5050565b600154600160a060020a0316636352211e8560006040516020015260405160e060020a63ffffffff84160281526004810191909152602401602060405180830381600087803b151561027357600080fd5b6102c65a03f1151561028457600080fd5b50505060405180519050600160a060020a031633600160a060020a03161415156102ad57600080fd5b828210156102ba57600080fd5b4281116102c657600080fd5b6000848152600560205260409020600201544290106102e457600080fd5b60c06040519081016040908152600160a060020a033316825260006020808401829052828401859052606084018790526080840186905260a0840182905287825260059052208151815473ffffffffffffffffffffffffffffffffffffffff1916600160a060020a0391909116178155602082015160018201805473ffffffffffffffffffffffffffffffffffffffff1916600160a060020a039290921691909117905560408201518160020155606082015181600301556080820151816004015560a082015160059091015550600154600160a060020a0333811691167f3f3483d0995db4c081e0101ef6753bef457833c20605cd871de61dcb48085a9a8660405190815260200160405180910390a350505050565b60045481565b6000828152600560205260409020600281015442901161042057600080fd5b6005810154821161043057600080fd5b600381015482101561044157600080fd5b6001810154600160a060020a031615156104b657600154600160a060020a031663b2e6ceeb8460405160e060020a63ffffffff84160281526004810191909152602401600060405180830381600087803b151561049d57600080fd5b6102c65a03f115156104ae57600080fd5b505050610558565b60025460018201546005830154600160a060020a03928316926323b872dd92309291169060006040516020015260405160e060020a63ffffffff8616028152600160a060020a0393841660048201529190921660248201526044810191909152606401602060405180830381600087803b151561053257600080fd5b6102c65a03f1151561054357600080fd5b50505060405180519050151561055857600080fd5b60048101548210610624576002546004820154600160a060020a03909116906323b872dd903390309060006040516020015260405160e060020a63ffffffff8616028152600160a060020a0393841660048201529190921660248201526044810191909152606401602060405180830381600087803b15156105d957600080fd5b6102c65a03f115156105ea57600080fd5b5050506040518051905015156105ff57600080fd5b8054600482015461061f918591600160a060020a039091169033906107a6565b6106e8565b600254600160a060020a03166323b872dd33308560006040516020015260405160e060020a63ffffffff8616028152600160a060020a0393841660048201529190921660248201526044810191909152606401602060405180830381600087803b151561069057600080fd5b6102c65a03f115156106a157600080fd5b5050506040518051905015156106b657600080fd5b60018101805473ffffffffffffffffffffffffffffffffffffffff191633600160a060020a0316179055600581018290555b600154600160a060020a0333811691167fd21fbaad97462831ad0c216f300fefb33a10b03bb18bb70ed668562e88d15d53858560405191825260208201526040908101905180910390a3505050565b600054600160a060020a031681565b6005602081905260009182526040909120805460018201546002830154600384015460048501549490950154600160a060020a03938416959290931693909286565b600154600160a060020a031681565b600354600160a060020a031681565b60008060646107c060045485610a0090919063ffffffff16565b8115156107c957fe5b049150600082111561085757600254600354600160a060020a039182169163a9059cbb91168460006040516020015260405160e060020a63ffffffff8516028152600160a060020a0390921660048301526024820152604401602060405180830381600087803b151561083b57600080fd5b6102c65a03f1151561084c57600080fd5b505050604051805150505b610867838363ffffffff610a3616565b905060008111156108ed57600254600160a060020a031663a9059cbb868360006040516020015260405160e060020a63ffffffff8516028152600160a060020a0390921660048301526024820152604401602060405180830381600087803b15156108d157600080fd5b6102c65a03f115156108e257600080fd5b505050604051805150505b600154600160a060020a031663a9059cbb858860405160e060020a63ffffffff8516028152600160a060020a0390921660048301526024820152604401600060405180830381600087803b151561094357600080fd5b6102c65a03f1151561095457600080fd5b5050506000868152600560208190526040808320805473ffffffffffffffffffffffffffffffffffffffff1990811682556001808301805490921690915560028201859055600382018590556004820185905592019290925554600160a060020a03868116929116907f16dd16959a056953a63cf14bf427881e762e54f03d86b864efea8238dd3b822f90899087905191825260208201526040908101905180910390a3505050505050565b600080831515610a135760009150610a2f565b50828202828482811515610a2357fe5b0414610a2b57fe5b8091505b5092915050565b600082821115610a4257fe5b509003905600a165627a7a72305820fcfe09f359a766d42dfd9a3670a1e8019c90efd5d48c619ff86ceb2639bac1cc0029a165627a7a72305820d72db007e09ee5455589f38d2b277bc1596ce2ab0a3dd8b3db93275f966662f90029",
  "source": "pragma solidity ^0.4.18;\n\nimport 'zeppelin-solidity/contracts/token/ERC721/ERC721.sol';\n\nimport '../token/TokenController.sol';\nimport '../token/IZXToken.sol';\nimport './Auction.sol';\nimport './Campaign.sol';\n\n/**\n * @title TokenDriver\n *\n * @dev TokenDriver is responsible for controlling operations with IZX tokens.\n * IZX token can be used in campaigns and auctions, where it is used as a payment\n * unit for ERC721 tokens, used in advertisement campaigns.\n *\n * Token transfer and approval is allowed for all non-contract ( wallet ) addresses,\n * as well as auctions / campaigns, created in this driver.\n *\n * @notice Once setup as a controller for the token, this contract can not be changed.\n * After that, the protocol will work completely in decentralized way, with nobody\n * having control over it.\n *\n * @author Aleksey Studnev <studnev@izx.io>\n */\ncontract TokenDriver is TokenController {\n\n    event NewAuction( address indexed token, address indexed auction);\n    event NewCampaign( address indexed token, address indexed campaign);\n\n    IZXToken public token;\n\n    mapping(address => bool) public allowed_contracts;\n\n    function TokenDriver( IZXToken _token ) public {\n        require( address(_token) != address(0));\n        token = _token;\n    }\n\n    /**\n    * @dev creates a new auction contract for ERC721 token\n    * @param _token The address of ERC721 token, traded in new auction\n    * @param _host_share Percentage (0 to 100) share of the payout for\n    * every completed auction sale in the new contract. If equal to 0, all bid is payed\n    * to the winner of the auction. If set to 100, all bid is payed to host, nothing left to bidder.\n    */\n    function createAuction(ERC721 _token, uint _host_share) external{\n        Auction auction = new Auction(msg.sender, _token, _host_share);\n        allowed_contracts[address(auction)] = true;\n        NewAuction( _token, auction);\n    }\n\n    /**\n    * @dev create a new advertising contract for ERC721 token\n    * @param _token The address of ERC721 token, traded in new campaign\n    * @param _lifetime The time period in seconds, allowed to convert the prize\n    * after it is claimed by ERC721 token owner. I this time expires, and prize is not converted to IZX tokens,\n    * the token can be returned to the initial owner.\n    * @param _token_price Price of every ERC721 token in IZX, payed by advertiser.\n    * @param _host_share Percentage (0 to 100) share of the payout for\n    * every completed conversion in the new contract. If equal to 0, all token price is payed\n    * to the winner of the prize. If set to 100, all bid is payed to host, nothing left to the winner.\n    */\n    function createCampaign(ERC721 _token, uint _lifetime, uint _token_price, uint _host_share) external{\n        Campaign campaign = new Campaign(msg.sender, _token, _lifetime, _token_price, _host_share);\n        allowed_contracts[address(campaign)] = true;\n        NewCampaign( _token, campaign);\n    }\n\n    /// ----- METHODS IMPLEMENTATION FROM TokenController interface ----- ///\n\n    /// @notice Called when `_owner` sends ether to the Token contract\n    function proxyPayment(address) payable public returns(bool){\n        return false;\n    }\n\n    /// @notice Notifies the controller about a token transfer allowing the\n    ///  controller to react if desired\n    /// @param _to The destination of the transfer\n    /// @return False if the controller does not authorize the transfer\n    function onTransfer(address, address _to, uint) public returns(bool){\n        return !isContract(_to) || allowed_contracts[_to];\n    }\n\n    /// @notice Notifies the controller about an approval allowing the\n    function onApprove(address, address _spender, uint) public returns(bool){\n        return !isContract(_spender) || allowed_contracts[_spender];\n    }\n\n    /// @dev Internal function to determine if an address is a contract\n    /// @param _addr The address being queried\n    /// @return True if `_addr` is a contract\n    function isContract(address _addr) constant internal returns(bool) {\n        uint size;\n        if (_addr == 0) return false;\n        assembly {\n            size := extcodesize(_addr)\n        }\n        return size>0;\n    }\n\n}",
  "sourcePath": "/Users/studnev/dev4bc/contracts/contracts/drive/TokenDriver.sol",
  "compiler": {
    "name": "solc",
    "version": "0.4.18+commit.9cf6e910.Emscripten.clang"
  },
  "schemaVersion": "1.0.1",
  "updatedAt": "2018-03-26T11:53:44.846Z"
}