{
  "contractName": "TokenSale",
  "abi": [
    {
      "constant": true,
      "inputs": [],
      "name": "exchangeRate",
      "outputs": [
        {
          "name": "",
          "type": "uint256"
        }
      ],
      "payable": false,
      "stateMutability": "view",
      "type": "function"
    },
    {
      "constant": false,
      "inputs": [
        {
          "name": "_newController",
          "type": "address"
        }
      ],
      "name": "changeController",
      "outputs": [],
      "payable": false,
      "stateMutability": "nonpayable",
      "type": "function"
    },
    {
      "constant": true,
      "inputs": [],
      "name": "vaultAddress",
      "outputs": [
        {
          "name": "",
          "type": "address"
        }
      ],
      "payable": false,
      "stateMutability": "view",
      "type": "function"
    },
    {
      "constant": false,
      "inputs": [
        {
          "name": "_from",
          "type": "address"
        },
        {
          "name": "_to",
          "type": "address"
        },
        {
          "name": "_amount",
          "type": "uint256"
        }
      ],
      "name": "onTransfer",
      "outputs": [
        {
          "name": "",
          "type": "bool"
        }
      ],
      "payable": false,
      "stateMutability": "nonpayable",
      "type": "function"
    },
    {
      "constant": false,
      "inputs": [
        {
          "name": "_owners",
          "type": "address[]"
        },
        {
          "name": "_tokens",
          "type": "uint256[]"
        }
      ],
      "name": "distributeTokens",
      "outputs": [],
      "payable": false,
      "stateMutability": "nonpayable",
      "type": "function"
    },
    {
      "constant": true,
      "inputs": [],
      "name": "tokenContract",
      "outputs": [
        {
          "name": "",
          "type": "address"
        }
      ],
      "payable": false,
      "stateMutability": "view",
      "type": "function"
    },
    {
      "constant": false,
      "inputs": [
        {
          "name": "_newVaultAddress",
          "type": "address"
        }
      ],
      "name": "setVault",
      "outputs": [],
      "payable": false,
      "stateMutability": "nonpayable",
      "type": "function"
    },
    {
      "constant": true,
      "inputs": [],
      "name": "owner",
      "outputs": [
        {
          "name": "",
          "type": "address"
        }
      ],
      "payable": false,
      "stateMutability": "view",
      "type": "function"
    },
    {
      "constant": true,
      "inputs": [],
      "name": "maximumFunding",
      "outputs": [
        {
          "name": "",
          "type": "uint256"
        }
      ],
      "payable": false,
      "stateMutability": "view",
      "type": "function"
    },
    {
      "constant": true,
      "inputs": [],
      "name": "exchangeRateAt",
      "outputs": [
        {
          "name": "",
          "type": "uint256"
        }
      ],
      "payable": false,
      "stateMutability": "view",
      "type": "function"
    },
    {
      "constant": false,
      "inputs": [
        {
          "name": "_newOwner",
          "type": "address"
        }
      ],
      "name": "changeOwner",
      "outputs": [],
      "payable": false,
      "stateMutability": "nonpayable",
      "type": "function"
    },
    {
      "constant": true,
      "inputs": [],
      "name": "transfersAllowed",
      "outputs": [
        {
          "name": "",
          "type": "bool"
        }
      ],
      "payable": false,
      "stateMutability": "view",
      "type": "function"
    },
    {
      "constant": true,
      "inputs": [],
      "name": "startFundingTime",
      "outputs": [
        {
          "name": "",
          "type": "uint256"
        }
      ],
      "payable": false,
      "stateMutability": "view",
      "type": "function"
    },
    {
      "constant": false,
      "inputs": [
        {
          "name": "_owner",
          "type": "address"
        },
        {
          "name": "_spender",
          "type": "address"
        },
        {
          "name": "_amount",
          "type": "uint256"
        }
      ],
      "name": "onApprove",
      "outputs": [
        {
          "name": "",
          "type": "bool"
        }
      ],
      "payable": false,
      "stateMutability": "nonpayable",
      "type": "function"
    },
    {
      "constant": false,
      "inputs": [
        {
          "name": "_exchangeRate",
          "type": "uint256"
        }
      ],
      "name": "setExchangeRate",
      "outputs": [],
      "payable": false,
      "stateMutability": "nonpayable",
      "type": "function"
    },
    {
      "constant": true,
      "inputs": [],
      "name": "totalCollected",
      "outputs": [
        {
          "name": "",
          "type": "uint256"
        }
      ],
      "payable": false,
      "stateMutability": "view",
      "type": "function"
    },
    {
      "constant": true,
      "inputs": [],
      "name": "endFundingTime",
      "outputs": [
        {
          "name": "",
          "type": "uint256"
        }
      ],
      "payable": false,
      "stateMutability": "view",
      "type": "function"
    },
    {
      "constant": false,
      "inputs": [
        {
          "name": "_allow",
          "type": "bool"
        }
      ],
      "name": "setTransfersAllowed",
      "outputs": [],
      "payable": false,
      "stateMutability": "nonpayable",
      "type": "function"
    },
    {
      "constant": false,
      "inputs": [
        {
          "name": "_owner",
          "type": "address"
        }
      ],
      "name": "proxyPayment",
      "outputs": [
        {
          "name": "",
          "type": "bool"
        }
      ],
      "payable": true,
      "stateMutability": "payable",
      "type": "function"
    },
    {
      "inputs": [
        {
          "name": "_startFundingTime",
          "type": "uint256"
        },
        {
          "name": "_endFundingTime",
          "type": "uint256"
        },
        {
          "name": "_maximumFunding",
          "type": "uint256"
        },
        {
          "name": "_vaultAddress",
          "type": "address"
        },
        {
          "name": "_tokenAddress",
          "type": "address"
        },
        {
          "name": "_transfersAllowed",
          "type": "bool"
        },
        {
          "name": "_exchangeRate",
          "type": "uint256"
        }
      ],
      "payable": false,
      "stateMutability": "nonpayable",
      "type": "constructor"
    },
    {
      "payable": true,
      "stateMutability": "payable",
      "type": "fallback"
    }
  ],
  "bytecode": "0x6060604052341561000f57600080fd5b60405160e08061109083398101604052808051906020019091908051906020019091908051906020019091908051906020019091908051906020019091908051906020019091908051906020019091905050336000806101000a81548173ffffffffffffffffffffffffffffffffffffffff021916908373ffffffffffffffffffffffffffffffffffffffff1602179055504286101580156100b057508686115b80156100d3575060008473ffffffffffffffffffffffffffffffffffffffff1614155b15156100de57600080fd5b86600181905550856002819055508460038190555082600560006101000a81548173ffffffffffffffffffffffffffffffffffffffff021916908373ffffffffffffffffffffffffffffffffffffffff16021790555083600660006101000a81548173ffffffffffffffffffffffffffffffffffffffff021916908373ffffffffffffffffffffffffffffffffffffffff16021790555081600660146101000a81548160ff021916908315150217905550806007819055504360088190555050505050505050610edd806101b36000396000f300606060405260043610610107576000357c0100000000000000000000000000000000000000000000000000000000900463ffffffff1680633ba0b9a9146101125780633cebb8231461013b578063430bf08a146101745780634a393149146101c95780634bd09c2a1461024257806355a373d6146102dc5780636817031b146103315780638da5cb5b1461036a57806399d64ab0146103bf5780639cbf1b85146103e8578063a6f9dae114610411578063b0660c3d1461044a578063b75ece9c14610477578063da682aeb146104a0578063db068e0e14610519578063e29eb8361461053c578063e4693e9814610565578063f3cd1c281461058e578063f48c3054146105b3575b610110336105f9565b005b341561011d57600080fd5b610125610887565b6040518082815260200191505060405180910390f35b341561014657600080fd5b610172600480803573ffffffffffffffffffffffffffffffffffffffff1690602001909190505061088d565b005b341561017f57600080fd5b6101876109bb565b604051808273ffffffffffffffffffffffffffffffffffffffff1673ffffffffffffffffffffffffffffffffffffffff16815260200191505060405180910390f35b34156101d457600080fd5b610228600480803573ffffffffffffffffffffffffffffffffffffffff1690602001909190803573ffffffffffffffffffffffffffffffffffffffff169060200190919080359060200190919050506109e1565b604051808215151515815260200191505060405180910390f35b341561024d57600080fd5b6102da600480803590602001908201803590602001908080602002602001604051908101604052809392919081815260200183836020028082843782019150505050505091908035906020019082018035906020019080806020026020016040519081016040528093929190818152602001838360200280828437820191505050505050919050506109fc565b005b34156102e757600080fd5b6102ef610baa565b604051808273ffffffffffffffffffffffffffffffffffffffff1673ffffffffffffffffffffffffffffffffffffffff16815260200191505060405180910390f35b341561033c57600080fd5b610368600480803573ffffffffffffffffffffffffffffffffffffffff16906020019091905050610bd0565b005b341561037557600080fd5b61037d610c6f565b604051808273ffffffffffffffffffffffffffffffffffffffff1673ffffffffffffffffffffffffffffffffffffffff16815260200191505060405180910390f35b34156103ca57600080fd5b6103d2610c94565b6040518082815260200191505060405180910390f35b34156103f357600080fd5b6103fb610c9a565b6040518082815260200191505060405180910390f35b341561041c57600080fd5b610448600480803573ffffffffffffffffffffffffffffffffffffffff16906020019091905050610ca0565b005b341561045557600080fd5b61045d610d3e565b604051808215151515815260200191505060405180910390f35b341561048257600080fd5b61048a610d51565b6040518082815260200191505060405180910390f35b34156104ab57600080fd5b6104ff600480803573ffffffffffffffffffffffffffffffffffffffff1690602001909190803573ffffffffffffffffffffffffffffffffffffffff16906020019091908035906020019091905050610d57565b604051808215151515815260200191505060405180910390f35b341561052457600080fd5b61053a6004808035906020019091905050610d72565b005b341561054757600080fd5b61054f610dde565b6040518082815260200191505060405180910390f35b341561057057600080fd5b610578610de4565b6040518082815260200191505060405180910390f35b341561059957600080fd5b6105b160048080351515906020019091905050610dea565b005b6105df600480803573ffffffffffffffffffffffffffffffffffffffff16906020019091905050610e62565b604051808215151515815260200191505060405180910390f35b6000600154421015801561060f57506002544211155b80156106da57506000600560009054906101000a900473ffffffffffffffffffffffffffffffffffffffff1673ffffffffffffffffffffffffffffffffffffffff1663f77c47916000604051602001526040518163ffffffff167c0100000000000000000000000000000000000000000000000000000000028152600401602060405180830381600087803b15156106a657600080fd5b6102c65a03f115156106b757600080fd5b5050506040518051905073ffffffffffffffffffffffffffffffffffffffff1614155b80156106e7575060003414155b80156106f95750600354346004540111155b151561070457600080fd5b606461071234600754610e76565b81151561071b57fe5b04905034600460008282540192505081905550600660009054906101000a900473ffffffffffffffffffffffffffffffffffffffff1673ffffffffffffffffffffffffffffffffffffffff166108fc349081150290604051600060405180830381858888f19350505050151561079057600080fd5b600560009054906101000a900473ffffffffffffffffffffffffffffffffffffffff1673ffffffffffffffffffffffffffffffffffffffff1663827f32c083836000604051602001526040518363ffffffff167c0100000000000000000000000000000000000000000000000000000000028152600401808373ffffffffffffffffffffffffffffffffffffffff1673ffffffffffffffffffffffffffffffffffffffff16815260200182815260200192505050602060405180830381600087803b151561085d57600080fd5b6102c65a03f1151561086e57600080fd5b50505060405180519050151561088357600080fd5b5050565b60075481565b6000809054906101000a900473ffffffffffffffffffffffffffffffffffffffff1673ffffffffffffffffffffffffffffffffffffffff163373ffffffffffffffffffffffffffffffffffffffff161415156108e857600080fd5b600560009054906101000a900473ffffffffffffffffffffffffffffffffffffffff1673ffffffffffffffffffffffffffffffffffffffff16633cebb823826040518263ffffffff167c0100000000000000000000000000000000000000000000000000000000028152600401808273ffffffffffffffffffffffffffffffffffffffff1673ffffffffffffffffffffffffffffffffffffffff168152602001915050600060405180830381600087803b15156109a457600080fd5b6102c65a03f115156109b557600080fd5b50505050565b600660009054906101000a900473ffffffffffffffffffffffffffffffffffffffff1681565b6000600660149054906101000a900460ff1690509392505050565b60008060009054906101000a900473ffffffffffffffffffffffffffffffffffffffff1673ffffffffffffffffffffffffffffffffffffffff163373ffffffffffffffffffffffffffffffffffffffff16141515610a5957600080fd5b81518351141515610a6957600080fd5b600090505b8251811015610ba557600560009054906101000a900473ffffffffffffffffffffffffffffffffffffffff1673ffffffffffffffffffffffffffffffffffffffff1663827f32c08483815181101515610ac357fe5b906020019060200201518484815181101515610adb57fe5b906020019060200201516000604051602001526040518363ffffffff167c0100000000000000000000000000000000000000000000000000000000028152600401808373ffffffffffffffffffffffffffffffffffffffff1673ffffffffffffffffffffffffffffffffffffffff16815260200182815260200192505050602060405180830381600087803b1515610b7257600080fd5b6102c65a03f11515610b8357600080fd5b505050604051805190501515610b9857600080fd5b8080600101915050610a6e565b505050565b600560009054906101000a900473ffffffffffffffffffffffffffffffffffffffff1681565b6000809054906101000a900473ffffffffffffffffffffffffffffffffffffffff1673ffffffffffffffffffffffffffffffffffffffff163373ffffffffffffffffffffffffffffffffffffffff16141515610c2b57600080fd5b80600660006101000a81548173ffffffffffffffffffffffffffffffffffffffff021916908373ffffffffffffffffffffffffffffffffffffffff16021790555050565b6000809054906101000a900473ffffffffffffffffffffffffffffffffffffffff1681565b60035481565b60085481565b6000809054906101000a900473ffffffffffffffffffffffffffffffffffffffff1673ffffffffffffffffffffffffffffffffffffffff163373ffffffffffffffffffffffffffffffffffffffff16141515610cfb57600080fd5b806000806101000a81548173ffffffffffffffffffffffffffffffffffffffff021916908373ffffffffffffffffffffffffffffffffffffffff16021790555050565b600660149054906101000a900460ff1681565b60015481565b6000600660149054906101000a900460ff1690509392505050565b6000809054906101000a900473ffffffffffffffffffffffffffffffffffffffff1673ffffffffffffffffffffffffffffffffffffffff163373ffffffffffffffffffffffffffffffffffffffff16141515610dcd57600080fd5b806007819055504360088190555050565b60045481565b60025481565b6000809054906101000a900473ffffffffffffffffffffffffffffffffffffffff1673ffffffffffffffffffffffffffffffffffffffff163373ffffffffffffffffffffffffffffffffffffffff16141515610e4557600080fd5b80600660146101000a81548160ff02191690831515021790555050565b6000610e6d826105f9565b60019050919050565b6000806000841415610e8b5760009150610eaa565b8284029050828482811515610e9c57fe5b04141515610ea657fe5b8091505b50929150505600a165627a7a723058202db07f4abb900fd6bdffa6c0cb396bcb111ff4896ec214179644a7de572df10f0029",
  "source": "pragma solidity ^0.4.11;\n\n\nimport \"../token/ControlledToken.sol\";\nimport \"../token/TokenController.sol\";\nimport \"./Owned.sol\";\nimport './SafeMath.sol';\n\n\ncontract TokenSale is TokenController, Owned, SafeMath {\n\n\n    uint public startFundingTime;           // In UNIX Time Format\n    uint public endFundingTime;             // In UNIX Time Format\n    uint public maximumFunding;             // In wei\n    uint public totalCollected;             // In wei\n    ControlledToken public tokenContract;   // The new token for this TokenSale\n    address public vaultAddress;            // The address to hold the funds donated\n    bool public transfersAllowed;           // If the token transfers are allowed\n    uint256 public exchangeRate;            // USD/ETH rate * 100\n    uint public exchangeRateAt;             // Block number when exchange rate was set\n\n    /// @notice 'TokenSale()' initiates the TokenSale by setting its funding\n    /// parameters\n    /// @dev There are several checks to make sure the parameters are acceptable\n    /// @param _startFundingTime The UNIX time that the TokenSale will be able to\n    /// start receiving funds\n    /// @param _endFundingTime The UNIX time that the TokenSale will stop being able\n    /// to receive funds\n    /// @param _maximumFunding In wei, the Maximum amount that the TokenSale can\n    /// receive\n    /// @param _vaultAddress The address that will store the donated funds\n    /// @param _tokenAddress Address of the token contract this contract controls\n    /// @param _transfersAllowed if token transfers are allowed\n    function TokenSale (\n        uint _startFundingTime,\n        uint _endFundingTime,\n        uint _maximumFunding,\n        address _vaultAddress,\n        address _tokenAddress,\n        bool _transfersAllowed,\n        uint256 _exchangeRate\n    ) public {\n        require ((_endFundingTime >= now) &&           // Cannot end in the past\n            (_endFundingTime > _startFundingTime) &&\n            (_vaultAddress != 0));                    // To prevent burning ETH\n        startFundingTime = _startFundingTime;\n        endFundingTime = _endFundingTime;\n        maximumFunding = _maximumFunding;\n        tokenContract = ControlledToken(_tokenAddress);// The Deployed Token Contract\n        vaultAddress = _vaultAddress;\n        transfersAllowed = _transfersAllowed;\n        exchangeRate = _exchangeRate;\n        exchangeRateAt = block.number;\n    }\n\n    /// @dev The fallback function is called when ether is sent to the contract, it\n    /// simply calls `doPayment()` with the address that sent the ether as the\n    /// `_owner`. Payable is a required solidity modifier for functions to receive\n    /// ether, without this modifier functions will throw if ether is sent to them\n    function ()  payable public {\n        doPayment(msg.sender);\n    }\n\n\n    /// @dev `doPayment()` is an internal function that sends the ether that this\n    ///  contract receives to the `vault` and creates tokens in the address of the\n    ///  `_owner` assuming the TokenSale is still accepting funds\n    /// @param _owner The address that will hold the newly created tokens\n\n    function doPayment(address _owner) internal {\n\n        // First check that the TokenSale is allowed to receive this donation\n        require ((now >= startFundingTime) &&\n            (now <= endFundingTime) &&\n            (tokenContract.controller() != 0) &&           // Extra check\n            (msg.value != 0) &&\n            (totalCollected + msg.value <= maximumFunding));\n\n        uint256 tokensAmount = mul(msg.value, exchangeRate) / 100;\n\n        //Track how much the TokenSale has collected\n        totalCollected += msg.value;\n\n        //Send the ether to the vault\n        require (vaultAddress.send(msg.value));\n\n        // Creates an  amount of tokens base on ether sent and exchange rate. The new tokens are created\n        //  in the `_owner` address\n        require (tokenContract.generateTokens(_owner, tokensAmount));\n\n        return;\n    }\n\n    function distributeTokens(address[] _owners, uint256[] _tokens) onlyOwner public {\n\n        require( _owners.length == _tokens.length );\n        for(uint i=0;i<_owners.length;i++){\n            require (tokenContract.generateTokens(_owners[i], _tokens[i]));\n        }\n\n    }\n\n\n    /// @notice `onlyOwner` changes the location that ether is sent\n    /// @param _newVaultAddress The address that will receive the ether sent to this token sale\n    function setVault(address _newVaultAddress) onlyOwner public{\n        vaultAddress = _newVaultAddress;\n    }\n\n    /// @notice `onlyOwner` changes the setting to allow transfer tokens\n    /// @param _allow  allowing to transfer tokens\n    function setTransfersAllowed(bool _allow) onlyOwner public{\n        transfersAllowed = _allow;\n    }\n\n    /// @notice `onlyOwner` changes the exchange rate of token to ETH\n    /// @param _exchangeRate USD/ETH rate * 100\n    function setExchangeRate(uint256 _exchangeRate) onlyOwner public{\n        exchangeRate = _exchangeRate;\n        exchangeRateAt = block.number;\n    }\n\n    /// @notice `onlyOwner` changes the controller of the tokenContract\n    /// @param _newController - controller to be used with token\n    function changeController(address _newController) onlyOwner public {\n        tokenContract.changeController(_newController);\n    }\n\n    /////////////////\n    // TokenController interface\n    /////////////////\n\n    /// @notice `proxyPayment()` allows the caller to send ether to the TokenSale and\n    /// have the tokens created in an address of their choosing\n    /// @param _owner The address that will hold the newly created tokens\n\n    function proxyPayment(address _owner) payable public returns(bool) {\n        doPayment(_owner);\n        return true;\n    }\n\n\n\n    /// @notice Notifies the controller about a transfer, for this TokenSale all\n    ///  transfers are allowed by default and no extra notifications are needed\n    /// @param _from The origin of the transfer\n    /// @param _to The destination of the transfer\n    /// @param _amount The amount of the transfer\n    /// @return False if the controller does not authorize the transfer\n    function onTransfer(address _from, address _to, uint _amount) public returns(bool) {\n        return transfersAllowed;\n    }\n\n    /// @notice Notifies the controller about an approval, for this TokenSale all\n    ///  approvals are allowed by default and no extra notifications are needed\n    /// @param _owner The address that calls `approve()`\n    /// @param _spender The spender in the `approve()` call\n    /// @param _amount The amount in the `approve()` call\n    /// @return False if the controller does not authorize the approval\n    function onApprove(address _owner, address _spender, uint _amount) public\n        returns(bool)\n    {\n        return transfersAllowed;\n    }\n\n\n}",
  "sourcePath": "/Users/studnev/dev4bc/contracts/contracts/crowdsale/TokenSale.sol",
  "compiler": {
    "name": "solc",
    "version": "0.4.18+commit.9cf6e910.Emscripten.clang"
  },
  "schemaVersion": "1.0.1",
  "updatedAt": "2017-11-26T07:10:34.736Z"
}