{
  "contractName": "TokenGame",
  "abi": [
    {
      "constant": true,
      "inputs": [],
      "name": "prize_tokens",
      "outputs": [
        {
          "name": "",
          "type": "uint256"
        }
      ],
      "payable": false,
      "stateMutability": "view",
      "type": "function"
    },
    {
      "constant": false,
      "inputs": [
        {
          "name": "_hashes",
          "type": "uint256[]"
        }
      ],
      "name": "issue",
      "outputs": [],
      "payable": true,
      "stateMutability": "payable",
      "type": "function"
    },
    {
      "constant": false,
      "inputs": [
        {
          "name": "_key",
          "type": "uint256"
        }
      ],
      "name": "claim",
      "outputs": [
        {
          "name": "",
          "type": "bool"
        }
      ],
      "payable": false,
      "stateMutability": "nonpayable",
      "type": "function"
    },
    {
      "constant": true,
      "inputs": [],
      "name": "prize_life_time",
      "outputs": [
        {
          "name": "",
          "type": "uint256"
        }
      ],
      "payable": false,
      "stateMutability": "view",
      "type": "function"
    },
    {
      "constant": false,
      "inputs": [],
      "name": "withdraw",
      "outputs": [],
      "payable": false,
      "stateMutability": "nonpayable",
      "type": "function"
    },
    {
      "constant": false,
      "inputs": [
        {
          "name": "_hashes",
          "type": "uint256[]"
        }
      ],
      "name": "revoke",
      "outputs": [],
      "payable": false,
      "stateMutability": "nonpayable",
      "type": "function"
    },
    {
      "constant": true,
      "inputs": [],
      "name": "owner",
      "outputs": [
        {
          "name": "",
          "type": "address"
        }
      ],
      "payable": false,
      "stateMutability": "view",
      "type": "function"
    },
    {
      "constant": false,
      "inputs": [
        {
          "name": "_prize_tokens",
          "type": "uint256"
        }
      ],
      "name": "set_prize_tokens",
      "outputs": [],
      "payable": false,
      "stateMutability": "nonpayable",
      "type": "function"
    },
    {
      "constant": false,
      "inputs": [
        {
          "name": "_newOwner",
          "type": "address"
        }
      ],
      "name": "changeOwner",
      "outputs": [],
      "payable": false,
      "stateMutability": "nonpayable",
      "type": "function"
    },
    {
      "constant": false,
      "inputs": [
        {
          "name": "_key",
          "type": "uint256"
        },
        {
          "name": "_winner",
          "type": "address"
        }
      ],
      "name": "claim_winner",
      "outputs": [
        {
          "name": "",
          "type": "bool"
        }
      ],
      "payable": false,
      "stateMutability": "nonpayable",
      "type": "function"
    },
    {
      "constant": true,
      "inputs": [
        {
          "name": "_key",
          "type": "uint256"
        }
      ],
      "name": "key_hash256",
      "outputs": [
        {
          "name": "",
          "type": "uint256"
        }
      ],
      "payable": false,
      "stateMutability": "view",
      "type": "function"
    },
    {
      "constant": true,
      "inputs": [
        {
          "name": "",
          "type": "uint256"
        }
      ],
      "name": "prizes",
      "outputs": [
        {
          "name": "issuer",
          "type": "address"
        },
        {
          "name": "owner",
          "type": "address"
        },
        {
          "name": "tokens",
          "type": "uint256"
        },
        {
          "name": "value",
          "type": "uint256"
        },
        {
          "name": "expiration",
          "type": "uint256"
        }
      ],
      "payable": false,
      "stateMutability": "view",
      "type": "function"
    },
    {
      "constant": true,
      "inputs": [
        {
          "name": "",
          "type": "address"
        }
      ],
      "name": "pendingWithdrawals",
      "outputs": [
        {
          "name": "",
          "type": "uint256"
        }
      ],
      "payable": false,
      "stateMutability": "view",
      "type": "function"
    },
    {
      "constant": true,
      "inputs": [],
      "name": "controller",
      "outputs": [
        {
          "name": "",
          "type": "address"
        }
      ],
      "payable": false,
      "stateMutability": "view",
      "type": "function"
    },
    {
      "constant": true,
      "inputs": [],
      "name": "token",
      "outputs": [
        {
          "name": "",
          "type": "address"
        }
      ],
      "payable": false,
      "stateMutability": "view",
      "type": "function"
    },
    {
      "inputs": [
        {
          "name": "_token",
          "type": "address"
        },
        {
          "name": "_controller",
          "type": "address"
        },
        {
          "name": "_prize_life_time",
          "type": "uint256"
        },
        {
          "name": "_prize_tokens",
          "type": "uint256"
        }
      ],
      "payable": false,
      "stateMutability": "nonpayable",
      "type": "constructor"
    },
    {
      "anonymous": false,
      "inputs": [
        {
          "indexed": true,
          "name": "issuer",
          "type": "address"
        },
        {
          "indexed": true,
          "name": "owner",
          "type": "address"
        },
        {
          "indexed": false,
          "name": "hash",
          "type": "uint256"
        },
        {
          "indexed": false,
          "name": "tokens",
          "type": "uint256"
        },
        {
          "indexed": false,
          "name": "value",
          "type": "uint256"
        },
        {
          "indexed": false,
          "name": "expiration",
          "type": "uint256"
        }
      ],
      "name": "Issue",
      "type": "event"
    },
    {
      "anonymous": false,
      "inputs": [
        {
          "indexed": true,
          "name": "issuer",
          "type": "address"
        },
        {
          "indexed": true,
          "name": "owner",
          "type": "address"
        },
        {
          "indexed": true,
          "name": "winner",
          "type": "address"
        },
        {
          "indexed": false,
          "name": "hash",
          "type": "uint256"
        },
        {
          "indexed": false,
          "name": "tokens",
          "type": "uint256"
        },
        {
          "indexed": false,
          "name": "value",
          "type": "uint256"
        }
      ],
      "name": "Claim",
      "type": "event"
    },
    {
      "anonymous": false,
      "inputs": [
        {
          "indexed": true,
          "name": "issuer",
          "type": "address"
        },
        {
          "indexed": true,
          "name": "owner",
          "type": "address"
        },
        {
          "indexed": false,
          "name": "hash",
          "type": "uint256"
        },
        {
          "indexed": false,
          "name": "tokens",
          "type": "uint256"
        },
        {
          "indexed": false,
          "name": "value",
          "type": "uint256"
        }
      ],
      "name": "Revoke",
      "type": "event"
    }
  ],
  "bytecode": "0x6060604052341561000f57600080fd5b604051608080610d1a8339810160405280805191906020018051919060200180519190602001805160008054600160a060020a03191633600160a060020a0390811691909117909155909250859150849084908316151561006f57600080fd5b600160a060020a038216151561008457600080fd5b6000811161009157600080fd5b60018054600160a060020a03948516600160a060020a0319918216179091556002805493909416921691909117909155600355600081116100d157600080fd5b600655505050610c34806100e66000396000f3006060604052600436106100c15763ffffffff60e060020a6000350416631b29018981146100c6578063247f216b146100eb578063379607f514610131578063389bd2531461015b5780633ccfd60b1461016e578063420b3bd1146101815780638da5cb5b146101d05780639313d650146101ff578063a6f9dae114610215578063dae2939c14610234578063e2dc19cb14610256578063eccb3a4f1461026c578063f3f43703146102bc578063f77c4791146102db578063fc0c546a146102ee575b600080fd5b34156100d157600080fd5b6100d9610301565b60405190815260200160405180910390f35b61012f600460248135818101908301358060208181020160405190810160405280939291908181526020018383602002808284375094965061030795505050505050565b005b341561013c57600080fd5b6101476004356105ca565b604051901515815260200160405180910390f35b341561016657600080fd5b6100d96105dc565b341561017957600080fd5b61012f6105e2565b341561018c57600080fd5b61012f600460248135818101908301358060208181020160405190810160405280939291908181526020018383602002808284375094965061063995505050505050565b34156101db57600080fd5b6101e3610708565b604051600160a060020a03909116815260200160405180910390f35b341561020a57600080fd5b61012f600435610717565b341561022057600080fd5b61012f600160a060020a0360043516610737565b341561023f57600080fd5b610147600435600160a060020a0360243516610781565b341561026157600080fd5b6100d96004356108ec565b341561027757600080fd5b61028260043561095b565b604051600160a060020a0395861681529390941660208401526040808401929092526060830152608082019290925260a001905180910390f35b34156102c757600080fd5b6100d9600160a060020a0360043516610997565b34156102e657600080fd5b6101e36109a9565b34156102f957600080fd5b6101e36109b8565b60065481565b6000808080341561031757600080fd5b600654600254600160a060020a03166370ef4f70333060006040516020015260405160e060020a63ffffffff8516028152600160a060020a03928316600482015291166024820152604401602060405180830381600087803b151561037b57600080fd5b6102c65a03f1151561038c57600080fd5b5050506040518051905081151561039f57fe5b04935084518411156103b057845193505b6103bc846006546109c7565b600154909350600160a060020a03166323b872dd33308660006040516020015260405160e060020a63ffffffff8616028152600160a060020a0393841660048201529190921660248201526044810191909152606401602060405180830381600087803b151561042b57600080fd5b6102c65a03f1151561043c57600080fd5b50505060405180519050151561045157600080fd5b5050600354420160005b838110156105c35760a06040519081016040528033600160a060020a0316815260200133600160a060020a0316815260200160065481526020016000815260200183815250600460008784815181106104b057fe5b9060200190602002015181526020019081526020016000206000820151815473ffffffffffffffffffffffffffffffffffffffff1916600160a060020a0391909116178155602082015160018201805473ffffffffffffffffffffffffffffffffffffffff1916600160a060020a03929092169190911790556040820151816002015560608201518160030155608082015160049091015550600160a060020a033316807fb0a73fdcdba556764570fd9b88fc745d32a9aaf30f046c5aeccd0bf9cc99271c87848151811061058157fe5b906020019060200201516006546000876040518085815260200184815260200183815260200182815260200194505050505060405180910390a360010161045b565b5050505050565b60006105d68233610781565b92915050565b60035481565b600160a060020a0333166000908152600560205260408120805490829055908111156106365733600160a060020a03168160405160006040518083038185876187965a03f192505050151561063657600080fd5b50565b6000805b8251821015610703576004600084848151811061065657fe5b9060200190602002015181526020019081526020016000209050806004015442118061068f5750805433600160a060020a039081169116145b156106f8576106f88160a060405190810160409081528254600160a060020a03908116835260018401541660208301526002830154908201526003820154606082015260049091015460808201528484815181106106e957fe5b906020019060200201516109fd565b60019091019061063d565b505050565b600054600160a060020a031681565b60005433600160a060020a0390811691161461073257600080fd5b600655565b60005433600160a060020a0390811691161461075257600080fd5b6000805473ffffffffffffffffffffffffffffffffffffffff1916600160a060020a0392909216919091179055565b600080600061078f856108ec565b600081815260046020526040902060018101549193509150600160a060020a031615156107bb57600080fd5b806004015442111561081f576108168160a060405190810160409081528254600160a060020a0390811683526001840154166020830152600283015490820152600382015460608201526004909101546080820152836109fd565b600092506108e4565b6108298185610b76565b6001810154815460028301546003840154600160a060020a038089169481169316917fe13b9fd454ff56d3db734a68636b9b52734a6006abb5a3c2600faab1e3d5579d9187919060405180848152602001838152602001828152602001935050505060405180910390a460008281526004602081905260408220805473ffffffffffffffffffffffffffffffffffffffff19908116825560018083018054909216909155600282018490556003820184905591019190915592505b505092915050565b6000600282306000604051602001526040518083815260200182600160a060020a0316600160a060020a03166c010000000000000000000000000281526014019250505060206040518083038160008661646e5a03f1151561094d57600080fd5b505060405180519392505050565b600460208190526000918252604090912080546001820154600283015460038401549390940154600160a060020a039283169492909116929085565b60056020526000908152604090205481565b600254600160a060020a031681565b600154600160a060020a031681565b6000808315156109da57600091506109f6565b508282028284828115156109ea57fe5b04146109f257fe5b8091505b5092915050565b600154600160a060020a031663a9059cbb6020840151846040015160006040516020015260405160e060020a63ffffffff8516028152600160a060020a0390921660048301526024820152604401602060405180830381600087803b1515610a6457600080fd5b6102c65a03f11515610a7557600080fd5b505050604051805190501515610a8a57600080fd5b600082606001511115610ac3578160600151600560008451600160a060020a031681526020810191909152604001600020805490910190555b8160200151600160a060020a03168251600160a060020a03167f532dc55aa2b2368c1b55b7b1ffe159f8d19732791960257d75711389e84fa683838560400151866060015160405180848152602001838152602001828152602001935050505060405180910390a360009081526004602081905260408220805473ffffffffffffffffffffffffffffffffffffffff19908116825560018201805490911690556002810183905560038101839055015550565b6001546002830154600160a060020a039091169063a9059cbb90839060006040516020015260405160e060020a63ffffffff8516028152600160a060020a0390921660048301526024820152604401602060405180830381600087803b1515610bde57600080fd5b6102c65a03f11515610bef57600080fd5b505050604051805190501515610c0457600080fd5b50505600a165627a7a72305820c3760d0ab244a3bb4bc77829d8987d1a35672156d08e917d72483431ecca37e20029",
  "source": "pragma solidity ^0.4.11;\n\nimport \"./Game.sol\";\n\n/**\n * @title TokenGame\n * @dev TokenGame is a contract to perform the game for tokens, no ether required.\n *\n * Look Game contract on the rule games. In the TokenGame, issuing prizes do not require Ether to pay.\n * Winner of the game receives all tokens of the prize\n *\n * @author Aleksey Studnev <studnev@izx.io>\n */\ncontract TokenGame is Game {\n\n    uint256 public prize_tokens; // amount of tokens in one prize\n\n    /// @notice TokenGame constructor. Called by game owner (\"developer\")\n    /// @param _token ERC20 token, used in game, not 0\n    /// @param _controller GameController, used to controlled token allowances, not 0\n    /// @param _prize_life_time time from prize creation to expiration in seconds\n    /// @param _prize_tokens amount of tokens in one prize\n    function TokenGame(  ERC20 _token,\n                        GameController _controller,\n                        uint256 _prize_life_time,\n                        uint256 _prize_tokens)\n        Game(_token, _controller, _prize_life_time) public {\n        require( _prize_tokens > 0 );\n        prize_tokens = _prize_tokens;\n    }\n\n    /// @notice issue prizes using own tokens, no ether is required, just tokens\n    /// @param _hashes array of hashes to setup prizes\n    function issue(uint256[] _hashes) payable public {\n        require(msg.value==0);\n\n        uint256 prize_count = controller.available_amount(msg.sender, this) / prize_tokens;\n        if(prize_count > _hashes.length){\n            prize_count = _hashes.length;\n        }\n\n        uint256 total_tokens = mul(prize_count, prize_tokens);\n        require( token.transferFrom(msg.sender, this, total_tokens) );\n\n        uint256 expired_at = now + prize_life_time;\n        for(uint i=0;i<prize_count;i++){\n            prizes[_hashes[i]] = Prize(msg.sender, msg.sender, prize_tokens, 0, expired_at);\n            Issue(msg.sender, msg.sender, _hashes[i], prize_tokens, 0, expired_at);\n        }\n    }\n\n    function payout(Prize storage _prize, address _winner) internal {\n        require(token.transfer(_winner, _prize.tokens));\n    }\n\n    function set_prize_tokens(uint256 _prize_tokens) onlyOwner public {\n        prize_tokens = _prize_tokens;\n    }\n\n}",
  "sourcePath": "/Users/studnev/dev4bc/contracts/contracts/game/TokenGame.sol",
  "compiler": {
    "name": "solc",
    "version": "0.4.18+commit.9cf6e910.Emscripten.clang"
  },
  "schemaVersion": "1.0.1",
  "updatedAt": "2018-01-07T10:14:16.899Z"
}