{
  "contractName": "TokenSale",
  "abi": [
    {
      "constant": true,
      "inputs": [],
      "name": "exchangeRate",
      "outputs": [
        {
          "name": "",
          "type": "uint256"
        }
      ],
      "payable": false,
      "stateMutability": "view",
      "type": "function"
    },
    {
      "constant": false,
      "inputs": [
        {
          "name": "_newController",
          "type": "address"
        }
      ],
      "name": "changeController",
      "outputs": [],
      "payable": false,
      "stateMutability": "nonpayable",
      "type": "function"
    },
    {
      "constant": true,
      "inputs": [],
      "name": "vaultAddress",
      "outputs": [
        {
          "name": "",
          "type": "address"
        }
      ],
      "payable": false,
      "stateMutability": "view",
      "type": "function"
    },
    {
      "constant": false,
      "inputs": [
        {
          "name": "_from",
          "type": "address"
        },
        {
          "name": "_to",
          "type": "address"
        },
        {
          "name": "_amount",
          "type": "uint256"
        }
      ],
      "name": "onTransfer",
      "outputs": [
        {
          "name": "",
          "type": "bool"
        }
      ],
      "payable": false,
      "stateMutability": "nonpayable",
      "type": "function"
    },
    {
      "constant": false,
      "inputs": [
        {
          "name": "_owners",
          "type": "address[]"
        },
        {
          "name": "_tokens",
          "type": "uint256[]"
        }
      ],
      "name": "distributeTokens",
      "outputs": [],
      "payable": false,
      "stateMutability": "nonpayable",
      "type": "function"
    },
    {
      "constant": true,
      "inputs": [],
      "name": "tokenContract",
      "outputs": [
        {
          "name": "",
          "type": "address"
        }
      ],
      "payable": false,
      "stateMutability": "view",
      "type": "function"
    },
    {
      "constant": false,
      "inputs": [
        {
          "name": "_newVaultAddress",
          "type": "address"
        }
      ],
      "name": "setVault",
      "outputs": [],
      "payable": false,
      "stateMutability": "nonpayable",
      "type": "function"
    },
    {
      "constant": true,
      "inputs": [],
      "name": "totalTokenCount",
      "outputs": [
        {
          "name": "",
          "type": "uint256"
        }
      ],
      "payable": false,
      "stateMutability": "view",
      "type": "function"
    },
    {
      "constant": true,
      "inputs": [],
      "name": "owner",
      "outputs": [
        {
          "name": "",
          "type": "address"
        }
      ],
      "payable": false,
      "stateMutability": "view",
      "type": "function"
    },
    {
      "constant": true,
      "inputs": [],
      "name": "exchangeRateAt",
      "outputs": [
        {
          "name": "",
          "type": "uint256"
        }
      ],
      "payable": false,
      "stateMutability": "view",
      "type": "function"
    },
    {
      "constant": false,
      "inputs": [
        {
          "name": "_newOwner",
          "type": "address"
        }
      ],
      "name": "changeOwner",
      "outputs": [],
      "payable": false,
      "stateMutability": "nonpayable",
      "type": "function"
    },
    {
      "constant": true,
      "inputs": [],
      "name": "transfersAllowed",
      "outputs": [
        {
          "name": "",
          "type": "bool"
        }
      ],
      "payable": false,
      "stateMutability": "view",
      "type": "function"
    },
    {
      "constant": true,
      "inputs": [],
      "name": "startFundingTime",
      "outputs": [
        {
          "name": "",
          "type": "uint256"
        }
      ],
      "payable": false,
      "stateMutability": "view",
      "type": "function"
    },
    {
      "constant": false,
      "inputs": [
        {
          "name": "_owner",
          "type": "address"
        },
        {
          "name": "_spender",
          "type": "address"
        },
        {
          "name": "_amount",
          "type": "uint256"
        }
      ],
      "name": "onApprove",
      "outputs": [
        {
          "name": "",
          "type": "bool"
        }
      ],
      "payable": false,
      "stateMutability": "nonpayable",
      "type": "function"
    },
    {
      "constant": false,
      "inputs": [
        {
          "name": "_exchangeRate",
          "type": "uint256"
        }
      ],
      "name": "setExchangeRate",
      "outputs": [],
      "payable": false,
      "stateMutability": "nonpayable",
      "type": "function"
    },
    {
      "constant": true,
      "inputs": [],
      "name": "tokenCap",
      "outputs": [
        {
          "name": "",
          "type": "uint256"
        }
      ],
      "payable": false,
      "stateMutability": "view",
      "type": "function"
    },
    {
      "constant": true,
      "inputs": [],
      "name": "totalCollected",
      "outputs": [
        {
          "name": "",
          "type": "uint256"
        }
      ],
      "payable": false,
      "stateMutability": "view",
      "type": "function"
    },
    {
      "constant": true,
      "inputs": [],
      "name": "endFundingTime",
      "outputs": [
        {
          "name": "",
          "type": "uint256"
        }
      ],
      "payable": false,
      "stateMutability": "view",
      "type": "function"
    },
    {
      "constant": false,
      "inputs": [
        {
          "name": "_allow",
          "type": "bool"
        }
      ],
      "name": "setTransfersAllowed",
      "outputs": [],
      "payable": false,
      "stateMutability": "nonpayable",
      "type": "function"
    },
    {
      "constant": false,
      "inputs": [
        {
          "name": "_owner",
          "type": "address"
        }
      ],
      "name": "proxyPayment",
      "outputs": [
        {
          "name": "",
          "type": "bool"
        }
      ],
      "payable": true,
      "stateMutability": "payable",
      "type": "function"
    },
    {
      "inputs": [
        {
          "name": "_startFundingTime",
          "type": "uint256"
        },
        {
          "name": "_endFundingTime",
          "type": "uint256"
        },
        {
          "name": "_tokenCap",
          "type": "uint256"
        },
        {
          "name": "_vaultAddress",
          "type": "address"
        },
        {
          "name": "_tokenAddress",
          "type": "address"
        },
        {
          "name": "_transfersAllowed",
          "type": "bool"
        },
        {
          "name": "_exchangeRate",
          "type": "uint256"
        }
      ],
      "payable": false,
      "stateMutability": "nonpayable",
      "type": "constructor"
    },
    {
      "payable": true,
      "stateMutability": "payable",
      "type": "fallback"
    }
  ],
  "bytecode": "0x6060604052341561000f57600080fd5b60405160e0806109ba8339810160405280805191906020018051919060200180519190602001805191906020018051919060200180519190602001805160008054600160a060020a03191633600160a060020a031617905591505042861080159061007957508686115b801561008d5750600160a060020a03841615155b151561009857600080fd5b60019690965560029490945560039290925560068054600160a060020a03938416600160a060020a03199182161790915560078054941515740100000000000000000000000000000000000000000260a060020a60ff021993909416949091169390931716179055600855436009556108a4806101166000396000f3006060604052600436106100f85763ffffffff60e060020a6000350416633ba0b9a981146101035780633cebb82314610128578063430bf08a146101475780634a393149146101765780634bd09c2a146101b257806355a373d6146102415780636817031b14610254578063764912ef146102735780638da5cb5b146102865780639cbf1b8514610299578063a6f9dae1146102ac578063b0660c3d146102cb578063b75ece9c146102de578063da682aeb14610176578063db068e0e146102f1578063dd54291b14610307578063e29eb8361461031a578063e4693e981461032d578063f3cd1c2814610340578063f48c305414610358575b6101013361036c565b005b341561010e57600080fd5b61011661050a565b60405190815260200160405180910390f35b341561013357600080fd5b610101600160a060020a0360043516610510565b341561015257600080fd5b61015a610592565b604051600160a060020a03909116815260200160405180910390f35b341561018157600080fd5b61019e600160a060020a03600435811690602435166044356105a1565b604051901515815260200160405180910390f35b34156101bd57600080fd5b6101016004602481358181019083013580602081810201604051908101604052809392919081815260200183836020028082843782019150505050505091908035906020019082018035906020019080806020026020016040519081016040528093929190818152602001838360200280828437509496506105c695505050505050565b341561024c57600080fd5b61015a6106b9565b341561025f57600080fd5b610101600160a060020a03600435166106c8565b341561027e57600080fd5b610116610712565b341561029157600080fd5b61015a610718565b34156102a457600080fd5b610116610727565b34156102b757600080fd5b610101600160a060020a036004351661072d565b34156102d657600080fd5b61019e610777565b34156102e957600080fd5b610116610798565b34156102fc57600080fd5b61010160043561079e565b341561031257600080fd5b6101166107c2565b341561032557600080fd5b6101166107c8565b341561033857600080fd5b6101166107ce565b341561034b57600080fd5b61010160043515156107d4565b61019e600160a060020a036004351661082f565b6000600154421015801561038257506002544211155b80156103f85750600654600160a060020a031663f77c47916000604051602001526040518163ffffffff1660e060020a028152600401602060405180830381600087803b15156103d157600080fd5b6102c65a03f115156103e257600080fd5b5050506040518051600160a060020a0316151590505b801561040357503415155b151561040e57600080fd5b606461041c34600854610842565b81151561042557fe5b04905060035481600454011115151561043d57600080fd5b6005805434908101909155600754600160a060020a031690616d6090604051600060405180830381858888f19350505050151561047957600080fd5b600654600160a060020a031663827f32c0838360006040516020015260405160e060020a63ffffffff8516028152600160a060020a0390921660048301526024820152604401602060405180830381600087803b15156104d857600080fd5b6102c65a03f115156104e957600080fd5b5050506040518051905015156104fe57600080fd5b60048054820190555050565b60085481565b60005433600160a060020a0390811691161461052b57600080fd5b600654600160a060020a0316633cebb8238260405160e060020a63ffffffff8416028152600160a060020a039091166004820152602401600060405180830381600087803b151561057b57600080fd5b6102c65a03f1151561058c57600080fd5b50505050565b600754600160a060020a031681565b505060075474010000000000000000000000000000000000000000900460ff16919050565b6000805433600160a060020a039081169116146105e257600080fd5b81518351146105f057600080fd5b5060005b82518110156106b457600654600160a060020a031663827f32c084838151811061061a57fe5b9060200190602002015184848151811061063057fe5b9060200190602002015160006040516020015260405160e060020a63ffffffff8516028152600160a060020a0390921660048301526024820152604401602060405180830381600087803b151561068657600080fd5b6102c65a03f1151561069757600080fd5b5050506040518051905015156106ac57600080fd5b6001016105f4565b505050565b600654600160a060020a031681565b60005433600160a060020a039081169116146106e357600080fd5b6007805473ffffffffffffffffffffffffffffffffffffffff1916600160a060020a0392909216919091179055565b60045481565b600054600160a060020a031681565b60095481565b60005433600160a060020a0390811691161461074857600080fd5b6000805473ffffffffffffffffffffffffffffffffffffffff1916600160a060020a0392909216919091179055565b60075474010000000000000000000000000000000000000000900460ff1681565b60015481565b60005433600160a060020a039081169116146107b957600080fd5b60085543600955565b60035481565b60055481565b60025481565b60005433600160a060020a039081169116146107ef57600080fd5b60078054911515740100000000000000000000000000000000000000000274ff000000000000000000000000000000000000000019909216919091179055565b600061083a8261036c565b506001919050565b6000808315156108555760009150610871565b5082820282848281151561086557fe5b041461086d57fe5b8091505b50929150505600a165627a7a723058209054c054567bab7cbe748fad2e474319862e5f94a16c0f0fa0a5448319f100ac0029",
  "source": "pragma solidity ^0.4.11;\n\n\nimport \"../token/ControlledToken.sol\";\nimport \"../token/TokenController.sol\";\nimport \"../util/Owned.sol\";\nimport '../util/SafeMath.sol';\n\n\ncontract TokenSale is TokenController, Owned, SafeMath {\n\n\n    uint public startFundingTime;           // In UNIX Time Format\n    uint public endFundingTime;             // In UNIX Time Format\n\n    uint public tokenCap;                   // Maximum amount of tokens to be distributed\n    uint public totalTokenCount;            // Actual amount of tokens distributed\n\n    uint public totalCollected;             // In wei\n    ControlledToken public tokenContract;   // The new token for this TokenSale\n    address public vaultAddress;            // The address to hold the funds donated\n    bool public transfersAllowed;           // If the token transfers are allowed\n    uint256 public exchangeRate;            // USD/ETH rate * 100\n    uint public exchangeRateAt;             // Block number when exchange rate was set\n\n    /// @notice 'TokenSale()' initiates the TokenSale by setting its funding\n    /// parameters\n    /// @dev There are several checks to make sure the parameters are acceptable\n    /// @param _startFundingTime The UNIX time that the TokenSale will be able to\n    /// start receiving funds\n    /// @param _endFundingTime The UNIX time that the TokenSale will stop being able\n    /// to receive funds\n    /// @param _tokenCap Maximum amount of tokens to be sold\n    /// @param _vaultAddress The address that will store the donated funds\n    /// @param _tokenAddress Address of the token contract this contract controls\n    /// @param _transfersAllowed if token transfers are allowed\n    /// @param _exchangeRate USD/ETH rate * 100\n    function TokenSale (\n        uint _startFundingTime,\n        uint _endFundingTime,\n        uint _tokenCap,\n        address _vaultAddress,\n        address _tokenAddress,\n        bool _transfersAllowed,\n        uint256 _exchangeRate\n    ) public {\n        require ((_endFundingTime >= now) &&           // Cannot end in the past\n            (_endFundingTime > _startFundingTime) &&\n            (_vaultAddress != 0));                    // To prevent burning ETH\n        startFundingTime = _startFundingTime;\n        endFundingTime = _endFundingTime;\n        tokenCap = _tokenCap;\n        tokenContract = ControlledToken(_tokenAddress);// The Deployed Token Contract\n        vaultAddress = _vaultAddress;\n        transfersAllowed = _transfersAllowed;\n        exchangeRate = _exchangeRate;\n        exchangeRateAt = block.number;\n    }\n\n    /// @dev The fallback function is called when ether is sent to the contract, it\n    /// simply calls `doPayment()` with the address that sent the ether as the\n    /// `_owner`. Payable is a required solidity modifier for functions to receive\n    /// ether, without this modifier functions will throw if ether is sent to them\n    function ()  payable public {\n        doPayment(msg.sender);\n    }\n\n\n    /// @dev `doPayment()` is an internal function that sends the ether that this\n    ///  contract receives to the `vault` and creates tokens in the address of the\n    ///  `_owner` assuming the TokenSale is still accepting funds\n    /// @param _owner The address that will hold the newly created tokens\n\n    function doPayment(address _owner) internal {\n\n        // First check that the TokenSale is allowed to receive this donation\n        require ((now >= startFundingTime) &&\n            (now <= endFundingTime) &&\n            (tokenContract.controller() != 0) &&\n            (msg.value != 0) );\n\n        uint256 tokensAmount = mul(msg.value, exchangeRate) / 100;\n\n        require( totalTokenCount + tokensAmount <= tokenCap );\n\n        //Track how much the TokenSale has collected\n        totalCollected += msg.value;\n\n        //Send the ether to the vault\n        require (vaultAddress.call.gas(28000).value(msg.value)());\n\n        // Creates an  amount of tokens base on ether sent and exchange rate. The new tokens are created\n        //  in the `_owner` address\n        require (tokenContract.generateTokens(_owner, tokensAmount));\n\n        totalTokenCount += tokensAmount;\n\n        return;\n    }\n\n    function distributeTokens(address[] _owners, uint256[] _tokens) onlyOwner public {\n\n        require( _owners.length == _tokens.length );\n        for(uint i=0;i<_owners.length;i++){\n            require (tokenContract.generateTokens(_owners[i], _tokens[i]));\n        }\n\n    }\n\n\n    /// @notice `onlyOwner` changes the location that ether is sent\n    /// @param _newVaultAddress The address that will receive the ether sent to this token sale\n    function setVault(address _newVaultAddress) onlyOwner public{\n        vaultAddress = _newVaultAddress;\n    }\n\n    /// @notice `onlyOwner` changes the setting to allow transfer tokens\n    /// @param _allow  allowing to transfer tokens\n    function setTransfersAllowed(bool _allow) onlyOwner public{\n        transfersAllowed = _allow;\n    }\n\n    /// @notice `onlyOwner` changes the exchange rate of token to ETH\n    /// @param _exchangeRate USD/ETH rate * 100\n    function setExchangeRate(uint256 _exchangeRate) onlyOwner public{\n        exchangeRate = _exchangeRate;\n        exchangeRateAt = block.number;\n    }\n\n    /// @notice `onlyOwner` changes the controller of the tokenContract\n    /// @param _newController - controller to be used with token\n    function changeController(address _newController) onlyOwner public {\n        tokenContract.changeController(_newController);\n    }\n\n    /////////////////\n    // TokenController interface\n    /////////////////\n\n    /// @notice `proxyPayment()` allows the caller to send ether to the TokenSale and\n    /// have the tokens created in an address of their choosing\n    /// @param _owner The address that will hold the newly created tokens\n\n    function proxyPayment(address _owner) payable public returns(bool) {\n        doPayment(_owner);\n        return true;\n    }\n\n\n\n    /// @notice Notifies the controller about a transfer, for this TokenSale all\n    ///  transfers are allowed by default and no extra notifications are needed\n    /// @param _from The origin of the transfer\n    /// @param _to The destination of the transfer\n    /// @param _amount The amount of the transfer\n    /// @return False if the controller does not authorize the transfer\n    function onTransfer(address _from, address _to, uint _amount) public returns(bool) {\n        return transfersAllowed;\n    }\n\n    /// @notice Notifies the controller about an approval, for this TokenSale all\n    ///  approvals are allowed by default and no extra notifications are needed\n    /// @param _owner The address that calls `approve()`\n    /// @param _spender The spender in the `approve()` call\n    /// @param _amount The amount in the `approve()` call\n    /// @return False if the controller does not authorize the approval\n    function onApprove(address _owner, address _spender, uint _amount) public\n        returns(bool)\n    {\n        return transfersAllowed;\n    }\n\n\n}",
  "sourcePath": "/Users/studnev/dev4bc/contracts/contracts/crowdsale/TokenSale.sol",
  "compiler": {
    "name": "solc",
    "version": "0.4.18+commit.9cf6e910.Emscripten.clang"
  },
  "schemaVersion": "1.0.1",
  "updatedAt": "2018-01-05T10:59:19.774Z"
}