{
  "contractName": "Wallet",
  "abi": [
    {
      "constant": false,
      "inputs": [
        {
          "name": "_owner",
          "type": "address"
        }
      ],
      "name": "removeOwner",
      "outputs": [],
      "payable": false,
      "stateMutability": "nonpayable",
      "type": "function"
    },
    {
      "constant": false,
      "inputs": [
        {
          "name": "_addr",
          "type": "address"
        }
      ],
      "name": "isOwner",
      "outputs": [
        {
          "name": "",
          "type": "bool"
        }
      ],
      "payable": false,
      "stateMutability": "nonpayable",
      "type": "function"
    },
    {
      "constant": true,
      "inputs": [],
      "name": "m_numOwners",
      "outputs": [
        {
          "name": "",
          "type": "uint256"
        }
      ],
      "payable": false,
      "stateMutability": "view",
      "type": "function"
    },
    {
      "constant": true,
      "inputs": [],
      "name": "m_lastDay",
      "outputs": [
        {
          "name": "",
          "type": "uint256"
        }
      ],
      "payable": false,
      "stateMutability": "view",
      "type": "function"
    },
    {
      "constant": false,
      "inputs": [],
      "name": "resetSpentToday",
      "outputs": [],
      "payable": false,
      "stateMutability": "nonpayable",
      "type": "function"
    },
    {
      "constant": true,
      "inputs": [],
      "name": "m_spentToday",
      "outputs": [
        {
          "name": "",
          "type": "uint256"
        }
      ],
      "payable": false,
      "stateMutability": "view",
      "type": "function"
    },
    {
      "constant": false,
      "inputs": [
        {
          "name": "_owner",
          "type": "address"
        }
      ],
      "name": "addOwner",
      "outputs": [],
      "payable": false,
      "stateMutability": "nonpayable",
      "type": "function"
    },
    {
      "constant": true,
      "inputs": [],
      "name": "m_required",
      "outputs": [
        {
          "name": "",
          "type": "uint256"
        }
      ],
      "payable": false,
      "stateMutability": "view",
      "type": "function"
    },
    {
      "constant": false,
      "inputs": [
        {
          "name": "_h",
          "type": "bytes32"
        }
      ],
      "name": "confirm",
      "outputs": [
        {
          "name": "",
          "type": "bool"
        }
      ],
      "payable": false,
      "stateMutability": "nonpayable",
      "type": "function"
    },
    {
      "constant": false,
      "inputs": [
        {
          "name": "_newLimit",
          "type": "uint256"
        }
      ],
      "name": "setDailyLimit",
      "outputs": [],
      "payable": false,
      "stateMutability": "nonpayable",
      "type": "function"
    },
    {
      "constant": false,
      "inputs": [
        {
          "name": "_to",
          "type": "address"
        },
        {
          "name": "_value",
          "type": "uint256"
        },
        {
          "name": "_data",
          "type": "bytes"
        }
      ],
      "name": "execute",
      "outputs": [
        {
          "name": "_r",
          "type": "bytes32"
        }
      ],
      "payable": false,
      "stateMutability": "nonpayable",
      "type": "function"
    },
    {
      "constant": false,
      "inputs": [
        {
          "name": "_operation",
          "type": "bytes32"
        }
      ],
      "name": "revoke",
      "outputs": [],
      "payable": false,
      "stateMutability": "nonpayable",
      "type": "function"
    },
    {
      "constant": false,
      "inputs": [
        {
          "name": "_newRequired",
          "type": "uint256"
        }
      ],
      "name": "changeRequirement",
      "outputs": [],
      "payable": false,
      "stateMutability": "nonpayable",
      "type": "function"
    },
    {
      "constant": true,
      "inputs": [
        {
          "name": "_operation",
          "type": "bytes32"
        },
        {
          "name": "_owner",
          "type": "address"
        }
      ],
      "name": "hasConfirmed",
      "outputs": [
        {
          "name": "",
          "type": "bool"
        }
      ],
      "payable": false,
      "stateMutability": "view",
      "type": "function"
    },
    {
      "constant": true,
      "inputs": [
        {
          "name": "ownerIndex",
          "type": "uint256"
        }
      ],
      "name": "getOwner",
      "outputs": [
        {
          "name": "",
          "type": "address"
        }
      ],
      "payable": false,
      "stateMutability": "view",
      "type": "function"
    },
    {
      "constant": false,
      "inputs": [
        {
          "name": "_to",
          "type": "address"
        }
      ],
      "name": "kill",
      "outputs": [],
      "payable": false,
      "stateMutability": "nonpayable",
      "type": "function"
    },
    {
      "constant": false,
      "inputs": [
        {
          "name": "_from",
          "type": "address"
        },
        {
          "name": "_to",
          "type": "address"
        }
      ],
      "name": "changeOwner",
      "outputs": [],
      "payable": false,
      "stateMutability": "nonpayable",
      "type": "function"
    },
    {
      "constant": true,
      "inputs": [],
      "name": "m_dailyLimit",
      "outputs": [
        {
          "name": "",
          "type": "uint256"
        }
      ],
      "payable": false,
      "stateMutability": "view",
      "type": "function"
    },
    {
      "inputs": [
        {
          "name": "_owners",
          "type": "address[]"
        },
        {
          "name": "_required",
          "type": "uint256"
        },
        {
          "name": "_daylimit",
          "type": "uint256"
        }
      ],
      "payable": false,
      "stateMutability": "nonpayable",
      "type": "constructor"
    },
    {
      "payable": true,
      "stateMutability": "payable",
      "type": "fallback"
    },
    {
      "anonymous": false,
      "inputs": [
        {
          "indexed": false,
          "name": "owner",
          "type": "address"
        },
        {
          "indexed": false,
          "name": "operation",
          "type": "bytes32"
        }
      ],
      "name": "Confirmation",
      "type": "event"
    },
    {
      "anonymous": false,
      "inputs": [
        {
          "indexed": false,
          "name": "owner",
          "type": "address"
        },
        {
          "indexed": false,
          "name": "operation",
          "type": "bytes32"
        }
      ],
      "name": "Revoke",
      "type": "event"
    },
    {
      "anonymous": false,
      "inputs": [
        {
          "indexed": false,
          "name": "oldOwner",
          "type": "address"
        },
        {
          "indexed": false,
          "name": "newOwner",
          "type": "address"
        }
      ],
      "name": "OwnerChanged",
      "type": "event"
    },
    {
      "anonymous": false,
      "inputs": [
        {
          "indexed": false,
          "name": "newOwner",
          "type": "address"
        }
      ],
      "name": "OwnerAdded",
      "type": "event"
    },
    {
      "anonymous": false,
      "inputs": [
        {
          "indexed": false,
          "name": "oldOwner",
          "type": "address"
        }
      ],
      "name": "OwnerRemoved",
      "type": "event"
    },
    {
      "anonymous": false,
      "inputs": [
        {
          "indexed": false,
          "name": "newRequirement",
          "type": "uint256"
        }
      ],
      "name": "RequirementChanged",
      "type": "event"
    },
    {
      "anonymous": false,
      "inputs": [
        {
          "indexed": false,
          "name": "_from",
          "type": "address"
        },
        {
          "indexed": false,
          "name": "value",
          "type": "uint256"
        }
      ],
      "name": "Deposit",
      "type": "event"
    },
    {
      "anonymous": false,
      "inputs": [
        {
          "indexed": false,
          "name": "owner",
          "type": "address"
        },
        {
          "indexed": false,
          "name": "value",
          "type": "uint256"
        },
        {
          "indexed": false,
          "name": "to",
          "type": "address"
        },
        {
          "indexed": false,
          "name": "data",
          "type": "bytes"
        }
      ],
      "name": "SingleTransact",
      "type": "event"
    },
    {
      "anonymous": false,
      "inputs": [
        {
          "indexed": false,
          "name": "owner",
          "type": "address"
        },
        {
          "indexed": false,
          "name": "operation",
          "type": "bytes32"
        },
        {
          "indexed": false,
          "name": "value",
          "type": "uint256"
        },
        {
          "indexed": false,
          "name": "to",
          "type": "address"
        },
        {
          "indexed": false,
          "name": "data",
          "type": "bytes"
        }
      ],
      "name": "MultiTransact",
      "type": "event"
    },
    {
      "anonymous": false,
      "inputs": [
        {
          "indexed": false,
          "name": "operation",
          "type": "bytes32"
        },
        {
          "indexed": false,
          "name": "initiator",
          "type": "address"
        },
        {
          "indexed": false,
          "name": "value",
          "type": "uint256"
        },
        {
          "indexed": false,
          "name": "to",
          "type": "address"
        },
        {
          "indexed": false,
          "name": "data",
          "type": "bytes"
        }
      ],
      "name": "ConfirmationNeeded",
      "type": "event"
    }
  ],
  "bytecode": "0x6060604052341561000f57600080fd5b60405161132e38038061132e833981016040528080518201919060200180519190602001805191508190508383600082516001908101815533600160a060020a031660038190556000908152610102602052604081209190915590505b82518110156100e75782818151811061008157fe5b90602001906020020151600160a060020a0316600282810161010081106100a457fe5b01556002810161010260008584815181106100bb57fe5b90602001906020020151600160a060020a0316815260208101919091526040016000205560010161006c565b50600055506101058190556101076401000000006110b161011582021704565b610107555061011e92505050565b62015180420490565b6112018061012d6000396000f3006060604052600436106100fb5763ffffffff7c0100000000000000000000000000000000000000000000000000000000600035041663173825d9811461014b5780632f54bf6e1461016a5780634123cb6b1461019d57806352375093146101c25780635c52c2f5146101d5578063659010e7146101e85780637065cb48146101fb578063746c91711461021a578063797af6271461022d578063b20d30a914610243578063b61d27f614610259578063b75c7dc614610288578063ba51a6df1461029e578063c2cf7326146102b4578063c41a360a146102d6578063cbf0b0c014610308578063f00d4b5d14610327578063f1736d861461034c575b6000341115610149577fe1fffcc4923d04b559f4d29a8bfc6cda04eb5b0d3c460751c2402c5c5cc9109c3334604051600160a060020a03909216825260208201526040908101905180910390a15b005b341561015657600080fd5b610149600160a060020a036004351661035f565b341561017557600080fd5b610189600160a060020a0360043516610446565b604051901515815260200160405180910390f35b34156101a857600080fd5b6101b0610467565b60405190815260200160405180910390f35b34156101cd57600080fd5b6101b061046d565b34156101e057600080fd5b610149610474565b34156101f357600080fd5b6101b06104aa565b341561020657600080fd5b610149600160a060020a03600435166104b1565b341561022557600080fd5b6101b06105a4565b341561023857600080fd5b6101896004356105aa565b341561024e57600080fd5b6101496004356107c8565b341561026457600080fd5b6101b060048035600160a060020a03169060248035916044359182019101356107fb565b341561029357600080fd5b6101496004356109f0565b34156102a957600080fd5b610149600435610a9a565b34156102bf57600080fd5b610189600435600160a060020a0360243516610b19565b34156102e157600080fd5b6102ec600435610b6e565b604051600160a060020a03909116815260200160405180910390f35b341561031357600080fd5b610149600160a060020a0360043516610b89565b341561033257600080fd5b610149600160a060020a0360043581169060243516610bc1565b341561035757600080fd5b6101b0610cc1565b6000803660405180838380828437820191505092505050604051809103902061038781610cc8565b1561044157600160a060020a0383166000908152610102602052604090205491508115156103b457610441565b600180540360005411156103c757610441565b600060028361010081106103d757fe5b0155600160a060020a038316600090815261010260205260408120556103fb610e27565b610403610ea8565b7f58619076adf5bb0943d100ef88d52d7c3fd691b19d3a9071b555b651fbf418da83604051600160a060020a03909116815260200160405180910390a15b505050565b600160a060020a03811660009081526101026020526040812054115b919050565b60015481565b6101075481565b60003660405180838380828437820191505092505050604051809103902061049b81610cc8565b156104a7576000610106555b50565b6101065481565b6000366040518083838082843782019150509250505060405180910390206104d881610cc8565b156105a0576104e682610446565b156104f0576105a0565b6104f8610e27565b60015460fa901061050b5761050b610ea8565b60015460fa901061051b576105a0565b60018054810190819055600160a060020a03831690600290610100811061053e57fe5b0155600154600160a060020a0383166000908152610102602052604090819020919091557f994a936646fe87ffe4f1e469d3d6aa417d6b855598397f323de5b449f765f0c390839051600160a060020a03909116815260200160405180910390a15b5050565b60005481565b6000816105b681610cc8565b156107c25760008381526101086020526040902054600160a060020a0316156107c257600083815261010860205260409081902080546001820154600160a060020a03909116929091600201905180828054600181600116156101000203166002900480156106665780601f1061063b57610100808354040283529160200191610666565b820191906000526020600020905b81548152906001019060200180831161064957829003601f168201915b505091505060006040518083038185876187965a03f15050506000848152610108602052604090819020600181015481547fe7c957c06e9a662c1a6c77366179f5b702b97651dc28eee7d5bf1dff6e40bb4a945033938893600160a060020a03909216916002019051600160a060020a03808716825260208201869052604082018590528316606082015260a0608082018181528354600261010060018316150260001901909116049183018290529060c08301908490801561076a5780601f1061073f5761010080835404028352916020019161076a565b820191906000526020600020905b81548152906001019060200180831161074d57829003601f168201915b5050965050505050505060405180910390a1600083815261010860205260408120805473ffffffffffffffffffffffffffffffffffffffff1916815560018101829055906107bb60028301826110bb565b5050600191505b50919050565b6000366040518083838082843782019150509250505060405180910390206107ef81610cc8565b156105a0575061010555565b600061080633610446565b156109e85761081484610fbe565b156108ca577f92ca3a80853e6663fa31fa10b99225f18d4902939b4c53a9caae9043f6efd0043385878686604051600160a060020a038087168252602082018690528416604082015260806060820181815290820183905260a082018484808284378201915050965050505050505060405180910390a184600160a060020a03168484846040518083838082843782019150509250505060006040518083038185876187965a03f150600093506109e892505050565b6000364360405180848480828437909101928352505060200191506040905051809103902090506108fa816105aa565b15801561091d575060008181526101086020526040902054600160a060020a0316155b156109e857600081815261010860205260409020805473ffffffffffffffffffffffffffffffffffffffff1916600160a060020a0387161781556001810185905561096c9060020184846110ff565b507f1733cbb53659d713b79580f79f3f9ff215f78a7c7aa45890f3b89fc5cddfbf32813386888787604051868152600160a060020a038087166020830152604082018690528416606082015260a06080820181815290820183905260c08201848480828437820191505097505050505050505060405180910390a15b949350505050565b600160a060020a033316600090815261010260205260408120549080821515610a1857610a94565b50506000828152610103602052604081206001810154600284900a929083161115610a94578054600190810182558101805483900390557fc7fb647e59b18047309aa15aad418e5d7ca96d173ad704f1031a2c3d7591734b3385604051600160a060020a03909216825260208201526040908101905180910390a15b50505050565b600036604051808383808284378201915050925050506040518091039020610ac181610cc8565b156105a057600154821115610ad5576105a0565b6000829055610ae2610e27565b7facbdb084c721332ac59f9b8e392196c9eb0e4932862da8eb9beaf0dad4f550da8260405190815260200160405180910390a15050565b600082815261010360209081526040808320600160a060020a038516845261010290925282205482811515610b515760009350610b65565b8160020a9050808360010154166000141593505b50505092915050565b60006002600183016101008110610b8157fe5b015492915050565b600036604051808383808284378201915050925050506040518091039020610bb081610cc8565b156105a05781600160a060020a0316ff5b60008036604051808383808284378201915050925050506040518091039020610be981610cc8565b15610a9457610bf783610446565b15610c0157610a94565b600160a060020a038416600090815261010260205260409020549150811515610c2957610a94565b610c31610e27565b600160a060020a0383166002836101008110610c4957fe5b0155600160a060020a038085166000908152610102602052604080822082905591851681528190208390557fb532073b38c83145e3e5135377a08bf9aab55bc0fd7c1179cd4fb995d2a5159c908590859051600160a060020a039283168152911660208201526040908101905180910390a150505050565b6101055481565b600160a060020a033316600090815261010260205260408120548180821515610cf057610e1f565b60008581526101036020526040902080549092501515610d4f57600080548355600180840191909155610104805491610d2b9190830161117d565b6002830181905561010480548792908110610d4257fe5b6000918252602090912001555b8260020a90508082600101541660001415610e1f577fe1c52dc63b719ade82e8bea94cc41a0d5d28e4aaf536adb5e9cccc9ff8c1aeda3386604051600160a060020a03909216825260208201526040908101905180910390a1815460019011610e0c576000858152610103602052604090206002015461010480549091908110610dd557fe5b6000918252602080832090910182905586825261010390526040812081815560018082018390556002909101919091559350610e1f565b8154600019018255600182018054821790555b505050919050565b6101045460005b81811015610ea057610108600061010483815481101515610e4b57fe5b600091825260208083209091015483528201929092526040018120805473ffffffffffffffffffffffffffffffffffffffff191681556001810182905590610e9660028301826110bb565b5050600101610e2e565b6105a061102e565b60015b6001548110156104a7575b60015481108015610ed557506002816101008110610ed057fe5b015415155b15610ee257600101610eb6565b60018054118015610f0357506001546002906101008110610eff57fe5b0154155b15610f175760018054600019019055610ee2565b60015481108015610f3957506001546002906101008110610f3457fe5b015415155b8015610f5257506002816101008110610f4e57fe5b0154155b15610fb9576001546002906101008110610f6857fe5b01546002826101008110610f7857fe5b01558061010260006002836101008110610f8e57fe5b01548152602001908152602001600020819055506000600260015461010081101515610fb657fe5b01555b610eab565b6000610fc933610446565b156104625761010754610fda6110b1565b1115610ff357600061010655610fee6110b1565b610107555b610106548281011080159061101057506101055482610106540111155b1561102657506101068054820190556001610462565b506000919050565b6101045460005b818110156110a45761010480548290811061104c57fe5b6000918252602090912001541561109c5761010360006101048381548110151561107257fe5b60009182526020808320909101548352820192909252604001812081815560018101829055600201555b600101611035565b6105a061010460006111a1565b6201518042045b90565b50805460018160011615610100020316600290046000825580601f106110e157506104a7565b601f0160209004906000526020600020908101906104a791906111bb565b828054600181600116156101000203166002900490600052602060002090601f016020900481019282601f106111405782800160ff1982351617855561116d565b8280016001018555821561116d579182015b8281111561116d578235825591602001919060010190611152565b506111799291506111bb565b5090565b815481835581811511610441576000838152602090206104419181019083016111bb565b50805460008255906000526020600020908101906104a791905b6110b891905b8082111561117957600081556001016111c15600a165627a7a72305820eee64b9771811ddeb9e1df93f7cda75c3af4fa412fcf141fab4bc27fa5149a880029",
  "source": "pragma solidity ^0.4.11;\n//sol Wallet\n// Multi-sig, daily-limited account proxy/wallet.\n// @authors:\n// Gav Wood <g@ethdev.com>\n// inheritable \"property\" contract that enables methods to be protected by requiring the acquiescence of either a\n// single, or, crucially, each of a number of, designated owners.\n// usage:\n// use modifiers onlyowner (just own owned) or onlymanyowners(hash), whereby the same hash must be provided by\n// some number (specified in constructor) of the set of owners (specified in the constructor, modifiable) before the\n// interior is executed.\ncontract multiowned {\n\n\t// TYPES\n\n    // struct for the status of a pending operation.\n    struct PendingState {\n        uint yetNeeded;\n        uint ownersDone;\n        uint index;\n    }\n\n\t// EVENTS\n\n    // this contract only has six types of events: it can accept a confirmation, in which case\n    // we record owner and operation (hash) alongside it.\n    event Confirmation(address owner, bytes32 operation);\n    event Revoke(address owner, bytes32 operation);\n    // some others are in the case of an owner changing.\n    event OwnerChanged(address oldOwner, address newOwner);\n    event OwnerAdded(address newOwner);\n    event OwnerRemoved(address oldOwner);\n    // the last one is emitted if the required signatures change\n    event RequirementChanged(uint newRequirement);\n\n\t// MODIFIERS\n\n    // simple single-sig function modifier.\n    modifier onlyowner {\n        if (isOwner(msg.sender))\n            _;\n    }\n    // multi-sig function modifier: the operation must have an intrinsic hash in order\n    // that later attempts can be realised as the same underlying operation and\n    // thus count as confirmations.\n    modifier onlymanyowners(bytes32 _operation) {\n        if (confirmAndCheck(_operation))\n            _;\n    }\n\n\t// METHODS\n\n    // constructor is given number of sigs required to do protected \"onlymanyowners\" transactions\n    // as well as the selection of addresses capable of confirming them.\n    function multiowned(address[] _owners, uint _required) {\n        m_numOwners = _owners.length + 1;\n        m_owners[1] = uint(msg.sender);\n        m_ownerIndex[uint(msg.sender)] = 1;\n        for (uint i = 0; i < _owners.length; ++i)\n        {\n            m_owners[2 + i] = uint(_owners[i]);\n            m_ownerIndex[uint(_owners[i])] = 2 + i;\n        }\n        m_required = _required;\n    }\n\n    // Revokes a prior confirmation of the given operation\n    function revoke(bytes32 _operation) external {\n        uint ownerIndex = m_ownerIndex[uint(msg.sender)];\n        // make sure they're an owner\n        if (ownerIndex == 0) return;\n        uint ownerIndexBit = 2**ownerIndex;\n        var pending = m_pending[_operation];\n        if (pending.ownersDone & ownerIndexBit > 0) {\n            pending.yetNeeded++;\n            pending.ownersDone -= ownerIndexBit;\n            Revoke(msg.sender, _operation);\n        }\n    }\n\n    // Replaces an owner `_from` with another `_to`.\n    function changeOwner(address _from, address _to) onlymanyowners(sha3(msg.data)) external {\n        if (isOwner(_to)) return;\n        uint ownerIndex = m_ownerIndex[uint(_from)];\n        if (ownerIndex == 0) return;\n\n        clearPending();\n        m_owners[ownerIndex] = uint(_to);\n        m_ownerIndex[uint(_from)] = 0;\n        m_ownerIndex[uint(_to)] = ownerIndex;\n        OwnerChanged(_from, _to);\n    }\n\n    function addOwner(address _owner) onlymanyowners(sha3(msg.data)) external {\n        if (isOwner(_owner)) return;\n\n        clearPending();\n        if (m_numOwners >= c_maxOwners)\n            reorganizeOwners();\n        if (m_numOwners >= c_maxOwners)\n            return;\n        m_numOwners++;\n        m_owners[m_numOwners] = uint(_owner);\n        m_ownerIndex[uint(_owner)] = m_numOwners;\n        OwnerAdded(_owner);\n    }\n\n    function removeOwner(address _owner) onlymanyowners(sha3(msg.data)) external {\n        uint ownerIndex = m_ownerIndex[uint(_owner)];\n        if (ownerIndex == 0) return;\n        if (m_required > m_numOwners - 1) return;\n\n        m_owners[ownerIndex] = 0;\n        m_ownerIndex[uint(_owner)] = 0;\n        clearPending();\n        reorganizeOwners(); //make sure m_numOwner is equal to the number of owners and always points to the optimal free slot\n        OwnerRemoved(_owner);\n    }\n\n    function changeRequirement(uint _newRequired) onlymanyowners(sha3(msg.data)) external {\n        if (_newRequired > m_numOwners) return;\n        m_required = _newRequired;\n        clearPending();\n        RequirementChanged(_newRequired);\n    }\n\n    // Gets an owner by 0-indexed position (using numOwners as the count)\n    function getOwner(uint ownerIndex) external constant returns (address) {\n        return address(m_owners[ownerIndex + 1]);\n    }\n\n    function isOwner(address _addr) returns (bool) {\n        return m_ownerIndex[uint(_addr)] > 0;\n    }\n\n    function hasConfirmed(bytes32 _operation, address _owner) constant returns (bool) {\n        var pending = m_pending[_operation];\n        uint ownerIndex = m_ownerIndex[uint(_owner)];\n\n        // make sure they're an owner\n        if (ownerIndex == 0) return false;\n\n        // determine the bit to set for this owner.\n        uint ownerIndexBit = 2**ownerIndex;\n        return !(pending.ownersDone & ownerIndexBit == 0);\n    }\n\n    // INTERNAL METHODS\n\n    function confirmAndCheck(bytes32 _operation) internal returns (bool) {\n        // determine what index the present sender is:\n        uint ownerIndex = m_ownerIndex[uint(msg.sender)];\n        // make sure they're an owner\n        if (ownerIndex == 0) return;\n\n        var pending = m_pending[_operation];\n        // if we're not yet working on this operation, switch over and reset the confirmation status.\n        if (pending.yetNeeded == 0) {\n            // reset count of confirmations needed.\n            pending.yetNeeded = m_required;\n            // reset which owners have confirmed (none) - set our bitmap to 0.\n            pending.ownersDone = 0;\n            pending.index = m_pendingIndex.length++;\n            m_pendingIndex[pending.index] = _operation;\n        }\n        // determine the bit to set for this owner.\n        uint ownerIndexBit = 2**ownerIndex;\n        // make sure we (the message sender) haven't confirmed this operation previously.\n        if (pending.ownersDone & ownerIndexBit == 0) {\n            Confirmation(msg.sender, _operation);\n            // ok - check if count is enough to go ahead.\n            if (pending.yetNeeded <= 1) {\n                // enough confirmations: reset and run interior.\n                delete m_pendingIndex[m_pending[_operation].index];\n                delete m_pending[_operation];\n                return true;\n            }\n            else\n            {\n                // not enough: record that this owner in particular confirmed.\n                pending.yetNeeded--;\n                pending.ownersDone |= ownerIndexBit;\n            }\n        }\n    }\n\n    function reorganizeOwners() private {\n        uint free = 1;\n        while (free < m_numOwners)\n        {\n            while (free < m_numOwners && m_owners[free] != 0) free++;\n            while (m_numOwners > 1 && m_owners[m_numOwners] == 0) m_numOwners--;\n            if (free < m_numOwners && m_owners[m_numOwners] != 0 && m_owners[free] == 0)\n            {\n                m_owners[free] = m_owners[m_numOwners];\n                m_ownerIndex[m_owners[free]] = free;\n                m_owners[m_numOwners] = 0;\n            }\n        }\n    }\n\n    function clearPending() internal {\n        uint length = m_pendingIndex.length;\n        for (uint i = 0; i < length; ++i)\n            if (m_pendingIndex[i] != 0)\n                delete m_pending[m_pendingIndex[i]];\n        delete m_pendingIndex;\n    }\n\n   \t// FIELDS\n\n    // the number of owners that must confirm the same operation before it is run.\n    uint public m_required;\n    // pointer used to find a free slot in m_owners\n    uint public m_numOwners;\n\n    // list of owners\n    uint[256] m_owners;\n    uint constant c_maxOwners = 250;\n    // index on the list of owners to allow reverse lookup\n    mapping(uint => uint) m_ownerIndex;\n    // the ongoing operations.\n    mapping(bytes32 => PendingState) m_pending;\n    bytes32[] m_pendingIndex;\n}\n\n// inheritable \"property\" contract that enables methods to be protected by placing a linear limit (specifiable)\n// on a particular resource per calendar day. is multiowned to allow the limit to be altered. resource that method\n// uses is specified in the modifier.\ncontract daylimit is multiowned {\n\n\t// MODIFIERS\n\n    // simple modifier for daily limit.\n    modifier limitedDaily(uint _value) {\n        if (underLimit(_value))\n            _;\n    }\n\n\t// METHODS\n\n    // constructor - stores initial daily limit and records the present day's index.\n    function daylimit(uint _limit) {\n        m_dailyLimit = _limit;\n        m_lastDay = today();\n    }\n    // (re)sets the daily limit. needs many of the owners to confirm. doesn't alter the amount already spent today.\n    function setDailyLimit(uint _newLimit) onlymanyowners(sha3(msg.data)) external {\n        m_dailyLimit = _newLimit;\n    }\n    // resets the amount already spent today. needs many of the owners to confirm.\n    function resetSpentToday() onlymanyowners(sha3(msg.data)) external {\n        m_spentToday = 0;\n    }\n\n    // INTERNAL METHODS\n\n    // checks to see if there is at least `_value` left from the daily limit today. if there is, subtracts it and\n    // returns true. otherwise just returns false.\n    function underLimit(uint _value) internal onlyowner returns (bool) {\n        // reset the spend limit if we're on a different day to last time.\n        if (today() > m_lastDay) {\n            m_spentToday = 0;\n            m_lastDay = today();\n        }\n        // check to see if there's enough left - if so, subtract and return true.\n        // overflow protection                    // dailyLimit check\n        if (m_spentToday + _value >= m_spentToday && m_spentToday + _value <= m_dailyLimit) {\n            m_spentToday += _value;\n            return true;\n        }\n        return false;\n    }\n    // determines today's index.\n    function today() private constant returns (uint) { return now / 1 days; }\n\n\t// FIELDS\n\n    uint public m_dailyLimit;\n    uint public m_spentToday;\n    uint public m_lastDay;\n}\n\n// interface contract for multisig proxy contracts; see below for docs.\ncontract multisig {\n\n\t// EVENTS\n\n    // logged events:\n    // Funds has arrived into the wallet (record how much).\n    event Deposit(address _from, uint value);\n    // Single transaction going out of the wallet (record who signed for it, how much, and to whom it's going).\n    event SingleTransact(address owner, uint value, address to, bytes data);\n    // Multi-sig transaction going out of the wallet (record who signed for it last, the operation hash, how much, and to whom it's going).\n    event MultiTransact(address owner, bytes32 operation, uint value, address to, bytes data);\n    // Confirmation still needed for a transaction.\n    event ConfirmationNeeded(bytes32 operation, address initiator, uint value, address to, bytes data);\n\n    // FUNCTIONS\n\n    function changeOwner(address _from, address _to) external;\n    function execute(address _to, uint _value, bytes _data) external returns (bytes32);\n    function confirm(bytes32 _h) returns (bool);\n}\n\n// usage:\n// bytes32 h = Wallet(w).from(oneOwner).execute(to, value, data);\n// Wallet(w).from(anotherOwner).confirm(h);\ncontract Wallet is multisig, multiowned, daylimit {\n\n\t// TYPES\n\n    // Transaction structure to remember details of transaction lest it need be saved for a later call.\n    struct Transaction {\n        address to;\n        uint value;\n        bytes data;\n    }\n\n    // METHODS\n\n    // constructor - just pass on the owner array to the multiowned and\n    // the limit to daylimit\n    function Wallet(address[] _owners, uint _required, uint _daylimit)\n            multiowned(_owners, _required) daylimit(_daylimit) {\n    }\n\n    // kills the contract sending everything to `_to`.\n    function kill(address _to) onlymanyowners(sha3(msg.data)) external {\n        suicide(_to);\n    }\n\n    // gets called when no other function matches\n    function() payable {\n        // just being sent some cash?\n        if (msg.value > 0)\n            Deposit(msg.sender, msg.value);\n    }\n\n    // Outside-visible transact entry point. Executes transaction immediately if below daily spend limit.\n    // If not, goes into multisig process. We provide a hash on return to allow the sender to provide\n    // shortcuts for the other confirmations (allowing them to avoid replicating the _to, _value\n    // and _data arguments). They still get the option of using them if they want, anyways.\n    function execute(address _to, uint _value, bytes _data) external onlyowner returns (bytes32 _r) {\n        // first, take the opportunity to check that we're under the daily limit.\n        if (underLimit(_value)) {\n            SingleTransact(msg.sender, _value, _to, _data);\n            // yes - just execute the call.\n            _to.call.value(_value)(_data);\n            return 0;\n        }\n        // determine our operation hash.\n        _r = sha3(msg.data, block.number);\n        if (!confirm(_r) && m_txs[_r].to == 0) {\n            m_txs[_r].to = _to;\n            m_txs[_r].value = _value;\n            m_txs[_r].data = _data;\n            ConfirmationNeeded(_r, msg.sender, _value, _to, _data);\n        }\n    }\n\n    // confirm a transaction through just the hash. we use the previous transactions map, m_txs, in order\n    // to determine the body of the transaction from the hash provided.\n    function confirm(bytes32 _h) onlymanyowners(_h) returns (bool) {\n        if (m_txs[_h].to != 0) {\n            m_txs[_h].to.call.value(m_txs[_h].value)(m_txs[_h].data);\n            MultiTransact(msg.sender, _h, m_txs[_h].value, m_txs[_h].to, m_txs[_h].data);\n            delete m_txs[_h];\n            return true;\n        }\n    }\n\n    // INTERNAL METHODS\n\n    function clearPending() internal {\n        uint length = m_pendingIndex.length;\n        for (uint i = 0; i < length; ++i)\n            delete m_txs[m_pendingIndex[i]];\n        super.clearPending();\n    }\n\n\t// FIELDS\n\n    // pending transactions we have at present.\n    mapping (bytes32 => Transaction) m_txs;\n}",
  "sourcePath": "/Users/studnev/dev4bc/contracts/contracts/wallet/Wallet.sol",
  "compiler": {
    "name": "solc",
    "version": "0.4.18+commit.9cf6e910.Emscripten.clang"
  },
  "schemaVersion": "1.0.1",
  "updatedAt": "2018-02-12T13:07:15.849Z"
}